{
  "_format": "hh-sol-artifact-1",
  "contractName": "FAH",
  "sourceName": "contracts/FAH.sol",
  "abi": [
    {
      "inputs": [
        {
          "internalType": "uint256",
          "name": "initialSupply",
          "type": "uint256"
        },
        {
          "internalType": "uint8",
          "name": "_decimals_TEMP",
          "type": "uint8"
        },
        {
          "internalType": "string",
          "name": "_name",
          "type": "string"
        },
        {
          "internalType": "string",
          "name": "_symbol",
          "type": "string"
        }
      ],
      "stateMutability": "nonpayable",
      "type": "constructor"
    },
    {
      "anonymous": false,
      "inputs": [
        {
          "indexed": true,
          "internalType": "address",
          "name": "owner",
          "type": "address"
        },
        {
          "indexed": true,
          "internalType": "address",
          "name": "spender",
          "type": "address"
        },
        {
          "indexed": false,
          "internalType": "uint256",
          "name": "value",
          "type": "uint256"
        }
      ],
      "name": "Approval",
      "type": "event"
    },
    {
      "anonymous": false,
      "inputs": [
        {
          "indexed": false,
          "internalType": "address",
          "name": "account",
          "type": "address"
        }
      ],
      "name": "Paused",
      "type": "event"
    },
    {
      "anonymous": false,
      "inputs": [
        {
          "indexed": true,
          "internalType": "bytes32",
          "name": "role",
          "type": "bytes32"
        },
        {
          "indexed": true,
          "internalType": "bytes32",
          "name": "previousAdminRole",
          "type": "bytes32"
        },
        {
          "indexed": true,
          "internalType": "bytes32",
          "name": "newAdminRole",
          "type": "bytes32"
        }
      ],
      "name": "RoleAdminChanged",
      "type": "event"
    },
    {
      "anonymous": false,
      "inputs": [
        {
          "indexed": true,
          "internalType": "bytes32",
          "name": "role",
          "type": "bytes32"
        },
        {
          "indexed": true,
          "internalType": "address",
          "name": "account",
          "type": "address"
        },
        {
          "indexed": true,
          "internalType": "address",
          "name": "sender",
          "type": "address"
        }
      ],
      "name": "RoleGranted",
      "type": "event"
    },
    {
      "anonymous": false,
      "inputs": [
        {
          "indexed": true,
          "internalType": "bytes32",
          "name": "role",
          "type": "bytes32"
        },
        {
          "indexed": true,
          "internalType": "address",
          "name": "account",
          "type": "address"
        },
        {
          "indexed": true,
          "internalType": "address",
          "name": "sender",
          "type": "address"
        }
      ],
      "name": "RoleRevoked",
      "type": "event"
    },
    {
      "anonymous": false,
      "inputs": [
        {
          "indexed": true,
          "internalType": "address",
          "name": "from",
          "type": "address"
        },
        {
          "indexed": true,
          "internalType": "address",
          "name": "to",
          "type": "address"
        },
        {
          "indexed": false,
          "internalType": "uint256",
          "name": "value",
          "type": "uint256"
        }
      ],
      "name": "Transfer",
      "type": "event"
    },
    {
      "anonymous": false,
      "inputs": [
        {
          "indexed": false,
          "internalType": "address",
          "name": "account",
          "type": "address"
        }
      ],
      "name": "Unpaused",
      "type": "event"
    },
    {
      "inputs": [],
      "name": "DEFAULT_ADMIN_ROLE",
      "outputs": [
        {
          "internalType": "bytes32",
          "name": "",
          "type": "bytes32"
        }
      ],
      "stateMutability": "view",
      "type": "function"
    },
    {
      "inputs": [],
      "name": "EXTERNAL_MINTER",
      "outputs": [
        {
          "internalType": "bytes32",
          "name": "",
          "type": "bytes32"
        }
      ],
      "stateMutability": "view",
      "type": "function"
    },
    {
      "inputs": [],
      "name": "EXTERNAL_MINTER_ADDRESS",
      "outputs": [
        {
          "internalType": "address",
          "name": "",
          "type": "address"
        }
      ],
      "stateMutability": "view",
      "type": "function"
    },
    {
      "inputs": [],
      "name": "MINTER_ROLE",
      "outputs": [
        {
          "internalType": "bytes32",
          "name": "",
          "type": "bytes32"
        }
      ],
      "stateMutability": "view",
      "type": "function"
    },
    {
      "inputs": [],
      "name": "PAUSER_ROLE",
      "outputs": [
        {
          "internalType": "bytes32",
          "name": "",
          "type": "bytes32"
        }
      ],
      "stateMutability": "view",
      "type": "function"
    },
    {
      "inputs": [
        {
          "internalType": "address",
          "name": "owner",
          "type": "address"
        },
        {
          "internalType": "address",
          "name": "spender",
          "type": "address"
        }
      ],
      "name": "allowance",
      "outputs": [
        {
          "internalType": "uint256",
          "name": "",
          "type": "uint256"
        }
      ],
      "stateMutability": "view",
      "type": "function"
    },
    {
      "inputs": [
        {
          "internalType": "address",
          "name": "spender",
          "type": "address"
        },
        {
          "internalType": "uint256",
          "name": "amount",
          "type": "uint256"
        }
      ],
      "name": "approve",
      "outputs": [
        {
          "internalType": "bool",
          "name": "",
          "type": "bool"
        }
      ],
      "stateMutability": "nonpayable",
      "type": "function"
    },
    {
      "inputs": [
        {
          "internalType": "address",
          "name": "account",
          "type": "address"
        }
      ],
      "name": "balanceOf",
      "outputs": [
        {
          "internalType": "uint256",
          "name": "",
          "type": "uint256"
        }
      ],
      "stateMutability": "view",
      "type": "function"
    },
    {
      "inputs": [
        {
          "internalType": "uint256",
          "name": "amount",
          "type": "uint256"
        }
      ],
      "name": "burn",
      "outputs": [],
      "stateMutability": "nonpayable",
      "type": "function"
    },
    {
      "inputs": [
        {
          "internalType": "address",
          "name": "account",
          "type": "address"
        },
        {
          "internalType": "uint256",
          "name": "amount",
          "type": "uint256"
        }
      ],
      "name": "burnFrom",
      "outputs": [],
      "stateMutability": "nonpayable",
      "type": "function"
    },
    {
      "inputs": [],
      "name": "decimals",
      "outputs": [
        {
          "internalType": "uint8",
          "name": "",
          "type": "uint8"
        }
      ],
      "stateMutability": "view",
      "type": "function"
    },
    {
      "inputs": [
        {
          "internalType": "address",
          "name": "spender",
          "type": "address"
        },
        {
          "internalType": "uint256",
          "name": "subtractedValue",
          "type": "uint256"
        }
      ],
      "name": "decreaseAllowance",
      "outputs": [
        {
          "internalType": "bool",
          "name": "",
          "type": "bool"
        }
      ],
      "stateMutability": "nonpayable",
      "type": "function"
    },
    {
      "inputs": [
        {
          "internalType": "uint256",
          "name": "_amount",
          "type": "uint256"
        },
        {
          "internalType": "address",
          "name": "_to",
          "type": "address"
        }
      ],
      "name": "externalMint",
      "outputs": [],
      "stateMutability": "nonpayable",
      "type": "function"
    },
    {
      "inputs": [
        {
          "internalType": "bytes32",
          "name": "role",
          "type": "bytes32"
        }
      ],
      "name": "getRoleAdmin",
      "outputs": [
        {
          "internalType": "bytes32",
          "name": "",
          "type": "bytes32"
        }
      ],
      "stateMutability": "view",
      "type": "function"
    },
    {
      "inputs": [
        {
          "internalType": "bytes32",
          "name": "role",
          "type": "bytes32"
        },
        {
          "internalType": "uint256",
          "name": "index",
          "type": "uint256"
        }
      ],
      "name": "getRoleMember",
      "outputs": [
        {
          "internalType": "address",
          "name": "",
          "type": "address"
        }
      ],
      "stateMutability": "view",
      "type": "function"
    },
    {
      "inputs": [
        {
          "internalType": "bytes32",
          "name": "role",
          "type": "bytes32"
        }
      ],
      "name": "getRoleMemberCount",
      "outputs": [
        {
          "internalType": "uint256",
          "name": "",
          "type": "uint256"
        }
      ],
      "stateMutability": "view",
      "type": "function"
    },
    {
      "inputs": [
        {
          "internalType": "bytes32",
          "name": "role",
          "type": "bytes32"
        },
        {
          "internalType": "address",
          "name": "account",
          "type": "address"
        }
      ],
      "name": "grantRole",
      "outputs": [],
      "stateMutability": "nonpayable",
      "type": "function"
    },
    {
      "inputs": [
        {
          "internalType": "bytes32",
          "name": "role",
          "type": "bytes32"
        },
        {
          "internalType": "address",
          "name": "account",
          "type": "address"
        }
      ],
      "name": "hasRole",
      "outputs": [
        {
          "internalType": "bool",
          "name": "",
          "type": "bool"
        }
      ],
      "stateMutability": "view",
      "type": "function"
    },
    {
      "inputs": [
        {
          "internalType": "address",
          "name": "spender",
          "type": "address"
        },
        {
          "internalType": "uint256",
          "name": "addedValue",
          "type": "uint256"
        }
      ],
      "name": "increaseAllowance",
      "outputs": [
        {
          "internalType": "bool",
          "name": "",
          "type": "bool"
        }
      ],
      "stateMutability": "nonpayable",
      "type": "function"
    },
    {
      "inputs": [
        {
          "internalType": "address",
          "name": "to",
          "type": "address"
        },
        {
          "internalType": "uint256",
          "name": "amount",
          "type": "uint256"
        }
      ],
      "name": "mint",
      "outputs": [],
      "stateMutability": "nonpayable",
      "type": "function"
    },
    {
      "inputs": [],
      "name": "name",
      "outputs": [
        {
          "internalType": "string",
          "name": "",
          "type": "string"
        }
      ],
      "stateMutability": "view",
      "type": "function"
    },
    {
      "inputs": [],
      "name": "pause",
      "outputs": [],
      "stateMutability": "nonpayable",
      "type": "function"
    },
    {
      "inputs": [],
      "name": "paused",
      "outputs": [
        {
          "internalType": "bool",
          "name": "",
          "type": "bool"
        }
      ],
      "stateMutability": "view",
      "type": "function"
    },
    {
      "inputs": [
        {
          "internalType": "bytes32",
          "name": "role",
          "type": "bytes32"
        },
        {
          "internalType": "address",
          "name": "account",
          "type": "address"
        }
      ],
      "name": "renounceRole",
      "outputs": [],
      "stateMutability": "nonpayable",
      "type": "function"
    },
    {
      "inputs": [
        {
          "internalType": "bytes32",
          "name": "role",
          "type": "bytes32"
        },
        {
          "internalType": "address",
          "name": "account",
          "type": "address"
        }
      ],
      "name": "revokeRole",
      "outputs": [],
      "stateMutability": "nonpayable",
      "type": "function"
    },
    {
      "inputs": [
        {
          "internalType": "bytes4",
          "name": "interfaceId",
          "type": "bytes4"
        }
      ],
      "name": "supportsInterface",
      "outputs": [
        {
          "internalType": "bool",
          "name": "",
          "type": "bool"
        }
      ],
      "stateMutability": "view",
      "type": "function"
    },
    {
      "inputs": [],
      "name": "symbol",
      "outputs": [
        {
          "internalType": "string",
          "name": "",
          "type": "string"
        }
      ],
      "stateMutability": "view",
      "type": "function"
    },
    {
      "inputs": [],
      "name": "totalSupply",
      "outputs": [
        {
          "internalType": "uint256",
          "name": "",
          "type": "uint256"
        }
      ],
      "stateMutability": "view",
      "type": "function"
    },
    {
      "inputs": [
        {
          "internalType": "address",
          "name": "recipient",
          "type": "address"
        },
        {
          "internalType": "uint256",
          "name": "amount",
          "type": "uint256"
        }
      ],
      "name": "transfer",
      "outputs": [
        {
          "internalType": "bool",
          "name": "",
          "type": "bool"
        }
      ],
      "stateMutability": "nonpayable",
      "type": "function"
    },
    {
      "inputs": [
        {
          "internalType": "address",
          "name": "sender",
          "type": "address"
        },
        {
          "internalType": "address",
          "name": "recipient",
          "type": "address"
        },
        {
          "internalType": "uint256",
          "name": "amount",
          "type": "uint256"
        }
      ],
      "name": "transferFrom",
      "outputs": [
        {
          "internalType": "bool",
          "name": "",
          "type": "bool"
        }
      ],
      "stateMutability": "nonpayable",
      "type": "function"
    },
    {
      "inputs": [],
      "name": "unpause",
      "outputs": [],
      "stateMutability": "nonpayable",
      "type": "function"
    },
    {
      "inputs": [
        {
          "internalType": "address",
          "name": "_address",
          "type": "address"
        }
      ],
      "name": "updateMinter",
      "outputs": [],
      "stateMutability": "nonpayable",
      "type": "function"
    }
  ],
  "bytecode": "0x60806040523480156200001157600080fd5b506040516200456f3803806200456f833981810160405281019062000037919062000775565b838383838181818181600590805190602001906200005792919062000625565b5080600690805190602001906200007092919062000625565b5050506000600760006101000a81548160ff021916908315150217905550620000b26000801b620000a66200018060201b60201c565b6200018860201b60201c565b620000f37f9f2df0fed2c77648de5860a4cc508cd0818c85b8b8a1ab4ceeef8d981c8956a6620000e76200018060201b60201c565b6200018860201b60201c565b620001347f65d7a28e3265b37a6474929f336521b332c1681b933f6cb9f3376673440d862a620001286200018060201b60201c565b6200018860201b60201c565b5050620001576200014a6200018060201b60201c565b85620001d060201b60201c565b82600760016101000a81548160ff021916908360ff160217905550505050505050505062000b48565b600033905090565b6200019f82826200033660201b620012e41760201c565b620001cb81600160008581526020019081526020016000206200034c60201b620012f21790919060201c565b505050565b600073ffffffffffffffffffffffffffffffffffffffff168273ffffffffffffffffffffffffffffffffffffffff16141562000243576040517f08c379a00000000000000000000000000000000000000000000000000000000081526004016200023a90620008ce565b60405180910390fd5b62000257600083836200038460201b60201c565b80600460008282546200026b9190620009a7565b9250508190555080600260008473ffffffffffffffffffffffffffffffffffffffff1673ffffffffffffffffffffffffffffffffffffffff1681526020019081526020016000206000828254620002c39190620009a7565b925050819055508173ffffffffffffffffffffffffffffffffffffffff16600073ffffffffffffffffffffffffffffffffffffffff167fddf252ad1be2c89b69c2b068fc378daa952ba7f163c4a11628f55a4df523b3ef836040516200032a919062000912565b60405180910390a35050565b620003488282620003a160201b60201c565b5050565b60006200037c836000018373ffffffffffffffffffffffffffffffffffffffff1660001b6200049260201b60201c565b905092915050565b6200039c8383836200050c60201b620013221760201c565b505050565b620003b382826200057c60201b60201c565b6200048e57600160008084815260200190815260200160002060000160008373ffffffffffffffffffffffffffffffffffffffff1673ffffffffffffffffffffffffffffffffffffffff16815260200190815260200160002060006101000a81548160ff021916908315150217905550620004336200018060201b60201c565b73ffffffffffffffffffffffffffffffffffffffff168173ffffffffffffffffffffffffffffffffffffffff16837f2f8788117e7eff1d82e926ec794901d17c78024a50270940304540a733656f0d60405160405180910390a45b5050565b6000620004a68383620005e660201b60201c565b6200050157826000018290806001815401808255809150506001900390600052602060002001600090919091909150558260000180549050836001016000848152602001908152602001600020819055506001905062000506565b600090505b92915050565b620005248383836200060960201b6200137a1760201c565b620005346200060e60201b60201c565b1562000577576040517f08c379a00000000000000000000000000000000000000000000000000000000081526004016200056e90620008f0565b60405180910390fd5b505050565b600080600084815260200190815260200160002060000160008373ffffffffffffffffffffffffffffffffffffffff1673ffffffffffffffffffffffffffffffffffffffff16815260200190815260200160002060009054906101000a900460ff16905092915050565b600080836001016000848152602001908152602001600020541415905092915050565b505050565b6000600760009054906101000a900460ff16905090565b828054620006339062000a51565b90600052602060002090601f016020900481019282620006575760008555620006a3565b82601f106200067257805160ff1916838001178555620006a3565b82800160010185558215620006a3579182015b82811115620006a257825182559160200191906001019062000685565b5b509050620006b29190620006b6565b5090565b5b80821115620006d1576000816000905550600101620006b7565b5090565b6000620006ec620006e68462000963565b6200092f565b9050828152602081018484840111156200070557600080fd5b6200071284828562000a1b565b509392505050565b600082601f8301126200072c57600080fd5b81516200073e848260208601620006d5565b91505092915050565b600081519050620007588162000b14565b92915050565b6000815190506200076f8162000b2e565b92915050565b600080600080608085870312156200078c57600080fd5b60006200079c8782880162000747565b9450506020620007af878288016200075e565b935050604085015167ffffffffffffffff811115620007cd57600080fd5b620007db878288016200071a565b925050606085015167ffffffffffffffff811115620007f957600080fd5b62000807878288016200071a565b91505092959194509250565b600062000822601f8362000996565b91507f45524332303a206d696e7420746f20746865207a65726f2061646472657373006000830152602082019050919050565b600062000864602a8362000996565b91507f45524332305061757361626c653a20746f6b656e207472616e7366657220776860008301527f696c6520706175736564000000000000000000000000000000000000000000006020830152604082019050919050565b620008c88162000a04565b82525050565b60006020820190508181036000830152620008e98162000813565b9050919050565b600060208201905081810360008301526200090b8162000855565b9050919050565b6000602082019050620009296000830184620008bd565b92915050565b6000604051905081810181811067ffffffffffffffff8211171562000959576200095862000ae5565b5b8060405250919050565b600067ffffffffffffffff82111562000981576200098062000ae5565b5b601f19601f8301169050602081019050919050565b600082825260208201905092915050565b6000620009b48262000a04565b9150620009c18362000a04565b9250827fffffffffffffffffffffffffffffffffffffffffffffffffffffffffffffffff03821115620009f957620009f862000a87565b5b828201905092915050565b6000819050919050565b600060ff82169050919050565b60005b8381101562000a3b57808201518184015260208101905062000a1e565b8381111562000a4b576000848401525b50505050565b6000600282049050600182168062000a6a57607f821691505b6020821081141562000a815762000a8062000ab6565b5b50919050565b7f4e487b7100000000000000000000000000000000000000000000000000000000600052601160045260246000fd5b7f4e487b7100000000000000000000000000000000000000000000000000000000600052602260045260246000fd5b7f4e487b7100000000000000000000000000000000000000000000000000000000600052604160045260246000fd5b62000b1f8162000a04565b811462000b2b57600080fd5b50565b62000b398162000a0e565b811462000b4557600080fd5b50565b613a178062000b586000396000f3fe608060405234801561001057600080fd5b50600436106101f05760003560e01c80635c975abb1161010f578063a457c2d7116100a2578063d547741f11610071578063d547741f146105cd578063dd62ed3e146105e9578063e63ab1e914610619578063ff42012014610637576101f0565b8063a457c2d71461051f578063a9059cbb1461054f578063ca15c8731461057f578063d5391393146105af576101f0565b80639010d07c116100de5780639010d07c1461048357806391d14854146104b357806395d89b41146104e3578063a217fddf14610501576101f0565b80635c975abb1461040f57806370a082311461042d57806379cc67901461045d5780638456cb5914610479576101f0565b8063313ce567116101875780633f4ba83a116101565780633f4ba83a146103b157806340c10f19146103bb57806342966c68146103d75780634eb03f6e146103f3576101f0565b8063313ce5671461032b57806336568abe14610349578063395093511461036557806339a8c66114610395576101f0565b806318160ddd116101c357806318160ddd1461029157806323b872dd146102af578063248a9ca3146102df5780632f2ff15d1461030f576101f0565b806301ffc9a7146101f557806306fdde0314610225578063095ea7b3146102435780631117258614610273575b600080fd5b61020f600480360381019061020a9190612865565b610655565b60405161021c9190613343565b60405180910390f35b61022d6106cf565b60405161023a9190613379565b60405180910390f35b61025d60048036038101906102589190612788565b610761565b60405161026a9190613343565b60405180910390f35b61027b61077f565b604051610288919061335e565b60405180910390f35b6102996107a3565b6040516102a691906136bb565b60405180910390f35b6102c960048036038101906102c49190612739565b6107ad565b6040516102d69190613343565b60405180910390f35b6102f960048036038101906102f491906127c4565b6108ae565b604051610306919061335e565b60405180910390f35b610329600480360381019061032491906127ed565b6108cd565b005b610333610901565b60405161034091906136d6565b60405180910390f35b610363600480360381019061035e91906127ed565b610918565b005b61037f600480360381019061037a9190612788565b61094c565b60405161038c9190613343565b60405180910390f35b6103af60048036038101906103aa91906128b7565b6109f8565b005b6103b9610ae7565b005b6103d560048036038101906103d09190612788565b610b61565b005b6103f160048036038101906103ec919061288e565b610bdf565b005b61040d600480360381019061040891906126d4565b610bf3565b005b610417610df5565b6040516104249190613343565b60405180910390f35b610447600480360381019061044291906126d4565b610e0c565b60405161045491906136bb565b60405180910390f35b61047760048036038101906104729190612788565b610e55565b005b610481610ed9565b005b61049d60048036038101906104989190612829565b610f53565b6040516104aa9190613328565b60405180910390f35b6104cd60048036038101906104c891906127ed565b610f82565b6040516104da9190613343565b60405180910390f35b6104eb610fec565b6040516104f89190613379565b60405180910390f35b61050961107e565b604051610516919061335e565b60405180910390f35b61053960048036038101906105349190612788565b611085565b6040516105469190613343565b60405180910390f35b61056960048036038101906105649190612788565b611179565b6040516105769190613343565b60405180910390f35b610599600480360381019061059491906127c4565b611197565b6040516105a691906136bb565b60405180910390f35b6105b76111bb565b6040516105c4919061335e565b60405180910390f35b6105e760048036038101906105e291906127ed565b6111df565b005b61060360048036038101906105fe91906126fd565b611213565b60405161061091906136bb565b60405180910390f35b61062161129a565b60405161062e919061335e565b60405180910390f35b61063f6112be565b60405161064c9190613328565b60405180910390f35b60007f5a05180f000000000000000000000000000000000000000000000000000000007bffffffffffffffffffffffffffffffffffffffffffffffffffffffff1916827bffffffffffffffffffffffffffffffffffffffffffffffffffffffff191614806106c857506106c78261137f565b5b9050919050565b6060600580546106de906138e4565b80601f016020809104026020016040519081016040528092919081815260200182805461070a906138e4565b80156107575780601f1061072c57610100808354040283529160200191610757565b820191906000526020600020905b81548152906001019060200180831161073a57829003601f168201915b5050505050905090565b600061077561076e6113f9565b8484611401565b6001905092915050565b7f5e60f7acd354195c64e1c2c1e3ac5d68aea74bb6f1bf6b3a464c08e4b2fce80481565b6000600454905090565b60006107ba8484846115cc565b6000600360008673ffffffffffffffffffffffffffffffffffffffff1673ffffffffffffffffffffffffffffffffffffffff16815260200190815260200160002060006108056113f9565b73ffffffffffffffffffffffffffffffffffffffff1673ffffffffffffffffffffffffffffffffffffffff16815260200190815260200160002054905082811015610885576040517f08c379a000000000000000000000000000000000000000000000000000000000815260040161087c906134db565b60405180910390fd5b6108a2856108916113f9565b858461089d91906137c8565b611401565b60019150509392505050565b6000806000838152602001908152602001600020600101549050919050565b6108d7828261184e565b6108fc81600160008581526020019081526020016000206112f290919063ffffffff16565b505050565b6000600760019054906101000a900460ff16905090565b6109228282611877565b61094781600160008581526020019081526020016000206118fa90919063ffffffff16565b505050565b60006109ee6109596113f9565b8484600360006109676113f9565b73ffffffffffffffffffffffffffffffffffffffff1673ffffffffffffffffffffffffffffffffffffffff16815260200190815260200160002060008873ffffffffffffffffffffffffffffffffffffffff1673ffffffffffffffffffffffffffffffffffffffff168152602001908152602001600020546109e99190613718565b611401565b6001905092915050565b610a297f5e60f7acd354195c64e1c2c1e3ac5d68aea74bb6f1bf6b3a464c08e4b2fce804610a246113f9565b610f82565b610a68576040517f08c379a0000000000000000000000000000000000000000000000000000000008152600401610a5f9061363b565b60405180910390fd5b6000610a7a610a756113f9565b610e0c565b9050610a86828461192a565b8281610a98610a936113f9565b610e0c565b610aa291906137c8565b14610ae2576040517f08c379a0000000000000000000000000000000000000000000000000000000008152600401610ad9906134bb565b60405180910390fd5b505050565b610b187f65d7a28e3265b37a6474929f336521b332c1681b933f6cb9f3376673440d862a610b136113f9565b610f82565b610b57576040517f08c379a0000000000000000000000000000000000000000000000000000000008152600401610b4e9061343b565b60405180910390fd5b610b5f611a7f565b565b610b927f9f2df0fed2c77648de5860a4cc508cd0818c85b8b8a1ab4ceeef8d981c8956a6610b8d6113f9565b610f82565b610bd1576040517f08c379a0000000000000000000000000000000000000000000000000000000008152600401610bc8906134fb565b60405180910390fd5b610bdb828261192a565b5050565b610bf0610bea6113f9565b82611b21565b50565b610c076000801b610c026113f9565b610f82565b610c46576040517f08c379a0000000000000000000000000000000000000000000000000000000008152600401610c3d906135fb565b60405180910390fd5b610c707f5e60f7acd354195c64e1c2c1e3ac5d68aea74bb6f1bf6b3a464c08e4b2fce804826108cd565b610c9a7f5e60f7acd354195c64e1c2c1e3ac5d68aea74bb6f1bf6b3a464c08e4b2fce80482610f82565b610cd9576040517f08c379a0000000000000000000000000000000000000000000000000000000008152600401610cd09061355b565b60405180910390fd5b610d257f5e60f7acd354195c64e1c2c1e3ac5d68aea74bb6f1bf6b3a464c08e4b2fce804600760029054906101000a900473ffffffffffffffffffffffffffffffffffffffff166111df565b610d717f5e60f7acd354195c64e1c2c1e3ac5d68aea74bb6f1bf6b3a464c08e4b2fce804600760029054906101000a900473ffffffffffffffffffffffffffffffffffffffff16610f82565b15610db1576040517f08c379a0000000000000000000000000000000000000000000000000000000008152600401610da8906135db565b60405180910390fd5b80600760026101000a81548173ffffffffffffffffffffffffffffffffffffffff021916908373ffffffffffffffffffffffffffffffffffffffff16021790555050565b6000600760009054906101000a900460ff16905090565b6000600260008373ffffffffffffffffffffffffffffffffffffffff1673ffffffffffffffffffffffffffffffffffffffff168152602001908152602001600020549050919050565b6000610e6883610e636113f9565b611213565b905081811015610ead576040517f08c379a0000000000000000000000000000000000000000000000000000000008152600401610ea49061351b565b60405180910390fd5b610eca83610eb96113f9565b8484610ec591906137c8565b611401565b610ed48383611b21565b505050565b610f0a7f65d7a28e3265b37a6474929f336521b332c1681b933f6cb9f3376673440d862a610f056113f9565b610f82565b610f49576040517f08c379a0000000000000000000000000000000000000000000000000000000008152600401610f40906135bb565b60405180910390fd5b610f51611cf7565b565b6000610f7a8260016000868152602001908152602001600020611d9a90919063ffffffff16565b905092915050565b600080600084815260200190815260200160002060000160008373ffffffffffffffffffffffffffffffffffffffff1673ffffffffffffffffffffffffffffffffffffffff16815260200190815260200160002060009054906101000a900460ff16905092915050565b606060068054610ffb906138e4565b80601f0160208091040260200160405190810160405280929190818152602001828054611027906138e4565b80156110745780601f1061104957610100808354040283529160200191611074565b820191906000526020600020905b81548152906001019060200180831161105757829003601f168201915b5050505050905090565b6000801b81565b600080600360006110946113f9565b73ffffffffffffffffffffffffffffffffffffffff1673ffffffffffffffffffffffffffffffffffffffff16815260200190815260200160002060008573ffffffffffffffffffffffffffffffffffffffff1673ffffffffffffffffffffffffffffffffffffffff16815260200190815260200160002054905082811015611151576040517f08c379a00000000000000000000000000000000000000000000000000000000081526004016111489061361b565b60405180910390fd5b61116e61115c6113f9565b85858461116991906137c8565b611401565b600191505092915050565b600061118d6111866113f9565b84846115cc565b6001905092915050565b60006111b460016000848152602001908152602001600020611db4565b9050919050565b7f9f2df0fed2c77648de5860a4cc508cd0818c85b8b8a1ab4ceeef8d981c8956a681565b6111e98282611dc9565b61120e81600160008581526020019081526020016000206118fa90919063ffffffff16565b505050565b6000600360008473ffffffffffffffffffffffffffffffffffffffff1673ffffffffffffffffffffffffffffffffffffffff16815260200190815260200160002060008373ffffffffffffffffffffffffffffffffffffffff1673ffffffffffffffffffffffffffffffffffffffff16815260200190815260200160002054905092915050565b7f65d7a28e3265b37a6474929f336521b332c1681b933f6cb9f3376673440d862a81565b600760029054906101000a900473ffffffffffffffffffffffffffffffffffffffff1681565b6112ee8282611df2565b5050565b600061131a836000018373ffffffffffffffffffffffffffffffffffffffff1660001b611ed2565b905092915050565b61132d83838361137a565b611335610df5565b15611375576040517f08c379a000000000000000000000000000000000000000000000000000000000815260040161136c9061369b565b60405180910390fd5b505050565b505050565b60007f7965db0b000000000000000000000000000000000000000000000000000000007bffffffffffffffffffffffffffffffffffffffffffffffffffffffff1916827bffffffffffffffffffffffffffffffffffffffffffffffffffffffff191614806113f257506113f182611f42565b5b9050919050565b600033905090565b600073ffffffffffffffffffffffffffffffffffffffff168373ffffffffffffffffffffffffffffffffffffffff161415611471576040517f08c379a00000000000000000000000000000000000000000000000000000000081526004016114689061359b565b60405180910390fd5b600073ffffffffffffffffffffffffffffffffffffffff168273ffffffffffffffffffffffffffffffffffffffff1614156114e1576040517f08c379a00000000000000000000000000000000000000000000000000000000081526004016114d89061345b565b60405180910390fd5b80600360008573ffffffffffffffffffffffffffffffffffffffff1673ffffffffffffffffffffffffffffffffffffffff16815260200190815260200160002060008473ffffffffffffffffffffffffffffffffffffffff1673ffffffffffffffffffffffffffffffffffffffff168152602001908152602001600020819055508173ffffffffffffffffffffffffffffffffffffffff168373ffffffffffffffffffffffffffffffffffffffff167f8c5be1e5ebec7d5bd14f71427d1e84f3dd0314c0f7b2291e5b200ac8c7c3b925836040516115bf91906136bb565b60405180910390a3505050565b600073ffffffffffffffffffffffffffffffffffffffff168373ffffffffffffffffffffffffffffffffffffffff16141561163c576040517f08c379a00000000000000000000000000000000000000000000000000000000081526004016116339061357b565b60405180910390fd5b600073ffffffffffffffffffffffffffffffffffffffff168273ffffffffffffffffffffffffffffffffffffffff1614156116ac576040517f08c379a00000000000000000000000000000000000000000000000000000000081526004016116a3906133db565b60405180910390fd5b6116b7838383611fac565b6000600260008573ffffffffffffffffffffffffffffffffffffffff1673ffffffffffffffffffffffffffffffffffffffff1681526020019081526020016000205490508181101561173e576040517f08c379a00000000000000000000000000000000000000000000000000000000081526004016117359061347b565b60405180910390fd5b818161174a91906137c8565b600260008673ffffffffffffffffffffffffffffffffffffffff1673ffffffffffffffffffffffffffffffffffffffff1681526020019081526020016000208190555081600260008573ffffffffffffffffffffffffffffffffffffffff1673ffffffffffffffffffffffffffffffffffffffff16815260200190815260200160002060008282546117dc9190613718565b925050819055508273ffffffffffffffffffffffffffffffffffffffff168473ffffffffffffffffffffffffffffffffffffffff167fddf252ad1be2c89b69c2b068fc378daa952ba7f163c4a11628f55a4df523b3ef8460405161184091906136bb565b60405180910390a350505050565b611857826108ae565b611868816118636113f9565b611fbc565b6118728383611df2565b505050565b61187f6113f9565b73ffffffffffffffffffffffffffffffffffffffff168173ffffffffffffffffffffffffffffffffffffffff16146118ec576040517f08c379a00000000000000000000000000000000000000000000000000000000081526004016118e39061365b565b60405180910390fd5b6118f68282612059565b5050565b6000611922836000018373ffffffffffffffffffffffffffffffffffffffff1660001b61213a565b905092915050565b600073ffffffffffffffffffffffffffffffffffffffff168273ffffffffffffffffffffffffffffffffffffffff16141561199a576040517f08c379a00000000000000000000000000000000000000000000000000000000081526004016119919061367b565b60405180910390fd5b6119a660008383611fac565b80600460008282546119b89190613718565b9250508190555080600260008473ffffffffffffffffffffffffffffffffffffffff1673ffffffffffffffffffffffffffffffffffffffff1681526020019081526020016000206000828254611a0e9190613718565b925050819055508173ffffffffffffffffffffffffffffffffffffffff16600073ffffffffffffffffffffffffffffffffffffffff167fddf252ad1be2c89b69c2b068fc378daa952ba7f163c4a11628f55a4df523b3ef83604051611a7391906136bb565b60405180910390a35050565b611a87610df5565b611ac6576040517f08c379a0000000000000000000000000000000000000000000000000000000008152600401611abd906133fb565b60405180910390fd5b6000600760006101000a81548160ff0219169083151502179055507f5db9ee0a495bf2e6ff9c91a7834c1ba4fdd244a5e8aa4e537bd38aeae4b073aa611b0a6113f9565b604051611b179190613328565b60405180910390a1565b600073ffffffffffffffffffffffffffffffffffffffff168273ffffffffffffffffffffffffffffffffffffffff161415611b91576040517f08c379a0000000000000000000000000000000000000000000000000000000008152600401611b889061353b565b60405180910390fd5b611b9d82600083611fac565b6000600260008473ffffffffffffffffffffffffffffffffffffffff1673ffffffffffffffffffffffffffffffffffffffff16815260200190815260200160002054905081811015611c24576040517f08c379a0000000000000000000000000000000000000000000000000000000008152600401611c1b9061341b565b60405180910390fd5b8181611c3091906137c8565b600260008573ffffffffffffffffffffffffffffffffffffffff1673ffffffffffffffffffffffffffffffffffffffff168152602001908152602001600020819055508160046000828254611c8591906137c8565b92505081905550600073ffffffffffffffffffffffffffffffffffffffff168373ffffffffffffffffffffffffffffffffffffffff167fddf252ad1be2c89b69c2b068fc378daa952ba7f163c4a11628f55a4df523b3ef84604051611cea91906136bb565b60405180910390a3505050565b611cff610df5565b15611d3f576040517f08c379a0000000000000000000000000000000000000000000000000000000008152600401611d369061349b565b60405180910390fd5b6001600760006101000a81548160ff0219169083151502179055507f62e78cea01bee320cd4e420270b5ea74000d11b0c9f74754ebdbfc544b05a258611d836113f9565b604051611d909190613328565b60405180910390a1565b6000611da983600001836122b8565b60001c905092915050565b6000611dc282600001612352565b9050919050565b611dd2826108ae565b611de381611dde6113f9565b611fbc565b611ded8383612059565b505050565b611dfc8282610f82565b611ece57600160008084815260200190815260200160002060000160008373ffffffffffffffffffffffffffffffffffffffff1673ffffffffffffffffffffffffffffffffffffffff16815260200190815260200160002060006101000a81548160ff021916908315150217905550611e736113f9565b73ffffffffffffffffffffffffffffffffffffffff168173ffffffffffffffffffffffffffffffffffffffff16837f2f8788117e7eff1d82e926ec794901d17c78024a50270940304540a733656f0d60405160405180910390a45b5050565b6000611ede8383612363565b611f37578260000182908060018154018082558091505060019003906000526020600020016000909190919091505582600001805490508360010160008481526020019081526020016000208190555060019050611f3c565b600090505b92915050565b60007f01ffc9a7000000000000000000000000000000000000000000000000000000007bffffffffffffffffffffffffffffffffffffffffffffffffffffffff1916827bffffffffffffffffffffffffffffffffffffffffffffffffffffffff1916149050919050565b611fb7838383611322565b505050565b611fc68282610f82565b61205557611feb8173ffffffffffffffffffffffffffffffffffffffff166014612386565b611ff98360001c6020612386565b60405160200161200a9291906132ee565b6040516020818303038152906040526040517f08c379a000000000000000000000000000000000000000000000000000000000815260040161204c9190613379565b60405180910390fd5b5050565b6120638282610f82565b1561213657600080600084815260200190815260200160002060000160008373ffffffffffffffffffffffffffffffffffffffff1673ffffffffffffffffffffffffffffffffffffffff16815260200190815260200160002060006101000a81548160ff0219169083151502179055506120db6113f9565b73ffffffffffffffffffffffffffffffffffffffff168173ffffffffffffffffffffffffffffffffffffffff16837ff6391f5c32d9c69d2a47ea670b442974b53935d1edc7fd64eb21e047a839171b60405160405180910390a45b5050565b600080836001016000848152602001908152602001600020549050600081146122ac57600060018261216c91906137c8565b905060006001866000018054905061218491906137c8565b905060008660000182815481106121c4577f4e487b7100000000000000000000000000000000000000000000000000000000600052603260045260246000fd5b906000526020600020015490508087600001848154811061220e577f4e487b7100000000000000000000000000000000000000000000000000000000600052603260045260246000fd5b9060005260206000200181905550838760010160008381526020019081526020016000208190555086600001805480612270577f4e487b7100000000000000000000000000000000000000000000000000000000600052603160045260246000fd5b600190038181906000526020600020016000905590558660010160008781526020019081526020016000206000905560019450505050506122b2565b60009150505b92915050565b600081836000018054905011612303576040517f08c379a00000000000000000000000000000000000000000000000000000000081526004016122fa9061339b565b60405180910390fd5b82600001828154811061233f577f4e487b7100000000000000000000000000000000000000000000000000000000600052603260045260246000fd5b9060005260206000200154905092915050565b600081600001805490509050919050565b600080836001016000848152602001908152602001600020541415905092915050565b606060006002836002612399919061376e565b6123a39190613718565b67ffffffffffffffff8111156123e2577f4e487b7100000000000000000000000000000000000000000000000000000000600052604160045260246000fd5b6040519080825280601f01601f1916602001820160405280156124145781602001600182028036833780820191505090505b5090507f300000000000000000000000000000000000000000000000000000000000000081600081518110612472577f4e487b7100000000000000000000000000000000000000000000000000000000600052603260045260246000fd5b60200101907effffffffffffffffffffffffffffffffffffffffffffffffffffffffffffff1916908160001a9053507f7800000000000000000000000000000000000000000000000000000000000000816001815181106124fc577f4e487b7100000000000000000000000000000000000000000000000000000000600052603260045260246000fd5b60200101907effffffffffffffffffffffffffffffffffffffffffffffffffffffffffffff1916908160001a9053506000600184600261253c919061376e565b6125469190613718565b90505b6001811115612632577f3031323334353637383961626364656600000000000000000000000000000000600f8616601081106125ae577f4e487b7100000000000000000000000000000000000000000000000000000000600052603260045260246000fd5b1a60f81b8282815181106125eb577f4e487b7100000000000000000000000000000000000000000000000000000000600052603260045260246000fd5b60200101907effffffffffffffffffffffffffffffffffffffffffffffffffffffffffffff1916908160001a905350600485901c94508061262b906138ba565b9050612549565b5060008414612676576040517f08c379a000000000000000000000000000000000000000000000000000000000815260040161266d906133bb565b60405180910390fd5b8091505092915050565b60008135905061268f81613985565b92915050565b6000813590506126a48161399c565b92915050565b6000813590506126b9816139b3565b92915050565b6000813590506126ce816139ca565b92915050565b6000602082840312156126e657600080fd5b60006126f484828501612680565b91505092915050565b6000806040838503121561271057600080fd5b600061271e85828601612680565b925050602061272f85828601612680565b9150509250929050565b60008060006060848603121561274e57600080fd5b600061275c86828701612680565b935050602061276d86828701612680565b925050604061277e868287016126bf565b9150509250925092565b6000806040838503121561279b57600080fd5b60006127a985828601612680565b92505060206127ba858286016126bf565b9150509250929050565b6000602082840312156127d657600080fd5b60006127e484828501612695565b91505092915050565b6000806040838503121561280057600080fd5b600061280e85828601612695565b925050602061281f85828601612680565b9150509250929050565b6000806040838503121561283c57600080fd5b600061284a85828601612695565b925050602061285b858286016126bf565b9150509250929050565b60006020828403121561287757600080fd5b6000612885848285016126aa565b91505092915050565b6000602082840312156128a057600080fd5b60006128ae848285016126bf565b91505092915050565b600080604083850312156128ca57600080fd5b60006128d8858286016126bf565b92505060206128e985828601612680565b9150509250929050565b6128fc816137fc565b82525050565b61290b8161380e565b82525050565b61291a8161381a565b82525050565b600061292b826136f1565b61293581856136fc565b9350612945818560208601613887565b61294e81613974565b840191505092915050565b6000612964826136f1565b61296e818561370d565b935061297e818560208601613887565b80840191505092915050565b60006129976022836136fc565b91507f456e756d657261626c655365743a20696e646578206f7574206f6620626f756e60008301527f64730000000000000000000000000000000000000000000000000000000000006020830152604082019050919050565b60006129fd6020836136fc565b91507f537472696e67733a20686578206c656e67746820696e73756666696369656e746000830152602082019050919050565b6000612a3d6023836136fc565b91507f45524332303a207472616e7366657220746f20746865207a65726f206164647260008301527f65737300000000000000000000000000000000000000000000000000000000006020830152604082019050919050565b6000612aa36014836136fc565b91507f5061757361626c653a206e6f74207061757365640000000000000000000000006000830152602082019050919050565b6000612ae36022836136fc565b91507f45524332303a206275726e20616d6f756e7420657863656564732062616c616e60008301527f63650000000000000000000000000000000000000000000000000000000000006020830152604082019050919050565b6000612b496039836136fc565b91507f45524332305072657365744d696e7465725061757365723a206d75737420686160008301527f76652070617573657220726f6c6520746f20756e7061757365000000000000006020830152604082019050919050565b6000612baf6022836136fc565b91507f45524332303a20617070726f766520746f20746865207a65726f20616464726560008301527f73730000000000000000000000000000000000000000000000000000000000006020830152604082019050919050565b6000612c156026836136fc565b91507f45524332303a207472616e7366657220616d6f756e742065786365656473206260008301527f616c616e636500000000000000000000000000000000000000000000000000006020830152604082019050919050565b6000612c7b6010836136fc565b91507f5061757361626c653a20706175736564000000000000000000000000000000006000830152602082019050919050565b6000612cbb6019836136fc565b91507f436f727265637420616d6f756e74206e6f74206d696e746564000000000000006000830152602082019050919050565b6000612cfb6028836136fc565b91507f45524332303a207472616e7366657220616d6f756e742065786365656473206160008301527f6c6c6f77616e63650000000000000000000000000000000000000000000000006020830152604082019050919050565b6000612d616036836136fc565b91507f45524332305072657365744d696e7465725061757365723a206d75737420686160008301527f7665206d696e74657220726f6c6520746f206d696e74000000000000000000006020830152604082019050919050565b6000612dc76024836136fc565b91507f45524332303a206275726e20616d6f756e74206578636565647320616c6c6f7760008301527f616e6365000000000000000000000000000000000000000000000000000000006020830152604082019050919050565b6000612e2d6021836136fc565b91507f45524332303a206275726e2066726f6d20746865207a65726f2061646472657360008301527f73000000000000000000000000000000000000000000000000000000000000006020830152604082019050919050565b6000612e936016836136fc565b91507f726f6c6520686173206265656e207265636569766564000000000000000000006000830152602082019050919050565b6000612ed36025836136fc565b91507f45524332303a207472616e736665722066726f6d20746865207a65726f20616460008301527f64726573730000000000000000000000000000000000000000000000000000006020830152604082019050919050565b6000612f396024836136fc565b91507f45524332303a20617070726f76652066726f6d20746865207a65726f2061646460008301527f72657373000000000000000000000000000000000000000000000000000000006020830152604082019050919050565b6000612f9f6037836136fc565b91507f45524332305072657365744d696e7465725061757365723a206d75737420686160008301527f76652070617573657220726f6c6520746f2070617573650000000000000000006020830152604082019050919050565b600061300560178361370d565b91507f416363657373436f6e74726f6c3a206163636f756e74200000000000000000006000830152601782019050919050565b60006130456023836136fc565b91507f726f6c6520686173206265656e2072656d6f7665642070726f6d20706572766960008301527f6f757300000000000000000000000000000000000000000000000000000000006020830152604082019050919050565b60006130ab600a836136fc565b91507f41646d696e206f6e6c79000000000000000000000000000000000000000000006000830152602082019050919050565b60006130eb6025836136fc565b91507f45524332303a2064656372656173656420616c6c6f77616e63652062656c6f7760008301527f207a65726f0000000000000000000000000000000000000000000000000000006020830152604082019050919050565b600061315160118361370d565b91507f206973206d697373696e6720726f6c65200000000000000000000000000000006000830152601182019050919050565b60006131916013836136fc565b91507f4d696e7465722041646472657373206f6e6c79000000000000000000000000006000830152602082019050919050565b60006131d1602f836136fc565b91507f416363657373436f6e74726f6c3a2063616e206f6e6c792072656e6f756e636560008301527f20726f6c657320666f722073656c6600000000000000000000000000000000006020830152604082019050919050565b6000613237601f836136fc565b91507f45524332303a206d696e7420746f20746865207a65726f2061646472657373006000830152602082019050919050565b6000613277602a836136fc565b91507f45524332305061757361626c653a20746f6b656e207472616e7366657220776860008301527f696c6520706175736564000000000000000000000000000000000000000000006020830152604082019050919050565b6132d981613870565b82525050565b6132e88161387a565b82525050565b60006132f982612ff8565b91506133058285612959565b915061331082613144565b915061331c8284612959565b91508190509392505050565b600060208201905061333d60008301846128f3565b92915050565b60006020820190506133586000830184612902565b92915050565b60006020820190506133736000830184612911565b92915050565b600060208201905081810360008301526133938184612920565b905092915050565b600060208201905081810360008301526133b48161298a565b9050919050565b600060208201905081810360008301526133d4816129f0565b9050919050565b600060208201905081810360008301526133f481612a30565b9050919050565b6000602082019050818103600083015261341481612a96565b9050919050565b6000602082019050818103600083015261343481612ad6565b9050919050565b6000602082019050818103600083015261345481612b3c565b9050919050565b6000602082019050818103600083015261347481612ba2565b9050919050565b6000602082019050818103600083015261349481612c08565b9050919050565b600060208201905081810360008301526134b481612c6e565b9050919050565b600060208201905081810360008301526134d481612cae565b9050919050565b600060208201905081810360008301526134f481612cee565b9050919050565b6000602082019050818103600083015261351481612d54565b9050919050565b6000602082019050818103600083015261353481612dba565b9050919050565b6000602082019050818103600083015261355481612e20565b9050919050565b6000602082019050818103600083015261357481612e86565b9050919050565b6000602082019050818103600083015261359481612ec6565b9050919050565b600060208201905081810360008301526135b481612f2c565b9050919050565b600060208201905081810360008301526135d481612f92565b9050919050565b600060208201905081810360008301526135f481613038565b9050919050565b600060208201905081810360008301526136148161309e565b9050919050565b60006020820190508181036000830152613634816130de565b9050919050565b6000602082019050818103600083015261365481613184565b9050919050565b60006020820190508181036000830152613674816131c4565b9050919050565b600060208201905081810360008301526136948161322a565b9050919050565b600060208201905081810360008301526136b48161326a565b9050919050565b60006020820190506136d060008301846132d0565b92915050565b60006020820190506136eb60008301846132df565b92915050565b600081519050919050565b600082825260208201905092915050565b600081905092915050565b600061372382613870565b915061372e83613870565b9250827fffffffffffffffffffffffffffffffffffffffffffffffffffffffffffffffff0382111561376357613762613916565b5b828201905092915050565b600061377982613870565b915061378483613870565b9250817fffffffffffffffffffffffffffffffffffffffffffffffffffffffffffffffff04831182151516156137bd576137bc613916565b5b828202905092915050565b60006137d382613870565b91506137de83613870565b9250828210156137f1576137f0613916565b5b828203905092915050565b600061380782613850565b9050919050565b60008115159050919050565b6000819050919050565b60007fffffffff0000000000000000000000000000000000000000000000000000000082169050919050565b600073ffffffffffffffffffffffffffffffffffffffff82169050919050565b6000819050919050565b600060ff82169050919050565b60005b838110156138a557808201518184015260208101905061388a565b838111156138b4576000848401525b50505050565b60006138c582613870565b915060008214156138d9576138d8613916565b5b600182039050919050565b600060028204905060018216806138fc57607f821691505b602082108114156139105761390f613945565b5b50919050565b7f4e487b7100000000000000000000000000000000000000000000000000000000600052601160045260246000fd5b7f4e487b7100000000000000000000000000000000000000000000000000000000600052602260045260246000fd5b6000601f19601f8301169050919050565b61398e816137fc565b811461399957600080fd5b50565b6139a58161381a565b81146139b057600080fd5b50565b6139bc81613824565b81146139c757600080fd5b50565b6139d381613870565b81146139de57600080fd5b5056fea2646970667358221220c1d41443a361de03f96912ca3b7fc9095114111b9950f7b8d8122443115d6beb64736f6c63430008000033",
  "linkReferences": {},
  "deployedLinkReferences": {}
}