{
  "_format": "hh-sol-artifact-1",
  "contractName": "Skins",
  "sourceName": "contracts/utility/Skins.sol",
  "abi": [
    {
      "inputs": [],
      "stateMutability": "nonpayable",
      "type": "constructor"
    },
    {
      "anonymous": false,
      "inputs": [
        {
          "indexed": true,
          "internalType": "address",
          "name": "account",
          "type": "address"
        },
        {
          "indexed": true,
          "internalType": "address",
          "name": "operator",
          "type": "address"
        },
        {
          "indexed": false,
          "internalType": "bool",
          "name": "approved",
          "type": "bool"
        }
      ],
      "name": "ApprovalForAll",
      "type": "event"
    },
    {
      "anonymous": false,
      "inputs": [
        {
          "indexed": false,
          "internalType": "address",
          "name": "account",
          "type": "address"
        }
      ],
      "name": "Paused",
      "type": "event"
    },
    {
      "anonymous": false,
      "inputs": [
        {
          "indexed": true,
          "internalType": "bytes32",
          "name": "role",
          "type": "bytes32"
        },
        {
          "indexed": true,
          "internalType": "bytes32",
          "name": "previousAdminRole",
          "type": "bytes32"
        },
        {
          "indexed": true,
          "internalType": "bytes32",
          "name": "newAdminRole",
          "type": "bytes32"
        }
      ],
      "name": "RoleAdminChanged",
      "type": "event"
    },
    {
      "anonymous": false,
      "inputs": [
        {
          "indexed": true,
          "internalType": "bytes32",
          "name": "role",
          "type": "bytes32"
        },
        {
          "indexed": true,
          "internalType": "address",
          "name": "account",
          "type": "address"
        },
        {
          "indexed": true,
          "internalType": "address",
          "name": "sender",
          "type": "address"
        }
      ],
      "name": "RoleGranted",
      "type": "event"
    },
    {
      "anonymous": false,
      "inputs": [
        {
          "indexed": true,
          "internalType": "bytes32",
          "name": "role",
          "type": "bytes32"
        },
        {
          "indexed": true,
          "internalType": "address",
          "name": "account",
          "type": "address"
        },
        {
          "indexed": true,
          "internalType": "address",
          "name": "sender",
          "type": "address"
        }
      ],
      "name": "RoleRevoked",
      "type": "event"
    },
    {
      "anonymous": false,
      "inputs": [
        {
          "indexed": true,
          "internalType": "address",
          "name": "operator",
          "type": "address"
        },
        {
          "indexed": true,
          "internalType": "address",
          "name": "from",
          "type": "address"
        },
        {
          "indexed": true,
          "internalType": "address",
          "name": "to",
          "type": "address"
        },
        {
          "indexed": false,
          "internalType": "uint256[]",
          "name": "ids",
          "type": "uint256[]"
        },
        {
          "indexed": false,
          "internalType": "uint256[]",
          "name": "values",
          "type": "uint256[]"
        }
      ],
      "name": "TransferBatch",
      "type": "event"
    },
    {
      "anonymous": false,
      "inputs": [
        {
          "indexed": true,
          "internalType": "address",
          "name": "operator",
          "type": "address"
        },
        {
          "indexed": true,
          "internalType": "address",
          "name": "from",
          "type": "address"
        },
        {
          "indexed": true,
          "internalType": "address",
          "name": "to",
          "type": "address"
        },
        {
          "indexed": false,
          "internalType": "uint256",
          "name": "id",
          "type": "uint256"
        },
        {
          "indexed": false,
          "internalType": "uint256",
          "name": "value",
          "type": "uint256"
        }
      ],
      "name": "TransferSingle",
      "type": "event"
    },
    {
      "anonymous": false,
      "inputs": [
        {
          "indexed": false,
          "internalType": "string",
          "name": "value",
          "type": "string"
        },
        {
          "indexed": true,
          "internalType": "uint256",
          "name": "id",
          "type": "uint256"
        }
      ],
      "name": "URI",
      "type": "event"
    },
    {
      "anonymous": false,
      "inputs": [
        {
          "indexed": false,
          "internalType": "address",
          "name": "account",
          "type": "address"
        }
      ],
      "name": "Unpaused",
      "type": "event"
    },
    {
      "inputs": [],
      "name": "DEFAULT_ADMIN_ROLE",
      "outputs": [
        {
          "internalType": "bytes32",
          "name": "",
          "type": "bytes32"
        }
      ],
      "stateMutability": "view",
      "type": "function"
    },
    {
      "inputs": [],
      "name": "MINTER_ROLE",
      "outputs": [
        {
          "internalType": "bytes32",
          "name": "",
          "type": "bytes32"
        }
      ],
      "stateMutability": "view",
      "type": "function"
    },
    {
      "inputs": [],
      "name": "PAUSER_ROLE",
      "outputs": [
        {
          "internalType": "bytes32",
          "name": "",
          "type": "bytes32"
        }
      ],
      "stateMutability": "view",
      "type": "function"
    },
    {
      "inputs": [
        {
          "internalType": "address",
          "name": "account",
          "type": "address"
        },
        {
          "internalType": "uint256",
          "name": "id",
          "type": "uint256"
        }
      ],
      "name": "balanceOf",
      "outputs": [
        {
          "internalType": "uint256",
          "name": "",
          "type": "uint256"
        }
      ],
      "stateMutability": "view",
      "type": "function"
    },
    {
      "inputs": [
        {
          "internalType": "address[]",
          "name": "accounts",
          "type": "address[]"
        },
        {
          "internalType": "uint256[]",
          "name": "ids",
          "type": "uint256[]"
        }
      ],
      "name": "balanceOfBatch",
      "outputs": [
        {
          "internalType": "uint256[]",
          "name": "",
          "type": "uint256[]"
        }
      ],
      "stateMutability": "view",
      "type": "function"
    },
    {
      "inputs": [
        {
          "internalType": "address",
          "name": "account",
          "type": "address"
        },
        {
          "internalType": "uint256",
          "name": "id",
          "type": "uint256"
        },
        {
          "internalType": "uint256",
          "name": "value",
          "type": "uint256"
        }
      ],
      "name": "burn",
      "outputs": [],
      "stateMutability": "nonpayable",
      "type": "function"
    },
    {
      "inputs": [
        {
          "internalType": "address",
          "name": "account",
          "type": "address"
        },
        {
          "internalType": "uint256[]",
          "name": "ids",
          "type": "uint256[]"
        },
        {
          "internalType": "uint256[]",
          "name": "values",
          "type": "uint256[]"
        }
      ],
      "name": "burnBatch",
      "outputs": [],
      "stateMutability": "nonpayable",
      "type": "function"
    },
    {
      "inputs": [
        {
          "internalType": "bytes32",
          "name": "role",
          "type": "bytes32"
        }
      ],
      "name": "getRoleAdmin",
      "outputs": [
        {
          "internalType": "bytes32",
          "name": "",
          "type": "bytes32"
        }
      ],
      "stateMutability": "view",
      "type": "function"
    },
    {
      "inputs": [
        {
          "internalType": "bytes32",
          "name": "role",
          "type": "bytes32"
        },
        {
          "internalType": "uint256",
          "name": "index",
          "type": "uint256"
        }
      ],
      "name": "getRoleMember",
      "outputs": [
        {
          "internalType": "address",
          "name": "",
          "type": "address"
        }
      ],
      "stateMutability": "view",
      "type": "function"
    },
    {
      "inputs": [
        {
          "internalType": "bytes32",
          "name": "role",
          "type": "bytes32"
        }
      ],
      "name": "getRoleMemberCount",
      "outputs": [
        {
          "internalType": "uint256",
          "name": "",
          "type": "uint256"
        }
      ],
      "stateMutability": "view",
      "type": "function"
    },
    {
      "inputs": [
        {
          "internalType": "uint256",
          "name": "_id",
          "type": "uint256"
        }
      ],
      "name": "getSkinAvailability",
      "outputs": [
        {
          "internalType": "uint256",
          "name": "",
          "type": "uint256"
        }
      ],
      "stateMutability": "view",
      "type": "function"
    },
    {
      "inputs": [
        {
          "internalType": "bytes32",
          "name": "role",
          "type": "bytes32"
        },
        {
          "internalType": "address",
          "name": "account",
          "type": "address"
        }
      ],
      "name": "grantRole",
      "outputs": [],
      "stateMutability": "nonpayable",
      "type": "function"
    },
    {
      "inputs": [
        {
          "internalType": "bytes32",
          "name": "role",
          "type": "bytes32"
        },
        {
          "internalType": "address",
          "name": "account",
          "type": "address"
        }
      ],
      "name": "hasRole",
      "outputs": [
        {
          "internalType": "bool",
          "name": "",
          "type": "bool"
        }
      ],
      "stateMutability": "view",
      "type": "function"
    },
    {
      "inputs": [
        {
          "internalType": "address",
          "name": "account",
          "type": "address"
        },
        {
          "internalType": "address",
          "name": "operator",
          "type": "address"
        }
      ],
      "name": "isApprovedForAll",
      "outputs": [
        {
          "internalType": "bool",
          "name": "",
          "type": "bool"
        }
      ],
      "stateMutability": "view",
      "type": "function"
    },
    {
      "inputs": [
        {
          "internalType": "address",
          "name": "to",
          "type": "address"
        },
        {
          "internalType": "uint256",
          "name": "id",
          "type": "uint256"
        },
        {
          "internalType": "uint256",
          "name": "amount",
          "type": "uint256"
        },
        {
          "internalType": "bytes",
          "name": "data",
          "type": "bytes"
        }
      ],
      "name": "mint",
      "outputs": [],
      "stateMutability": "nonpayable",
      "type": "function"
    },
    {
      "inputs": [
        {
          "internalType": "address",
          "name": "to",
          "type": "address"
        },
        {
          "internalType": "uint256[]",
          "name": "ids",
          "type": "uint256[]"
        },
        {
          "internalType": "uint256[]",
          "name": "amounts",
          "type": "uint256[]"
        },
        {
          "internalType": "bytes",
          "name": "data",
          "type": "bytes"
        }
      ],
      "name": "mintBatch",
      "outputs": [],
      "stateMutability": "nonpayable",
      "type": "function"
    },
    {
      "inputs": [],
      "name": "pause",
      "outputs": [],
      "stateMutability": "nonpayable",
      "type": "function"
    },
    {
      "inputs": [],
      "name": "paused",
      "outputs": [
        {
          "internalType": "bool",
          "name": "",
          "type": "bool"
        }
      ],
      "stateMutability": "view",
      "type": "function"
    },
    {
      "inputs": [
        {
          "internalType": "bytes32",
          "name": "role",
          "type": "bytes32"
        },
        {
          "internalType": "address",
          "name": "account",
          "type": "address"
        }
      ],
      "name": "renounceRole",
      "outputs": [],
      "stateMutability": "nonpayable",
      "type": "function"
    },
    {
      "inputs": [
        {
          "internalType": "bytes32",
          "name": "role",
          "type": "bytes32"
        },
        {
          "internalType": "address",
          "name": "account",
          "type": "address"
        }
      ],
      "name": "revokeRole",
      "outputs": [],
      "stateMutability": "nonpayable",
      "type": "function"
    },
    {
      "inputs": [
        {
          "internalType": "address",
          "name": "from",
          "type": "address"
        },
        {
          "internalType": "address",
          "name": "to",
          "type": "address"
        },
        {
          "internalType": "uint256[]",
          "name": "ids",
          "type": "uint256[]"
        },
        {
          "internalType": "uint256[]",
          "name": "amounts",
          "type": "uint256[]"
        },
        {
          "internalType": "bytes",
          "name": "data",
          "type": "bytes"
        }
      ],
      "name": "safeBatchTransferFrom",
      "outputs": [],
      "stateMutability": "nonpayable",
      "type": "function"
    },
    {
      "inputs": [
        {
          "internalType": "address",
          "name": "from",
          "type": "address"
        },
        {
          "internalType": "address",
          "name": "to",
          "type": "address"
        },
        {
          "internalType": "uint256",
          "name": "id",
          "type": "uint256"
        },
        {
          "internalType": "uint256",
          "name": "amount",
          "type": "uint256"
        },
        {
          "internalType": "bytes",
          "name": "data",
          "type": "bytes"
        }
      ],
      "name": "safeTransferFrom",
      "outputs": [],
      "stateMutability": "nonpayable",
      "type": "function"
    },
    {
      "inputs": [
        {
          "internalType": "address",
          "name": "operator",
          "type": "address"
        },
        {
          "internalType": "bool",
          "name": "approved",
          "type": "bool"
        }
      ],
      "name": "setApprovalForAll",
      "outputs": [],
      "stateMutability": "nonpayable",
      "type": "function"
    },
    {
      "inputs": [],
      "name": "skinCount",
      "outputs": [
        {
          "internalType": "uint256",
          "name": "",
          "type": "uint256"
        }
      ],
      "stateMutability": "view",
      "type": "function"
    },
    {
      "inputs": [
        {
          "internalType": "uint256",
          "name": "",
          "type": "uint256"
        }
      ],
      "name": "skinQuantities",
      "outputs": [
        {
          "internalType": "uint256",
          "name": "",
          "type": "uint256"
        }
      ],
      "stateMutability": "view",
      "type": "function"
    },
    {
      "inputs": [
        {
          "internalType": "bytes4",
          "name": "interfaceId",
          "type": "bytes4"
        }
      ],
      "name": "supportsInterface",
      "outputs": [
        {
          "internalType": "bool",
          "name": "",
          "type": "bool"
        }
      ],
      "stateMutability": "view",
      "type": "function"
    },
    {
      "inputs": [],
      "name": "uniqueSkinCount",
      "outputs": [
        {
          "internalType": "uint256",
          "name": "",
          "type": "uint256"
        }
      ],
      "stateMutability": "view",
      "type": "function"
    },
    {
      "inputs": [],
      "name": "unpause",
      "outputs": [],
      "stateMutability": "nonpayable",
      "type": "function"
    },
    {
      "inputs": [
        {
          "internalType": "uint256",
          "name": "",
          "type": "uint256"
        }
      ],
      "name": "uri",
      "outputs": [
        {
          "internalType": "string",
          "name": "",
          "type": "string"
        }
      ],
      "stateMutability": "view",
      "type": "function"
    }
  ],
  "bytecode": "0x6080604052600060075560006008553480156200001b57600080fd5b5060405180602001604052806000815250806200003e816200012b60201b60201c565b506000600560006101000a81548160ff0219169083151502179055506200007e6000801b620000726200014760201b60201c565b6200014f60201b60201c565b620000bf7f9f2df0fed2c77648de5860a4cc508cd0818c85b8b8a1ab4ceeef8d981c8956a6620000b36200014760201b60201c565b6200014f60201b60201c565b620001007f65d7a28e3265b37a6474929f336521b332c1681b933f6cb9f3376673440d862a620000f46200014760201b60201c565b6200014f60201b60201c565b50620001256000801b620001196200014760201b60201c565b6200019760201b60201c565b62000ccf565b80600490805190602001906200014392919062000860565b5050565b600033905090565b620001668282620001df60201b620017e21760201c565b620001928160016000858152602001908152602001600020620001f560201b620017f01790919060201c565b505050565b620001ae82826200022d60201b620018201760201c565b620001da8160016000858152602001908152602001600020620001f560201b620017f01790919060201c565b505050565b620001f182826200027660201b60201c565b5050565b600062000225836000018373ffffffffffffffffffffffffffffffffffffffff1660001b6200036760201b60201c565b905092915050565b6200023e82620003e160201b60201c565b6200025f81620002536200014760201b60201c565b6200040060201b60201c565b6200027183836200027660201b60201c565b505050565b620002888282620004c460201b60201c565b6200036357600160008084815260200190815260200160002060000160008373ffffffffffffffffffffffffffffffffffffffff1673ffffffffffffffffffffffffffffffffffffffff16815260200190815260200160002060006101000a81548160ff021916908315150217905550620003086200014760201b60201c565b73ffffffffffffffffffffffffffffffffffffffff168173ffffffffffffffffffffffffffffffffffffffff16837f2f8788117e7eff1d82e926ec794901d17c78024a50270940304540a733656f0d60405160405180910390a45b5050565b60006200037b83836200052e60201b60201c565b620003d6578260000182908060018154018082558091505060019003906000526020600020016000909190919091505582600001805490508360010160008481526020019081526020016000208190555060019050620003db565b600090505b92915050565b6000806000838152602001908152602001600020600101549050919050565b620004128282620004c460201b60201c565b620004c057620004458173ffffffffffffffffffffffffffffffffffffffff1660146200055160201b620018491760201c565b620004608360001c60206200055160201b620018491760201c565b6040516020016200047392919062000a4e565b6040516020818303038152906040526040517f08c379a0000000000000000000000000000000000000000000000000000000008152600401620004b7919062000a90565b60405180910390fd5b5050565b600080600084815260200190815260200160002060000160008373ffffffffffffffffffffffffffffffffffffffff1673ffffffffffffffffffffffffffffffffffffffff16815260200190815260200160002060009054906101000a900460ff16905092915050565b600080836001016000848152602001908152602001600020541415905092915050565b60606000600283600262000566919062000b5a565b62000572919062000afd565b67ffffffffffffffff811115620005b2577f4e487b7100000000000000000000000000000000000000000000000000000000600052604160045260246000fd5b6040519080825280601f01601f191660200182016040528015620005e55781602001600182028036833780820191505090505b5090507f30000000000000000000000000000000000000000000000000000000000000008160008151811062000644577f4e487b7100000000000000000000000000000000000000000000000000000000600052603260045260246000fd5b60200101907effffffffffffffffffffffffffffffffffffffffffffffffffffffffffffff1916908160001a9053507f780000000000000000000000000000000000000000000000000000000000000081600181518110620006cf577f4e487b7100000000000000000000000000000000000000000000000000000000600052603260045260246000fd5b60200101907effffffffffffffffffffffffffffffffffffffffffffffffffffffffffffff1916908160001a9053506000600184600262000711919062000b5a565b6200071d919062000afd565b90505b60018111156200080f577f3031323334353637383961626364656600000000000000000000000000000000600f86166010811062000787577f4e487b7100000000000000000000000000000000000000000000000000000000600052603260045260246000fd5b1a60f81b828281518110620007c5577f4e487b7100000000000000000000000000000000000000000000000000000000600052603260045260246000fd5b60200101907effffffffffffffffffffffffffffffffffffffffffffffffffffffffffffff1916908160001a905350600485901c945080620008079062000bfb565b905062000720565b506000841462000856576040517f08c379a00000000000000000000000000000000000000000000000000000000081526004016200084d9062000ab4565b60405180910390fd5b8091505092915050565b8280546200086e9062000c2a565b90600052602060002090601f016020900481019282620008925760008555620008de565b82601f10620008ad57805160ff1916838001178555620008de565b82800160010185558215620008de579182015b82811115620008dd578251825591602001919060010190620008c0565b5b509050620008ed9190620008f1565b5090565b5b808211156200090c576000816000905550600101620008f2565b5090565b60006200091d8262000ad6565b62000929818562000ae1565b93506200093b81856020860162000bc5565b620009468162000cbe565b840191505092915050565b60006200095e8262000ad6565b6200096a818562000af2565b93506200097c81856020860162000bc5565b80840191505092915050565b60006200099760208362000ae1565b91507f537472696e67733a20686578206c656e67746820696e73756666696369656e746000830152602082019050919050565b6000620009d960178362000af2565b91507f416363657373436f6e74726f6c3a206163636f756e74200000000000000000006000830152601782019050919050565b600062000a1b60118362000af2565b91507f206973206d697373696e6720726f6c65200000000000000000000000000000006000830152601182019050919050565b600062000a5b82620009ca565b915062000a69828562000951565b915062000a768262000a0c565b915062000a84828462000951565b91508190509392505050565b6000602082019050818103600083015262000aac818462000910565b905092915050565b6000602082019050818103600083015262000acf8162000988565b9050919050565b600081519050919050565b600082825260208201905092915050565b600081905092915050565b600062000b0a8262000bbb565b915062000b178362000bbb565b9250827fffffffffffffffffffffffffffffffffffffffffffffffffffffffffffffffff0382111562000b4f5762000b4e62000c60565b5b828201905092915050565b600062000b678262000bbb565b915062000b748362000bbb565b9250817fffffffffffffffffffffffffffffffffffffffffffffffffffffffffffffffff048311821515161562000bb05762000baf62000c60565b5b828202905092915050565b6000819050919050565b60005b8381101562000be557808201518184015260208101905062000bc8565b8381111562000bf5576000848401525b50505050565b600062000c088262000bbb565b9150600082141562000c1f5762000c1e62000c60565b5b600182039050919050565b6000600282049050600182168062000c4357607f821691505b6020821081141562000c5a5762000c5962000c8f565b5b50919050565b7f4e487b7100000000000000000000000000000000000000000000000000000000600052601160045260246000fd5b7f4e487b7100000000000000000000000000000000000000000000000000000000600052602260045260246000fd5b6000601f19601f8301169050919050565b614f968062000cdf6000396000f3fe608060405234801561001057600080fd5b50600436106101ce5760003560e01c80637804104311610104578063ca15c873116100a2578063e63ab1e911610071578063e63ab1e91461053d578063e985e9c51461055b578063f242432a1461058b578063f5298aca146105a7576101ce565b8063ca15c873146104a3578063cebe801f146104d3578063d539139314610503578063d547741f14610521576101ce565b80639010d07c116100de5780639010d07c1461040957806391d1485414610439578063a217fddf14610469578063a22cb46514610487576101ce565b806378041043146103c35780637abf0125146103e15780638456cb59146103ff576101ce565b80632f2ff15d116101715780634e1273f41161014b5780634e1273f41461033d5780635c975abb1461036d5780636b20c4541461038b578063731133e9146103a7576101ce565b80632f2ff15d146102fb57806336568abe146103175780633f4ba83a14610333576101ce565b80630e89341c116101ad5780630e89341c146102635780631f7fdffa14610293578063248a9ca3146102af5780632eb2c2d6146102df576101ce565b8062fdd58e146101d357806301ffc9a714610203578063077b0e4d14610233575b600080fd5b6101ed60048036038101906101e8919061381e565b6105c3565b6040516101fa91906149ca565b60405180910390f35b61021d60048036038101906102189190613a31565b61068d565b60405161022a9190614692565b60405180910390f35b61024d60048036038101906102489190613a83565b61069f565b60405161025a91906149ca565b60405180910390f35b61027d60048036038101906102789190613a83565b610734565b60405161028a91906146c8565b60405180910390f35b6102ad60048036038101906102a89190613737565b6107c8565b005b6102c960048036038101906102c49190613990565b61084a565b6040516102d691906146ad565b60405180910390f35b6102f960048036038101906102f4919061356a565b610869565b005b610315600480360381019061031091906139b9565b610c62565b005b610331600480360381019061032c91906139b9565b610c96565b005b61033b610cca565b005b61035760048036038101906103529190613924565b610d44565b6040516103649190614639565b60405180910390f35b610375610ef5565b6040516103829190614692565b60405180910390f35b6103a560048036038101906103a091906136b8565b610f0c565b005b6103c160048036038101906103bc91906138a9565b610fa9565b005b6103cb61102b565b6040516103d891906149ca565b60405180910390f35b6103e9611031565b6040516103f691906149ca565b60405180910390f35b610407611037565b005b610423600480360381019061041e91906139f5565b6110b1565b604051610430919061455c565b60405180910390f35b610453600480360381019061044e91906139b9565b6110e0565b6040516104609190614692565b60405180910390f35b61047161114a565b60405161047e91906146ad565b60405180910390f35b6104a1600480360381019061049c91906137e2565b611151565b005b6104bd60048036038101906104b89190613990565b6112d2565b6040516104ca91906149ca565b60405180910390f35b6104ed60048036038101906104e89190613a83565b6112f6565b6040516104fa91906149ca565b60405180910390f35b61050b61131a565b60405161051891906146ad565b60405180910390f35b61053b600480360381019061053691906139b9565b61133e565b005b610545611372565b60405161055291906146ad565b60405180910390f35b6105756004803603810190610570919061352e565b611396565b6040516105829190614692565b60405180910390f35b6105a560048036038101906105a09190613629565b61142a565b005b6105c160048036038101906105bc919061385a565b611745565b005b60008073ffffffffffffffffffffffffffffffffffffffff168373ffffffffffffffffffffffffffffffffffffffff161415610634576040517f08c379a000000000000000000000000000000000000000000000000000000000815260040161062b906147aa565b60405180910390fd5b6002600083815260200190815260200160002060008473ffffffffffffffffffffffffffffffffffffffff1673ffffffffffffffffffffffffffffffffffffffff16815260200190815260200160002054905092915050565b600061069882611b43565b9050919050565b600060068054905082106106e8576040517f08c379a00000000000000000000000000000000000000000000000000000000081526004016106df9061478a565b60405180910390fd5b60068281548110610722577f4e487b7100000000000000000000000000000000000000000000000000000000600052603260045260246000fd5b90600052602060002001549050919050565b60606004805461074390614d11565b80601f016020809104026020016040519081016040528092919081815260200182805461076f90614d11565b80156107bc5780601f10610791576101008083540402835291602001916107bc565b820191906000526020600020905b81548152906001019060200180831161079f57829003601f168201915b50505050509050919050565b6107f97f9f2df0fed2c77648de5860a4cc508cd0818c85b8b8a1ab4ceeef8d981c8956a66107f4611c25565b6110e0565b610838576040517f08c379a000000000000000000000000000000000000000000000000000000000815260040161082f906148aa565b60405180910390fd5b61084484848484611c2d565b50505050565b6000806000838152602001908152602001600020600101549050919050565b81518351146108ad576040517f08c379a00000000000000000000000000000000000000000000000000000000081526004016108a49061496a565b60405180910390fd5b600073ffffffffffffffffffffffffffffffffffffffff168473ffffffffffffffffffffffffffffffffffffffff16141561091d576040517f08c379a00000000000000000000000000000000000000000000000000000000081526004016109149061484a565b60405180910390fd5b610925611c25565b73ffffffffffffffffffffffffffffffffffffffff168573ffffffffffffffffffffffffffffffffffffffff16148061096b575061096a85610965611c25565b611396565b5b6109aa576040517f08c379a00000000000000000000000000000000000000000000000000000000081526004016109a19061486a565b60405180910390fd5b60006109b4611c25565b90506109c4818787878787611e98565b60005b8451811015610bcd576000858281518110610a0b577f4e487b7100000000000000000000000000000000000000000000000000000000600052603260045260246000fd5b602002602001015190506000858381518110610a50577f4e487b7100000000000000000000000000000000000000000000000000000000600052603260045260246000fd5b6020026020010151905060006002600084815260200190815260200160002060008b73ffffffffffffffffffffffffffffffffffffffff1673ffffffffffffffffffffffffffffffffffffffff16815260200190815260200160002054905081811015610af2576040517f08c379a0000000000000000000000000000000000000000000000000000000008152600401610ae9906148ca565b60405180910390fd5b8181610afe9190614bf3565b6002600085815260200190815260200160002060008c73ffffffffffffffffffffffffffffffffffffffff1673ffffffffffffffffffffffffffffffffffffffff16815260200190815260200160002081905550816002600085815260200190815260200160002060008b73ffffffffffffffffffffffffffffffffffffffff1673ffffffffffffffffffffffffffffffffffffffff1681526020019081526020016000206000828254610bb29190614b43565b9250508190555050505080610bc690614d43565b90506109c7565b508473ffffffffffffffffffffffffffffffffffffffff168673ffffffffffffffffffffffffffffffffffffffff168273ffffffffffffffffffffffffffffffffffffffff167f4a39dc06d4c0dbc64b70af90fd698a233a518aa5d07e595d983b8c0526c8f7fb8787604051610c4492919061465b565b60405180910390a4610c5a818787878787611eae565b505050505050565b610c6c8282611820565b610c9181600160008581526020019081526020016000206117f090919063ffffffff16565b505050565b610ca0828261207e565b610cc5816001600085815260200190815260200160002061210190919063ffffffff16565b505050565b610cfb7f65d7a28e3265b37a6474929f336521b332c1681b933f6cb9f3376673440d862a610cf6611c25565b6110e0565b610d3a576040517f08c379a0000000000000000000000000000000000000000000000000000000008152600401610d31906148ea565b60405180910390fd5b610d42612131565b565b60608151835114610d8a576040517f08c379a0000000000000000000000000000000000000000000000000000000008152600401610d819061494a565b60405180910390fd5b6000835167ffffffffffffffff811115610dcd577f4e487b7100000000000000000000000000000000000000000000000000000000600052604160045260246000fd5b604051908082528060200260200182016040528015610dfb5781602001602082028036833780820191505090505b50905060005b8451811015610eea57610e94858281518110610e46577f4e487b7100000000000000000000000000000000000000000000000000000000600052603260045260246000fd5b6020026020010151858381518110610e87577f4e487b7100000000000000000000000000000000000000000000000000000000600052603260045260246000fd5b60200260200101516105c3565b828281518110610ecd577f4e487b7100000000000000000000000000000000000000000000000000000000600052603260045260246000fd5b60200260200101818152505080610ee390614d43565b9050610e01565b508091505092915050565b6000600560009054906101000a900460ff16905090565b610f14611c25565b73ffffffffffffffffffffffffffffffffffffffff168373ffffffffffffffffffffffffffffffffffffffff161480610f5a5750610f5983610f54611c25565b611396565b5b610f99576040517f08c379a0000000000000000000000000000000000000000000000000000000008152600401610f909061480a565b60405180910390fd5b610fa48383836121d3565b505050565b610fda7f9f2df0fed2c77648de5860a4cc508cd0818c85b8b8a1ab4ceeef8d981c8956a6610fd5611c25565b6110e0565b611019576040517f08c379a0000000000000000000000000000000000000000000000000000000008152600401611010906148aa565b60405180910390fd5b611025848484846124db565b50505050565b60075481565b60085481565b6110687f65d7a28e3265b37a6474929f336521b332c1681b933f6cb9f3376673440d862a611063611c25565b6110e0565b6110a7576040517f08c379a000000000000000000000000000000000000000000000000000000000815260040161109e9061490a565b60405180910390fd5b6110af612672565b565b60006110d8826001600086815260200190815260200160002061271590919063ffffffff16565b905092915050565b600080600084815260200190815260200160002060000160008373ffffffffffffffffffffffffffffffffffffffff1673ffffffffffffffffffffffffffffffffffffffff16815260200190815260200160002060009054906101000a900460ff16905092915050565b6000801b81565b8173ffffffffffffffffffffffffffffffffffffffff16611170611c25565b73ffffffffffffffffffffffffffffffffffffffff1614156111c7576040517f08c379a00000000000000000000000000000000000000000000000000000000081526004016111be9061492a565b60405180910390fd5b80600360006111d4611c25565b73ffffffffffffffffffffffffffffffffffffffff1673ffffffffffffffffffffffffffffffffffffffff16815260200190815260200160002060008473ffffffffffffffffffffffffffffffffffffffff1673ffffffffffffffffffffffffffffffffffffffff16815260200190815260200160002060006101000a81548160ff0219169083151502179055508173ffffffffffffffffffffffffffffffffffffffff16611281611c25565b73ffffffffffffffffffffffffffffffffffffffff167f17307eab39ab6107e8899845ad3d59bd9653f200f220920489ca2b5937696c31836040516112c69190614692565b60405180910390a35050565b60006112ef6001600084815260200190815260200160002061272f565b9050919050565b6006818154811061130657600080fd5b906000526020600020016000915090505481565b7f9f2df0fed2c77648de5860a4cc508cd0818c85b8b8a1ab4ceeef8d981c8956a681565b6113488282612744565b61136d816001600085815260200190815260200160002061210190919063ffffffff16565b505050565b7f65d7a28e3265b37a6474929f336521b332c1681b933f6cb9f3376673440d862a81565b6000600360008473ffffffffffffffffffffffffffffffffffffffff1673ffffffffffffffffffffffffffffffffffffffff16815260200190815260200160002060008373ffffffffffffffffffffffffffffffffffffffff1673ffffffffffffffffffffffffffffffffffffffff16815260200190815260200160002060009054906101000a900460ff16905092915050565b600073ffffffffffffffffffffffffffffffffffffffff168473ffffffffffffffffffffffffffffffffffffffff16141561149a576040517f08c379a00000000000000000000000000000000000000000000000000000000081526004016114919061484a565b60405180910390fd5b6114a2611c25565b73ffffffffffffffffffffffffffffffffffffffff168573ffffffffffffffffffffffffffffffffffffffff1614806114e857506114e7856114e2611c25565b611396565b5b611527576040517f08c379a000000000000000000000000000000000000000000000000000000000815260040161151e9061480a565b60405180910390fd5b6000611531611c25565b90506115518187876115428861276d565b61154b8861276d565b87611e98565b60006002600086815260200190815260200160002060008873ffffffffffffffffffffffffffffffffffffffff1673ffffffffffffffffffffffffffffffffffffffff168152602001908152602001600020549050838110156115e9576040517f08c379a00000000000000000000000000000000000000000000000000000000081526004016115e0906148ca565b60405180910390fd5b83816115f59190614bf3565b6002600087815260200190815260200160002060008973ffffffffffffffffffffffffffffffffffffffff1673ffffffffffffffffffffffffffffffffffffffff16815260200190815260200160002081905550836002600087815260200190815260200160002060008873ffffffffffffffffffffffffffffffffffffffff1673ffffffffffffffffffffffffffffffffffffffff16815260200190815260200160002060008282546116a99190614b43565b925050819055508573ffffffffffffffffffffffffffffffffffffffff168773ffffffffffffffffffffffffffffffffffffffff168373ffffffffffffffffffffffffffffffffffffffff167fc3d58168c5ae7397731d063d5bbf3d657854427343f4c083240f7aacaa2d0f6288886040516117269291906149e5565b60405180910390a461173c828888888888612833565b50505050505050565b61174d611c25565b73ffffffffffffffffffffffffffffffffffffffff168373ffffffffffffffffffffffffffffffffffffffff16148061179357506117928361178d611c25565b611396565b5b6117d2576040517f08c379a00000000000000000000000000000000000000000000000000000000081526004016117c99061480a565b60405180910390fd5b6117dd838383612a03565b505050565b6117ec8282612c2b565b5050565b6000611818836000018373ffffffffffffffffffffffffffffffffffffffff1660001b612d0b565b905092915050565b6118298261084a565b61183a81611835611c25565b612d7b565b6118448383612c2b565b505050565b60606000600283600261185c9190614b99565b6118669190614b43565b67ffffffffffffffff8111156118a5577f4e487b7100000000000000000000000000000000000000000000000000000000600052604160045260246000fd5b6040519080825280601f01601f1916602001820160405280156118d75781602001600182028036833780820191505090505b5090507f300000000000000000000000000000000000000000000000000000000000000081600081518110611935577f4e487b7100000000000000000000000000000000000000000000000000000000600052603260045260246000fd5b60200101907effffffffffffffffffffffffffffffffffffffffffffffffffffffffffffff1916908160001a9053507f7800000000000000000000000000000000000000000000000000000000000000816001815181106119bf577f4e487b7100000000000000000000000000000000000000000000000000000000600052603260045260246000fd5b60200101907effffffffffffffffffffffffffffffffffffffffffffffffffffffffffffff1916908160001a905350600060018460026119ff9190614b99565b611a099190614b43565b90505b6001811115611af5577f3031323334353637383961626364656600000000000000000000000000000000600f861660108110611a71577f4e487b7100000000000000000000000000000000000000000000000000000000600052603260045260246000fd5b1a60f81b828281518110611aae577f4e487b7100000000000000000000000000000000000000000000000000000000600052603260045260246000fd5b60200101907effffffffffffffffffffffffffffffffffffffffffffffffffffffffffffff1916908160001a905350600485901c945080611aee90614ce7565b9050611a0c565b5060008414611b39576040517f08c379a0000000000000000000000000000000000000000000000000000000008152600401611b309061472a565b60405180910390fd5b8091505092915050565b60007fd9b67a26000000000000000000000000000000000000000000000000000000007bffffffffffffffffffffffffffffffffffffffffffffffffffffffff1916827bffffffffffffffffffffffffffffffffffffffffffffffffffffffff19161480611c0e57507f0e89341c000000000000000000000000000000000000000000000000000000007bffffffffffffffffffffffffffffffffffffffffffffffffffffffff1916827bffffffffffffffffffffffffffffffffffffffffffffffffffffffff1916145b80611c1e5750611c1d82612e18565b5b9050919050565b600033905090565b600073ffffffffffffffffffffffffffffffffffffffff168473ffffffffffffffffffffffffffffffffffffffff161415611c9d576040517f08c379a0000000000000000000000000000000000000000000000000000000008152600401611c949061498a565b60405180910390fd5b8151835114611ce1576040517f08c379a0000000000000000000000000000000000000000000000000000000008152600401611cd89061496a565b60405180910390fd5b6000611ceb611c25565b9050611cfc81600087878787611e98565b60005b8451811015611e0257838181518110611d41577f4e487b7100000000000000000000000000000000000000000000000000000000600052603260045260246000fd5b602002602001015160026000878481518110611d86577f4e487b7100000000000000000000000000000000000000000000000000000000600052603260045260246000fd5b6020026020010151815260200190815260200160002060008873ffffffffffffffffffffffffffffffffffffffff1673ffffffffffffffffffffffffffffffffffffffff1681526020019081526020016000206000828254611de89190614b43565b925050819055508080611dfa90614d43565b915050611cff565b508473ffffffffffffffffffffffffffffffffffffffff16600073ffffffffffffffffffffffffffffffffffffffff168273ffffffffffffffffffffffffffffffffffffffff167f4a39dc06d4c0dbc64b70af90fd698a233a518aa5d07e595d983b8c0526c8f7fb8787604051611e7a92919061465b565b60405180910390a4611e9181600087878787611eae565b5050505050565b611ea6868686868686612e92565b505050505050565b611ecd8473ffffffffffffffffffffffffffffffffffffffff16612ef0565b15612076578373ffffffffffffffffffffffffffffffffffffffff1663bc197c8187878686866040518663ffffffff1660e01b8152600401611f13959493929190614577565b602060405180830381600087803b158015611f2d57600080fd5b505af1925050508015611f5e57506040513d601f19601f82011682018060405250810190611f5b9190613a5a565b60015b611fed57611f6a614e37565b80611f755750611fb2565b806040517f08c379a0000000000000000000000000000000000000000000000000000000008152600401611fa991906146c8565b60405180910390fd5b6040517f08c379a0000000000000000000000000000000000000000000000000000000008152600401611fe4906146ea565b60405180910390fd5b63bc197c8160e01b7bffffffffffffffffffffffffffffffffffffffffffffffffffffffff1916817bffffffffffffffffffffffffffffffffffffffffffffffffffffffff191614612074576040517f08c379a000000000000000000000000000000000000000000000000000000000815260040161206b9061474a565b60405180910390fd5b505b505050505050565b612086611c25565b73ffffffffffffffffffffffffffffffffffffffff168173ffffffffffffffffffffffffffffffffffffffff16146120f3576040517f08c379a00000000000000000000000000000000000000000000000000000000081526004016120ea906149aa565b60405180910390fd5b6120fd8282612f03565b5050565b6000612129836000018373ffffffffffffffffffffffffffffffffffffffff1660001b612fe4565b905092915050565b612139610ef5565b612178576040517f08c379a000000000000000000000000000000000000000000000000000000000815260040161216f9061476a565b60405180910390fd5b6000600560006101000a81548160ff0219169083151502179055507f5db9ee0a495bf2e6ff9c91a7834c1ba4fdd244a5e8aa4e537bd38aeae4b073aa6121bc611c25565b6040516121c9919061455c565b60405180910390a1565b600073ffffffffffffffffffffffffffffffffffffffff168373ffffffffffffffffffffffffffffffffffffffff161415612243576040517f08c379a000000000000000000000000000000000000000000000000000000000815260040161223a9061488a565b60405180910390fd5b8051825114612287576040517f08c379a000000000000000000000000000000000000000000000000000000000815260040161227e9061496a565b60405180910390fd5b6000612291611c25565b90506122b181856000868660405180602001604052806000815250611e98565b60005b83518110156124555760008482815181106122f8577f4e487b7100000000000000000000000000000000000000000000000000000000600052603260045260246000fd5b60200260200101519050600084838151811061233d577f4e487b7100000000000000000000000000000000000000000000000000000000600052603260045260246000fd5b6020026020010151905060006002600084815260200190815260200160002060008973ffffffffffffffffffffffffffffffffffffffff1673ffffffffffffffffffffffffffffffffffffffff168152602001908152602001600020549050818110156123df576040517f08c379a00000000000000000000000000000000000000000000000000000000081526004016123d6906147ca565b60405180910390fd5b81816123eb9190614bf3565b6002600085815260200190815260200160002060008a73ffffffffffffffffffffffffffffffffffffffff1673ffffffffffffffffffffffffffffffffffffffff16815260200190815260200160002081905550505050808061244d90614d43565b9150506122b4565b50600073ffffffffffffffffffffffffffffffffffffffff168473ffffffffffffffffffffffffffffffffffffffff168273ffffffffffffffffffffffffffffffffffffffff167f4a39dc06d4c0dbc64b70af90fd698a233a518aa5d07e595d983b8c0526c8f7fb86866040516124cd92919061465b565b60405180910390a450505050565b600073ffffffffffffffffffffffffffffffffffffffff168473ffffffffffffffffffffffffffffffffffffffff16141561254b576040517f08c379a00000000000000000000000000000000000000000000000000000000081526004016125429061498a565b60405180910390fd5b6000612555611c25565b9050612576816000876125678861276d565b6125708861276d565b87611e98565b826002600086815260200190815260200160002060008773ffffffffffffffffffffffffffffffffffffffff1673ffffffffffffffffffffffffffffffffffffffff16815260200190815260200160002060008282546125d69190614b43565b925050819055508473ffffffffffffffffffffffffffffffffffffffff16600073ffffffffffffffffffffffffffffffffffffffff168273ffffffffffffffffffffffffffffffffffffffff167fc3d58168c5ae7397731d063d5bbf3d657854427343f4c083240f7aacaa2d0f6287876040516126549291906149e5565b60405180910390a461266b81600087878787612833565b5050505050565b61267a610ef5565b156126ba576040517f08c379a00000000000000000000000000000000000000000000000000000000081526004016126b19061482a565b60405180910390fd5b6001600560006101000a81548160ff0219169083151502179055507f62e78cea01bee320cd4e420270b5ea74000d11b0c9f74754ebdbfc544b05a2586126fe611c25565b60405161270b919061455c565b60405180910390a1565b60006127248360000183613162565b60001c905092915050565b600061273d826000016131fc565b9050919050565b61274d8261084a565b61275e81612759611c25565b612d7b565b6127688383612f03565b505050565b60606000600167ffffffffffffffff8111156127b2577f4e487b7100000000000000000000000000000000000000000000000000000000600052604160045260246000fd5b6040519080825280602002602001820160405280156127e05781602001602082028036833780820191505090505b509050828160008151811061281e577f4e487b7100000000000000000000000000000000000000000000000000000000600052603260045260246000fd5b60200260200101818152505080915050919050565b6128528473ffffffffffffffffffffffffffffffffffffffff16612ef0565b156129fb578373ffffffffffffffffffffffffffffffffffffffff1663f23a6e6187878686866040518663ffffffff1660e01b81526004016128989594939291906145df565b602060405180830381600087803b1580156128b257600080fd5b505af19250505080156128e357506040513d601f19601f820116820180604052508101906128e09190613a5a565b60015b612972576128ef614e37565b806128fa5750612937565b806040517f08c379a000000000000000000000000000000000000000000000000000000000815260040161292e91906146c8565b60405180910390fd5b6040517f08c379a0000000000000000000000000000000000000000000000000000000008152600401612969906146ea565b60405180910390fd5b63f23a6e6160e01b7bffffffffffffffffffffffffffffffffffffffffffffffffffffffff1916817bffffffffffffffffffffffffffffffffffffffffffffffffffffffff1916146129f9576040517f08c379a00000000000000000000000000000000000000000000000000000000081526004016129f09061474a565b60405180910390fd5b505b505050505050565b600073ffffffffffffffffffffffffffffffffffffffff168373ffffffffffffffffffffffffffffffffffffffff161415612a73576040517f08c379a0000000000000000000000000000000000000000000000000000000008152600401612a6a9061488a565b60405180910390fd5b6000612a7d611c25565b9050612aad81856000612a8f8761276d565b612a988761276d565b60405180602001604052806000815250611e98565b60006002600085815260200190815260200160002060008673ffffffffffffffffffffffffffffffffffffffff1673ffffffffffffffffffffffffffffffffffffffff16815260200190815260200160002054905082811015612b45576040517f08c379a0000000000000000000000000000000000000000000000000000000008152600401612b3c906147ca565b60405180910390fd5b8281612b519190614bf3565b6002600086815260200190815260200160002060008773ffffffffffffffffffffffffffffffffffffffff1673ffffffffffffffffffffffffffffffffffffffff16815260200190815260200160002081905550600073ffffffffffffffffffffffffffffffffffffffff168573ffffffffffffffffffffffffffffffffffffffff168373ffffffffffffffffffffffffffffffffffffffff167fc3d58168c5ae7397731d063d5bbf3d657854427343f4c083240f7aacaa2d0f628787604051612c1c9291906149e5565b60405180910390a45050505050565b612c3582826110e0565b612d0757600160008084815260200190815260200160002060000160008373ffffffffffffffffffffffffffffffffffffffff1673ffffffffffffffffffffffffffffffffffffffff16815260200190815260200160002060006101000a81548160ff021916908315150217905550612cac611c25565b73ffffffffffffffffffffffffffffffffffffffff168173ffffffffffffffffffffffffffffffffffffffff16837f2f8788117e7eff1d82e926ec794901d17c78024a50270940304540a733656f0d60405160405180910390a45b5050565b6000612d17838361320d565b612d70578260000182908060018154018082558091505060019003906000526020600020016000909190919091505582600001805490508360010160008481526020019081526020016000208190555060019050612d75565b600090505b92915050565b612d8582826110e0565b612e1457612daa8173ffffffffffffffffffffffffffffffffffffffff166014611849565b612db88360001c6020611849565b604051602001612dc9929190614522565b6040516020818303038152906040526040517f08c379a0000000000000000000000000000000000000000000000000000000008152600401612e0b91906146c8565b60405180910390fd5b5050565b60007f5a05180f000000000000000000000000000000000000000000000000000000007bffffffffffffffffffffffffffffffffffffffffffffffffffffffff1916827bffffffffffffffffffffffffffffffffffffffffffffffffffffffff19161480612e8b5750612e8a82613230565b5b9050919050565b612ea08686868686866132aa565b612ea8610ef5565b15612ee8576040517f08c379a0000000000000000000000000000000000000000000000000000000008152600401612edf906147ea565b60405180910390fd5b505050505050565b600080823b905060008111915050919050565b612f0d82826110e0565b15612fe057600080600084815260200190815260200160002060000160008373ffffffffffffffffffffffffffffffffffffffff1673ffffffffffffffffffffffffffffffffffffffff16815260200190815260200160002060006101000a81548160ff021916908315150217905550612f85611c25565b73ffffffffffffffffffffffffffffffffffffffff168173ffffffffffffffffffffffffffffffffffffffff16837ff6391f5c32d9c69d2a47ea670b442974b53935d1edc7fd64eb21e047a839171b60405160405180910390a45b5050565b600080836001016000848152602001908152602001600020549050600081146131565760006001826130169190614bf3565b905060006001866000018054905061302e9190614bf3565b9050600086600001828154811061306e577f4e487b7100000000000000000000000000000000000000000000000000000000600052603260045260246000fd5b90600052602060002001549050808760000184815481106130b8577f4e487b7100000000000000000000000000000000000000000000000000000000600052603260045260246000fd5b906000526020600020018190555083876001016000838152602001908152602001600020819055508660000180548061311a577f4e487b7100000000000000000000000000000000000000000000000000000000600052603160045260246000fd5b6001900381819060005260206000200160009055905586600101600087815260200190815260200160002060009055600194505050505061315c565b60009150505b92915050565b6000818360000180549050116131ad576040517f08c379a00000000000000000000000000000000000000000000000000000000081526004016131a49061470a565b60405180910390fd5b8260000182815481106131e9577f4e487b7100000000000000000000000000000000000000000000000000000000600052603260045260246000fd5b9060005260206000200154905092915050565b600081600001805490509050919050565b600080836001016000848152602001908152602001600020541415905092915050565b60007f7965db0b000000000000000000000000000000000000000000000000000000007bffffffffffffffffffffffffffffffffffffffffffffffffffffffff1916827bffffffffffffffffffffffffffffffffffffffffffffffffffffffff191614806132a357506132a2826132b2565b5b9050919050565b505050505050565b60007f01ffc9a7000000000000000000000000000000000000000000000000000000007bffffffffffffffffffffffffffffffffffffffffffffffffffffffff1916827bffffffffffffffffffffffffffffffffffffffffffffffffffffffff1916149050919050565b600061332f61332a84614a3f565b614a0e565b9050808382526020820190508285602086028201111561334e57600080fd5b60005b8581101561337e57816133648882613432565b845260208401935060208301925050600181019050613351565b5050509392505050565b600061339b61339684614a6b565b614a0e565b905080838252602082019050828560208602820111156133ba57600080fd5b60005b858110156133ea57816133d08882613519565b8452602084019350602083019250506001810190506133bd565b5050509392505050565b600061340761340284614a97565b614a0e565b90508281526020810184848401111561341f57600080fd5b61342a848285614ca5565b509392505050565b60008135905061344181614eed565b92915050565b600082601f83011261345857600080fd5b813561346884826020860161331c565b91505092915050565b600082601f83011261348257600080fd5b8135613492848260208601613388565b91505092915050565b6000813590506134aa81614f04565b92915050565b6000813590506134bf81614f1b565b92915050565b6000813590506134d481614f32565b92915050565b6000815190506134e981614f32565b92915050565b600082601f83011261350057600080fd5b81356135108482602086016133f4565b91505092915050565b60008135905061352881614f49565b92915050565b6000806040838503121561354157600080fd5b600061354f85828601613432565b925050602061356085828601613432565b9150509250929050565b600080600080600060a0868803121561358257600080fd5b600061359088828901613432565b95505060206135a188828901613432565b945050604086013567ffffffffffffffff8111156135be57600080fd5b6135ca88828901613471565b935050606086013567ffffffffffffffff8111156135e757600080fd5b6135f388828901613471565b925050608086013567ffffffffffffffff81111561361057600080fd5b61361c888289016134ef565b9150509295509295909350565b600080600080600060a0868803121561364157600080fd5b600061364f88828901613432565b955050602061366088828901613432565b945050604061367188828901613519565b935050606061368288828901613519565b925050608086013567ffffffffffffffff81111561369f57600080fd5b6136ab888289016134ef565b9150509295509295909350565b6000806000606084860312156136cd57600080fd5b60006136db86828701613432565b935050602084013567ffffffffffffffff8111156136f857600080fd5b61370486828701613471565b925050604084013567ffffffffffffffff81111561372157600080fd5b61372d86828701613471565b9150509250925092565b6000806000806080858703121561374d57600080fd5b600061375b87828801613432565b945050602085013567ffffffffffffffff81111561377857600080fd5b61378487828801613471565b935050604085013567ffffffffffffffff8111156137a157600080fd5b6137ad87828801613471565b925050606085013567ffffffffffffffff8111156137ca57600080fd5b6137d6878288016134ef565b91505092959194509250565b600080604083850312156137f557600080fd5b600061380385828601613432565b92505060206138148582860161349b565b9150509250929050565b6000806040838503121561383157600080fd5b600061383f85828601613432565b925050602061385085828601613519565b9150509250929050565b60008060006060848603121561386f57600080fd5b600061387d86828701613432565b935050602061388e86828701613519565b925050604061389f86828701613519565b9150509250925092565b600080600080608085870312156138bf57600080fd5b60006138cd87828801613432565b94505060206138de87828801613519565b93505060406138ef87828801613519565b925050606085013567ffffffffffffffff81111561390c57600080fd5b613918878288016134ef565b91505092959194509250565b6000806040838503121561393757600080fd5b600083013567ffffffffffffffff81111561395157600080fd5b61395d85828601613447565b925050602083013567ffffffffffffffff81111561397a57600080fd5b61398685828601613471565b9150509250929050565b6000602082840312156139a257600080fd5b60006139b0848285016134b0565b91505092915050565b600080604083850312156139cc57600080fd5b60006139da858286016134b0565b92505060206139eb85828601613432565b9150509250929050565b60008060408385031215613a0857600080fd5b6000613a16858286016134b0565b9250506020613a2785828601613519565b9150509250929050565b600060208284031215613a4357600080fd5b6000613a51848285016134c5565b91505092915050565b600060208284031215613a6c57600080fd5b6000613a7a848285016134da565b91505092915050565b600060208284031215613a9557600080fd5b6000613aa384828501613519565b91505092915050565b6000613ab88383614504565b60208301905092915050565b613acd81614c27565b82525050565b6000613ade82614ad7565b613ae88185614b05565b9350613af383614ac7565b8060005b83811015613b24578151613b0b8882613aac565b9750613b1683614af8565b925050600181019050613af7565b5085935050505092915050565b613b3a81614c39565b82525050565b613b4981614c45565b82525050565b6000613b5a82614ae2565b613b648185614b16565b9350613b74818560208601614cb4565b613b7d81614e19565b840191505092915050565b6000613b9382614aed565b613b9d8185614b27565b9350613bad818560208601614cb4565b613bb681614e19565b840191505092915050565b6000613bcc82614aed565b613bd68185614b38565b9350613be6818560208601614cb4565b80840191505092915050565b6000613bff603483614b27565b91507f455243313135353a207472616e7366657220746f206e6f6e204552433131353560008301527f526563656976657220696d706c656d656e7465720000000000000000000000006020830152604082019050919050565b6000613c65602283614b27565b91507f456e756d657261626c655365743a20696e646578206f7574206f6620626f756e60008301527f64730000000000000000000000000000000000000000000000000000000000006020830152604082019050919050565b6000613ccb602083614b27565b91507f537472696e67733a20686578206c656e67746820696e73756666696369656e746000830152602082019050919050565b6000613d0b602883614b27565b91507f455243313135353a204552433131353552656365697665722072656a6563746560008301527f6420746f6b656e730000000000000000000000000000000000000000000000006020830152604082019050919050565b6000613d71601483614b27565b91507f5061757361626c653a206e6f74207061757365640000000000000000000000006000830152602082019050919050565b6000613db1602083614b27565b91507f494420746f206c617267652c20736b696e20646f6573206e6f742065786973746000830152602082019050919050565b6000613df1602b83614b27565b91507f455243313135353a2062616c616e636520717565727920666f7220746865207a60008301527f65726f20616464726573730000000000000000000000000000000000000000006020830152604082019050919050565b6000613e57602483614b27565b91507f455243313135353a206275726e20616d6f756e7420657863656564732062616c60008301527f616e6365000000000000000000000000000000000000000000000000000000006020830152604082019050919050565b6000613ebd602c83614b27565b91507f455243313135355061757361626c653a20746f6b656e207472616e736665722060008301527f7768696c652070617573656400000000000000000000000000000000000000006020830152604082019050919050565b6000613f23602983614b27565b91507f455243313135353a2063616c6c6572206973206e6f74206f776e6572206e6f7260008301527f20617070726f76656400000000000000000000000000000000000000000000006020830152604082019050919050565b6000613f89601083614b27565b91507f5061757361626c653a20706175736564000000000000000000000000000000006000830152602082019050919050565b6000613fc9602583614b27565b91507f455243313135353a207472616e7366657220746f20746865207a65726f20616460008301527f64726573730000000000000000000000000000000000000000000000000000006020830152604082019050919050565b600061402f603283614b27565b91507f455243313135353a207472616e736665722063616c6c6572206973206e6f742060008301527f6f776e6572206e6f7220617070726f76656400000000000000000000000000006020830152604082019050919050565b6000614095602383614b27565b91507f455243313135353a206275726e2066726f6d20746865207a65726f206164647260008301527f65737300000000000000000000000000000000000000000000000000000000006020830152604082019050919050565b60006140fb603883614b27565b91507f455243313135355072657365744d696e7465725061757365723a206d7573742060008301527f68617665206d696e74657220726f6c6520746f206d696e7400000000000000006020830152604082019050919050565b6000614161602a83614b27565b91507f455243313135353a20696e73756666696369656e742062616c616e636520666f60008301527f72207472616e73666572000000000000000000000000000000000000000000006020830152604082019050919050565b60006141c7603b83614b27565b91507f455243313135355072657365744d696e7465725061757365723a206d7573742060008301527f686176652070617573657220726f6c6520746f20756e706175736500000000006020830152604082019050919050565b600061422d603983614b27565b91507f455243313135355072657365744d696e7465725061757365723a206d7573742060008301527f686176652070617573657220726f6c6520746f207061757365000000000000006020830152604082019050919050565b6000614293601783614b38565b91507f416363657373436f6e74726f6c3a206163636f756e74200000000000000000006000830152601782019050919050565b60006142d3602983614b27565b91507f455243313135353a2073657474696e6720617070726f76616c2073746174757360008301527f20666f722073656c6600000000000000000000000000000000000000000000006020830152604082019050919050565b6000614339602983614b27565b91507f455243313135353a206163636f756e747320616e6420696473206c656e67746860008301527f206d69736d6174636800000000000000000000000000000000000000000000006020830152604082019050919050565b600061439f602883614b27565b91507f455243313135353a2069647320616e6420616d6f756e7473206c656e6774682060008301527f6d69736d617463680000000000000000000000000000000000000000000000006020830152604082019050919050565b6000614405602183614b27565b91507f455243313135353a206d696e7420746f20746865207a65726f2061646472657360008301527f73000000000000000000000000000000000000000000000000000000000000006020830152604082019050919050565b600061446b601183614b38565b91507f206973206d697373696e6720726f6c65200000000000000000000000000000006000830152601182019050919050565b60006144ab602f83614b27565b91507f416363657373436f6e74726f6c3a2063616e206f6e6c792072656e6f756e636560008301527f20726f6c657320666f722073656c6600000000000000000000000000000000006020830152604082019050919050565b61450d81614c9b565b82525050565b61451c81614c9b565b82525050565b600061452d82614286565b91506145398285613bc1565b91506145448261445e565b91506145508284613bc1565b91508190509392505050565b60006020820190506145716000830184613ac4565b92915050565b600060a08201905061458c6000830188613ac4565b6145996020830187613ac4565b81810360408301526145ab8186613ad3565b905081810360608301526145bf8185613ad3565b905081810360808301526145d38184613b4f565b90509695505050505050565b600060a0820190506145f46000830188613ac4565b6146016020830187613ac4565b61460e6040830186614513565b61461b6060830185614513565b818103608083015261462d8184613b4f565b90509695505050505050565b600060208201905081810360008301526146538184613ad3565b905092915050565b600060408201905081810360008301526146758185613ad3565b905081810360208301526146898184613ad3565b90509392505050565b60006020820190506146a76000830184613b31565b92915050565b60006020820190506146c26000830184613b40565b92915050565b600060208201905081810360008301526146e28184613b88565b905092915050565b6000602082019050818103600083015261470381613bf2565b9050919050565b6000602082019050818103600083015261472381613c58565b9050919050565b6000602082019050818103600083015261474381613cbe565b9050919050565b6000602082019050818103600083015261476381613cfe565b9050919050565b6000602082019050818103600083015261478381613d64565b9050919050565b600060208201905081810360008301526147a381613da4565b9050919050565b600060208201905081810360008301526147c381613de4565b9050919050565b600060208201905081810360008301526147e381613e4a565b9050919050565b6000602082019050818103600083015261480381613eb0565b9050919050565b6000602082019050818103600083015261482381613f16565b9050919050565b6000602082019050818103600083015261484381613f7c565b9050919050565b6000602082019050818103600083015261486381613fbc565b9050919050565b6000602082019050818103600083015261488381614022565b9050919050565b600060208201905081810360008301526148a381614088565b9050919050565b600060208201905081810360008301526148c3816140ee565b9050919050565b600060208201905081810360008301526148e381614154565b9050919050565b60006020820190508181036000830152614903816141ba565b9050919050565b6000602082019050818103600083015261492381614220565b9050919050565b60006020820190508181036000830152614943816142c6565b9050919050565b600060208201905081810360008301526149638161432c565b9050919050565b6000602082019050818103600083015261498381614392565b9050919050565b600060208201905081810360008301526149a3816143f8565b9050919050565b600060208201905081810360008301526149c38161449e565b9050919050565b60006020820190506149df6000830184614513565b92915050565b60006040820190506149fa6000830185614513565b614a076020830184614513565b9392505050565b6000604051905081810181811067ffffffffffffffff82111715614a3557614a34614dea565b5b8060405250919050565b600067ffffffffffffffff821115614a5a57614a59614dea565b5b602082029050602081019050919050565b600067ffffffffffffffff821115614a8657614a85614dea565b5b602082029050602081019050919050565b600067ffffffffffffffff821115614ab257614ab1614dea565b5b601f19601f8301169050602081019050919050565b6000819050602082019050919050565b600081519050919050565b600081519050919050565b600081519050919050565b6000602082019050919050565b600082825260208201905092915050565b600082825260208201905092915050565b600082825260208201905092915050565b600081905092915050565b6000614b4e82614c9b565b9150614b5983614c9b565b9250827fffffffffffffffffffffffffffffffffffffffffffffffffffffffffffffffff03821115614b8e57614b8d614d8c565b5b828201905092915050565b6000614ba482614c9b565b9150614baf83614c9b565b9250817fffffffffffffffffffffffffffffffffffffffffffffffffffffffffffffffff0483118215151615614be857614be7614d8c565b5b828202905092915050565b6000614bfe82614c9b565b9150614c0983614c9b565b925082821015614c1c57614c1b614d8c565b5b828203905092915050565b6000614c3282614c7b565b9050919050565b60008115159050919050565b6000819050919050565b60007fffffffff0000000000000000000000000000000000000000000000000000000082169050919050565b600073ffffffffffffffffffffffffffffffffffffffff82169050919050565b6000819050919050565b82818337600083830152505050565b60005b83811015614cd2578082015181840152602081019050614cb7565b83811115614ce1576000848401525b50505050565b6000614cf282614c9b565b91506000821415614d0657614d05614d8c565b5b600182039050919050565b60006002820490506001821680614d2957607f821691505b60208210811415614d3d57614d3c614dbb565b5b50919050565b6000614d4e82614c9b565b91507fffffffffffffffffffffffffffffffffffffffffffffffffffffffffffffffff821415614d8157614d80614d8c565b5b600182019050919050565b7f4e487b7100000000000000000000000000000000000000000000000000000000600052601160045260246000fd5b7f4e487b7100000000000000000000000000000000000000000000000000000000600052602260045260246000fd5b7f4e487b7100000000000000000000000000000000000000000000000000000000600052604160045260246000fd5b6000601f19601f8301169050919050565b60008160e01c9050919050565b600060443d1015614e4757614eea565b60046000803e614e58600051614e2a565b6308c379a08114614e695750614eea565b60405160043d036004823e80513d602482011167ffffffffffffffff82111715614e9557505050614eea565b808201805167ffffffffffffffff811115614eb4575050505050614eea565b8060208301013d8501811115614ecf57505050505050614eea565b614ed882614e19565b60208401016040528296505050505050505b90565b614ef681614c27565b8114614f0157600080fd5b50565b614f0d81614c39565b8114614f1857600080fd5b50565b614f2481614c45565b8114614f2f57600080fd5b50565b614f3b81614c4f565b8114614f4657600080fd5b50565b614f5281614c9b565b8114614f5d57600080fd5b5056fea26469706673582212209c37a11cd7e65cd14d93d6e6acd43867fc4aec85fef24c27381380550367429e64736f6c63430008000033",
  "linkReferences": {},
  "deployedLinkReferences": {}
}