{
  "_format": "hh-sol-artifact-1",
  "contractName": "Skins",
  "sourceName": "contracts/utility/Skins.sol",
  "abi": [
    {
      "inputs": [],
      "stateMutability": "nonpayable",
      "type": "constructor"
    },
    {
      "anonymous": false,
      "inputs": [
        {
          "indexed": true,
          "internalType": "address",
          "name": "account",
          "type": "address"
        },
        {
          "indexed": true,
          "internalType": "address",
          "name": "operator",
          "type": "address"
        },
        {
          "indexed": false,
          "internalType": "bool",
          "name": "approved",
          "type": "bool"
        }
      ],
      "name": "ApprovalForAll",
      "type": "event"
    },
    {
      "anonymous": false,
      "inputs": [
        {
          "indexed": false,
          "internalType": "address",
          "name": "account",
          "type": "address"
        }
      ],
      "name": "Paused",
      "type": "event"
    },
    {
      "anonymous": false,
      "inputs": [
        {
          "indexed": true,
          "internalType": "bytes32",
          "name": "role",
          "type": "bytes32"
        },
        {
          "indexed": true,
          "internalType": "bytes32",
          "name": "previousAdminRole",
          "type": "bytes32"
        },
        {
          "indexed": true,
          "internalType": "bytes32",
          "name": "newAdminRole",
          "type": "bytes32"
        }
      ],
      "name": "RoleAdminChanged",
      "type": "event"
    },
    {
      "anonymous": false,
      "inputs": [
        {
          "indexed": true,
          "internalType": "bytes32",
          "name": "role",
          "type": "bytes32"
        },
        {
          "indexed": true,
          "internalType": "address",
          "name": "account",
          "type": "address"
        },
        {
          "indexed": true,
          "internalType": "address",
          "name": "sender",
          "type": "address"
        }
      ],
      "name": "RoleGranted",
      "type": "event"
    },
    {
      "anonymous": false,
      "inputs": [
        {
          "indexed": true,
          "internalType": "bytes32",
          "name": "role",
          "type": "bytes32"
        },
        {
          "indexed": true,
          "internalType": "address",
          "name": "account",
          "type": "address"
        },
        {
          "indexed": true,
          "internalType": "address",
          "name": "sender",
          "type": "address"
        }
      ],
      "name": "RoleRevoked",
      "type": "event"
    },
    {
      "anonymous": false,
      "inputs": [
        {
          "indexed": true,
          "internalType": "address",
          "name": "operator",
          "type": "address"
        },
        {
          "indexed": true,
          "internalType": "address",
          "name": "from",
          "type": "address"
        },
        {
          "indexed": true,
          "internalType": "address",
          "name": "to",
          "type": "address"
        },
        {
          "indexed": false,
          "internalType": "uint256[]",
          "name": "ids",
          "type": "uint256[]"
        },
        {
          "indexed": false,
          "internalType": "uint256[]",
          "name": "values",
          "type": "uint256[]"
        }
      ],
      "name": "TransferBatch",
      "type": "event"
    },
    {
      "anonymous": false,
      "inputs": [
        {
          "indexed": true,
          "internalType": "address",
          "name": "operator",
          "type": "address"
        },
        {
          "indexed": true,
          "internalType": "address",
          "name": "from",
          "type": "address"
        },
        {
          "indexed": true,
          "internalType": "address",
          "name": "to",
          "type": "address"
        },
        {
          "indexed": false,
          "internalType": "uint256",
          "name": "id",
          "type": "uint256"
        },
        {
          "indexed": false,
          "internalType": "uint256",
          "name": "value",
          "type": "uint256"
        }
      ],
      "name": "TransferSingle",
      "type": "event"
    },
    {
      "anonymous": false,
      "inputs": [
        {
          "indexed": false,
          "internalType": "string",
          "name": "value",
          "type": "string"
        },
        {
          "indexed": true,
          "internalType": "uint256",
          "name": "id",
          "type": "uint256"
        }
      ],
      "name": "URI",
      "type": "event"
    },
    {
      "anonymous": false,
      "inputs": [
        {
          "indexed": false,
          "internalType": "address",
          "name": "account",
          "type": "address"
        }
      ],
      "name": "Unpaused",
      "type": "event"
    },
    {
      "inputs": [],
      "name": "DEFAULT_ADMIN_ROLE",
      "outputs": [
        {
          "internalType": "bytes32",
          "name": "",
          "type": "bytes32"
        }
      ],
      "stateMutability": "view",
      "type": "function"
    },
    {
      "inputs": [],
      "name": "MINTER_ROLE",
      "outputs": [
        {
          "internalType": "bytes32",
          "name": "",
          "type": "bytes32"
        }
      ],
      "stateMutability": "view",
      "type": "function"
    },
    {
      "inputs": [],
      "name": "PAUSER_ROLE",
      "outputs": [
        {
          "internalType": "bytes32",
          "name": "",
          "type": "bytes32"
        }
      ],
      "stateMutability": "view",
      "type": "function"
    },
    {
      "inputs": [
        {
          "internalType": "address",
          "name": "account",
          "type": "address"
        },
        {
          "internalType": "uint256",
          "name": "id",
          "type": "uint256"
        }
      ],
      "name": "balanceOf",
      "outputs": [
        {
          "internalType": "uint256",
          "name": "",
          "type": "uint256"
        }
      ],
      "stateMutability": "view",
      "type": "function"
    },
    {
      "inputs": [
        {
          "internalType": "address[]",
          "name": "accounts",
          "type": "address[]"
        },
        {
          "internalType": "uint256[]",
          "name": "ids",
          "type": "uint256[]"
        }
      ],
      "name": "balanceOfBatch",
      "outputs": [
        {
          "internalType": "uint256[]",
          "name": "",
          "type": "uint256[]"
        }
      ],
      "stateMutability": "view",
      "type": "function"
    },
    {
      "inputs": [
        {
          "internalType": "address",
          "name": "account",
          "type": "address"
        },
        {
          "internalType": "uint256",
          "name": "id",
          "type": "uint256"
        },
        {
          "internalType": "uint256",
          "name": "value",
          "type": "uint256"
        }
      ],
      "name": "burn",
      "outputs": [],
      "stateMutability": "nonpayable",
      "type": "function"
    },
    {
      "inputs": [
        {
          "internalType": "address",
          "name": "account",
          "type": "address"
        },
        {
          "internalType": "uint256[]",
          "name": "ids",
          "type": "uint256[]"
        },
        {
          "internalType": "uint256[]",
          "name": "values",
          "type": "uint256[]"
        }
      ],
      "name": "burnBatch",
      "outputs": [],
      "stateMutability": "nonpayable",
      "type": "function"
    },
    {
      "inputs": [
        {
          "internalType": "bytes32",
          "name": "role",
          "type": "bytes32"
        }
      ],
      "name": "getRoleAdmin",
      "outputs": [
        {
          "internalType": "bytes32",
          "name": "",
          "type": "bytes32"
        }
      ],
      "stateMutability": "view",
      "type": "function"
    },
    {
      "inputs": [
        {
          "internalType": "bytes32",
          "name": "role",
          "type": "bytes32"
        },
        {
          "internalType": "uint256",
          "name": "index",
          "type": "uint256"
        }
      ],
      "name": "getRoleMember",
      "outputs": [
        {
          "internalType": "address",
          "name": "",
          "type": "address"
        }
      ],
      "stateMutability": "view",
      "type": "function"
    },
    {
      "inputs": [
        {
          "internalType": "bytes32",
          "name": "role",
          "type": "bytes32"
        }
      ],
      "name": "getRoleMemberCount",
      "outputs": [
        {
          "internalType": "uint256",
          "name": "",
          "type": "uint256"
        }
      ],
      "stateMutability": "view",
      "type": "function"
    },
    {
      "inputs": [
        {
          "internalType": "uint256",
          "name": "_id",
          "type": "uint256"
        }
      ],
      "name": "getSkinAvailability",
      "outputs": [
        {
          "internalType": "uint256",
          "name": "",
          "type": "uint256"
        }
      ],
      "stateMutability": "view",
      "type": "function"
    },
    {
      "inputs": [
        {
          "internalType": "bytes32",
          "name": "role",
          "type": "bytes32"
        },
        {
          "internalType": "address",
          "name": "account",
          "type": "address"
        }
      ],
      "name": "grantRole",
      "outputs": [],
      "stateMutability": "nonpayable",
      "type": "function"
    },
    {
      "inputs": [
        {
          "internalType": "bytes32",
          "name": "role",
          "type": "bytes32"
        },
        {
          "internalType": "address",
          "name": "account",
          "type": "address"
        }
      ],
      "name": "hasRole",
      "outputs": [
        {
          "internalType": "bool",
          "name": "",
          "type": "bool"
        }
      ],
      "stateMutability": "view",
      "type": "function"
    },
    {
      "inputs": [
        {
          "internalType": "address",
          "name": "account",
          "type": "address"
        },
        {
          "internalType": "address",
          "name": "operator",
          "type": "address"
        }
      ],
      "name": "isApprovedForAll",
      "outputs": [
        {
          "internalType": "bool",
          "name": "",
          "type": "bool"
        }
      ],
      "stateMutability": "view",
      "type": "function"
    },
    {
      "inputs": [
        {
          "internalType": "address",
          "name": "to",
          "type": "address"
        },
        {
          "internalType": "uint256",
          "name": "id",
          "type": "uint256"
        },
        {
          "internalType": "uint256",
          "name": "amount",
          "type": "uint256"
        },
        {
          "internalType": "bytes",
          "name": "data",
          "type": "bytes"
        }
      ],
      "name": "mint",
      "outputs": [],
      "stateMutability": "nonpayable",
      "type": "function"
    },
    {
      "inputs": [
        {
          "internalType": "address",
          "name": "to",
          "type": "address"
        },
        {
          "internalType": "uint256[]",
          "name": "ids",
          "type": "uint256[]"
        },
        {
          "internalType": "uint256[]",
          "name": "amounts",
          "type": "uint256[]"
        },
        {
          "internalType": "bytes",
          "name": "data",
          "type": "bytes"
        }
      ],
      "name": "mintBatch",
      "outputs": [],
      "stateMutability": "nonpayable",
      "type": "function"
    },
    {
      "inputs": [
        {
          "internalType": "uint256",
          "name": "_amount",
          "type": "uint256"
        }
      ],
      "name": "newSkin",
      "outputs": [],
      "stateMutability": "nonpayable",
      "type": "function"
    },
    {
      "inputs": [],
      "name": "pause",
      "outputs": [],
      "stateMutability": "nonpayable",
      "type": "function"
    },
    {
      "inputs": [],
      "name": "paused",
      "outputs": [
        {
          "internalType": "bool",
          "name": "",
          "type": "bool"
        }
      ],
      "stateMutability": "view",
      "type": "function"
    },
    {
      "inputs": [
        {
          "internalType": "bytes32",
          "name": "role",
          "type": "bytes32"
        },
        {
          "internalType": "address",
          "name": "account",
          "type": "address"
        }
      ],
      "name": "renounceRole",
      "outputs": [],
      "stateMutability": "nonpayable",
      "type": "function"
    },
    {
      "inputs": [
        {
          "internalType": "bytes32",
          "name": "role",
          "type": "bytes32"
        },
        {
          "internalType": "address",
          "name": "account",
          "type": "address"
        }
      ],
      "name": "revokeRole",
      "outputs": [],
      "stateMutability": "nonpayable",
      "type": "function"
    },
    {
      "inputs": [
        {
          "internalType": "address",
          "name": "from",
          "type": "address"
        },
        {
          "internalType": "address",
          "name": "to",
          "type": "address"
        },
        {
          "internalType": "uint256[]",
          "name": "ids",
          "type": "uint256[]"
        },
        {
          "internalType": "uint256[]",
          "name": "amounts",
          "type": "uint256[]"
        },
        {
          "internalType": "bytes",
          "name": "data",
          "type": "bytes"
        }
      ],
      "name": "safeBatchTransferFrom",
      "outputs": [],
      "stateMutability": "nonpayable",
      "type": "function"
    },
    {
      "inputs": [
        {
          "internalType": "address",
          "name": "from",
          "type": "address"
        },
        {
          "internalType": "address",
          "name": "to",
          "type": "address"
        },
        {
          "internalType": "uint256",
          "name": "id",
          "type": "uint256"
        },
        {
          "internalType": "uint256",
          "name": "amount",
          "type": "uint256"
        },
        {
          "internalType": "bytes",
          "name": "data",
          "type": "bytes"
        }
      ],
      "name": "safeTransferFrom",
      "outputs": [],
      "stateMutability": "nonpayable",
      "type": "function"
    },
    {
      "inputs": [
        {
          "internalType": "address",
          "name": "operator",
          "type": "address"
        },
        {
          "internalType": "bool",
          "name": "approved",
          "type": "bool"
        }
      ],
      "name": "setApprovalForAll",
      "outputs": [],
      "stateMutability": "nonpayable",
      "type": "function"
    },
    {
      "inputs": [],
      "name": "skinCount",
      "outputs": [
        {
          "internalType": "uint256",
          "name": "",
          "type": "uint256"
        }
      ],
      "stateMutability": "view",
      "type": "function"
    },
    {
      "inputs": [
        {
          "internalType": "uint256",
          "name": "",
          "type": "uint256"
        }
      ],
      "name": "skinQuantities",
      "outputs": [
        {
          "internalType": "uint256",
          "name": "",
          "type": "uint256"
        }
      ],
      "stateMutability": "view",
      "type": "function"
    },
    {
      "inputs": [
        {
          "internalType": "bytes4",
          "name": "interfaceId",
          "type": "bytes4"
        }
      ],
      "name": "supportsInterface",
      "outputs": [
        {
          "internalType": "bool",
          "name": "",
          "type": "bool"
        }
      ],
      "stateMutability": "view",
      "type": "function"
    },
    {
      "inputs": [],
      "name": "uniqueSkinCount",
      "outputs": [
        {
          "internalType": "uint256",
          "name": "",
          "type": "uint256"
        }
      ],
      "stateMutability": "view",
      "type": "function"
    },
    {
      "inputs": [],
      "name": "unpause",
      "outputs": [],
      "stateMutability": "nonpayable",
      "type": "function"
    },
    {
      "inputs": [
        {
          "internalType": "uint256",
          "name": "",
          "type": "uint256"
        }
      ],
      "name": "uri",
      "outputs": [
        {
          "internalType": "string",
          "name": "",
          "type": "string"
        }
      ],
      "stateMutability": "view",
      "type": "function"
    }
  ],
  "bytecode": "0x6080604052600060075560006008553480156200001b57600080fd5b5060405180602001604052806000815250806200003e816200012b60201b60201c565b506000600560006101000a81548160ff0219169083151502179055506200007e6000801b620000726200014760201b60201c565b6200014f60201b60201c565b620000bf7f9f2df0fed2c77648de5860a4cc508cd0818c85b8b8a1ab4ceeef8d981c8956a6620000b36200014760201b60201c565b6200014f60201b60201c565b620001007f65d7a28e3265b37a6474929f336521b332c1681b933f6cb9f3376673440d862a620000f46200014760201b60201c565b6200014f60201b60201c565b50620001256000801b620001196200014760201b60201c565b6200019760201b60201c565b62000ccf565b80600490805190602001906200014392919062000860565b5050565b600033905090565b620001668282620001df60201b620018d61760201c565b620001928160016000858152602001908152602001600020620001f560201b620018e41790919060201c565b505050565b620001ae82826200022d60201b620019141760201c565b620001da8160016000858152602001908152602001600020620001f560201b620018e41790919060201c565b505050565b620001f182826200027660201b60201c565b5050565b600062000225836000018373ffffffffffffffffffffffffffffffffffffffff1660001b6200036760201b60201c565b905092915050565b6200023e82620003e160201b60201c565b6200025f81620002536200014760201b60201c565b6200040060201b60201c565b6200027183836200027660201b60201c565b505050565b620002888282620004c460201b60201c565b6200036357600160008084815260200190815260200160002060000160008373ffffffffffffffffffffffffffffffffffffffff1673ffffffffffffffffffffffffffffffffffffffff16815260200190815260200160002060006101000a81548160ff021916908315150217905550620003086200014760201b60201c565b73ffffffffffffffffffffffffffffffffffffffff168173ffffffffffffffffffffffffffffffffffffffff16837f2f8788117e7eff1d82e926ec794901d17c78024a50270940304540a733656f0d60405160405180910390a45b5050565b60006200037b83836200052e60201b60201c565b620003d6578260000182908060018154018082558091505060019003906000526020600020016000909190919091505582600001805490508360010160008481526020019081526020016000208190555060019050620003db565b600090505b92915050565b6000806000838152602001908152602001600020600101549050919050565b620004128282620004c460201b60201c565b620004c057620004458173ffffffffffffffffffffffffffffffffffffffff1660146200055160201b6200193d1760201c565b620004608360001c60206200055160201b6200193d1760201c565b6040516020016200047392919062000a4e565b6040516020818303038152906040526040517f08c379a0000000000000000000000000000000000000000000000000000000008152600401620004b7919062000a90565b60405180910390fd5b5050565b600080600084815260200190815260200160002060000160008373ffffffffffffffffffffffffffffffffffffffff1673ffffffffffffffffffffffffffffffffffffffff16815260200190815260200160002060009054906101000a900460ff16905092915050565b600080836001016000848152602001908152602001600020541415905092915050565b60606000600283600262000566919062000b5a565b62000572919062000afd565b67ffffffffffffffff811115620005b2577f4e487b7100000000000000000000000000000000000000000000000000000000600052604160045260246000fd5b6040519080825280601f01601f191660200182016040528015620005e55781602001600182028036833780820191505090505b5090507f30000000000000000000000000000000000000000000000000000000000000008160008151811062000644577f4e487b7100000000000000000000000000000000000000000000000000000000600052603260045260246000fd5b60200101907effffffffffffffffffffffffffffffffffffffffffffffffffffffffffffff1916908160001a9053507f780000000000000000000000000000000000000000000000000000000000000081600181518110620006cf577f4e487b7100000000000000000000000000000000000000000000000000000000600052603260045260246000fd5b60200101907effffffffffffffffffffffffffffffffffffffffffffffffffffffffffffff1916908160001a9053506000600184600262000711919062000b5a565b6200071d919062000afd565b90505b60018111156200080f577f3031323334353637383961626364656600000000000000000000000000000000600f86166010811062000787577f4e487b7100000000000000000000000000000000000000000000000000000000600052603260045260246000fd5b1a60f81b828281518110620007c5577f4e487b7100000000000000000000000000000000000000000000000000000000600052603260045260246000fd5b60200101907effffffffffffffffffffffffffffffffffffffffffffffffffffffffffffff1916908160001a905350600485901c945080620008079062000bfb565b905062000720565b506000841462000856576040517f08c379a00000000000000000000000000000000000000000000000000000000081526004016200084d9062000ab4565b60405180910390fd5b8091505092915050565b8280546200086e9062000c2a565b90600052602060002090601f016020900481019282620008925760008555620008de565b82601f10620008ad57805160ff1916838001178555620008de565b82800160010185558215620008de579182015b82811115620008dd578251825591602001919060010190620008c0565b5b509050620008ed9190620008f1565b5090565b5b808211156200090c576000816000905550600101620008f2565b5090565b60006200091d8262000ad6565b62000929818562000ae1565b93506200093b81856020860162000bc5565b620009468162000cbe565b840191505092915050565b60006200095e8262000ad6565b6200096a818562000af2565b93506200097c81856020860162000bc5565b80840191505092915050565b60006200099760208362000ae1565b91507f537472696e67733a20686578206c656e67746820696e73756666696369656e746000830152602082019050919050565b6000620009d960178362000af2565b91507f416363657373436f6e74726f6c3a206163636f756e74200000000000000000006000830152601782019050919050565b600062000a1b60118362000af2565b91507f206973206d697373696e6720726f6c65200000000000000000000000000000006000830152601182019050919050565b600062000a5b82620009ca565b915062000a69828562000951565b915062000a768262000a0c565b915062000a84828462000951565b91508190509392505050565b6000602082019050818103600083015262000aac818462000910565b905092915050565b6000602082019050818103600083015262000acf8162000988565b9050919050565b600081519050919050565b600082825260208201905092915050565b600081905092915050565b600062000b0a8262000bbb565b915062000b178362000bbb565b9250827fffffffffffffffffffffffffffffffffffffffffffffffffffffffffffffffff0382111562000b4f5762000b4e62000c60565b5b828201905092915050565b600062000b678262000bbb565b915062000b748362000bbb565b9250817fffffffffffffffffffffffffffffffffffffffffffffffffffffffffffffffff048311821515161562000bb05762000baf62000c60565b5b828202905092915050565b6000819050919050565b60005b8381101562000be557808201518184015260208101905062000bc8565b8381111562000bf5576000848401525b50505050565b600062000c088262000bbb565b9150600082141562000c1f5762000c1e62000c60565b5b600182039050919050565b6000600282049050600182168062000c4357607f821691505b6020821081141562000c5a5762000c5962000c8f565b5b50919050565b7f4e487b7100000000000000000000000000000000000000000000000000000000600052601160045260246000fd5b7f4e487b7100000000000000000000000000000000000000000000000000000000600052602260045260246000fd5b6000601f19601f8301169050919050565b6150ea8062000cdf6000396000f3fe608060405234801561001057600080fd5b50600436106101d95760003560e01c80637abf012511610104578063cebe801f116100a2578063e63ab1e911610071578063e63ab1e914610564578063e985e9c514610582578063f242432a146105b2578063f5298aca146105ce576101d9565b8063cebe801f146104de578063d53913931461050e578063d547741f1461052c578063e5c7920f14610548576101d9565b806391d14854116100de57806391d1485414610444578063a217fddf14610474578063a22cb46514610492578063ca15c873146104ae576101d9565b80637abf0125146103ec5780638456cb591461040a5780639010d07c14610414576101d9565b80632f2ff15d1161017c5780635c975abb1161014b5780635c975abb146103785780636b20c45414610396578063731133e9146103b257806378041043146103ce576101d9565b80632f2ff15d1461030657806336568abe146103225780633f4ba83a1461033e5780634e1273f414610348576101d9565b80630e89341c116101b85780630e89341c1461026e5780631f7fdffa1461029e578063248a9ca3146102ba5780632eb2c2d6146102ea576101d9565b8062fdd58e146101de57806301ffc9a71461020e578063077b0e4d1461023e575b600080fd5b6101f860048036038101906101f39190613912565b6105ea565b6040516102059190614b1e565b60405180910390f35b61022860048036038101906102239190613b25565b6106b4565b60405161023591906147c6565b60405180910390f35b61025860048036038101906102539190613b77565b6106c6565b6040516102659190614b1e565b60405180910390f35b61028860048036038101906102839190613b77565b61075b565b60405161029591906147fc565b60405180910390f35b6102b860048036038101906102b3919061382b565b6107ef565b005b6102d460048036038101906102cf9190613a84565b610871565b6040516102e191906147e1565b60405180910390f35b61030460048036038101906102ff919061365e565b610890565b005b610320600480360381019061031b9190613aad565b610c89565b005b61033c60048036038101906103379190613aad565b610cbd565b005b610346610cf1565b005b610362600480360381019061035d9190613a18565b610d6b565b60405161036f919061476d565b60405180910390f35b610380610f1c565b60405161038d91906147c6565b60405180910390f35b6103b060048036038101906103ab91906137ac565b610f33565b005b6103cc60048036038101906103c7919061399d565b610fd0565b005b6103d6611052565b6040516103e39190614b1e565b60405180910390f35b6103f4611058565b6040516104019190614b1e565b60405180910390f35b61041261105e565b005b61042e60048036038101906104299190613ae9565b6110d8565b60405161043b9190614690565b60405180910390f35b61045e60048036038101906104599190613aad565b611107565b60405161046b91906147c6565b60405180910390f35b61047c611171565b60405161048991906147e1565b60405180910390f35b6104ac60048036038101906104a791906138d6565b611178565b005b6104c860048036038101906104c39190613a84565b6112f9565b6040516104d59190614b1e565b60405180910390f35b6104f860048036038101906104f39190613b77565b61131d565b6040516105059190614b1e565b60405180910390f35b610516611341565b60405161052391906147e1565b60405180910390f35b61054660048036038101906105419190613aad565b611365565b005b610562600480360381019061055d9190613b77565b611399565b005b61056c611466565b60405161057991906147e1565b60405180910390f35b61059c60048036038101906105979190613622565b61148a565b6040516105a991906147c6565b60405180910390f35b6105cc60048036038101906105c7919061371d565b61151e565b005b6105e860048036038101906105e3919061394e565b611839565b005b60008073ffffffffffffffffffffffffffffffffffffffff168373ffffffffffffffffffffffffffffffffffffffff16141561065b576040517f08c379a0000000000000000000000000000000000000000000000000000000008152600401610652906148fe565b60405180910390fd5b6002600083815260200190815260200160002060008473ffffffffffffffffffffffffffffffffffffffff1673ffffffffffffffffffffffffffffffffffffffff16815260200190815260200160002054905092915050565b60006106bf82611c37565b9050919050565b6000600680549050821061070f576040517f08c379a0000000000000000000000000000000000000000000000000000000008152600401610706906148be565b60405180910390fd5b60068281548110610749577f4e487b7100000000000000000000000000000000000000000000000000000000600052603260045260246000fd5b90600052602060002001549050919050565b60606004805461076a90614e65565b80601f016020809104026020016040519081016040528092919081815260200182805461079690614e65565b80156107e35780601f106107b8576101008083540402835291602001916107e3565b820191906000526020600020905b8154815290600101906020018083116107c657829003601f168201915b50505050509050919050565b6108207f9f2df0fed2c77648de5860a4cc508cd0818c85b8b8a1ab4ceeef8d981c8956a661081b611d19565b611107565b61085f576040517f08c379a0000000000000000000000000000000000000000000000000000000008152600401610856906149fe565b60405180910390fd5b61086b84848484611d21565b50505050565b6000806000838152602001908152602001600020600101549050919050565b81518351146108d4576040517f08c379a00000000000000000000000000000000000000000000000000000000081526004016108cb90614abe565b60405180910390fd5b600073ffffffffffffffffffffffffffffffffffffffff168473ffffffffffffffffffffffffffffffffffffffff161415610944576040517f08c379a000000000000000000000000000000000000000000000000000000000815260040161093b9061499e565b60405180910390fd5b61094c611d19565b73ffffffffffffffffffffffffffffffffffffffff168573ffffffffffffffffffffffffffffffffffffffff16148061099257506109918561098c611d19565b61148a565b5b6109d1576040517f08c379a00000000000000000000000000000000000000000000000000000000081526004016109c8906149be565b60405180910390fd5b60006109db611d19565b90506109eb818787878787611f8c565b60005b8451811015610bf4576000858281518110610a32577f4e487b7100000000000000000000000000000000000000000000000000000000600052603260045260246000fd5b602002602001015190506000858381518110610a77577f4e487b7100000000000000000000000000000000000000000000000000000000600052603260045260246000fd5b6020026020010151905060006002600084815260200190815260200160002060008b73ffffffffffffffffffffffffffffffffffffffff1673ffffffffffffffffffffffffffffffffffffffff16815260200190815260200160002054905081811015610b19576040517f08c379a0000000000000000000000000000000000000000000000000000000008152600401610b1090614a1e565b60405180910390fd5b8181610b259190614d47565b6002600085815260200190815260200160002060008c73ffffffffffffffffffffffffffffffffffffffff1673ffffffffffffffffffffffffffffffffffffffff16815260200190815260200160002081905550816002600085815260200190815260200160002060008b73ffffffffffffffffffffffffffffffffffffffff1673ffffffffffffffffffffffffffffffffffffffff1681526020019081526020016000206000828254610bd99190614c97565b9250508190555050505080610bed90614e97565b90506109ee565b508473ffffffffffffffffffffffffffffffffffffffff168673ffffffffffffffffffffffffffffffffffffffff168273ffffffffffffffffffffffffffffffffffffffff167f4a39dc06d4c0dbc64b70af90fd698a233a518aa5d07e595d983b8c0526c8f7fb8787604051610c6b92919061478f565b60405180910390a4610c81818787878787611fa2565b505050505050565b610c938282611914565b610cb881600160008581526020019081526020016000206118e490919063ffffffff16565b505050565b610cc78282612172565b610cec81600160008581526020019081526020016000206121f590919063ffffffff16565b505050565b610d227f65d7a28e3265b37a6474929f336521b332c1681b933f6cb9f3376673440d862a610d1d611d19565b611107565b610d61576040517f08c379a0000000000000000000000000000000000000000000000000000000008152600401610d5890614a3e565b60405180910390fd5b610d69612225565b565b60608151835114610db1576040517f08c379a0000000000000000000000000000000000000000000000000000000008152600401610da890614a9e565b60405180910390fd5b6000835167ffffffffffffffff811115610df4577f4e487b7100000000000000000000000000000000000000000000000000000000600052604160045260246000fd5b604051908082528060200260200182016040528015610e225781602001602082028036833780820191505090505b50905060005b8451811015610f1157610ebb858281518110610e6d577f4e487b7100000000000000000000000000000000000000000000000000000000600052603260045260246000fd5b6020026020010151858381518110610eae577f4e487b7100000000000000000000000000000000000000000000000000000000600052603260045260246000fd5b60200260200101516105ea565b828281518110610ef4577f4e487b7100000000000000000000000000000000000000000000000000000000600052603260045260246000fd5b60200260200101818152505080610f0a90614e97565b9050610e28565b508091505092915050565b6000600560009054906101000a900460ff16905090565b610f3b611d19565b73ffffffffffffffffffffffffffffffffffffffff168373ffffffffffffffffffffffffffffffffffffffff161480610f815750610f8083610f7b611d19565b61148a565b5b610fc0576040517f08c379a0000000000000000000000000000000000000000000000000000000008152600401610fb79061495e565b60405180910390fd5b610fcb8383836122c7565b505050565b6110017f9f2df0fed2c77648de5860a4cc508cd0818c85b8b8a1ab4ceeef8d981c8956a6610ffc611d19565b611107565b611040576040517f08c379a0000000000000000000000000000000000000000000000000000000008152600401611037906149fe565b60405180910390fd5b61104c848484846125cf565b50505050565b60075481565b60085481565b61108f7f65d7a28e3265b37a6474929f336521b332c1681b933f6cb9f3376673440d862a61108a611d19565b611107565b6110ce576040517f08c379a00000000000000000000000000000000000000000000000000000000081526004016110c590614a5e565b60405180910390fd5b6110d6612766565b565b60006110ff826001600086815260200190815260200160002061280990919063ffffffff16565b905092915050565b600080600084815260200190815260200160002060000160008373ffffffffffffffffffffffffffffffffffffffff1673ffffffffffffffffffffffffffffffffffffffff16815260200190815260200160002060009054906101000a900460ff16905092915050565b6000801b81565b8173ffffffffffffffffffffffffffffffffffffffff16611197611d19565b73ffffffffffffffffffffffffffffffffffffffff1614156111ee576040517f08c379a00000000000000000000000000000000000000000000000000000000081526004016111e590614a7e565b60405180910390fd5b80600360006111fb611d19565b73ffffffffffffffffffffffffffffffffffffffff1673ffffffffffffffffffffffffffffffffffffffff16815260200190815260200160002060008473ffffffffffffffffffffffffffffffffffffffff1673ffffffffffffffffffffffffffffffffffffffff16815260200190815260200160002060006101000a81548160ff0219169083151502179055508173ffffffffffffffffffffffffffffffffffffffff166112a8611d19565b73ffffffffffffffffffffffffffffffffffffffff167f17307eab39ab6107e8899845ad3d59bd9653f200f220920489ca2b5937696c31836040516112ed91906147c6565b60405180910390a35050565b600061131660016000848152602001908152602001600020612823565b9050919050565b6006818154811061132d57600080fd5b906000526020600020016000915090505481565b7f9f2df0fed2c77648de5860a4cc508cd0818c85b8b8a1ab4ceeef8d981c8956a681565b61136f8282612838565b61139481600160008581526020019081526020016000206121f590919063ffffffff16565b505050565b6113ad6000801b6113a8611d19565b611107565b6113ec576040517f08c379a00000000000000000000000000000000000000000000000000000000081526004016113e3906148de565b60405180910390fd5b611409306008548360405180602001604052806000815250610fd0565b6008600081548092919061141c90614e97565b919050555080600760008282546114339190614c97565b92505081905550600681908060018154018082558091505060019003906000526020600020016000909190919091505550565b7f65d7a28e3265b37a6474929f336521b332c1681b933f6cb9f3376673440d862a81565b6000600360008473ffffffffffffffffffffffffffffffffffffffff1673ffffffffffffffffffffffffffffffffffffffff16815260200190815260200160002060008373ffffffffffffffffffffffffffffffffffffffff1673ffffffffffffffffffffffffffffffffffffffff16815260200190815260200160002060009054906101000a900460ff16905092915050565b600073ffffffffffffffffffffffffffffffffffffffff168473ffffffffffffffffffffffffffffffffffffffff16141561158e576040517f08c379a00000000000000000000000000000000000000000000000000000000081526004016115859061499e565b60405180910390fd5b611596611d19565b73ffffffffffffffffffffffffffffffffffffffff168573ffffffffffffffffffffffffffffffffffffffff1614806115dc57506115db856115d6611d19565b61148a565b5b61161b576040517f08c379a00000000000000000000000000000000000000000000000000000000081526004016116129061495e565b60405180910390fd5b6000611625611d19565b905061164581878761163688612861565b61163f88612861565b87611f8c565b60006002600086815260200190815260200160002060008873ffffffffffffffffffffffffffffffffffffffff1673ffffffffffffffffffffffffffffffffffffffff168152602001908152602001600020549050838110156116dd576040517f08c379a00000000000000000000000000000000000000000000000000000000081526004016116d490614a1e565b60405180910390fd5b83816116e99190614d47565b6002600087815260200190815260200160002060008973ffffffffffffffffffffffffffffffffffffffff1673ffffffffffffffffffffffffffffffffffffffff16815260200190815260200160002081905550836002600087815260200190815260200160002060008873ffffffffffffffffffffffffffffffffffffffff1673ffffffffffffffffffffffffffffffffffffffff168152602001908152602001600020600082825461179d9190614c97565b925050819055508573ffffffffffffffffffffffffffffffffffffffff168773ffffffffffffffffffffffffffffffffffffffff168373ffffffffffffffffffffffffffffffffffffffff167fc3d58168c5ae7397731d063d5bbf3d657854427343f4c083240f7aacaa2d0f62888860405161181a929190614b39565b60405180910390a4611830828888888888612927565b50505050505050565b611841611d19565b73ffffffffffffffffffffffffffffffffffffffff168373ffffffffffffffffffffffffffffffffffffffff161480611887575061188683611881611d19565b61148a565b5b6118c6576040517f08c379a00000000000000000000000000000000000000000000000000000000081526004016118bd9061495e565b60405180910390fd5b6118d1838383612af7565b505050565b6118e08282612d1f565b5050565b600061190c836000018373ffffffffffffffffffffffffffffffffffffffff1660001b612dff565b905092915050565b61191d82610871565b61192e81611929611d19565b612e6f565b6119388383612d1f565b505050565b6060600060028360026119509190614ced565b61195a9190614c97565b67ffffffffffffffff811115611999577f4e487b7100000000000000000000000000000000000000000000000000000000600052604160045260246000fd5b6040519080825280601f01601f1916602001820160405280156119cb5781602001600182028036833780820191505090505b5090507f300000000000000000000000000000000000000000000000000000000000000081600081518110611a29577f4e487b7100000000000000000000000000000000000000000000000000000000600052603260045260246000fd5b60200101907effffffffffffffffffffffffffffffffffffffffffffffffffffffffffffff1916908160001a9053507f780000000000000000000000000000000000000000000000000000000000000081600181518110611ab3577f4e487b7100000000000000000000000000000000000000000000000000000000600052603260045260246000fd5b60200101907effffffffffffffffffffffffffffffffffffffffffffffffffffffffffffff1916908160001a90535060006001846002611af39190614ced565b611afd9190614c97565b90505b6001811115611be9577f3031323334353637383961626364656600000000000000000000000000000000600f861660108110611b65577f4e487b7100000000000000000000000000000000000000000000000000000000600052603260045260246000fd5b1a60f81b828281518110611ba2577f4e487b7100000000000000000000000000000000000000000000000000000000600052603260045260246000fd5b60200101907effffffffffffffffffffffffffffffffffffffffffffffffffffffffffffff1916908160001a905350600485901c945080611be290614e3b565b9050611b00565b5060008414611c2d576040517f08c379a0000000000000000000000000000000000000000000000000000000008152600401611c249061485e565b60405180910390fd5b8091505092915050565b60007fd9b67a26000000000000000000000000000000000000000000000000000000007bffffffffffffffffffffffffffffffffffffffffffffffffffffffff1916827bffffffffffffffffffffffffffffffffffffffffffffffffffffffff19161480611d0257507f0e89341c000000000000000000000000000000000000000000000000000000007bffffffffffffffffffffffffffffffffffffffffffffffffffffffff1916827bffffffffffffffffffffffffffffffffffffffffffffffffffffffff1916145b80611d125750611d1182612f0c565b5b9050919050565b600033905090565b600073ffffffffffffffffffffffffffffffffffffffff168473ffffffffffffffffffffffffffffffffffffffff161415611d91576040517f08c379a0000000000000000000000000000000000000000000000000000000008152600401611d8890614ade565b60405180910390fd5b8151835114611dd5576040517f08c379a0000000000000000000000000000000000000000000000000000000008152600401611dcc90614abe565b60405180910390fd5b6000611ddf611d19565b9050611df081600087878787611f8c565b60005b8451811015611ef657838181518110611e35577f4e487b7100000000000000000000000000000000000000000000000000000000600052603260045260246000fd5b602002602001015160026000878481518110611e7a577f4e487b7100000000000000000000000000000000000000000000000000000000600052603260045260246000fd5b6020026020010151815260200190815260200160002060008873ffffffffffffffffffffffffffffffffffffffff1673ffffffffffffffffffffffffffffffffffffffff1681526020019081526020016000206000828254611edc9190614c97565b925050819055508080611eee90614e97565b915050611df3565b508473ffffffffffffffffffffffffffffffffffffffff16600073ffffffffffffffffffffffffffffffffffffffff168273ffffffffffffffffffffffffffffffffffffffff167f4a39dc06d4c0dbc64b70af90fd698a233a518aa5d07e595d983b8c0526c8f7fb8787604051611f6e92919061478f565b60405180910390a4611f8581600087878787611fa2565b5050505050565b611f9a868686868686612f86565b505050505050565b611fc18473ffffffffffffffffffffffffffffffffffffffff16612fe4565b1561216a578373ffffffffffffffffffffffffffffffffffffffff1663bc197c8187878686866040518663ffffffff1660e01b81526004016120079594939291906146ab565b602060405180830381600087803b15801561202157600080fd5b505af192505050801561205257506040513d601f19601f8201168201806040525081019061204f9190613b4e565b60015b6120e15761205e614f8b565b8061206957506120a6565b806040517f08c379a000000000000000000000000000000000000000000000000000000000815260040161209d91906147fc565b60405180910390fd5b6040517f08c379a00000000000000000000000000000000000000000000000000000000081526004016120d89061481e565b60405180910390fd5b63bc197c8160e01b7bffffffffffffffffffffffffffffffffffffffffffffffffffffffff1916817bffffffffffffffffffffffffffffffffffffffffffffffffffffffff191614612168576040517f08c379a000000000000000000000000000000000000000000000000000000000815260040161215f9061487e565b60405180910390fd5b505b505050505050565b61217a611d19565b73ffffffffffffffffffffffffffffffffffffffff168173ffffffffffffffffffffffffffffffffffffffff16146121e7576040517f08c379a00000000000000000000000000000000000000000000000000000000081526004016121de90614afe565b60405180910390fd5b6121f18282612ff7565b5050565b600061221d836000018373ffffffffffffffffffffffffffffffffffffffff1660001b6130d8565b905092915050565b61222d610f1c565b61226c576040517f08c379a00000000000000000000000000000000000000000000000000000000081526004016122639061489e565b60405180910390fd5b6000600560006101000a81548160ff0219169083151502179055507f5db9ee0a495bf2e6ff9c91a7834c1ba4fdd244a5e8aa4e537bd38aeae4b073aa6122b0611d19565b6040516122bd9190614690565b60405180910390a1565b600073ffffffffffffffffffffffffffffffffffffffff168373ffffffffffffffffffffffffffffffffffffffff161415612337576040517f08c379a000000000000000000000000000000000000000000000000000000000815260040161232e906149de565b60405180910390fd5b805182511461237b576040517f08c379a000000000000000000000000000000000000000000000000000000000815260040161237290614abe565b60405180910390fd5b6000612385611d19565b90506123a581856000868660405180602001604052806000815250611f8c565b60005b83518110156125495760008482815181106123ec577f4e487b7100000000000000000000000000000000000000000000000000000000600052603260045260246000fd5b602002602001015190506000848381518110612431577f4e487b7100000000000000000000000000000000000000000000000000000000600052603260045260246000fd5b6020026020010151905060006002600084815260200190815260200160002060008973ffffffffffffffffffffffffffffffffffffffff1673ffffffffffffffffffffffffffffffffffffffff168152602001908152602001600020549050818110156124d3576040517f08c379a00000000000000000000000000000000000000000000000000000000081526004016124ca9061491e565b60405180910390fd5b81816124df9190614d47565b6002600085815260200190815260200160002060008a73ffffffffffffffffffffffffffffffffffffffff1673ffffffffffffffffffffffffffffffffffffffff16815260200190815260200160002081905550505050808061254190614e97565b9150506123a8565b50600073ffffffffffffffffffffffffffffffffffffffff168473ffffffffffffffffffffffffffffffffffffffff168273ffffffffffffffffffffffffffffffffffffffff167f4a39dc06d4c0dbc64b70af90fd698a233a518aa5d07e595d983b8c0526c8f7fb86866040516125c192919061478f565b60405180910390a450505050565b600073ffffffffffffffffffffffffffffffffffffffff168473ffffffffffffffffffffffffffffffffffffffff16141561263f576040517f08c379a000000000000000000000000000000000000000000000000000000000815260040161263690614ade565b60405180910390fd5b6000612649611d19565b905061266a8160008761265b88612861565b61266488612861565b87611f8c565b826002600086815260200190815260200160002060008773ffffffffffffffffffffffffffffffffffffffff1673ffffffffffffffffffffffffffffffffffffffff16815260200190815260200160002060008282546126ca9190614c97565b925050819055508473ffffffffffffffffffffffffffffffffffffffff16600073ffffffffffffffffffffffffffffffffffffffff168273ffffffffffffffffffffffffffffffffffffffff167fc3d58168c5ae7397731d063d5bbf3d657854427343f4c083240f7aacaa2d0f628787604051612748929190614b39565b60405180910390a461275f81600087878787612927565b5050505050565b61276e610f1c565b156127ae576040517f08c379a00000000000000000000000000000000000000000000000000000000081526004016127a59061497e565b60405180910390fd5b6001600560006101000a81548160ff0219169083151502179055507f62e78cea01bee320cd4e420270b5ea74000d11b0c9f74754ebdbfc544b05a2586127f2611d19565b6040516127ff9190614690565b60405180910390a1565b60006128188360000183613256565b60001c905092915050565b6000612831826000016132f0565b9050919050565b61284182610871565b6128528161284d611d19565b612e6f565b61285c8383612ff7565b505050565b60606000600167ffffffffffffffff8111156128a6577f4e487b7100000000000000000000000000000000000000000000000000000000600052604160045260246000fd5b6040519080825280602002602001820160405280156128d45781602001602082028036833780820191505090505b5090508281600081518110612912577f4e487b7100000000000000000000000000000000000000000000000000000000600052603260045260246000fd5b60200260200101818152505080915050919050565b6129468473ffffffffffffffffffffffffffffffffffffffff16612fe4565b15612aef578373ffffffffffffffffffffffffffffffffffffffff1663f23a6e6187878686866040518663ffffffff1660e01b815260040161298c959493929190614713565b602060405180830381600087803b1580156129a657600080fd5b505af19250505080156129d757506040513d601f19601f820116820180604052508101906129d49190613b4e565b60015b612a66576129e3614f8b565b806129ee5750612a2b565b806040517f08c379a0000000000000000000000000000000000000000000000000000000008152600401612a2291906147fc565b60405180910390fd5b6040517f08c379a0000000000000000000000000000000000000000000000000000000008152600401612a5d9061481e565b60405180910390fd5b63f23a6e6160e01b7bffffffffffffffffffffffffffffffffffffffffffffffffffffffff1916817bffffffffffffffffffffffffffffffffffffffffffffffffffffffff191614612aed576040517f08c379a0000000000000000000000000000000000000000000000000000000008152600401612ae49061487e565b60405180910390fd5b505b505050505050565b600073ffffffffffffffffffffffffffffffffffffffff168373ffffffffffffffffffffffffffffffffffffffff161415612b67576040517f08c379a0000000000000000000000000000000000000000000000000000000008152600401612b5e906149de565b60405180910390fd5b6000612b71611d19565b9050612ba181856000612b8387612861565b612b8c87612861565b60405180602001604052806000815250611f8c565b60006002600085815260200190815260200160002060008673ffffffffffffffffffffffffffffffffffffffff1673ffffffffffffffffffffffffffffffffffffffff16815260200190815260200160002054905082811015612c39576040517f08c379a0000000000000000000000000000000000000000000000000000000008152600401612c309061491e565b60405180910390fd5b8281612c459190614d47565b6002600086815260200190815260200160002060008773ffffffffffffffffffffffffffffffffffffffff1673ffffffffffffffffffffffffffffffffffffffff16815260200190815260200160002081905550600073ffffffffffffffffffffffffffffffffffffffff168573ffffffffffffffffffffffffffffffffffffffff168373ffffffffffffffffffffffffffffffffffffffff167fc3d58168c5ae7397731d063d5bbf3d657854427343f4c083240f7aacaa2d0f628787604051612d10929190614b39565b60405180910390a45050505050565b612d298282611107565b612dfb57600160008084815260200190815260200160002060000160008373ffffffffffffffffffffffffffffffffffffffff1673ffffffffffffffffffffffffffffffffffffffff16815260200190815260200160002060006101000a81548160ff021916908315150217905550612da0611d19565b73ffffffffffffffffffffffffffffffffffffffff168173ffffffffffffffffffffffffffffffffffffffff16837f2f8788117e7eff1d82e926ec794901d17c78024a50270940304540a733656f0d60405160405180910390a45b5050565b6000612e0b8383613301565b612e64578260000182908060018154018082558091505060019003906000526020600020016000909190919091505582600001805490508360010160008481526020019081526020016000208190555060019050612e69565b600090505b92915050565b612e798282611107565b612f0857612e9e8173ffffffffffffffffffffffffffffffffffffffff16601461193d565b612eac8360001c602061193d565b604051602001612ebd929190614656565b6040516020818303038152906040526040517f08c379a0000000000000000000000000000000000000000000000000000000008152600401612eff91906147fc565b60405180910390fd5b5050565b60007f5a05180f000000000000000000000000000000000000000000000000000000007bffffffffffffffffffffffffffffffffffffffffffffffffffffffff1916827bffffffffffffffffffffffffffffffffffffffffffffffffffffffff19161480612f7f5750612f7e82613324565b5b9050919050565b612f9486868686868661339e565b612f9c610f1c565b15612fdc576040517f08c379a0000000000000000000000000000000000000000000000000000000008152600401612fd39061493e565b60405180910390fd5b505050505050565b600080823b905060008111915050919050565b6130018282611107565b156130d457600080600084815260200190815260200160002060000160008373ffffffffffffffffffffffffffffffffffffffff1673ffffffffffffffffffffffffffffffffffffffff16815260200190815260200160002060006101000a81548160ff021916908315150217905550613079611d19565b73ffffffffffffffffffffffffffffffffffffffff168173ffffffffffffffffffffffffffffffffffffffff16837ff6391f5c32d9c69d2a47ea670b442974b53935d1edc7fd64eb21e047a839171b60405160405180910390a45b5050565b6000808360010160008481526020019081526020016000205490506000811461324a57600060018261310a9190614d47565b90506000600186600001805490506131229190614d47565b90506000866000018281548110613162577f4e487b7100000000000000000000000000000000000000000000000000000000600052603260045260246000fd5b90600052602060002001549050808760000184815481106131ac577f4e487b7100000000000000000000000000000000000000000000000000000000600052603260045260246000fd5b906000526020600020018190555083876001016000838152602001908152602001600020819055508660000180548061320e577f4e487b7100000000000000000000000000000000000000000000000000000000600052603160045260246000fd5b60019003818190600052602060002001600090559055866001016000878152602001908152602001600020600090556001945050505050613250565b60009150505b92915050565b6000818360000180549050116132a1576040517f08c379a00000000000000000000000000000000000000000000000000000000081526004016132989061483e565b60405180910390fd5b8260000182815481106132dd577f4e487b7100000000000000000000000000000000000000000000000000000000600052603260045260246000fd5b9060005260206000200154905092915050565b600081600001805490509050919050565b600080836001016000848152602001908152602001600020541415905092915050565b60007f7965db0b000000000000000000000000000000000000000000000000000000007bffffffffffffffffffffffffffffffffffffffffffffffffffffffff1916827bffffffffffffffffffffffffffffffffffffffffffffffffffffffff191614806133975750613396826133a6565b5b9050919050565b505050505050565b60007f01ffc9a7000000000000000000000000000000000000000000000000000000007bffffffffffffffffffffffffffffffffffffffffffffffffffffffff1916827bffffffffffffffffffffffffffffffffffffffffffffffffffffffff1916149050919050565b600061342361341e84614b93565b614b62565b9050808382526020820190508285602086028201111561344257600080fd5b60005b8581101561347257816134588882613526565b845260208401935060208301925050600181019050613445565b5050509392505050565b600061348f61348a84614bbf565b614b62565b905080838252602082019050828560208602820111156134ae57600080fd5b60005b858110156134de57816134c4888261360d565b8452602084019350602083019250506001810190506134b1565b5050509392505050565b60006134fb6134f684614beb565b614b62565b90508281526020810184848401111561351357600080fd5b61351e848285614df9565b509392505050565b60008135905061353581615041565b92915050565b600082601f83011261354c57600080fd5b813561355c848260208601613410565b91505092915050565b600082601f83011261357657600080fd5b813561358684826020860161347c565b91505092915050565b60008135905061359e81615058565b92915050565b6000813590506135b38161506f565b92915050565b6000813590506135c881615086565b92915050565b6000815190506135dd81615086565b92915050565b600082601f8301126135f457600080fd5b81356136048482602086016134e8565b91505092915050565b60008135905061361c8161509d565b92915050565b6000806040838503121561363557600080fd5b600061364385828601613526565b925050602061365485828601613526565b9150509250929050565b600080600080600060a0868803121561367657600080fd5b600061368488828901613526565b955050602061369588828901613526565b945050604086013567ffffffffffffffff8111156136b257600080fd5b6136be88828901613565565b935050606086013567ffffffffffffffff8111156136db57600080fd5b6136e788828901613565565b925050608086013567ffffffffffffffff81111561370457600080fd5b613710888289016135e3565b9150509295509295909350565b600080600080600060a0868803121561373557600080fd5b600061374388828901613526565b955050602061375488828901613526565b94505060406137658882890161360d565b93505060606137768882890161360d565b925050608086013567ffffffffffffffff81111561379357600080fd5b61379f888289016135e3565b9150509295509295909350565b6000806000606084860312156137c157600080fd5b60006137cf86828701613526565b935050602084013567ffffffffffffffff8111156137ec57600080fd5b6137f886828701613565565b925050604084013567ffffffffffffffff81111561381557600080fd5b61382186828701613565565b9150509250925092565b6000806000806080858703121561384157600080fd5b600061384f87828801613526565b945050602085013567ffffffffffffffff81111561386c57600080fd5b61387887828801613565565b935050604085013567ffffffffffffffff81111561389557600080fd5b6138a187828801613565565b925050606085013567ffffffffffffffff8111156138be57600080fd5b6138ca878288016135e3565b91505092959194509250565b600080604083850312156138e957600080fd5b60006138f785828601613526565b92505060206139088582860161358f565b9150509250929050565b6000806040838503121561392557600080fd5b600061393385828601613526565b92505060206139448582860161360d565b9150509250929050565b60008060006060848603121561396357600080fd5b600061397186828701613526565b93505060206139828682870161360d565b92505060406139938682870161360d565b9150509250925092565b600080600080608085870312156139b357600080fd5b60006139c187828801613526565b94505060206139d28782880161360d565b93505060406139e38782880161360d565b925050606085013567ffffffffffffffff811115613a0057600080fd5b613a0c878288016135e3565b91505092959194509250565b60008060408385031215613a2b57600080fd5b600083013567ffffffffffffffff811115613a4557600080fd5b613a518582860161353b565b925050602083013567ffffffffffffffff811115613a6e57600080fd5b613a7a85828601613565565b9150509250929050565b600060208284031215613a9657600080fd5b6000613aa4848285016135a4565b91505092915050565b60008060408385031215613ac057600080fd5b6000613ace858286016135a4565b9250506020613adf85828601613526565b9150509250929050565b60008060408385031215613afc57600080fd5b6000613b0a858286016135a4565b9250506020613b1b8582860161360d565b9150509250929050565b600060208284031215613b3757600080fd5b6000613b45848285016135b9565b91505092915050565b600060208284031215613b6057600080fd5b6000613b6e848285016135ce565b91505092915050565b600060208284031215613b8957600080fd5b6000613b978482850161360d565b91505092915050565b6000613bac8383614638565b60208301905092915050565b613bc181614d7b565b82525050565b6000613bd282614c2b565b613bdc8185614c59565b9350613be783614c1b565b8060005b83811015613c18578151613bff8882613ba0565b9750613c0a83614c4c565b925050600181019050613beb565b5085935050505092915050565b613c2e81614d8d565b82525050565b613c3d81614d99565b82525050565b6000613c4e82614c36565b613c588185614c6a565b9350613c68818560208601614e08565b613c7181614f6d565b840191505092915050565b6000613c8782614c41565b613c918185614c7b565b9350613ca1818560208601614e08565b613caa81614f6d565b840191505092915050565b6000613cc082614c41565b613cca8185614c8c565b9350613cda818560208601614e08565b80840191505092915050565b6000613cf3603483614c7b565b91507f455243313135353a207472616e7366657220746f206e6f6e204552433131353560008301527f526563656976657220696d706c656d656e7465720000000000000000000000006020830152604082019050919050565b6000613d59602283614c7b565b91507f456e756d657261626c655365743a20696e646578206f7574206f6620626f756e60008301527f64730000000000000000000000000000000000000000000000000000000000006020830152604082019050919050565b6000613dbf602083614c7b565b91507f537472696e67733a20686578206c656e67746820696e73756666696369656e746000830152602082019050919050565b6000613dff602883614c7b565b91507f455243313135353a204552433131353552656365697665722072656a6563746560008301527f6420746f6b656e730000000000000000000000000000000000000000000000006020830152604082019050919050565b6000613e65601483614c7b565b91507f5061757361626c653a206e6f74207061757365640000000000000000000000006000830152602082019050919050565b6000613ea5602083614c7b565b91507f494420746f206c617267652c20736b696e20646f6573206e6f742065786973746000830152602082019050919050565b6000613ee5601583614c7b565b91507f4e6f207065726d697373696f6e20746f206d696e7400000000000000000000006000830152602082019050919050565b6000613f25602b83614c7b565b91507f455243313135353a2062616c616e636520717565727920666f7220746865207a60008301527f65726f20616464726573730000000000000000000000000000000000000000006020830152604082019050919050565b6000613f8b602483614c7b565b91507f455243313135353a206275726e20616d6f756e7420657863656564732062616c60008301527f616e6365000000000000000000000000000000000000000000000000000000006020830152604082019050919050565b6000613ff1602c83614c7b565b91507f455243313135355061757361626c653a20746f6b656e207472616e736665722060008301527f7768696c652070617573656400000000000000000000000000000000000000006020830152604082019050919050565b6000614057602983614c7b565b91507f455243313135353a2063616c6c6572206973206e6f74206f776e6572206e6f7260008301527f20617070726f76656400000000000000000000000000000000000000000000006020830152604082019050919050565b60006140bd601083614c7b565b91507f5061757361626c653a20706175736564000000000000000000000000000000006000830152602082019050919050565b60006140fd602583614c7b565b91507f455243313135353a207472616e7366657220746f20746865207a65726f20616460008301527f64726573730000000000000000000000000000000000000000000000000000006020830152604082019050919050565b6000614163603283614c7b565b91507f455243313135353a207472616e736665722063616c6c6572206973206e6f742060008301527f6f776e6572206e6f7220617070726f76656400000000000000000000000000006020830152604082019050919050565b60006141c9602383614c7b565b91507f455243313135353a206275726e2066726f6d20746865207a65726f206164647260008301527f65737300000000000000000000000000000000000000000000000000000000006020830152604082019050919050565b600061422f603883614c7b565b91507f455243313135355072657365744d696e7465725061757365723a206d7573742060008301527f68617665206d696e74657220726f6c6520746f206d696e7400000000000000006020830152604082019050919050565b6000614295602a83614c7b565b91507f455243313135353a20696e73756666696369656e742062616c616e636520666f60008301527f72207472616e73666572000000000000000000000000000000000000000000006020830152604082019050919050565b60006142fb603b83614c7b565b91507f455243313135355072657365744d696e7465725061757365723a206d7573742060008301527f686176652070617573657220726f6c6520746f20756e706175736500000000006020830152604082019050919050565b6000614361603983614c7b565b91507f455243313135355072657365744d696e7465725061757365723a206d7573742060008301527f686176652070617573657220726f6c6520746f207061757365000000000000006020830152604082019050919050565b60006143c7601783614c8c565b91507f416363657373436f6e74726f6c3a206163636f756e74200000000000000000006000830152601782019050919050565b6000614407602983614c7b565b91507f455243313135353a2073657474696e6720617070726f76616c2073746174757360008301527f20666f722073656c6600000000000000000000000000000000000000000000006020830152604082019050919050565b600061446d602983614c7b565b91507f455243313135353a206163636f756e747320616e6420696473206c656e67746860008301527f206d69736d6174636800000000000000000000000000000000000000000000006020830152604082019050919050565b60006144d3602883614c7b565b91507f455243313135353a2069647320616e6420616d6f756e7473206c656e6774682060008301527f6d69736d617463680000000000000000000000000000000000000000000000006020830152604082019050919050565b6000614539602183614c7b565b91507f455243313135353a206d696e7420746f20746865207a65726f2061646472657360008301527f73000000000000000000000000000000000000000000000000000000000000006020830152604082019050919050565b600061459f601183614c8c565b91507f206973206d697373696e6720726f6c65200000000000000000000000000000006000830152601182019050919050565b60006145df602f83614c7b565b91507f416363657373436f6e74726f6c3a2063616e206f6e6c792072656e6f756e636560008301527f20726f6c657320666f722073656c6600000000000000000000000000000000006020830152604082019050919050565b61464181614def565b82525050565b61465081614def565b82525050565b6000614661826143ba565b915061466d8285613cb5565b915061467882614592565b91506146848284613cb5565b91508190509392505050565b60006020820190506146a56000830184613bb8565b92915050565b600060a0820190506146c06000830188613bb8565b6146cd6020830187613bb8565b81810360408301526146df8186613bc7565b905081810360608301526146f38185613bc7565b905081810360808301526147078184613c43565b90509695505050505050565b600060a0820190506147286000830188613bb8565b6147356020830187613bb8565b6147426040830186614647565b61474f6060830185614647565b81810360808301526147618184613c43565b90509695505050505050565b600060208201905081810360008301526147878184613bc7565b905092915050565b600060408201905081810360008301526147a98185613bc7565b905081810360208301526147bd8184613bc7565b90509392505050565b60006020820190506147db6000830184613c25565b92915050565b60006020820190506147f66000830184613c34565b92915050565b600060208201905081810360008301526148168184613c7c565b905092915050565b6000602082019050818103600083015261483781613ce6565b9050919050565b6000602082019050818103600083015261485781613d4c565b9050919050565b6000602082019050818103600083015261487781613db2565b9050919050565b6000602082019050818103600083015261489781613df2565b9050919050565b600060208201905081810360008301526148b781613e58565b9050919050565b600060208201905081810360008301526148d781613e98565b9050919050565b600060208201905081810360008301526148f781613ed8565b9050919050565b6000602082019050818103600083015261491781613f18565b9050919050565b6000602082019050818103600083015261493781613f7e565b9050919050565b6000602082019050818103600083015261495781613fe4565b9050919050565b600060208201905081810360008301526149778161404a565b9050919050565b60006020820190508181036000830152614997816140b0565b9050919050565b600060208201905081810360008301526149b7816140f0565b9050919050565b600060208201905081810360008301526149d781614156565b9050919050565b600060208201905081810360008301526149f7816141bc565b9050919050565b60006020820190508181036000830152614a1781614222565b9050919050565b60006020820190508181036000830152614a3781614288565b9050919050565b60006020820190508181036000830152614a57816142ee565b9050919050565b60006020820190508181036000830152614a7781614354565b9050919050565b60006020820190508181036000830152614a97816143fa565b9050919050565b60006020820190508181036000830152614ab781614460565b9050919050565b60006020820190508181036000830152614ad7816144c6565b9050919050565b60006020820190508181036000830152614af78161452c565b9050919050565b60006020820190508181036000830152614b17816145d2565b9050919050565b6000602082019050614b336000830184614647565b92915050565b6000604082019050614b4e6000830185614647565b614b5b6020830184614647565b9392505050565b6000604051905081810181811067ffffffffffffffff82111715614b8957614b88614f3e565b5b8060405250919050565b600067ffffffffffffffff821115614bae57614bad614f3e565b5b602082029050602081019050919050565b600067ffffffffffffffff821115614bda57614bd9614f3e565b5b602082029050602081019050919050565b600067ffffffffffffffff821115614c0657614c05614f3e565b5b601f19601f8301169050602081019050919050565b6000819050602082019050919050565b600081519050919050565b600081519050919050565b600081519050919050565b6000602082019050919050565b600082825260208201905092915050565b600082825260208201905092915050565b600082825260208201905092915050565b600081905092915050565b6000614ca282614def565b9150614cad83614def565b9250827fffffffffffffffffffffffffffffffffffffffffffffffffffffffffffffffff03821115614ce257614ce1614ee0565b5b828201905092915050565b6000614cf882614def565b9150614d0383614def565b9250817fffffffffffffffffffffffffffffffffffffffffffffffffffffffffffffffff0483118215151615614d3c57614d3b614ee0565b5b828202905092915050565b6000614d5282614def565b9150614d5d83614def565b925082821015614d7057614d6f614ee0565b5b828203905092915050565b6000614d8682614dcf565b9050919050565b60008115159050919050565b6000819050919050565b60007fffffffff0000000000000000000000000000000000000000000000000000000082169050919050565b600073ffffffffffffffffffffffffffffffffffffffff82169050919050565b6000819050919050565b82818337600083830152505050565b60005b83811015614e26578082015181840152602081019050614e0b565b83811115614e35576000848401525b50505050565b6000614e4682614def565b91506000821415614e5a57614e59614ee0565b5b600182039050919050565b60006002820490506001821680614e7d57607f821691505b60208210811415614e9157614e90614f0f565b5b50919050565b6000614ea282614def565b91507fffffffffffffffffffffffffffffffffffffffffffffffffffffffffffffffff821415614ed557614ed4614ee0565b5b600182019050919050565b7f4e487b7100000000000000000000000000000000000000000000000000000000600052601160045260246000fd5b7f4e487b7100000000000000000000000000000000000000000000000000000000600052602260045260246000fd5b7f4e487b7100000000000000000000000000000000000000000000000000000000600052604160045260246000fd5b6000601f19601f8301169050919050565b60008160e01c9050919050565b600060443d1015614f9b5761503e565b60046000803e614fac600051614f7e565b6308c379a08114614fbd575061503e565b60405160043d036004823e80513d602482011167ffffffffffffffff82111715614fe95750505061503e565b808201805167ffffffffffffffff81111561500857505050505061503e565b8060208301013d85018111156150235750505050505061503e565b61502c82614f6d565b60208401016040528296505050505050505b90565b61504a81614d7b565b811461505557600080fd5b50565b61506181614d8d565b811461506c57600080fd5b50565b61507881614d99565b811461508357600080fd5b50565b61508f81614da3565b811461509a57600080fd5b50565b6150a681614def565b81146150b157600080fd5b5056fea2646970667358221220b92ca53a1b04bab7f26f18f116f9ee717bf5170d3e9bcc2f40c319fa1c718ad264736f6c63430008000033",
  "linkReferences": {},
  "deployedLinkReferences": {}
}