{
  "_format": "hh-sol-artifact-1",
  "contractName": "users",
  "sourceName": "contracts/utility/users.sol",
  "abi": [
    {
      "inputs": [
        {
          "internalType": "string",
          "name": "_id",
          "type": "string"
        }
      ],
      "name": "getAddress",
      "outputs": [
        {
          "internalType": "address",
          "name": "",
          "type": "address"
        }
      ],
      "stateMutability": "view",
      "type": "function"
    },
    {
      "inputs": [
        {
          "internalType": "string",
          "name": "_id",
          "type": "string"
        }
      ],
      "name": "getScore",
      "outputs": [
        {
          "internalType": "uint256",
          "name": "",
          "type": "uint256"
        }
      ],
      "stateMutability": "view",
      "type": "function"
    },
    {
      "inputs": [
        {
          "internalType": "uint256",
          "name": "_score",
          "type": "uint256"
        },
        {
          "internalType": "string",
          "name": "_id",
          "type": "string"
        }
      ],
      "name": "signUp",
      "outputs": [],
      "stateMutability": "nonpayable",
      "type": "function"
    },
    {
      "inputs": [
        {
          "internalType": "string",
          "name": "_id",
          "type": "string"
        }
      ],
      "name": "userExists",
      "outputs": [
        {
          "internalType": "bool",
          "name": "",
          "type": "bool"
        }
      ],
      "stateMutability": "view",
      "type": "function"
    }
  ],
  "bytecode": "0x608060405234801561001057600080fd5b506107c4806100206000396000f3fe608060405234801561001057600080fd5b506004361061004c5760003560e01c806316020273146100515780632bf4ec8514610081578063bf40fac11461009d578063fddc968e146100cd575b600080fd5b61006b6004803603810190610066919061041b565b6100fd565b604051610078919061061b565b60405180910390f35b61009b6004803603810190610096919061045c565b610170565b005b6100b760048036038101906100b2919061041b565b6102cc565b6040516100c491906105a5565b60405180910390f35b6100e760048036038101906100e2919061041b565b61035f565b6040516100f491906105c0565b60405180910390f35b60006101088261035f565b610147576040517f08c379a000000000000000000000000000000000000000000000000000000000815260040161013e906105fb565b60405180910390fd5b600082604051610157919061058e565b9081526020016040518091039020600101549050919050565b6101798161035f565b156101b9576040517f08c379a00000000000000000000000000000000000000000000000000000000081526004016101b0906105db565b60405180910390fd5b816000826040516101ca919061058e565b90815260200160405180910390206001018190555060016000826040516101f1919061058e565b908152602001604051809103902060000160006101000a81548160ff021916908315150217905550610221610396565b600082604051610231919061058e565b908152602001604051809103902060020160006101000a81548173ffffffffffffffffffffffffffffffffffffffff021916908373ffffffffffffffffffffffffffffffffffffffff1602179055506102898161035f565b6102c8576040517f08c379a00000000000000000000000000000000000000000000000000000000081526004016102bf906105fb565b60405180910390fd5b5050565b60006102d78261035f565b610316576040517f08c379a000000000000000000000000000000000000000000000000000000000815260040161030d906105fb565b60405180910390fd5b600082604051610326919061058e565b908152602001604051809103902060020160009054906101000a900473ffffffffffffffffffffffffffffffffffffffff169050919050565b60008082604051610370919061058e565b908152602001604051809103902060000160009054906101000a900460ff169050919050565b600033905090565b60006103b16103ac84610667565b610636565b9050828152602081018484840111156103c957600080fd5b6103d4848285610706565b509392505050565b600082601f8301126103ed57600080fd5b81356103fd84826020860161039e565b91505092915050565b60008135905061041581610777565b92915050565b60006020828403121561042d57600080fd5b600082013567ffffffffffffffff81111561044757600080fd5b610453848285016103dc565b91505092915050565b6000806040838503121561046f57600080fd5b600061047d85828601610406565b925050602083013567ffffffffffffffff81111561049a57600080fd5b6104a6858286016103dc565b9150509250929050565b6104b9816106be565b82525050565b6104c8816106d0565b82525050565b60006104d982610697565b6104e381856106b3565b93506104f3818560208601610715565b80840191505092915050565b600061050c600b836106a2565b91507f55736572206578697374730000000000000000000000000000000000000000006000830152602082019050919050565b600061054c6012836106a2565b91507f5573657220646f65736e277420657869737400000000000000000000000000006000830152602082019050919050565b610588816106fc565b82525050565b600061059a82846104ce565b915081905092915050565b60006020820190506105ba60008301846104b0565b92915050565b60006020820190506105d560008301846104bf565b92915050565b600060208201905081810360008301526105f4816104ff565b9050919050565b600060208201905081810360008301526106148161053f565b9050919050565b6000602082019050610630600083018461057f565b92915050565b6000604051905081810181811067ffffffffffffffff8211171561065d5761065c610748565b5b8060405250919050565b600067ffffffffffffffff82111561068257610681610748565b5b601f19601f8301169050602081019050919050565b600081519050919050565b600082825260208201905092915050565b600081905092915050565b60006106c9826106dc565b9050919050565b60008115159050919050565b600073ffffffffffffffffffffffffffffffffffffffff82169050919050565b6000819050919050565b82818337600083830152505050565b60005b83811015610733578082015181840152602081019050610718565b83811115610742576000848401525b50505050565b7f4e487b7100000000000000000000000000000000000000000000000000000000600052604160045260246000fd5b610780816106fc565b811461078b57600080fd5b5056fea2646970667358221220b33e61f0886fcedab102041a9228f32a86a929d9b997aac76d45ba95a896b0dd64736f6c63430008000033",
  "linkReferences": {},
  "deployedLinkReferences": {}
}