{
  "_format": "hh-sol-artifact-1",
  "contractName": "minter",
  "sourceName": "contracts/utility/minter.sol",
  "abi": [
    {
      "inputs": [
        {
          "internalType": "address",
          "name": "_FAH",
          "type": "address"
        },
        {
          "internalType": "address",
          "name": "_CS_Case",
          "type": "address"
        },
        {
          "internalType": "address",
          "name": "_SushiFactory",
          "type": "address"
        },
        {
          "internalType": "address",
          "name": "_SushiRouter",
          "type": "address"
        }
      ],
      "stateMutability": "nonpayable",
      "type": "constructor"
    },
    {
      "anonymous": false,
      "inputs": [
        {
          "indexed": true,
          "internalType": "bytes32",
          "name": "role",
          "type": "bytes32"
        },
        {
          "indexed": true,
          "internalType": "bytes32",
          "name": "previousAdminRole",
          "type": "bytes32"
        },
        {
          "indexed": true,
          "internalType": "bytes32",
          "name": "newAdminRole",
          "type": "bytes32"
        }
      ],
      "name": "RoleAdminChanged",
      "type": "event"
    },
    {
      "anonymous": false,
      "inputs": [
        {
          "indexed": true,
          "internalType": "bytes32",
          "name": "role",
          "type": "bytes32"
        },
        {
          "indexed": true,
          "internalType": "address",
          "name": "account",
          "type": "address"
        },
        {
          "indexed": true,
          "internalType": "address",
          "name": "sender",
          "type": "address"
        }
      ],
      "name": "RoleGranted",
      "type": "event"
    },
    {
      "anonymous": false,
      "inputs": [
        {
          "indexed": true,
          "internalType": "bytes32",
          "name": "role",
          "type": "bytes32"
        },
        {
          "indexed": true,
          "internalType": "address",
          "name": "account",
          "type": "address"
        },
        {
          "indexed": true,
          "internalType": "address",
          "name": "sender",
          "type": "address"
        }
      ],
      "name": "RoleRevoked",
      "type": "event"
    },
    {
      "inputs": [],
      "name": "DEFAULT_ADMIN_ROLE",
      "outputs": [
        {
          "internalType": "bytes32",
          "name": "",
          "type": "bytes32"
        }
      ],
      "stateMutability": "view",
      "type": "function"
    },
    {
      "inputs": [],
      "name": "LOCAL_MINTER_ROLE",
      "outputs": [
        {
          "internalType": "bytes32",
          "name": "",
          "type": "bytes32"
        }
      ],
      "stateMutability": "view",
      "type": "function"
    },
    {
      "inputs": [
        {
          "internalType": "bytes32",
          "name": "role",
          "type": "bytes32"
        }
      ],
      "name": "getRoleAdmin",
      "outputs": [
        {
          "internalType": "bytes32",
          "name": "",
          "type": "bytes32"
        }
      ],
      "stateMutability": "view",
      "type": "function"
    },
    {
      "inputs": [
        {
          "internalType": "bytes32",
          "name": "role",
          "type": "bytes32"
        },
        {
          "internalType": "uint256",
          "name": "index",
          "type": "uint256"
        }
      ],
      "name": "getRoleMember",
      "outputs": [
        {
          "internalType": "address",
          "name": "",
          "type": "address"
        }
      ],
      "stateMutability": "view",
      "type": "function"
    },
    {
      "inputs": [
        {
          "internalType": "bytes32",
          "name": "role",
          "type": "bytes32"
        }
      ],
      "name": "getRoleMemberCount",
      "outputs": [
        {
          "internalType": "uint256",
          "name": "",
          "type": "uint256"
        }
      ],
      "stateMutability": "view",
      "type": "function"
    },
    {
      "inputs": [
        {
          "internalType": "bytes32",
          "name": "role",
          "type": "bytes32"
        },
        {
          "internalType": "address",
          "name": "account",
          "type": "address"
        }
      ],
      "name": "grantRole",
      "outputs": [],
      "stateMutability": "nonpayable",
      "type": "function"
    },
    {
      "inputs": [
        {
          "internalType": "bytes32",
          "name": "role",
          "type": "bytes32"
        },
        {
          "internalType": "address",
          "name": "account",
          "type": "address"
        }
      ],
      "name": "hasRole",
      "outputs": [
        {
          "internalType": "bool",
          "name": "",
          "type": "bool"
        }
      ],
      "stateMutability": "view",
      "type": "function"
    },
    {
      "inputs": [
        {
          "internalType": "bytes32",
          "name": "role",
          "type": "bytes32"
        },
        {
          "internalType": "address",
          "name": "account",
          "type": "address"
        }
      ],
      "name": "renounceRole",
      "outputs": [],
      "stateMutability": "nonpayable",
      "type": "function"
    },
    {
      "inputs": [
        {
          "internalType": "bytes32",
          "name": "role",
          "type": "bytes32"
        },
        {
          "internalType": "address",
          "name": "account",
          "type": "address"
        }
      ],
      "name": "revokeRole",
      "outputs": [],
      "stateMutability": "nonpayable",
      "type": "function"
    },
    {
      "inputs": [
        {
          "internalType": "bytes4",
          "name": "interfaceId",
          "type": "bytes4"
        }
      ],
      "name": "supportsInterface",
      "outputs": [
        {
          "internalType": "bool",
          "name": "",
          "type": "bool"
        }
      ],
      "stateMutability": "view",
      "type": "function"
    }
  ],
  "bytecode": "0x60806040523480156200001157600080fd5b5060405162001e2938038062001e29833981810160405281019062000037919062000649565b620000787f9f2df0fed2c77648de5860a4cc508cd0818c85b8b8a1ab4ceeef8d981c8956a66200006c6200038560201b60201c565b6200038d60201b60201c565b620000b97f9f2df0fed2c77648de5860a4cc508cd0818c85b8b8a1ab4ceeef8d981c8956a6620000ad6200038560201b60201c565b620003d560201b60201c565b620000fb576040517f08c379a0000000000000000000000000000000000000000000000000000000008152600401620000f29062000772565b60405180910390fd5b83600260006101000a81548173ffffffffffffffffffffffffffffffffffffffff021916908373ffffffffffffffffffffffffffffffffffffffff16021790555082600360006101000a81548173ffffffffffffffffffffffffffffffffffffffff021916908373ffffffffffffffffffffffffffffffffffffffff16021790555081600460006101000a81548173ffffffffffffffffffffffffffffffffffffffff021916908373ffffffffffffffffffffffffffffffffffffffff16021790555080600560006101000a81548173ffffffffffffffffffffffffffffffffffffffff021916908373ffffffffffffffffffffffffffffffffffffffff160217905550600260009054906101000a900473ffffffffffffffffffffffffffffffffffffffff1673ffffffffffffffffffffffffffffffffffffffff1663095ea7b382670de0b6b3a76400006040518363ffffffff1660e01b81526004016200026692919062000745565b602060405180830381600087803b1580156200028157600080fd5b505af115801562000296573d6000803e3d6000fd5b505050506040513d601f19601f82011682018060405250810190620002bc9190620006b5565b50600360009054906101000a900473ffffffffffffffffffffffffffffffffffffffff1673ffffffffffffffffffffffffffffffffffffffff1663095ea7b382670de0b6b3a76400006040518363ffffffff1660e01b81526004016200032492919062000745565b602060405180830381600087803b1580156200033f57600080fd5b505af115801562000354573d6000803e3d6000fd5b505050506040513d601f19601f820116820180604052508101906200037a9190620006b5565b505050505062000837565b600033905090565b620003a482826200043f60201b620004401760201c565b620003d081600160008581526020019081526020016000206200045560201b6200044e1790919060201c565b505050565b600080600084815260200190815260200160002060000160008373ffffffffffffffffffffffffffffffffffffffff1673ffffffffffffffffffffffffffffffffffffffff16815260200190815260200160002060009054906101000a900460ff16905092915050565b6200045182826200048d60201b60201c565b5050565b600062000485836000018373ffffffffffffffffffffffffffffffffffffffff1660001b6200057e60201b60201c565b905092915050565b6200049f8282620003d560201b60201c565b6200057a57600160008084815260200190815260200160002060000160008373ffffffffffffffffffffffffffffffffffffffff1673ffffffffffffffffffffffffffffffffffffffff16815260200190815260200160002060006101000a81548160ff0219169083151502179055506200051f6200038560201b60201c565b73ffffffffffffffffffffffffffffffffffffffff168173ffffffffffffffffffffffffffffffffffffffff16837f2f8788117e7eff1d82e926ec794901d17c78024a50270940304540a733656f0d60405160405180910390a45b5050565b6000620005928383620005f860201b60201c565b620005ed578260000182908060018154018082558091505060019003906000526020600020016000909190919091505582600001805490508360010160008481526020019081526020016000208190555060019050620005f2565b600090505b92915050565b600080836001016000848152602001908152602001600020541415905092915050565b6000815190506200062c8162000803565b92915050565b60008151905062000643816200081d565b92915050565b600080600080608085870312156200066057600080fd5b600062000670878288016200061b565b945050602062000683878288016200061b565b935050604062000696878288016200061b565b9250506060620006a9878288016200061b565b91505092959194509250565b600060208284031215620006c857600080fd5b6000620006d88482850162000632565b91505092915050565b620006ec81620007a5565b82525050565b620006fd81620007ef565b82525050565b60006200071260128362000794565b91507f446f6573206e6f74206861766520726f6c6500000000000000000000000000006000830152602082019050919050565b60006040820190506200075c6000830185620006e1565b6200076b6020830184620006f2565b9392505050565b600060208201905081810360008301526200078d8162000703565b9050919050565b600082825260208201905092915050565b6000620007b282620007c5565b9050919050565b60008115159050919050565b600073ffffffffffffffffffffffffffffffffffffffff82169050919050565b6000819050919050565b6000620007fc82620007e5565b9050919050565b6200080e81620007a5565b81146200081a57600080fd5b50565b6200082881620007b9565b81146200083457600080fd5b50565b6115e280620008476000396000f3fe608060405234801561001057600080fd5b506004361061009e5760003560e01c80639010d07c116100665780639010d07c1461015957806391d1485414610189578063a217fddf146101b9578063ca15c873146101d7578063d547741f146102075761009e565b806301ffc9a7146100a3578063248a9ca3146100d35780632f2ff15d1461010357806336568abe1461011f57806373e3bfbd1461013b575b600080fd5b6100bd60048036038101906100b89190610fa7565b610223565b6040516100ca9190611257565b60405180910390f35b6100ed60048036038101906100e89190610f06565b61029d565b6040516100fa9190611272565b60405180910390f35b61011d60048036038101906101189190610f2f565b6102bc565b005b61013960048036038101906101349190610f2f565b6102f0565b005b610143610324565b6040516101509190611272565b60405180910390f35b610173600480360381019061016e9190610f6b565b610348565b604051610180919061123c565b60405180910390f35b6101a3600480360381019061019e9190610f2f565b610377565b6040516101b09190611257565b60405180910390f35b6101c16103e1565b6040516101ce9190611272565b60405180910390f35b6101f160048036038101906101ec9190610f06565b6103e8565b6040516101fe919061130f565b60405180910390f35b610221600480360381019061021c9190610f2f565b61040c565b005b60007f5a05180f000000000000000000000000000000000000000000000000000000007bffffffffffffffffffffffffffffffffffffffffffffffffffffffff1916827bffffffffffffffffffffffffffffffffffffffffffffffffffffffff1916148061029657506102958261047e565b5b9050919050565b6000806000838152602001908152602001600020600101549050919050565b6102c682826104f8565b6102eb816001600085815260200190815260200160002061044e90919063ffffffff16565b505050565b6102fa8282610521565b61031f81600160008581526020019081526020016000206105a490919063ffffffff16565b505050565b7f9f2df0fed2c77648de5860a4cc508cd0818c85b8b8a1ab4ceeef8d981c8956a681565b600061036f82600160008681526020019081526020016000206105d490919063ffffffff16565b905092915050565b600080600084815260200190815260200160002060000160008373ffffffffffffffffffffffffffffffffffffffff1673ffffffffffffffffffffffffffffffffffffffff16815260200190815260200160002060009054906101000a900460ff16905092915050565b6000801b81565b6000610405600160008481526020019081526020016000206105ee565b9050919050565b6104168282610603565b61043b81600160008581526020019081526020016000206105a490919063ffffffff16565b505050565b61044a828261062c565b5050565b6000610476836000018373ffffffffffffffffffffffffffffffffffffffff1660001b61070c565b905092915050565b60007f7965db0b000000000000000000000000000000000000000000000000000000007bffffffffffffffffffffffffffffffffffffffffffffffffffffffff1916827bffffffffffffffffffffffffffffffffffffffffffffffffffffffff191614806104f157506104f08261077c565b5b9050919050565b6105018261029d565b6105128161050d6107e6565b6107ee565b61051c838361062c565b505050565b6105296107e6565b73ffffffffffffffffffffffffffffffffffffffff168173ffffffffffffffffffffffffffffffffffffffff1614610596576040517f08c379a000000000000000000000000000000000000000000000000000000000815260040161058d906112ef565b60405180910390fd5b6105a0828261088b565b5050565b60006105cc836000018373ffffffffffffffffffffffffffffffffffffffff1660001b61096c565b905092915050565b60006105e38360000183610aea565b60001c905092915050565b60006105fc82600001610b84565b9050919050565b61060c8261029d565b61061d816106186107e6565b6107ee565b610627838361088b565b505050565b6106368282610377565b61070857600160008084815260200190815260200160002060000160008373ffffffffffffffffffffffffffffffffffffffff1673ffffffffffffffffffffffffffffffffffffffff16815260200190815260200160002060006101000a81548160ff0219169083151502179055506106ad6107e6565b73ffffffffffffffffffffffffffffffffffffffff168173ffffffffffffffffffffffffffffffffffffffff16837f2f8788117e7eff1d82e926ec794901d17c78024a50270940304540a733656f0d60405160405180910390a45b5050565b60006107188383610b95565b610771578260000182908060018154018082558091505060019003906000526020600020016000909190919091505582600001805490508360010160008481526020019081526020016000208190555060019050610776565b600090505b92915050565b60007f01ffc9a7000000000000000000000000000000000000000000000000000000007bffffffffffffffffffffffffffffffffffffffffffffffffffffffff1916827bffffffffffffffffffffffffffffffffffffffffffffffffffffffff1916149050919050565b600033905090565b6107f88282610377565b6108875761081d8173ffffffffffffffffffffffffffffffffffffffff166014610bb8565b61082b8360001c6020610bb8565b60405160200161083c929190611202565b6040516020818303038152906040526040517f08c379a000000000000000000000000000000000000000000000000000000000815260040161087e919061128d565b60405180910390fd5b5050565b6108958282610377565b1561096857600080600084815260200190815260200160002060000160008373ffffffffffffffffffffffffffffffffffffffff1673ffffffffffffffffffffffffffffffffffffffff16815260200190815260200160002060006101000a81548160ff02191690831515021790555061090d6107e6565b73ffffffffffffffffffffffffffffffffffffffff168173ffffffffffffffffffffffffffffffffffffffff16837ff6391f5c32d9c69d2a47ea670b442974b53935d1edc7fd64eb21e047a839171b60405160405180910390a45b5050565b60008083600101600084815260200190815260200160002054905060008114610ade57600060018261099e9190611401565b90506000600186600001805490506109b69190611401565b905060008660000182815481106109f6577f4e487b7100000000000000000000000000000000000000000000000000000000600052603260045260246000fd5b9060005260206000200154905080876000018481548110610a40577f4e487b7100000000000000000000000000000000000000000000000000000000600052603260045260246000fd5b9060005260206000200181905550838760010160008381526020019081526020016000208190555086600001805480610aa2577f4e487b7100000000000000000000000000000000000000000000000000000000600052603160045260246000fd5b60019003818190600052602060002001600090559055866001016000878152602001908152602001600020600090556001945050505050610ae4565b60009150505b92915050565b600081836000018054905011610b35576040517f08c379a0000000000000000000000000000000000000000000000000000000008152600401610b2c906112af565b60405180910390fd5b826000018281548110610b71577f4e487b7100000000000000000000000000000000000000000000000000000000600052603260045260246000fd5b9060005260206000200154905092915050565b600081600001805490509050919050565b600080836001016000848152602001908152602001600020541415905092915050565b606060006002836002610bcb91906113a7565b610bd59190611351565b67ffffffffffffffff811115610c14577f4e487b7100000000000000000000000000000000000000000000000000000000600052604160045260246000fd5b6040519080825280601f01601f191660200182016040528015610c465781602001600182028036833780820191505090505b5090507f300000000000000000000000000000000000000000000000000000000000000081600081518110610ca4577f4e487b7100000000000000000000000000000000000000000000000000000000600052603260045260246000fd5b60200101907effffffffffffffffffffffffffffffffffffffffffffffffffffffffffffff1916908160001a9053507f780000000000000000000000000000000000000000000000000000000000000081600181518110610d2e577f4e487b7100000000000000000000000000000000000000000000000000000000600052603260045260246000fd5b60200101907effffffffffffffffffffffffffffffffffffffffffffffffffffffffffffff1916908160001a90535060006001846002610d6e91906113a7565b610d789190611351565b90505b6001811115610e64577f3031323334353637383961626364656600000000000000000000000000000000600f861660108110610de0577f4e487b7100000000000000000000000000000000000000000000000000000000600052603260045260246000fd5b1a60f81b828281518110610e1d577f4e487b7100000000000000000000000000000000000000000000000000000000600052603260045260246000fd5b60200101907effffffffffffffffffffffffffffffffffffffffffffffffffffffffffffff1916908160001a905350600485901c945080610e5d906114e6565b9050610d7b565b5060008414610ea8576040517f08c379a0000000000000000000000000000000000000000000000000000000008152600401610e9f906112cf565b60405180910390fd5b8091505092915050565b600081359050610ec181611550565b92915050565b600081359050610ed681611567565b92915050565b600081359050610eeb8161157e565b92915050565b600081359050610f0081611595565b92915050565b600060208284031215610f1857600080fd5b6000610f2684828501610ec7565b91505092915050565b60008060408385031215610f4257600080fd5b6000610f5085828601610ec7565b9250506020610f6185828601610eb2565b9150509250929050565b60008060408385031215610f7e57600080fd5b6000610f8c85828601610ec7565b9250506020610f9d85828601610ef1565b9150509250929050565b600060208284031215610fb957600080fd5b6000610fc784828501610edc565b91505092915050565b610fd981611435565b82525050565b610fe881611447565b82525050565b610ff781611453565b82525050565b60006110088261132a565b6110128185611335565b93506110228185602086016114b3565b61102b8161153f565b840191505092915050565b60006110418261132a565b61104b8185611346565b935061105b8185602086016114b3565b80840191505092915050565b6000611074602283611335565b91507f456e756d657261626c655365743a20696e646578206f7574206f6620626f756e60008301527f64730000000000000000000000000000000000000000000000000000000000006020830152604082019050919050565b60006110da602083611335565b91507f537472696e67733a20686578206c656e67746820696e73756666696369656e746000830152602082019050919050565b600061111a601783611346565b91507f416363657373436f6e74726f6c3a206163636f756e74200000000000000000006000830152601782019050919050565b600061115a601183611346565b91507f206973206d697373696e6720726f6c65200000000000000000000000000000006000830152601182019050919050565b600061119a602f83611335565b91507f416363657373436f6e74726f6c3a2063616e206f6e6c792072656e6f756e636560008301527f20726f6c657320666f722073656c6600000000000000000000000000000000006020830152604082019050919050565b6111fc816114a9565b82525050565b600061120d8261110d565b91506112198285611036565b91506112248261114d565b91506112308284611036565b91508190509392505050565b60006020820190506112516000830184610fd0565b92915050565b600060208201905061126c6000830184610fdf565b92915050565b60006020820190506112876000830184610fee565b92915050565b600060208201905081810360008301526112a78184610ffd565b905092915050565b600060208201905081810360008301526112c881611067565b9050919050565b600060208201905081810360008301526112e8816110cd565b9050919050565b600060208201905081810360008301526113088161118d565b9050919050565b600060208201905061132460008301846111f3565b92915050565b600081519050919050565b600082825260208201905092915050565b600081905092915050565b600061135c826114a9565b9150611367836114a9565b9250827fffffffffffffffffffffffffffffffffffffffffffffffffffffffffffffffff0382111561139c5761139b611510565b5b828201905092915050565b60006113b2826114a9565b91506113bd836114a9565b9250817fffffffffffffffffffffffffffffffffffffffffffffffffffffffffffffffff04831182151516156113f6576113f5611510565b5b828202905092915050565b600061140c826114a9565b9150611417836114a9565b92508282101561142a57611429611510565b5b828203905092915050565b600061144082611489565b9050919050565b60008115159050919050565b6000819050919050565b60007fffffffff0000000000000000000000000000000000000000000000000000000082169050919050565b600073ffffffffffffffffffffffffffffffffffffffff82169050919050565b6000819050919050565b60005b838110156114d15780820151818401526020810190506114b6565b838111156114e0576000848401525b50505050565b60006114f1826114a9565b9150600082141561150557611504611510565b5b600182039050919050565b7f4e487b7100000000000000000000000000000000000000000000000000000000600052601160045260246000fd5b6000601f19601f8301169050919050565b61155981611435565b811461156457600080fd5b50565b61157081611453565b811461157b57600080fd5b50565b6115878161145d565b811461159257600080fd5b50565b61159e816114a9565b81146115a957600080fd5b5056fea26469706673582212201a11d92dcaddfa367ea4258b111d5d7104e591158288ec08dfe5e5b4058346c964736f6c63430008000033",
  "linkReferences": {},
  "deployedLinkReferences": {}
}