{
  "_format": "hh-sol-artifact-1",
  "contractName": "minter",
  "sourceName": "contracts/utility/minter.sol",
  "abi": [
    {
      "inputs": [],
      "stateMutability": "nonpayable",
      "type": "constructor"
    },
    {
      "anonymous": false,
      "inputs": [
        {
          "indexed": true,
          "internalType": "bytes32",
          "name": "role",
          "type": "bytes32"
        },
        {
          "indexed": true,
          "internalType": "bytes32",
          "name": "previousAdminRole",
          "type": "bytes32"
        },
        {
          "indexed": true,
          "internalType": "bytes32",
          "name": "newAdminRole",
          "type": "bytes32"
        }
      ],
      "name": "RoleAdminChanged",
      "type": "event"
    },
    {
      "anonymous": false,
      "inputs": [
        {
          "indexed": true,
          "internalType": "bytes32",
          "name": "role",
          "type": "bytes32"
        },
        {
          "indexed": true,
          "internalType": "address",
          "name": "account",
          "type": "address"
        },
        {
          "indexed": true,
          "internalType": "address",
          "name": "sender",
          "type": "address"
        }
      ],
      "name": "RoleGranted",
      "type": "event"
    },
    {
      "anonymous": false,
      "inputs": [
        {
          "indexed": true,
          "internalType": "bytes32",
          "name": "role",
          "type": "bytes32"
        },
        {
          "indexed": true,
          "internalType": "address",
          "name": "account",
          "type": "address"
        },
        {
          "indexed": true,
          "internalType": "address",
          "name": "sender",
          "type": "address"
        }
      ],
      "name": "RoleRevoked",
      "type": "event"
    },
    {
      "inputs": [],
      "name": "DEFAULT_ADMIN_ROLE",
      "outputs": [
        {
          "internalType": "bytes32",
          "name": "",
          "type": "bytes32"
        }
      ],
      "stateMutability": "view",
      "type": "function"
    },
    {
      "inputs": [],
      "name": "MINTER_ROLE",
      "outputs": [
        {
          "internalType": "bytes32",
          "name": "",
          "type": "bytes32"
        }
      ],
      "stateMutability": "view",
      "type": "function"
    },
    {
      "inputs": [
        {
          "internalType": "bytes32",
          "name": "role",
          "type": "bytes32"
        }
      ],
      "name": "getRoleAdmin",
      "outputs": [
        {
          "internalType": "bytes32",
          "name": "",
          "type": "bytes32"
        }
      ],
      "stateMutability": "view",
      "type": "function"
    },
    {
      "inputs": [
        {
          "internalType": "bytes32",
          "name": "role",
          "type": "bytes32"
        },
        {
          "internalType": "uint256",
          "name": "index",
          "type": "uint256"
        }
      ],
      "name": "getRoleMember",
      "outputs": [
        {
          "internalType": "address",
          "name": "",
          "type": "address"
        }
      ],
      "stateMutability": "view",
      "type": "function"
    },
    {
      "inputs": [
        {
          "internalType": "bytes32",
          "name": "role",
          "type": "bytes32"
        }
      ],
      "name": "getRoleMemberCount",
      "outputs": [
        {
          "internalType": "uint256",
          "name": "",
          "type": "uint256"
        }
      ],
      "stateMutability": "view",
      "type": "function"
    },
    {
      "inputs": [
        {
          "internalType": "bytes32",
          "name": "role",
          "type": "bytes32"
        },
        {
          "internalType": "address",
          "name": "account",
          "type": "address"
        }
      ],
      "name": "grantRole",
      "outputs": [],
      "stateMutability": "nonpayable",
      "type": "function"
    },
    {
      "inputs": [
        {
          "internalType": "bytes32",
          "name": "role",
          "type": "bytes32"
        },
        {
          "internalType": "address",
          "name": "account",
          "type": "address"
        }
      ],
      "name": "hasRole",
      "outputs": [
        {
          "internalType": "bool",
          "name": "",
          "type": "bool"
        }
      ],
      "stateMutability": "view",
      "type": "function"
    },
    {
      "inputs": [
        {
          "internalType": "bytes32",
          "name": "role",
          "type": "bytes32"
        },
        {
          "internalType": "address",
          "name": "account",
          "type": "address"
        }
      ],
      "name": "renounceRole",
      "outputs": [],
      "stateMutability": "nonpayable",
      "type": "function"
    },
    {
      "inputs": [
        {
          "internalType": "bytes32",
          "name": "role",
          "type": "bytes32"
        },
        {
          "internalType": "address",
          "name": "account",
          "type": "address"
        }
      ],
      "name": "revokeRole",
      "outputs": [],
      "stateMutability": "nonpayable",
      "type": "function"
    },
    {
      "inputs": [
        {
          "internalType": "address",
          "name": "_FAH",
          "type": "address"
        },
        {
          "internalType": "address",
          "name": "_CS_Case",
          "type": "address"
        }
      ],
      "name": "setContracts",
      "outputs": [],
      "stateMutability": "nonpayable",
      "type": "function"
    },
    {
      "inputs": [
        {
          "internalType": "bytes4",
          "name": "interfaceId",
          "type": "bytes4"
        }
      ],
      "name": "supportsInterface",
      "outputs": [
        {
          "internalType": "bool",
          "name": "",
          "type": "bool"
        }
      ],
      "stateMutability": "view",
      "type": "function"
    }
  ],
  "bytecode": "0x60806040523480156200001157600080fd5b50620000537f9f2df0fed2c77648de5860a4cc508cd0818c85b8b8a1ab4ceeef8d981c8956a6620000476200005960201b60201c565b6200006160201b60201c565b620002ef565b600033905090565b620000788282620000a960201b6200055d1760201c565b620000a48160016000858152602001908152602001600020620000bf60201b6200056b1790919060201c565b505050565b620000bb8282620000f760201b60201c565b5050565b6000620000ef836000018373ffffffffffffffffffffffffffffffffffffffff1660001b620001e860201b60201c565b905092915050565b6200010982826200026260201b60201c565b620001e457600160008084815260200190815260200160002060000160008373ffffffffffffffffffffffffffffffffffffffff1673ffffffffffffffffffffffffffffffffffffffff16815260200190815260200160002060006101000a81548160ff021916908315150217905550620001896200005960201b60201c565b73ffffffffffffffffffffffffffffffffffffffff168173ffffffffffffffffffffffffffffffffffffffff16837f2f8788117e7eff1d82e926ec794901d17c78024a50270940304540a733656f0d60405160405180910390a45b5050565b6000620001fc8383620002cc60201b60201c565b620002575782600001829080600181540180825580915050600190039060005260206000200160009091909190915055826000018054905083600101600084815260200190815260200160002081905550600190506200025c565b600090505b92915050565b600080600084815260200190815260200160002060000160008373ffffffffffffffffffffffffffffffffffffffff1673ffffffffffffffffffffffffffffffffffffffff16815260200190815260200160002060009054906101000a900460ff16905092915050565b600080836001016000848152602001908152602001600020541415905092915050565b61179b80620002ff6000396000f3fe608060405234801561001057600080fd5b50600436106100a95760003560e01c806391d148541161007157806391d1485414610176578063a217fddf146101a6578063ca15c873146101c4578063d5391393146101f4578063d547741f14610212578063d8952a491461022e576100a9565b806301ffc9a7146100ae578063248a9ca3146100de5780632f2ff15d1461010e57806336568abe1461012a5780639010d07c14610146575b600080fd5b6100c860048036038101906100c39190611100565b61024a565b6040516100d591906113f0565b60405180910390f35b6100f860048036038101906100f3919061105f565b6102c4565b604051610105919061140b565b60405180910390f35b61012860048036038101906101239190611088565b6102e3565b005b610144600480360381019061013f9190611088565b610317565b005b610160600480360381019061015b91906110c4565b61034b565b60405161016d91906113d5565b60405180910390f35b610190600480360381019061018b9190611088565b61037a565b60405161019d91906113f0565b60405180910390f35b6101ae6103e4565b6040516101bb919061140b565b60405180910390f35b6101de60048036038101906101d9919061105f565b6103eb565b6040516101eb91906114c8565b60405180910390f35b6101fc61040f565b604051610209919061140b565b60405180910390f35b61022c60048036038101906102279190611088565b610433565b005b61024860048036038101906102439190611023565b610467565b005b60007f5a05180f000000000000000000000000000000000000000000000000000000007bffffffffffffffffffffffffffffffffffffffffffffffffffffffff1916827bffffffffffffffffffffffffffffffffffffffffffffffffffffffff191614806102bd57506102bc8261059b565b5b9050919050565b6000806000838152602001908152602001600020600101549050919050565b6102ed8282610615565b610312816001600085815260200190815260200160002061056b90919063ffffffff16565b505050565b610321828261063e565b61034681600160008581526020019081526020016000206106c190919063ffffffff16565b505050565b600061037282600160008681526020019081526020016000206106f190919063ffffffff16565b905092915050565b600080600084815260200190815260200160002060000160008373ffffffffffffffffffffffffffffffffffffffff1673ffffffffffffffffffffffffffffffffffffffff16815260200190815260200160002060009054906101000a900460ff16905092915050565b6000801b81565b60006104086001600084815260200190815260200160002061070b565b9050919050565b7f9f2df0fed2c77648de5860a4cc508cd0818c85b8b8a1ab4ceeef8d981c8956a681565b61043d8282610720565b61046281600160008581526020019081526020016000206106c190919063ffffffff16565b505050565b6104987f9f2df0fed2c77648de5860a4cc508cd0818c85b8b8a1ab4ceeef8d981c8956a6610493610749565b61037a565b6104d7576040517f08c379a00000000000000000000000000000000000000000000000000000000081526004016104ce90611488565b60405180910390fd5b81600260006101000a81548173ffffffffffffffffffffffffffffffffffffffff021916908373ffffffffffffffffffffffffffffffffffffffff16021790555080600360006101000a81548173ffffffffffffffffffffffffffffffffffffffff021916908373ffffffffffffffffffffffffffffffffffffffff1602179055505050565b6105678282610751565b5050565b6000610593836000018373ffffffffffffffffffffffffffffffffffffffff1660001b610831565b905092915050565b60007f7965db0b000000000000000000000000000000000000000000000000000000007bffffffffffffffffffffffffffffffffffffffffffffffffffffffff1916827bffffffffffffffffffffffffffffffffffffffffffffffffffffffff1916148061060e575061060d826108a1565b5b9050919050565b61061e826102c4565b61062f8161062a610749565b61090b565b6106398383610751565b505050565b610646610749565b73ffffffffffffffffffffffffffffffffffffffff168173ffffffffffffffffffffffffffffffffffffffff16146106b3576040517f08c379a00000000000000000000000000000000000000000000000000000000081526004016106aa906114a8565b60405180910390fd5b6106bd82826109a8565b5050565b60006106e9836000018373ffffffffffffffffffffffffffffffffffffffff1660001b610a89565b905092915050565b60006107008360000183610c07565b60001c905092915050565b600061071982600001610ca1565b9050919050565b610729826102c4565b61073a81610735610749565b61090b565b61074483836109a8565b505050565b600033905090565b61075b828261037a565b61082d57600160008084815260200190815260200160002060000160008373ffffffffffffffffffffffffffffffffffffffff1673ffffffffffffffffffffffffffffffffffffffff16815260200190815260200160002060006101000a81548160ff0219169083151502179055506107d2610749565b73ffffffffffffffffffffffffffffffffffffffff168173ffffffffffffffffffffffffffffffffffffffff16837f2f8788117e7eff1d82e926ec794901d17c78024a50270940304540a733656f0d60405160405180910390a45b5050565b600061083d8383610cb2565b61089657826000018290806001815401808255809150506001900390600052602060002001600090919091909150558260000180549050836001016000848152602001908152602001600020819055506001905061089b565b600090505b92915050565b60007f01ffc9a7000000000000000000000000000000000000000000000000000000007bffffffffffffffffffffffffffffffffffffffffffffffffffffffff1916827bffffffffffffffffffffffffffffffffffffffffffffffffffffffff1916149050919050565b610915828261037a565b6109a45761093a8173ffffffffffffffffffffffffffffffffffffffff166014610cd5565b6109488360001c6020610cd5565b60405160200161095992919061139b565b6040516020818303038152906040526040517f08c379a000000000000000000000000000000000000000000000000000000000815260040161099b9190611426565b60405180910390fd5b5050565b6109b2828261037a565b15610a8557600080600084815260200190815260200160002060000160008373ffffffffffffffffffffffffffffffffffffffff1673ffffffffffffffffffffffffffffffffffffffff16815260200190815260200160002060006101000a81548160ff021916908315150217905550610a2a610749565b73ffffffffffffffffffffffffffffffffffffffff168173ffffffffffffffffffffffffffffffffffffffff16837ff6391f5c32d9c69d2a47ea670b442974b53935d1edc7fd64eb21e047a839171b60405160405180910390a45b5050565b60008083600101600084815260200190815260200160002054905060008114610bfb576000600182610abb91906115ba565b9050600060018660000180549050610ad391906115ba565b90506000866000018281548110610b13577f4e487b7100000000000000000000000000000000000000000000000000000000600052603260045260246000fd5b9060005260206000200154905080876000018481548110610b5d577f4e487b7100000000000000000000000000000000000000000000000000000000600052603260045260246000fd5b9060005260206000200181905550838760010160008381526020019081526020016000208190555086600001805480610bbf577f4e487b7100000000000000000000000000000000000000000000000000000000600052603160045260246000fd5b60019003818190600052602060002001600090559055866001016000878152602001908152602001600020600090556001945050505050610c01565b60009150505b92915050565b600081836000018054905011610c52576040517f08c379a0000000000000000000000000000000000000000000000000000000008152600401610c4990611448565b60405180910390fd5b826000018281548110610c8e577f4e487b7100000000000000000000000000000000000000000000000000000000600052603260045260246000fd5b9060005260206000200154905092915050565b600081600001805490509050919050565b600080836001016000848152602001908152602001600020541415905092915050565b606060006002836002610ce89190611560565b610cf2919061150a565b67ffffffffffffffff811115610d31577f4e487b7100000000000000000000000000000000000000000000000000000000600052604160045260246000fd5b6040519080825280601f01601f191660200182016040528015610d635781602001600182028036833780820191505090505b5090507f300000000000000000000000000000000000000000000000000000000000000081600081518110610dc1577f4e487b7100000000000000000000000000000000000000000000000000000000600052603260045260246000fd5b60200101907effffffffffffffffffffffffffffffffffffffffffffffffffffffffffffff1916908160001a9053507f780000000000000000000000000000000000000000000000000000000000000081600181518110610e4b577f4e487b7100000000000000000000000000000000000000000000000000000000600052603260045260246000fd5b60200101907effffffffffffffffffffffffffffffffffffffffffffffffffffffffffffff1916908160001a90535060006001846002610e8b9190611560565b610e95919061150a565b90505b6001811115610f81577f3031323334353637383961626364656600000000000000000000000000000000600f861660108110610efd577f4e487b7100000000000000000000000000000000000000000000000000000000600052603260045260246000fd5b1a60f81b828281518110610f3a577f4e487b7100000000000000000000000000000000000000000000000000000000600052603260045260246000fd5b60200101907effffffffffffffffffffffffffffffffffffffffffffffffffffffffffffff1916908160001a905350600485901c945080610f7a9061169f565b9050610e98565b5060008414610fc5576040517f08c379a0000000000000000000000000000000000000000000000000000000008152600401610fbc90611468565b60405180910390fd5b8091505092915050565b600081359050610fde81611709565b92915050565b600081359050610ff381611720565b92915050565b60008135905061100881611737565b92915050565b60008135905061101d8161174e565b92915050565b6000806040838503121561103657600080fd5b600061104485828601610fcf565b925050602061105585828601610fcf565b9150509250929050565b60006020828403121561107157600080fd5b600061107f84828501610fe4565b91505092915050565b6000806040838503121561109b57600080fd5b60006110a985828601610fe4565b92505060206110ba85828601610fcf565b9150509250929050565b600080604083850312156110d757600080fd5b60006110e585828601610fe4565b92505060206110f68582860161100e565b9150509250929050565b60006020828403121561111257600080fd5b600061112084828501610ff9565b91505092915050565b611132816115ee565b82525050565b61114181611600565b82525050565b6111508161160c565b82525050565b6000611161826114e3565b61116b81856114ee565b935061117b81856020860161166c565b611184816116f8565b840191505092915050565b600061119a826114e3565b6111a481856114ff565b93506111b481856020860161166c565b80840191505092915050565b60006111cd6022836114ee565b91507f456e756d657261626c655365743a20696e646578206f7574206f6620626f756e60008301527f64730000000000000000000000000000000000000000000000000000000000006020830152604082019050919050565b60006112336020836114ee565b91507f537472696e67733a20686578206c656e67746820696e73756666696369656e746000830152602082019050919050565b60006112736017836114ff565b91507f416363657373436f6e74726f6c3a206163636f756e74200000000000000000006000830152601782019050919050565b60006112b36012836114ee565b91507f446f6573206e6f74206861766520726f6c6500000000000000000000000000006000830152602082019050919050565b60006112f36011836114ff565b91507f206973206d697373696e6720726f6c65200000000000000000000000000000006000830152601182019050919050565b6000611333602f836114ee565b91507f416363657373436f6e74726f6c3a2063616e206f6e6c792072656e6f756e636560008301527f20726f6c657320666f722073656c6600000000000000000000000000000000006020830152604082019050919050565b61139581611662565b82525050565b60006113a682611266565b91506113b2828561118f565b91506113bd826112e6565b91506113c9828461118f565b91508190509392505050565b60006020820190506113ea6000830184611129565b92915050565b60006020820190506114056000830184611138565b92915050565b60006020820190506114206000830184611147565b92915050565b600060208201905081810360008301526114408184611156565b905092915050565b60006020820190508181036000830152611461816111c0565b9050919050565b6000602082019050818103600083015261148181611226565b9050919050565b600060208201905081810360008301526114a1816112a6565b9050919050565b600060208201905081810360008301526114c181611326565b9050919050565b60006020820190506114dd600083018461138c565b92915050565b600081519050919050565b600082825260208201905092915050565b600081905092915050565b600061151582611662565b915061152083611662565b9250827fffffffffffffffffffffffffffffffffffffffffffffffffffffffffffffffff03821115611555576115546116c9565b5b828201905092915050565b600061156b82611662565b915061157683611662565b9250817fffffffffffffffffffffffffffffffffffffffffffffffffffffffffffffffff04831182151516156115af576115ae6116c9565b5b828202905092915050565b60006115c582611662565b91506115d083611662565b9250828210156115e3576115e26116c9565b5b828203905092915050565b60006115f982611642565b9050919050565b60008115159050919050565b6000819050919050565b60007fffffffff0000000000000000000000000000000000000000000000000000000082169050919050565b600073ffffffffffffffffffffffffffffffffffffffff82169050919050565b6000819050919050565b60005b8381101561168a57808201518184015260208101905061166f565b83811115611699576000848401525b50505050565b60006116aa82611662565b915060008214156116be576116bd6116c9565b5b600182039050919050565b7f4e487b7100000000000000000000000000000000000000000000000000000000600052601160045260246000fd5b6000601f19601f8301169050919050565b611712816115ee565b811461171d57600080fd5b50565b6117298161160c565b811461173457600080fd5b50565b61174081611616565b811461174b57600080fd5b50565b61175781611662565b811461176257600080fd5b5056fea2646970667358221220c5168d1694c33b3cb2353096db9ee8dcf19e8e3b4fadb69c462b3d1fa4f143c664736f6c63430008000033",
  "linkReferences": {},
  "deployedLinkReferences": {}
}