{
  "_format": "hh-sol-artifact-1",
  "contractName": "minter",
  "sourceName": "contracts/utility/minter.sol",
  "abi": [
    {
      "inputs": [
        {
          "internalType": "address",
          "name": "_FAH",
          "type": "address"
        },
        {
          "internalType": "address",
          "name": "_CS_Case",
          "type": "address"
        },
        {
          "internalType": "address",
          "name": "_SushiFactory",
          "type": "address"
        },
        {
          "internalType": "address",
          "name": "_SushiRouter",
          "type": "address"
        }
      ],
      "stateMutability": "nonpayable",
      "type": "constructor"
    },
    {
      "anonymous": false,
      "inputs": [
        {
          "indexed": true,
          "internalType": "bytes32",
          "name": "role",
          "type": "bytes32"
        },
        {
          "indexed": true,
          "internalType": "bytes32",
          "name": "previousAdminRole",
          "type": "bytes32"
        },
        {
          "indexed": true,
          "internalType": "bytes32",
          "name": "newAdminRole",
          "type": "bytes32"
        }
      ],
      "name": "RoleAdminChanged",
      "type": "event"
    },
    {
      "anonymous": false,
      "inputs": [
        {
          "indexed": true,
          "internalType": "bytes32",
          "name": "role",
          "type": "bytes32"
        },
        {
          "indexed": true,
          "internalType": "address",
          "name": "account",
          "type": "address"
        },
        {
          "indexed": true,
          "internalType": "address",
          "name": "sender",
          "type": "address"
        }
      ],
      "name": "RoleGranted",
      "type": "event"
    },
    {
      "anonymous": false,
      "inputs": [
        {
          "indexed": true,
          "internalType": "bytes32",
          "name": "role",
          "type": "bytes32"
        },
        {
          "indexed": true,
          "internalType": "address",
          "name": "account",
          "type": "address"
        },
        {
          "indexed": true,
          "internalType": "address",
          "name": "sender",
          "type": "address"
        }
      ],
      "name": "RoleRevoked",
      "type": "event"
    },
    {
      "inputs": [],
      "name": "DEFAULT_ADMIN_ROLE",
      "outputs": [
        {
          "internalType": "bytes32",
          "name": "",
          "type": "bytes32"
        }
      ],
      "stateMutability": "view",
      "type": "function"
    },
    {
      "inputs": [],
      "name": "LOCAL_MINTER_ROLE",
      "outputs": [
        {
          "internalType": "bytes32",
          "name": "",
          "type": "bytes32"
        }
      ],
      "stateMutability": "view",
      "type": "function"
    },
    {
      "inputs": [
        {
          "internalType": "bytes32",
          "name": "role",
          "type": "bytes32"
        }
      ],
      "name": "getRoleAdmin",
      "outputs": [
        {
          "internalType": "bytes32",
          "name": "",
          "type": "bytes32"
        }
      ],
      "stateMutability": "view",
      "type": "function"
    },
    {
      "inputs": [
        {
          "internalType": "bytes32",
          "name": "role",
          "type": "bytes32"
        },
        {
          "internalType": "uint256",
          "name": "index",
          "type": "uint256"
        }
      ],
      "name": "getRoleMember",
      "outputs": [
        {
          "internalType": "address",
          "name": "",
          "type": "address"
        }
      ],
      "stateMutability": "view",
      "type": "function"
    },
    {
      "inputs": [
        {
          "internalType": "bytes32",
          "name": "role",
          "type": "bytes32"
        }
      ],
      "name": "getRoleMemberCount",
      "outputs": [
        {
          "internalType": "uint256",
          "name": "",
          "type": "uint256"
        }
      ],
      "stateMutability": "view",
      "type": "function"
    },
    {
      "inputs": [
        {
          "internalType": "bytes32",
          "name": "role",
          "type": "bytes32"
        },
        {
          "internalType": "address",
          "name": "account",
          "type": "address"
        }
      ],
      "name": "grantRole",
      "outputs": [],
      "stateMutability": "nonpayable",
      "type": "function"
    },
    {
      "inputs": [
        {
          "internalType": "bytes32",
          "name": "role",
          "type": "bytes32"
        },
        {
          "internalType": "address",
          "name": "account",
          "type": "address"
        }
      ],
      "name": "hasRole",
      "outputs": [
        {
          "internalType": "bool",
          "name": "",
          "type": "bool"
        }
      ],
      "stateMutability": "view",
      "type": "function"
    },
    {
      "inputs": [
        {
          "internalType": "uint256",
          "name": "_FAH_amount",
          "type": "uint256"
        }
      ],
      "name": "poolSetup",
      "outputs": [],
      "stateMutability": "nonpayable",
      "type": "function"
    },
    {
      "inputs": [
        {
          "internalType": "bytes32",
          "name": "role",
          "type": "bytes32"
        },
        {
          "internalType": "address",
          "name": "account",
          "type": "address"
        }
      ],
      "name": "renounceRole",
      "outputs": [],
      "stateMutability": "nonpayable",
      "type": "function"
    },
    {
      "inputs": [
        {
          "internalType": "bytes32",
          "name": "role",
          "type": "bytes32"
        },
        {
          "internalType": "address",
          "name": "account",
          "type": "address"
        }
      ],
      "name": "revokeRole",
      "outputs": [],
      "stateMutability": "nonpayable",
      "type": "function"
    },
    {
      "inputs": [
        {
          "internalType": "bytes4",
          "name": "interfaceId",
          "type": "bytes4"
        }
      ],
      "name": "supportsInterface",
      "outputs": [
        {
          "internalType": "bool",
          "name": "",
          "type": "bool"
        }
      ],
      "stateMutability": "view",
      "type": "function"
    }
  ],
  "bytecode": "0x60806040523480156200001157600080fd5b5060405162001f3438038062001f34833981810160405281019062000037919062000649565b620000787f9f2df0fed2c77648de5860a4cc508cd0818c85b8b8a1ab4ceeef8d981c8956a66200006c6200038560201b60201c565b6200038d60201b60201c565b620000b97f9f2df0fed2c77648de5860a4cc508cd0818c85b8b8a1ab4ceeef8d981c8956a6620000ad6200038560201b60201c565b620003d560201b60201c565b620000fb576040517f08c379a0000000000000000000000000000000000000000000000000000000008152600401620000f29062000772565b60405180910390fd5b83600260006101000a81548173ffffffffffffffffffffffffffffffffffffffff021916908373ffffffffffffffffffffffffffffffffffffffff16021790555082600360006101000a81548173ffffffffffffffffffffffffffffffffffffffff021916908373ffffffffffffffffffffffffffffffffffffffff16021790555081600460006101000a81548173ffffffffffffffffffffffffffffffffffffffff021916908373ffffffffffffffffffffffffffffffffffffffff16021790555080600560006101000a81548173ffffffffffffffffffffffffffffffffffffffff021916908373ffffffffffffffffffffffffffffffffffffffff160217905550600260009054906101000a900473ffffffffffffffffffffffffffffffffffffffff1673ffffffffffffffffffffffffffffffffffffffff1663095ea7b382670de0b6b3a76400006040518363ffffffff1660e01b81526004016200026692919062000745565b602060405180830381600087803b1580156200028157600080fd5b505af115801562000296573d6000803e3d6000fd5b505050506040513d601f19601f82011682018060405250810190620002bc9190620006b5565b50600360009054906101000a900473ffffffffffffffffffffffffffffffffffffffff1673ffffffffffffffffffffffffffffffffffffffff1663095ea7b382670de0b6b3a76400006040518363ffffffff1660e01b81526004016200032492919062000745565b602060405180830381600087803b1580156200033f57600080fd5b505af115801562000354573d6000803e3d6000fd5b505050506040513d601f19601f820116820180604052508101906200037a9190620006b5565b505050505062000837565b600033905090565b620003a482826200043f60201b620004f91760201c565b620003d081600160008581526020019081526020016000206200045560201b620005071790919060201c565b505050565b600080600084815260200190815260200160002060000160008373ffffffffffffffffffffffffffffffffffffffff1673ffffffffffffffffffffffffffffffffffffffff16815260200190815260200160002060009054906101000a900460ff16905092915050565b6200045182826200048d60201b60201c565b5050565b600062000485836000018373ffffffffffffffffffffffffffffffffffffffff1660001b6200057e60201b60201c565b905092915050565b6200049f8282620003d560201b60201c565b6200057a57600160008084815260200190815260200160002060000160008373ffffffffffffffffffffffffffffffffffffffff1673ffffffffffffffffffffffffffffffffffffffff16815260200190815260200160002060006101000a81548160ff0219169083151502179055506200051f6200038560201b60201c565b73ffffffffffffffffffffffffffffffffffffffff168173ffffffffffffffffffffffffffffffffffffffff16837f2f8788117e7eff1d82e926ec794901d17c78024a50270940304540a733656f0d60405160405180910390a45b5050565b6000620005928383620005f860201b60201c565b620005ed578260000182908060018154018082558091505060019003906000526020600020016000909190919091505582600001805490508360010160008481526020019081526020016000208190555060019050620005f2565b600090505b92915050565b600080836001016000848152602001908152602001600020541415905092915050565b6000815190506200062c8162000803565b92915050565b60008151905062000643816200081d565b92915050565b600080600080608085870312156200066057600080fd5b600062000670878288016200061b565b945050602062000683878288016200061b565b935050604062000696878288016200061b565b9250506060620006a9878288016200061b565b91505092959194509250565b600060208284031215620006c857600080fd5b6000620006d88482850162000632565b91505092915050565b620006ec81620007a5565b82525050565b620006fd81620007ef565b82525050565b60006200071260128362000794565b91507f446f6573206e6f74206861766520726f6c6500000000000000000000000000006000830152602082019050919050565b60006040820190506200075c6000830185620006e1565b6200076b6020830184620006f2565b9392505050565b600060208201905081810360008301526200078d8162000703565b9050919050565b600082825260208201905092915050565b6000620007b282620007c5565b9050919050565b60008115159050919050565b600073ffffffffffffffffffffffffffffffffffffffff82169050919050565b6000819050919050565b6000620007fc82620007e5565b9050919050565b6200080e81620007a5565b81146200081a57600080fd5b50565b6200082881620007b9565b81146200083457600080fd5b50565b6116ed80620008476000396000f3fe608060405234801561001057600080fd5b50600436106100a95760003560e01c80639010d07c116100715780639010d07c1461016457806391d1485414610194578063a217fddf146101c4578063ca15c873146101e2578063d547741f14610212578063feee24651461022e576100a9565b806301ffc9a7146100ae578063248a9ca3146100de5780632f2ff15d1461010e57806336568abe1461012a57806373e3bfbd14610146575b600080fd5b6100c860048036038101906100c39190611060565b61024a565b6040516100d59190611339565b60405180910390f35b6100f860048036038101906100f39190610fbf565b6102c4565b6040516101059190611354565b60405180910390f35b61012860048036038101906101239190610fe8565b6102e3565b005b610144600480360381019061013f9190610fe8565b610317565b005b61014e61034b565b60405161015b9190611354565b60405180910390f35b61017e60048036038101906101799190611024565b61036f565b60405161018b919061131e565b60405180910390f35b6101ae60048036038101906101a99190610fe8565b61039e565b6040516101bb9190611339565b60405180910390f35b6101cc610408565b6040516101d99190611354565b60405180910390f35b6101fc60048036038101906101f79190610fbf565b61040f565b60405161020991906113f1565b60405180910390f35b61022c60048036038101906102279190610fe8565b610433565b005b61024860048036038101906102439190611089565b610467565b005b60007f5a05180f000000000000000000000000000000000000000000000000000000007bffffffffffffffffffffffffffffffffffffffffffffffffffffffff1916827bffffffffffffffffffffffffffffffffffffffffffffffffffffffff191614806102bd57506102bc82610537565b5b9050919050565b6000806000838152602001908152602001600020600101549050919050565b6102ed82826105b1565b610312816001600085815260200190815260200160002061050790919063ffffffff16565b505050565b61032182826105da565b610346816001600085815260200190815260200160002061065d90919063ffffffff16565b505050565b7f9f2df0fed2c77648de5860a4cc508cd0818c85b8b8a1ab4ceeef8d981c8956a681565b6000610396826001600086815260200190815260200160002061068d90919063ffffffff16565b905092915050565b600080600084815260200190815260200160002060000160008373ffffffffffffffffffffffffffffffffffffffff1673ffffffffffffffffffffffffffffffffffffffff16815260200190815260200160002060009054906101000a900460ff16905092915050565b6000801b81565b600061042c600160008481526020019081526020016000206106a7565b9050919050565b61043d82826106bc565b610462816001600085815260200190815260200160002061065d90919063ffffffff16565b505050565b600260009054906101000a900473ffffffffffffffffffffffffffffffffffffffff1673ffffffffffffffffffffffffffffffffffffffff166339a8c66182306040518363ffffffff1660e01b81526004016104c492919061140c565b600060405180830381600087803b1580156104de57600080fd5b505af11580156104f2573d6000803e3d6000fd5b5050505050565b61050382826106e5565b5050565b600061052f836000018373ffffffffffffffffffffffffffffffffffffffff1660001b6107c5565b905092915050565b60007f7965db0b000000000000000000000000000000000000000000000000000000007bffffffffffffffffffffffffffffffffffffffffffffffffffffffff1916827bffffffffffffffffffffffffffffffffffffffffffffffffffffffff191614806105aa57506105a982610835565b5b9050919050565b6105ba826102c4565b6105cb816105c661089f565b6108a7565b6105d583836106e5565b505050565b6105e261089f565b73ffffffffffffffffffffffffffffffffffffffff168173ffffffffffffffffffffffffffffffffffffffff161461064f576040517f08c379a0000000000000000000000000000000000000000000000000000000008152600401610646906113d1565b60405180910390fd5b6106598282610944565b5050565b6000610685836000018373ffffffffffffffffffffffffffffffffffffffff1660001b610a25565b905092915050565b600061069c8360000183610ba3565b60001c905092915050565b60006106b582600001610c3d565b9050919050565b6106c5826102c4565b6106d6816106d161089f565b6108a7565b6106e08383610944565b505050565b6106ef828261039e565b6107c157600160008084815260200190815260200160002060000160008373ffffffffffffffffffffffffffffffffffffffff1673ffffffffffffffffffffffffffffffffffffffff16815260200190815260200160002060006101000a81548160ff02191690831515021790555061076661089f565b73ffffffffffffffffffffffffffffffffffffffff168173ffffffffffffffffffffffffffffffffffffffff16837f2f8788117e7eff1d82e926ec794901d17c78024a50270940304540a733656f0d60405160405180910390a45b5050565b60006107d18383610c4e565b61082a57826000018290806001815401808255809150506001900390600052602060002001600090919091909150558260000180549050836001016000848152602001908152602001600020819055506001905061082f565b600090505b92915050565b60007f01ffc9a7000000000000000000000000000000000000000000000000000000007bffffffffffffffffffffffffffffffffffffffffffffffffffffffff1916827bffffffffffffffffffffffffffffffffffffffffffffffffffffffff1916149050919050565b600033905090565b6108b1828261039e565b610940576108d68173ffffffffffffffffffffffffffffffffffffffff166014610c71565b6108e48360001c6020610c71565b6040516020016108f59291906112e4565b6040516020818303038152906040526040517f08c379a0000000000000000000000000000000000000000000000000000000008152600401610937919061136f565b60405180910390fd5b5050565b61094e828261039e565b15610a2157600080600084815260200190815260200160002060000160008373ffffffffffffffffffffffffffffffffffffffff1673ffffffffffffffffffffffffffffffffffffffff16815260200190815260200160002060006101000a81548160ff0219169083151502179055506109c661089f565b73ffffffffffffffffffffffffffffffffffffffff168173ffffffffffffffffffffffffffffffffffffffff16837ff6391f5c32d9c69d2a47ea670b442974b53935d1edc7fd64eb21e047a839171b60405160405180910390a45b5050565b60008083600101600084815260200190815260200160002054905060008114610b97576000600182610a57919061150c565b9050600060018660000180549050610a6f919061150c565b90506000866000018281548110610aaf577f4e487b7100000000000000000000000000000000000000000000000000000000600052603260045260246000fd5b9060005260206000200154905080876000018481548110610af9577f4e487b7100000000000000000000000000000000000000000000000000000000600052603260045260246000fd5b9060005260206000200181905550838760010160008381526020019081526020016000208190555086600001805480610b5b577f4e487b7100000000000000000000000000000000000000000000000000000000600052603160045260246000fd5b60019003818190600052602060002001600090559055866001016000878152602001908152602001600020600090556001945050505050610b9d565b60009150505b92915050565b600081836000018054905011610bee576040517f08c379a0000000000000000000000000000000000000000000000000000000008152600401610be590611391565b60405180910390fd5b826000018281548110610c2a577f4e487b7100000000000000000000000000000000000000000000000000000000600052603260045260246000fd5b9060005260206000200154905092915050565b600081600001805490509050919050565b600080836001016000848152602001908152602001600020541415905092915050565b606060006002836002610c8491906114b2565b610c8e919061145c565b67ffffffffffffffff811115610ccd577f4e487b7100000000000000000000000000000000000000000000000000000000600052604160045260246000fd5b6040519080825280601f01601f191660200182016040528015610cff5781602001600182028036833780820191505090505b5090507f300000000000000000000000000000000000000000000000000000000000000081600081518110610d5d577f4e487b7100000000000000000000000000000000000000000000000000000000600052603260045260246000fd5b60200101907effffffffffffffffffffffffffffffffffffffffffffffffffffffffffffff1916908160001a9053507f780000000000000000000000000000000000000000000000000000000000000081600181518110610de7577f4e487b7100000000000000000000000000000000000000000000000000000000600052603260045260246000fd5b60200101907effffffffffffffffffffffffffffffffffffffffffffffffffffffffffffff1916908160001a90535060006001846002610e2791906114b2565b610e31919061145c565b90505b6001811115610f1d577f3031323334353637383961626364656600000000000000000000000000000000600f861660108110610e99577f4e487b7100000000000000000000000000000000000000000000000000000000600052603260045260246000fd5b1a60f81b828281518110610ed6577f4e487b7100000000000000000000000000000000000000000000000000000000600052603260045260246000fd5b60200101907effffffffffffffffffffffffffffffffffffffffffffffffffffffffffffff1916908160001a905350600485901c945080610f16906115f1565b9050610e34565b5060008414610f61576040517f08c379a0000000000000000000000000000000000000000000000000000000008152600401610f58906113b1565b60405180910390fd5b8091505092915050565b600081359050610f7a8161165b565b92915050565b600081359050610f8f81611672565b92915050565b600081359050610fa481611689565b92915050565b600081359050610fb9816116a0565b92915050565b600060208284031215610fd157600080fd5b6000610fdf84828501610f80565b91505092915050565b60008060408385031215610ffb57600080fd5b600061100985828601610f80565b925050602061101a85828601610f6b565b9150509250929050565b6000806040838503121561103757600080fd5b600061104585828601610f80565b925050602061105685828601610faa565b9150509250929050565b60006020828403121561107257600080fd5b600061108084828501610f95565b91505092915050565b60006020828403121561109b57600080fd5b60006110a984828501610faa565b91505092915050565b6110bb81611540565b82525050565b6110ca81611552565b82525050565b6110d98161155e565b82525050565b60006110ea82611435565b6110f48185611440565b93506111048185602086016115be565b61110d8161164a565b840191505092915050565b600061112382611435565b61112d8185611451565b935061113d8185602086016115be565b80840191505092915050565b6000611156602283611440565b91507f456e756d657261626c655365743a20696e646578206f7574206f6620626f756e60008301527f64730000000000000000000000000000000000000000000000000000000000006020830152604082019050919050565b60006111bc602083611440565b91507f537472696e67733a20686578206c656e67746820696e73756666696369656e746000830152602082019050919050565b60006111fc601783611451565b91507f416363657373436f6e74726f6c3a206163636f756e74200000000000000000006000830152601782019050919050565b600061123c601183611451565b91507f206973206d697373696e6720726f6c65200000000000000000000000000000006000830152601182019050919050565b600061127c602f83611440565b91507f416363657373436f6e74726f6c3a2063616e206f6e6c792072656e6f756e636560008301527f20726f6c657320666f722073656c6600000000000000000000000000000000006020830152604082019050919050565b6112de816115b4565b82525050565b60006112ef826111ef565b91506112fb8285611118565b91506113068261122f565b91506113128284611118565b91508190509392505050565b600060208201905061133360008301846110b2565b92915050565b600060208201905061134e60008301846110c1565b92915050565b600060208201905061136960008301846110d0565b92915050565b6000602082019050818103600083015261138981846110df565b905092915050565b600060208201905081810360008301526113aa81611149565b9050919050565b600060208201905081810360008301526113ca816111af565b9050919050565b600060208201905081810360008301526113ea8161126f565b9050919050565b600060208201905061140660008301846112d5565b92915050565b600060408201905061142160008301856112d5565b61142e60208301846110b2565b9392505050565b600081519050919050565b600082825260208201905092915050565b600081905092915050565b6000611467826115b4565b9150611472836115b4565b9250827fffffffffffffffffffffffffffffffffffffffffffffffffffffffffffffffff038211156114a7576114a661161b565b5b828201905092915050565b60006114bd826115b4565b91506114c8836115b4565b9250817fffffffffffffffffffffffffffffffffffffffffffffffffffffffffffffffff04831182151516156115015761150061161b565b5b828202905092915050565b6000611517826115b4565b9150611522836115b4565b9250828210156115355761153461161b565b5b828203905092915050565b600061154b82611594565b9050919050565b60008115159050919050565b6000819050919050565b60007fffffffff0000000000000000000000000000000000000000000000000000000082169050919050565b600073ffffffffffffffffffffffffffffffffffffffff82169050919050565b6000819050919050565b60005b838110156115dc5780820151818401526020810190506115c1565b838111156115eb576000848401525b50505050565b60006115fc826115b4565b915060008214156116105761160f61161b565b5b600182039050919050565b7f4e487b7100000000000000000000000000000000000000000000000000000000600052601160045260246000fd5b6000601f19601f8301169050919050565b61166481611540565b811461166f57600080fd5b50565b61167b8161155e565b811461168657600080fd5b50565b61169281611568565b811461169d57600080fd5b50565b6116a9816115b4565b81146116b457600080fd5b5056fea2646970667358221220f18e50b00378256652e981670447cc97bb5f14db76f53a55d97c48bcfa64648164736f6c63430008000033",
  "linkReferences": {},
  "deployedLinkReferences": {}
}