{
  "_format": "hh-sol-artifact-1",
  "contractName": "minter",
  "sourceName": "contracts/utility/minter.sol",
  "abi": [
    {
      "inputs": [],
      "stateMutability": "nonpayable",
      "type": "constructor"
    },
    {
      "anonymous": false,
      "inputs": [
        {
          "indexed": true,
          "internalType": "bytes32",
          "name": "role",
          "type": "bytes32"
        },
        {
          "indexed": true,
          "internalType": "bytes32",
          "name": "previousAdminRole",
          "type": "bytes32"
        },
        {
          "indexed": true,
          "internalType": "bytes32",
          "name": "newAdminRole",
          "type": "bytes32"
        }
      ],
      "name": "RoleAdminChanged",
      "type": "event"
    },
    {
      "anonymous": false,
      "inputs": [
        {
          "indexed": true,
          "internalType": "bytes32",
          "name": "role",
          "type": "bytes32"
        },
        {
          "indexed": true,
          "internalType": "address",
          "name": "account",
          "type": "address"
        },
        {
          "indexed": true,
          "internalType": "address",
          "name": "sender",
          "type": "address"
        }
      ],
      "name": "RoleGranted",
      "type": "event"
    },
    {
      "anonymous": false,
      "inputs": [
        {
          "indexed": true,
          "internalType": "bytes32",
          "name": "role",
          "type": "bytes32"
        },
        {
          "indexed": true,
          "internalType": "address",
          "name": "account",
          "type": "address"
        },
        {
          "indexed": true,
          "internalType": "address",
          "name": "sender",
          "type": "address"
        }
      ],
      "name": "RoleRevoked",
      "type": "event"
    },
    {
      "inputs": [],
      "name": "DEFAULT_ADMIN_ROLE",
      "outputs": [
        {
          "internalType": "bytes32",
          "name": "",
          "type": "bytes32"
        }
      ],
      "stateMutability": "view",
      "type": "function"
    },
    {
      "inputs": [],
      "name": "LOCAL_MINTER_ROLE",
      "outputs": [
        {
          "internalType": "bytes32",
          "name": "",
          "type": "bytes32"
        }
      ],
      "stateMutability": "view",
      "type": "function"
    },
    {
      "inputs": [
        {
          "internalType": "bytes32",
          "name": "role",
          "type": "bytes32"
        }
      ],
      "name": "getRoleAdmin",
      "outputs": [
        {
          "internalType": "bytes32",
          "name": "",
          "type": "bytes32"
        }
      ],
      "stateMutability": "view",
      "type": "function"
    },
    {
      "inputs": [
        {
          "internalType": "bytes32",
          "name": "role",
          "type": "bytes32"
        },
        {
          "internalType": "uint256",
          "name": "index",
          "type": "uint256"
        }
      ],
      "name": "getRoleMember",
      "outputs": [
        {
          "internalType": "address",
          "name": "",
          "type": "address"
        }
      ],
      "stateMutability": "view",
      "type": "function"
    },
    {
      "inputs": [
        {
          "internalType": "bytes32",
          "name": "role",
          "type": "bytes32"
        }
      ],
      "name": "getRoleMemberCount",
      "outputs": [
        {
          "internalType": "uint256",
          "name": "",
          "type": "uint256"
        }
      ],
      "stateMutability": "view",
      "type": "function"
    },
    {
      "inputs": [
        {
          "internalType": "bytes32",
          "name": "role",
          "type": "bytes32"
        },
        {
          "internalType": "address",
          "name": "account",
          "type": "address"
        }
      ],
      "name": "grantRole",
      "outputs": [],
      "stateMutability": "nonpayable",
      "type": "function"
    },
    {
      "inputs": [
        {
          "internalType": "bytes32",
          "name": "role",
          "type": "bytes32"
        },
        {
          "internalType": "address",
          "name": "account",
          "type": "address"
        }
      ],
      "name": "hasRole",
      "outputs": [
        {
          "internalType": "bool",
          "name": "",
          "type": "bool"
        }
      ],
      "stateMutability": "view",
      "type": "function"
    },
    {
      "inputs": [
        {
          "internalType": "bytes32",
          "name": "role",
          "type": "bytes32"
        },
        {
          "internalType": "address",
          "name": "account",
          "type": "address"
        }
      ],
      "name": "renounceRole",
      "outputs": [],
      "stateMutability": "nonpayable",
      "type": "function"
    },
    {
      "inputs": [
        {
          "internalType": "bytes32",
          "name": "role",
          "type": "bytes32"
        },
        {
          "internalType": "address",
          "name": "account",
          "type": "address"
        }
      ],
      "name": "revokeRole",
      "outputs": [],
      "stateMutability": "nonpayable",
      "type": "function"
    },
    {
      "inputs": [
        {
          "internalType": "address",
          "name": "_FAH",
          "type": "address"
        },
        {
          "internalType": "address",
          "name": "_CS_Case",
          "type": "address"
        },
        {
          "internalType": "address",
          "name": "_Sushi",
          "type": "address"
        }
      ],
      "name": "setContracts",
      "outputs": [],
      "stateMutability": "nonpayable",
      "type": "function"
    },
    {
      "inputs": [
        {
          "internalType": "bytes4",
          "name": "interfaceId",
          "type": "bytes4"
        }
      ],
      "name": "supportsInterface",
      "outputs": [
        {
          "internalType": "bool",
          "name": "",
          "type": "bool"
        }
      ],
      "stateMutability": "view",
      "type": "function"
    }
  ],
  "bytecode": "0x60806040523480156200001157600080fd5b50620000537f9f2df0fed2c77648de5860a4cc508cd0818c85b8b8a1ab4ceeef8d981c8956a6620000476200005960201b60201c565b6200006160201b60201c565b620002ef565b600033905090565b620000788282620000a960201b620006fd1760201c565b620000a48160016000858152602001908152602001600020620000bf60201b6200070b1790919060201c565b505050565b620000bb8282620000f760201b60201c565b5050565b6000620000ef836000018373ffffffffffffffffffffffffffffffffffffffff1660001b620001e860201b60201c565b905092915050565b6200010982826200026260201b60201c565b620001e457600160008084815260200190815260200160002060000160008373ffffffffffffffffffffffffffffffffffffffff1673ffffffffffffffffffffffffffffffffffffffff16815260200190815260200160002060006101000a81548160ff021916908315150217905550620001896200005960201b60201c565b73ffffffffffffffffffffffffffffffffffffffff168173ffffffffffffffffffffffffffffffffffffffff16837f2f8788117e7eff1d82e926ec794901d17c78024a50270940304540a733656f0d60405160405180910390a45b5050565b6000620001fc8383620002cc60201b60201c565b620002575782600001829080600181540180825580915050600190039060005260206000200160009091909190915055826000018054905083600101600084815260200190815260200160002081905550600190506200025c565b600090505b92915050565b600080600084815260200190815260200160002060000160008373ffffffffffffffffffffffffffffffffffffffff1673ffffffffffffffffffffffffffffffffffffffff16815260200190815260200160002060009054906101000a900460ff16905092915050565b600080836001016000848152602001908152602001600020541415905092915050565b6119b580620002ff6000396000f3fe608060405234801561001057600080fd5b50600436106100a95760003560e01c80639010d07c116100715780639010d07c1461016457806391d1485414610194578063a217fddf146101c4578063b3066d49146101e2578063ca15c873146101fe578063d547741f1461022e576100a9565b806301ffc9a7146100ae578063248a9ca3146100de5780632f2ff15d1461010e57806336568abe1461012a57806373e3bfbd14610146575b600080fd5b6100c860048036038101906100c391906112f1565b61024a565b6040516100d5919061160a565b60405180910390f35b6100f860048036038101906100f39190611250565b6102c4565b6040516101059190611625565b60405180910390f35b61012860048036038101906101239190611279565b6102e3565b005b610144600480360381019061013f9190611279565b610317565b005b61014e61034b565b60405161015b9190611625565b60405180910390f35b61017e600480360381019061017991906112b5565b61036f565b60405161018b91906115c6565b60405180910390f35b6101ae60048036038101906101a99190611279565b61039e565b6040516101bb919061160a565b60405180910390f35b6101cc610408565b6040516101d99190611625565b60405180910390f35b6101fc60048036038101906101f79190611201565b61040f565b005b61021860048036038101906102139190611250565b6106a5565b60405161022591906116e2565b60405180910390f35b61024860048036038101906102439190611279565b6106c9565b005b60007f5a05180f000000000000000000000000000000000000000000000000000000007bffffffffffffffffffffffffffffffffffffffffffffffffffffffff1916827bffffffffffffffffffffffffffffffffffffffffffffffffffffffff191614806102bd57506102bc8261073b565b5b9050919050565b6000806000838152602001908152602001600020600101549050919050565b6102ed82826107b5565b610312816001600085815260200190815260200160002061070b90919063ffffffff16565b505050565b61032182826107de565b610346816001600085815260200190815260200160002061086190919063ffffffff16565b505050565b7f9f2df0fed2c77648de5860a4cc508cd0818c85b8b8a1ab4ceeef8d981c8956a681565b6000610396826001600086815260200190815260200160002061089190919063ffffffff16565b905092915050565b600080600084815260200190815260200160002060000160008373ffffffffffffffffffffffffffffffffffffffff1673ffffffffffffffffffffffffffffffffffffffff16815260200190815260200160002060009054906101000a900460ff16905092915050565b6000801b81565b6104407f9f2df0fed2c77648de5860a4cc508cd0818c85b8b8a1ab4ceeef8d981c8956a661043b6108ab565b61039e565b61047f576040517f08c379a0000000000000000000000000000000000000000000000000000000008152600401610476906116a2565b60405180910390fd5b82600260006101000a81548173ffffffffffffffffffffffffffffffffffffffff021916908373ffffffffffffffffffffffffffffffffffffffff16021790555081600360006101000a81548173ffffffffffffffffffffffffffffffffffffffff021916908373ffffffffffffffffffffffffffffffffffffffff16021790555080600460006101000a81548173ffffffffffffffffffffffffffffffffffffffff021916908373ffffffffffffffffffffffffffffffffffffffff160217905550600460009054906101000a900473ffffffffffffffffffffffffffffffffffffffff1673ffffffffffffffffffffffffffffffffffffffff1663c9c6539684846040518363ffffffff1660e01b815260040161059f9291906115e1565b602060405180830381600087803b1580156105b957600080fd5b505af11580156105cd573d6000803e3d6000fd5b505050506040513d601f19601f820116820180604052508101906105f191906111d8565b50600460009054906101000a900473ffffffffffffffffffffffffffffffffffffffff1673ffffffffffffffffffffffffffffffffffffffff1663e6a4390584846040518363ffffffff1660e01b815260040161064f9291906115e1565b60206040518083038186803b15801561066757600080fd5b505afa15801561067b573d6000803e3d6000fd5b505050506040513d601f19601f8201168201806040525081019061069f91906111d8565b50505050565b60006106c2600160008481526020019081526020016000206108b3565b9050919050565b6106d382826108c8565b6106f8816001600085815260200190815260200160002061086190919063ffffffff16565b505050565b61070782826108f1565b5050565b6000610733836000018373ffffffffffffffffffffffffffffffffffffffff1660001b6109d1565b905092915050565b60007f7965db0b000000000000000000000000000000000000000000000000000000007bffffffffffffffffffffffffffffffffffffffffffffffffffffffff1916827bffffffffffffffffffffffffffffffffffffffffffffffffffffffff191614806107ae57506107ad82610a41565b5b9050919050565b6107be826102c4565b6107cf816107ca6108ab565b610aab565b6107d983836108f1565b505050565b6107e66108ab565b73ffffffffffffffffffffffffffffffffffffffff168173ffffffffffffffffffffffffffffffffffffffff1614610853576040517f08c379a000000000000000000000000000000000000000000000000000000000815260040161084a906116c2565b60405180910390fd5b61085d8282610b48565b5050565b6000610889836000018373ffffffffffffffffffffffffffffffffffffffff1660001b610c29565b905092915050565b60006108a08360000183610da7565b60001c905092915050565b600033905090565b60006108c182600001610e41565b9050919050565b6108d1826102c4565b6108e2816108dd6108ab565b610aab565b6108ec8383610b48565b505050565b6108fb828261039e565b6109cd57600160008084815260200190815260200160002060000160008373ffffffffffffffffffffffffffffffffffffffff1673ffffffffffffffffffffffffffffffffffffffff16815260200190815260200160002060006101000a81548160ff0219169083151502179055506109726108ab565b73ffffffffffffffffffffffffffffffffffffffff168173ffffffffffffffffffffffffffffffffffffffff16837f2f8788117e7eff1d82e926ec794901d17c78024a50270940304540a733656f0d60405160405180910390a45b5050565b60006109dd8383610e52565b610a36578260000182908060018154018082558091505060019003906000526020600020016000909190919091505582600001805490508360010160008481526020019081526020016000208190555060019050610a3b565b600090505b92915050565b60007f01ffc9a7000000000000000000000000000000000000000000000000000000007bffffffffffffffffffffffffffffffffffffffffffffffffffffffff1916827bffffffffffffffffffffffffffffffffffffffffffffffffffffffff1916149050919050565b610ab5828261039e565b610b4457610ada8173ffffffffffffffffffffffffffffffffffffffff166014610e75565b610ae88360001c6020610e75565b604051602001610af992919061158c565b6040516020818303038152906040526040517f08c379a0000000000000000000000000000000000000000000000000000000008152600401610b3b9190611640565b60405180910390fd5b5050565b610b52828261039e565b15610c2557600080600084815260200190815260200160002060000160008373ffffffffffffffffffffffffffffffffffffffff1673ffffffffffffffffffffffffffffffffffffffff16815260200190815260200160002060006101000a81548160ff021916908315150217905550610bca6108ab565b73ffffffffffffffffffffffffffffffffffffffff168173ffffffffffffffffffffffffffffffffffffffff16837ff6391f5c32d9c69d2a47ea670b442974b53935d1edc7fd64eb21e047a839171b60405160405180910390a45b5050565b60008083600101600084815260200190815260200160002054905060008114610d9b576000600182610c5b91906117d4565b9050600060018660000180549050610c7391906117d4565b90506000866000018281548110610cb3577f4e487b7100000000000000000000000000000000000000000000000000000000600052603260045260246000fd5b9060005260206000200154905080876000018481548110610cfd577f4e487b7100000000000000000000000000000000000000000000000000000000600052603260045260246000fd5b9060005260206000200181905550838760010160008381526020019081526020016000208190555086600001805480610d5f577f4e487b7100000000000000000000000000000000000000000000000000000000600052603160045260246000fd5b60019003818190600052602060002001600090559055866001016000878152602001908152602001600020600090556001945050505050610da1565b60009150505b92915050565b600081836000018054905011610df2576040517f08c379a0000000000000000000000000000000000000000000000000000000008152600401610de990611662565b60405180910390fd5b826000018281548110610e2e577f4e487b7100000000000000000000000000000000000000000000000000000000600052603260045260246000fd5b9060005260206000200154905092915050565b600081600001805490509050919050565b600080836001016000848152602001908152602001600020541415905092915050565b606060006002836002610e88919061177a565b610e929190611724565b67ffffffffffffffff811115610ed1577f4e487b7100000000000000000000000000000000000000000000000000000000600052604160045260246000fd5b6040519080825280601f01601f191660200182016040528015610f035781602001600182028036833780820191505090505b5090507f300000000000000000000000000000000000000000000000000000000000000081600081518110610f61577f4e487b7100000000000000000000000000000000000000000000000000000000600052603260045260246000fd5b60200101907effffffffffffffffffffffffffffffffffffffffffffffffffffffffffffff1916908160001a9053507f780000000000000000000000000000000000000000000000000000000000000081600181518110610feb577f4e487b7100000000000000000000000000000000000000000000000000000000600052603260045260246000fd5b60200101907effffffffffffffffffffffffffffffffffffffffffffffffffffffffffffff1916908160001a9053506000600184600261102b919061177a565b6110359190611724565b90505b6001811115611121577f3031323334353637383961626364656600000000000000000000000000000000600f86166010811061109d577f4e487b7100000000000000000000000000000000000000000000000000000000600052603260045260246000fd5b1a60f81b8282815181106110da577f4e487b7100000000000000000000000000000000000000000000000000000000600052603260045260246000fd5b60200101907effffffffffffffffffffffffffffffffffffffffffffffffffffffffffffff1916908160001a905350600485901c94508061111a906118b9565b9050611038565b5060008414611165576040517f08c379a000000000000000000000000000000000000000000000000000000000815260040161115c90611682565b60405180910390fd5b8091505092915050565b60008135905061117e81611923565b92915050565b60008151905061119381611923565b92915050565b6000813590506111a88161193a565b92915050565b6000813590506111bd81611951565b92915050565b6000813590506111d281611968565b92915050565b6000602082840312156111ea57600080fd5b60006111f884828501611184565b91505092915050565b60008060006060848603121561121657600080fd5b60006112248682870161116f565b93505060206112358682870161116f565b92505060406112468682870161116f565b9150509250925092565b60006020828403121561126257600080fd5b600061127084828501611199565b91505092915050565b6000806040838503121561128c57600080fd5b600061129a85828601611199565b92505060206112ab8582860161116f565b9150509250929050565b600080604083850312156112c857600080fd5b60006112d685828601611199565b92505060206112e7858286016111c3565b9150509250929050565b60006020828403121561130357600080fd5b6000611311848285016111ae565b91505092915050565b61132381611808565b82525050565b6113328161181a565b82525050565b61134181611826565b82525050565b6000611352826116fd565b61135c8185611708565b935061136c818560208601611886565b61137581611912565b840191505092915050565b600061138b826116fd565b6113958185611719565b93506113a5818560208601611886565b80840191505092915050565b60006113be602283611708565b91507f456e756d657261626c655365743a20696e646578206f7574206f6620626f756e60008301527f64730000000000000000000000000000000000000000000000000000000000006020830152604082019050919050565b6000611424602083611708565b91507f537472696e67733a20686578206c656e67746820696e73756666696369656e746000830152602082019050919050565b6000611464601783611719565b91507f416363657373436f6e74726f6c3a206163636f756e74200000000000000000006000830152601782019050919050565b60006114a4601283611708565b91507f446f6573206e6f74206861766520726f6c6500000000000000000000000000006000830152602082019050919050565b60006114e4601183611719565b91507f206973206d697373696e6720726f6c65200000000000000000000000000000006000830152601182019050919050565b6000611524602f83611708565b91507f416363657373436f6e74726f6c3a2063616e206f6e6c792072656e6f756e636560008301527f20726f6c657320666f722073656c6600000000000000000000000000000000006020830152604082019050919050565b6115868161187c565b82525050565b600061159782611457565b91506115a38285611380565b91506115ae826114d7565b91506115ba8284611380565b91508190509392505050565b60006020820190506115db600083018461131a565b92915050565b60006040820190506115f6600083018561131a565b611603602083018461131a565b9392505050565b600060208201905061161f6000830184611329565b92915050565b600060208201905061163a6000830184611338565b92915050565b6000602082019050818103600083015261165a8184611347565b905092915050565b6000602082019050818103600083015261167b816113b1565b9050919050565b6000602082019050818103600083015261169b81611417565b9050919050565b600060208201905081810360008301526116bb81611497565b9050919050565b600060208201905081810360008301526116db81611517565b9050919050565b60006020820190506116f7600083018461157d565b92915050565b600081519050919050565b600082825260208201905092915050565b600081905092915050565b600061172f8261187c565b915061173a8361187c565b9250827fffffffffffffffffffffffffffffffffffffffffffffffffffffffffffffffff0382111561176f5761176e6118e3565b5b828201905092915050565b60006117858261187c565b91506117908361187c565b9250817fffffffffffffffffffffffffffffffffffffffffffffffffffffffffffffffff04831182151516156117c9576117c86118e3565b5b828202905092915050565b60006117df8261187c565b91506117ea8361187c565b9250828210156117fd576117fc6118e3565b5b828203905092915050565b60006118138261185c565b9050919050565b60008115159050919050565b6000819050919050565b60007fffffffff0000000000000000000000000000000000000000000000000000000082169050919050565b600073ffffffffffffffffffffffffffffffffffffffff82169050919050565b6000819050919050565b60005b838110156118a4578082015181840152602081019050611889565b838111156118b3576000848401525b50505050565b60006118c48261187c565b915060008214156118d8576118d76118e3565b5b600182039050919050565b7f4e487b7100000000000000000000000000000000000000000000000000000000600052601160045260246000fd5b6000601f19601f8301169050919050565b61192c81611808565b811461193757600080fd5b50565b61194381611826565b811461194e57600080fd5b50565b61195a81611830565b811461196557600080fd5b50565b6119718161187c565b811461197c57600080fd5b5056fea264697066735822122071efdfe3e02162d0b0c3110bf724d71cf73cad7275e208854e0f9cb3d9057a8b64736f6c63430008000033",
  "linkReferences": {},
  "deployedLinkReferences": {}
}