{
  "_format": "hh-sol-artifact-1",
  "contractName": "minter",
  "sourceName": "contracts/utility/minter.sol",
  "abi": [
    {
      "inputs": [
        {
          "internalType": "address",
          "name": "_FAH",
          "type": "address"
        },
        {
          "internalType": "address",
          "name": "_CS_Case",
          "type": "address"
        },
        {
          "internalType": "address",
          "name": "_SushiFactory",
          "type": "address"
        },
        {
          "internalType": "address",
          "name": "_SushiRouter",
          "type": "address"
        }
      ],
      "stateMutability": "nonpayable",
      "type": "constructor"
    },
    {
      "anonymous": false,
      "inputs": [
        {
          "indexed": true,
          "internalType": "bytes32",
          "name": "role",
          "type": "bytes32"
        },
        {
          "indexed": true,
          "internalType": "bytes32",
          "name": "previousAdminRole",
          "type": "bytes32"
        },
        {
          "indexed": true,
          "internalType": "bytes32",
          "name": "newAdminRole",
          "type": "bytes32"
        }
      ],
      "name": "RoleAdminChanged",
      "type": "event"
    },
    {
      "anonymous": false,
      "inputs": [
        {
          "indexed": true,
          "internalType": "bytes32",
          "name": "role",
          "type": "bytes32"
        },
        {
          "indexed": true,
          "internalType": "address",
          "name": "account",
          "type": "address"
        },
        {
          "indexed": true,
          "internalType": "address",
          "name": "sender",
          "type": "address"
        }
      ],
      "name": "RoleGranted",
      "type": "event"
    },
    {
      "anonymous": false,
      "inputs": [
        {
          "indexed": true,
          "internalType": "bytes32",
          "name": "role",
          "type": "bytes32"
        },
        {
          "indexed": true,
          "internalType": "address",
          "name": "account",
          "type": "address"
        },
        {
          "indexed": true,
          "internalType": "address",
          "name": "sender",
          "type": "address"
        }
      ],
      "name": "RoleRevoked",
      "type": "event"
    },
    {
      "inputs": [],
      "name": "DEFAULT_ADMIN_ROLE",
      "outputs": [
        {
          "internalType": "bytes32",
          "name": "",
          "type": "bytes32"
        }
      ],
      "stateMutability": "view",
      "type": "function"
    },
    {
      "inputs": [],
      "name": "LOCAL_MINTER_ROLE",
      "outputs": [
        {
          "internalType": "bytes32",
          "name": "",
          "type": "bytes32"
        }
      ],
      "stateMutability": "view",
      "type": "function"
    },
    {
      "inputs": [
        {
          "internalType": "bytes32",
          "name": "role",
          "type": "bytes32"
        }
      ],
      "name": "getRoleAdmin",
      "outputs": [
        {
          "internalType": "bytes32",
          "name": "",
          "type": "bytes32"
        }
      ],
      "stateMutability": "view",
      "type": "function"
    },
    {
      "inputs": [
        {
          "internalType": "bytes32",
          "name": "role",
          "type": "bytes32"
        },
        {
          "internalType": "uint256",
          "name": "index",
          "type": "uint256"
        }
      ],
      "name": "getRoleMember",
      "outputs": [
        {
          "internalType": "address",
          "name": "",
          "type": "address"
        }
      ],
      "stateMutability": "view",
      "type": "function"
    },
    {
      "inputs": [
        {
          "internalType": "bytes32",
          "name": "role",
          "type": "bytes32"
        }
      ],
      "name": "getRoleMemberCount",
      "outputs": [
        {
          "internalType": "uint256",
          "name": "",
          "type": "uint256"
        }
      ],
      "stateMutability": "view",
      "type": "function"
    },
    {
      "inputs": [
        {
          "internalType": "bytes32",
          "name": "role",
          "type": "bytes32"
        },
        {
          "internalType": "address",
          "name": "account",
          "type": "address"
        }
      ],
      "name": "grantRole",
      "outputs": [],
      "stateMutability": "nonpayable",
      "type": "function"
    },
    {
      "inputs": [
        {
          "internalType": "bytes32",
          "name": "role",
          "type": "bytes32"
        },
        {
          "internalType": "address",
          "name": "account",
          "type": "address"
        }
      ],
      "name": "hasRole",
      "outputs": [
        {
          "internalType": "bool",
          "name": "",
          "type": "bool"
        }
      ],
      "stateMutability": "view",
      "type": "function"
    },
    {
      "inputs": [
        {
          "internalType": "uint256",
          "name": "_FAH_amount",
          "type": "uint256"
        }
      ],
      "name": "poolSetup",
      "outputs": [],
      "stateMutability": "nonpayable",
      "type": "function"
    },
    {
      "inputs": [
        {
          "internalType": "bytes32",
          "name": "role",
          "type": "bytes32"
        },
        {
          "internalType": "address",
          "name": "account",
          "type": "address"
        }
      ],
      "name": "renounceRole",
      "outputs": [],
      "stateMutability": "nonpayable",
      "type": "function"
    },
    {
      "inputs": [
        {
          "internalType": "bytes32",
          "name": "role",
          "type": "bytes32"
        },
        {
          "internalType": "address",
          "name": "account",
          "type": "address"
        }
      ],
      "name": "revokeRole",
      "outputs": [],
      "stateMutability": "nonpayable",
      "type": "function"
    },
    {
      "inputs": [
        {
          "internalType": "bytes4",
          "name": "interfaceId",
          "type": "bytes4"
        }
      ],
      "name": "supportsInterface",
      "outputs": [
        {
          "internalType": "bool",
          "name": "",
          "type": "bool"
        }
      ],
      "stateMutability": "view",
      "type": "function"
    }
  ],
  "bytecode": "0x60806040523480156200001157600080fd5b506040516200216438038062002164833981810160405281019062000037919062000649565b620000787f9f2df0fed2c77648de5860a4cc508cd0818c85b8b8a1ab4ceeef8d981c8956a66200006c6200038560201b60201c565b6200038d60201b60201c565b620000b97f9f2df0fed2c77648de5860a4cc508cd0818c85b8b8a1ab4ceeef8d981c8956a6620000ad6200038560201b60201c565b620003d560201b60201c565b620000fb576040517f08c379a0000000000000000000000000000000000000000000000000000000008152600401620000f29062000772565b60405180910390fd5b83600260006101000a81548173ffffffffffffffffffffffffffffffffffffffff021916908373ffffffffffffffffffffffffffffffffffffffff16021790555082600360006101000a81548173ffffffffffffffffffffffffffffffffffffffff021916908373ffffffffffffffffffffffffffffffffffffffff16021790555081600460006101000a81548173ffffffffffffffffffffffffffffffffffffffff021916908373ffffffffffffffffffffffffffffffffffffffff16021790555080600560006101000a81548173ffffffffffffffffffffffffffffffffffffffff021916908373ffffffffffffffffffffffffffffffffffffffff160217905550600260009054906101000a900473ffffffffffffffffffffffffffffffffffffffff1673ffffffffffffffffffffffffffffffffffffffff1663095ea7b382670de0b6b3a76400006040518363ffffffff1660e01b81526004016200026692919062000745565b602060405180830381600087803b1580156200028157600080fd5b505af115801562000296573d6000803e3d6000fd5b505050506040513d601f19601f82011682018060405250810190620002bc9190620006b5565b50600360009054906101000a900473ffffffffffffffffffffffffffffffffffffffff1673ffffffffffffffffffffffffffffffffffffffff1663095ea7b382670de0b6b3a76400006040518363ffffffff1660e01b81526004016200032492919062000745565b602060405180830381600087803b1580156200033f57600080fd5b505af115801562000354573d6000803e3d6000fd5b505050506040513d601f19601f820116820180604052508101906200037a9190620006b5565b505050505062000837565b600033905090565b620003a482826200043f60201b620006051760201c565b620003d081600160008581526020019081526020016000206200045560201b620006131790919060201c565b505050565b600080600084815260200190815260200160002060000160008373ffffffffffffffffffffffffffffffffffffffff1673ffffffffffffffffffffffffffffffffffffffff16815260200190815260200160002060009054906101000a900460ff16905092915050565b6200045182826200048d60201b60201c565b5050565b600062000485836000018373ffffffffffffffffffffffffffffffffffffffff1660001b6200057e60201b60201c565b905092915050565b6200049f8282620003d560201b60201c565b6200057a57600160008084815260200190815260200160002060000160008373ffffffffffffffffffffffffffffffffffffffff1673ffffffffffffffffffffffffffffffffffffffff16815260200190815260200160002060006101000a81548160ff0219169083151502179055506200051f6200038560201b60201c565b73ffffffffffffffffffffffffffffffffffffffff168173ffffffffffffffffffffffffffffffffffffffff16837f2f8788117e7eff1d82e926ec794901d17c78024a50270940304540a733656f0d60405160405180910390a45b5050565b6000620005928383620005f860201b60201c565b620005ed578260000182908060018154018082558091505060019003906000526020600020016000909190919091505582600001805490508360010160008481526020019081526020016000208190555060019050620005f2565b600090505b92915050565b600080836001016000848152602001908152602001600020541415905092915050565b6000815190506200062c8162000803565b92915050565b60008151905062000643816200081d565b92915050565b600080600080608085870312156200066057600080fd5b600062000670878288016200061b565b945050602062000683878288016200061b565b935050604062000696878288016200061b565b9250506060620006a9878288016200061b565b91505092959194509250565b600060208284031215620006c857600080fd5b6000620006d88482850162000632565b91505092915050565b620006ec81620007a5565b82525050565b620006fd81620007ef565b82525050565b60006200071260128362000794565b91507f446f6573206e6f74206861766520726f6c6500000000000000000000000000006000830152602082019050919050565b60006040820190506200075c6000830185620006e1565b6200076b6020830184620006f2565b9392505050565b600060208201905081810360008301526200078d8162000703565b9050919050565b600082825260208201905092915050565b6000620007b282620007c5565b9050919050565b60008115159050919050565b600073ffffffffffffffffffffffffffffffffffffffff82169050919050565b6000819050919050565b6000620007fc82620007e5565b9050919050565b6200080e81620007a5565b81146200081a57600080fd5b50565b6200082881620007b9565b81146200083457600080fd5b50565b61191d80620008476000396000f3fe608060405234801561001057600080fd5b50600436106100a95760003560e01c80639010d07c116100715780639010d07c1461016457806391d1485414610194578063a217fddf146101c4578063ca15c873146101e2578063d547741f14610212578063feee24651461022e576100a9565b806301ffc9a7146100ae578063248a9ca3146100de5780632f2ff15d1461010e57806336568abe1461012a57806373e3bfbd14610146575b600080fd5b6100c860048036038101906100c39190611181565b61024a565b6040516100d59190611545565b60405180910390f35b6100f860048036038101906100f391906110e0565b6102c4565b6040516101059190611560565b60405180910390f35b61012860048036038101906101239190611109565b6102e3565b005b610144600480360381019061013f9190611109565b610317565b005b61014e61034b565b60405161015b9190611560565b60405180910390f35b61017e60048036038101906101799190611145565b61036f565b60405161018b91906114ac565b60405180910390f35b6101ae60048036038101906101a99190611109565b61039e565b6040516101bb9190611545565b60405180910390f35b6101cc610408565b6040516101d99190611560565b60405180910390f35b6101fc60048036038101906101f791906110e0565b61040f565b60405161020991906115fd565b60405180910390f35b61022c60048036038101906102279190611109565b610433565b005b610248600480360381019061024391906111aa565b610467565b005b60007f5a05180f000000000000000000000000000000000000000000000000000000007bffffffffffffffffffffffffffffffffffffffffffffffffffffffff1916827bffffffffffffffffffffffffffffffffffffffffffffffffffffffff191614806102bd57506102bc82610643565b5b9050919050565b6000806000838152602001908152602001600020600101549050919050565b6102ed82826106bd565b610312816001600085815260200190815260200160002061061390919063ffffffff16565b505050565b61032182826106e6565b610346816001600085815260200190815260200160002061076990919063ffffffff16565b505050565b7f9f2df0fed2c77648de5860a4cc508cd0818c85b8b8a1ab4ceeef8d981c8956a681565b6000610396826001600086815260200190815260200160002061079990919063ffffffff16565b905092915050565b600080600084815260200190815260200160002060000160008373ffffffffffffffffffffffffffffffffffffffff1673ffffffffffffffffffffffffffffffffffffffff16815260200190815260200160002060009054906101000a900460ff16905092915050565b6000801b81565b600061042c600160008481526020019081526020016000206107b3565b9050919050565b61043d82826107c8565b610462816001600085815260200190815260200160002061076990919063ffffffff16565b505050565b600260009054906101000a900473ffffffffffffffffffffffffffffffffffffffff1673ffffffffffffffffffffffffffffffffffffffff166339a8c66182306040518363ffffffff1660e01b81526004016104c4929190611618565b600060405180830381600087803b1580156104de57600080fd5b505af11580156104f2573d6000803e3d6000fd5b50505050600560009054906101000a900473ffffffffffffffffffffffffffffffffffffffff1673ffffffffffffffffffffffffffffffffffffffff1663e8e33700600260009054906101000a900473ffffffffffffffffffffffffffffffffffffffff16600360009054906101000a900473ffffffffffffffffffffffffffffffffffffffff166103e8806103e88060006402540be3ff6040518963ffffffff1660e01b81526004016105ad9897969594939291906114c7565b606060405180830381600087803b1580156105c757600080fd5b505af11580156105db573d6000803e3d6000fd5b505050506040513d601f19601f820116820180604052508101906105ff91906111d3565b50505050565b61060f82826107f1565b5050565b600061063b836000018373ffffffffffffffffffffffffffffffffffffffff1660001b6108d1565b905092915050565b60007f7965db0b000000000000000000000000000000000000000000000000000000007bffffffffffffffffffffffffffffffffffffffffffffffffffffffff1916827bffffffffffffffffffffffffffffffffffffffffffffffffffffffff191614806106b657506106b582610941565b5b9050919050565b6106c6826102c4565b6106d7816106d26109ab565b6109b3565b6106e183836107f1565b505050565b6106ee6109ab565b73ffffffffffffffffffffffffffffffffffffffff168173ffffffffffffffffffffffffffffffffffffffff161461075b576040517f08c379a0000000000000000000000000000000000000000000000000000000008152600401610752906115dd565b60405180910390fd5b6107658282610a50565b5050565b6000610791836000018373ffffffffffffffffffffffffffffffffffffffff1660001b610b31565b905092915050565b60006107a88360000183610caf565b60001c905092915050565b60006107c182600001610d49565b9050919050565b6107d1826102c4565b6107e2816107dd6109ab565b6109b3565b6107ec8383610a50565b505050565b6107fb828261039e565b6108cd57600160008084815260200190815260200160002060000160008373ffffffffffffffffffffffffffffffffffffffff1673ffffffffffffffffffffffffffffffffffffffff16815260200190815260200160002060006101000a81548160ff0219169083151502179055506108726109ab565b73ffffffffffffffffffffffffffffffffffffffff168173ffffffffffffffffffffffffffffffffffffffff16837f2f8788117e7eff1d82e926ec794901d17c78024a50270940304540a733656f0d60405160405180910390a45b5050565b60006108dd8383610d5a565b61093657826000018290806001815401808255809150506001900390600052602060002001600090919091909150558260000180549050836001016000848152602001908152602001600020819055506001905061093b565b600090505b92915050565b60007f01ffc9a7000000000000000000000000000000000000000000000000000000007bffffffffffffffffffffffffffffffffffffffffffffffffffffffff1916827bffffffffffffffffffffffffffffffffffffffffffffffffffffffff1916149050919050565b600033905090565b6109bd828261039e565b610a4c576109e28173ffffffffffffffffffffffffffffffffffffffff166014610d7d565b6109f08360001c6020610d7d565b604051602001610a01929190611472565b6040516020818303038152906040526040517f08c379a0000000000000000000000000000000000000000000000000000000008152600401610a43919061157b565b60405180910390fd5b5050565b610a5a828261039e565b15610b2d57600080600084815260200190815260200160002060000160008373ffffffffffffffffffffffffffffffffffffffff1673ffffffffffffffffffffffffffffffffffffffff16815260200190815260200160002060006101000a81548160ff021916908315150217905550610ad26109ab565b73ffffffffffffffffffffffffffffffffffffffff168173ffffffffffffffffffffffffffffffffffffffff16837ff6391f5c32d9c69d2a47ea670b442974b53935d1edc7fd64eb21e047a839171b60405160405180910390a45b5050565b60008083600101600084815260200190815260200160002054905060008114610ca3576000600182610b639190611718565b9050600060018660000180549050610b7b9190611718565b90506000866000018281548110610bbb577f4e487b7100000000000000000000000000000000000000000000000000000000600052603260045260246000fd5b9060005260206000200154905080876000018481548110610c05577f4e487b7100000000000000000000000000000000000000000000000000000000600052603260045260246000fd5b9060005260206000200181905550838760010160008381526020019081526020016000208190555086600001805480610c67577f4e487b7100000000000000000000000000000000000000000000000000000000600052603160045260246000fd5b60019003818190600052602060002001600090559055866001016000878152602001908152602001600020600090556001945050505050610ca9565b60009150505b92915050565b600081836000018054905011610cfa576040517f08c379a0000000000000000000000000000000000000000000000000000000008152600401610cf19061159d565b60405180910390fd5b826000018281548110610d36577f4e487b7100000000000000000000000000000000000000000000000000000000600052603260045260246000fd5b9060005260206000200154905092915050565b600081600001805490509050919050565b600080836001016000848152602001908152602001600020541415905092915050565b606060006002836002610d9091906116be565b610d9a9190611668565b67ffffffffffffffff811115610dd9577f4e487b7100000000000000000000000000000000000000000000000000000000600052604160045260246000fd5b6040519080825280601f01601f191660200182016040528015610e0b5781602001600182028036833780820191505090505b5090507f300000000000000000000000000000000000000000000000000000000000000081600081518110610e69577f4e487b7100000000000000000000000000000000000000000000000000000000600052603260045260246000fd5b60200101907effffffffffffffffffffffffffffffffffffffffffffffffffffffffffffff1916908160001a9053507f780000000000000000000000000000000000000000000000000000000000000081600181518110610ef3577f4e487b7100000000000000000000000000000000000000000000000000000000600052603260045260246000fd5b60200101907effffffffffffffffffffffffffffffffffffffffffffffffffffffffffffff1916908160001a90535060006001846002610f3391906116be565b610f3d9190611668565b90505b6001811115611029577f3031323334353637383961626364656600000000000000000000000000000000600f861660108110610fa5577f4e487b7100000000000000000000000000000000000000000000000000000000600052603260045260246000fd5b1a60f81b828281518110610fe2577f4e487b7100000000000000000000000000000000000000000000000000000000600052603260045260246000fd5b60200101907effffffffffffffffffffffffffffffffffffffffffffffffffffffffffffff1916908160001a905350600485901c94508061102290611821565b9050610f40565b506000841461106d576040517f08c379a0000000000000000000000000000000000000000000000000000000008152600401611064906115bd565b60405180910390fd5b8091505092915050565b6000813590506110868161188b565b92915050565b60008135905061109b816118a2565b92915050565b6000813590506110b0816118b9565b92915050565b6000813590506110c5816118d0565b92915050565b6000815190506110da816118d0565b92915050565b6000602082840312156110f257600080fd5b60006111008482850161108c565b91505092915050565b6000806040838503121561111c57600080fd5b600061112a8582860161108c565b925050602061113b85828601611077565b9150509250929050565b6000806040838503121561115857600080fd5b60006111668582860161108c565b9250506020611177858286016110b6565b9150509250929050565b60006020828403121561119357600080fd5b60006111a1848285016110a1565b91505092915050565b6000602082840312156111bc57600080fd5b60006111ca848285016110b6565b91505092915050565b6000806000606084860312156111e857600080fd5b60006111f6868287016110cb565b9350506020611207868287016110cb565b9250506040611218868287016110cb565b9150509250925092565b61122b8161174c565b82525050565b61123a8161175e565b82525050565b6112498161176a565b82525050565b611258816117ca565b82525050565b611267816117dc565b82525050565b600061127882611641565b611282818561164c565b93506112928185602086016117ee565b61129b8161187a565b840191505092915050565b60006112b182611641565b6112bb818561165d565b93506112cb8185602086016117ee565b80840191505092915050565b60006112e460228361164c565b91507f456e756d657261626c655365743a20696e646578206f7574206f6620626f756e60008301527f64730000000000000000000000000000000000000000000000000000000000006020830152604082019050919050565b600061134a60208361164c565b91507f537472696e67733a20686578206c656e67746820696e73756666696369656e746000830152602082019050919050565b600061138a60178361165d565b91507f416363657373436f6e74726f6c3a206163636f756e74200000000000000000006000830152601782019050919050565b60006113ca60118361165d565b91507f206973206d697373696e6720726f6c65200000000000000000000000000000006000830152601182019050919050565b600061140a602f8361164c565b91507f416363657373436f6e74726f6c3a2063616e206f6e6c792072656e6f756e636560008301527f20726f6c657320666f722073656c6600000000000000000000000000000000006020830152604082019050919050565b61146c816117c0565b82525050565b600061147d8261137d565b915061148982856112a6565b9150611494826113bd565b91506114a082846112a6565b91508190509392505050565b60006020820190506114c16000830184611222565b92915050565b6000610100820190506114dd600083018b611222565b6114ea602083018a611222565b6114f7604083018961124f565b611504606083018861124f565b611511608083018761124f565b61151e60a083018661124f565b61152b60c0830185611222565b61153860e083018461125e565b9998505050505050505050565b600060208201905061155a6000830184611231565b92915050565b60006020820190506115756000830184611240565b92915050565b60006020820190508181036000830152611595818461126d565b905092915050565b600060208201905081810360008301526115b6816112d7565b9050919050565b600060208201905081810360008301526115d68161133d565b9050919050565b600060208201905081810360008301526115f6816113fd565b9050919050565b60006020820190506116126000830184611463565b92915050565b600060408201905061162d6000830185611463565b61163a6020830184611222565b9392505050565b600081519050919050565b600082825260208201905092915050565b600081905092915050565b6000611673826117c0565b915061167e836117c0565b9250827fffffffffffffffffffffffffffffffffffffffffffffffffffffffffffffffff038211156116b3576116b261184b565b5b828201905092915050565b60006116c9826117c0565b91506116d4836117c0565b9250817fffffffffffffffffffffffffffffffffffffffffffffffffffffffffffffffff048311821515161561170d5761170c61184b565b5b828202905092915050565b6000611723826117c0565b915061172e836117c0565b9250828210156117415761174061184b565b5b828203905092915050565b6000611757826117a0565b9050919050565b60008115159050919050565b6000819050919050565b60007fffffffff0000000000000000000000000000000000000000000000000000000082169050919050565b600073ffffffffffffffffffffffffffffffffffffffff82169050919050565b6000819050919050565b60006117d5826117c0565b9050919050565b60006117e7826117c0565b9050919050565b60005b8381101561180c5780820151818401526020810190506117f1565b8381111561181b576000848401525b50505050565b600061182c826117c0565b915060008214156118405761183f61184b565b5b600182039050919050565b7f4e487b7100000000000000000000000000000000000000000000000000000000600052601160045260246000fd5b6000601f19601f8301169050919050565b6118948161174c565b811461189f57600080fd5b50565b6118ab8161176a565b81146118b657600080fd5b50565b6118c281611774565b81146118cd57600080fd5b50565b6118d9816117c0565b81146118e457600080fd5b5056fea26469706673582212207431300aa2ed9f8079d04fd04c64668b57fbd11ada275aa2b5f3b7ccaad7ac2f64736f6c63430008000033",
  "linkReferences": {},
  "deployedLinkReferences": {}
}