{
  "_format": "hh-sol-artifact-1",
  "contractName": "CS_Case",
  "sourceName": "contracts/CS_Case.sol",
  "abi": [
    {
      "inputs": [
        {
          "internalType": "uint256",
          "name": "initialSupply",
          "type": "uint256"
        },
        {
          "internalType": "uint8",
          "name": "_decimals_TEMP",
          "type": "uint8"
        },
        {
          "internalType": "string",
          "name": "_name",
          "type": "string"
        },
        {
          "internalType": "string",
          "name": "_symbol",
          "type": "string"
        }
      ],
      "stateMutability": "nonpayable",
      "type": "constructor"
    },
    {
      "anonymous": false,
      "inputs": [
        {
          "indexed": true,
          "internalType": "address",
          "name": "owner",
          "type": "address"
        },
        {
          "indexed": true,
          "internalType": "address",
          "name": "spender",
          "type": "address"
        },
        {
          "indexed": false,
          "internalType": "uint256",
          "name": "value",
          "type": "uint256"
        }
      ],
      "name": "Approval",
      "type": "event"
    },
    {
      "anonymous": false,
      "inputs": [
        {
          "indexed": false,
          "internalType": "address",
          "name": "account",
          "type": "address"
        }
      ],
      "name": "Paused",
      "type": "event"
    },
    {
      "anonymous": false,
      "inputs": [
        {
          "indexed": true,
          "internalType": "bytes32",
          "name": "role",
          "type": "bytes32"
        },
        {
          "indexed": true,
          "internalType": "bytes32",
          "name": "previousAdminRole",
          "type": "bytes32"
        },
        {
          "indexed": true,
          "internalType": "bytes32",
          "name": "newAdminRole",
          "type": "bytes32"
        }
      ],
      "name": "RoleAdminChanged",
      "type": "event"
    },
    {
      "anonymous": false,
      "inputs": [
        {
          "indexed": true,
          "internalType": "bytes32",
          "name": "role",
          "type": "bytes32"
        },
        {
          "indexed": true,
          "internalType": "address",
          "name": "account",
          "type": "address"
        },
        {
          "indexed": true,
          "internalType": "address",
          "name": "sender",
          "type": "address"
        }
      ],
      "name": "RoleGranted",
      "type": "event"
    },
    {
      "anonymous": false,
      "inputs": [
        {
          "indexed": true,
          "internalType": "bytes32",
          "name": "role",
          "type": "bytes32"
        },
        {
          "indexed": true,
          "internalType": "address",
          "name": "account",
          "type": "address"
        },
        {
          "indexed": true,
          "internalType": "address",
          "name": "sender",
          "type": "address"
        }
      ],
      "name": "RoleRevoked",
      "type": "event"
    },
    {
      "anonymous": false,
      "inputs": [
        {
          "indexed": true,
          "internalType": "address",
          "name": "from",
          "type": "address"
        },
        {
          "indexed": true,
          "internalType": "address",
          "name": "to",
          "type": "address"
        },
        {
          "indexed": false,
          "internalType": "uint256",
          "name": "value",
          "type": "uint256"
        }
      ],
      "name": "Transfer",
      "type": "event"
    },
    {
      "anonymous": false,
      "inputs": [
        {
          "indexed": false,
          "internalType": "address",
          "name": "account",
          "type": "address"
        }
      ],
      "name": "Unpaused",
      "type": "event"
    },
    {
      "inputs": [],
      "name": "DEFAULT_ADMIN_ROLE",
      "outputs": [
        {
          "internalType": "bytes32",
          "name": "",
          "type": "bytes32"
        }
      ],
      "stateMutability": "view",
      "type": "function"
    },
    {
      "inputs": [],
      "name": "EXTERNAL_MINTER",
      "outputs": [
        {
          "internalType": "bytes32",
          "name": "",
          "type": "bytes32"
        }
      ],
      "stateMutability": "view",
      "type": "function"
    },
    {
      "inputs": [],
      "name": "EXTERNAL_MINTER_ADDRESS",
      "outputs": [
        {
          "internalType": "address",
          "name": "",
          "type": "address"
        }
      ],
      "stateMutability": "view",
      "type": "function"
    },
    {
      "inputs": [],
      "name": "MINTER_ROLE",
      "outputs": [
        {
          "internalType": "bytes32",
          "name": "",
          "type": "bytes32"
        }
      ],
      "stateMutability": "view",
      "type": "function"
    },
    {
      "inputs": [],
      "name": "PAUSER_ROLE",
      "outputs": [
        {
          "internalType": "bytes32",
          "name": "",
          "type": "bytes32"
        }
      ],
      "stateMutability": "view",
      "type": "function"
    },
    {
      "inputs": [
        {
          "internalType": "address",
          "name": "owner",
          "type": "address"
        },
        {
          "internalType": "address",
          "name": "spender",
          "type": "address"
        }
      ],
      "name": "allowance",
      "outputs": [
        {
          "internalType": "uint256",
          "name": "",
          "type": "uint256"
        }
      ],
      "stateMutability": "view",
      "type": "function"
    },
    {
      "inputs": [
        {
          "internalType": "address",
          "name": "spender",
          "type": "address"
        },
        {
          "internalType": "uint256",
          "name": "amount",
          "type": "uint256"
        }
      ],
      "name": "approve",
      "outputs": [
        {
          "internalType": "bool",
          "name": "",
          "type": "bool"
        }
      ],
      "stateMutability": "nonpayable",
      "type": "function"
    },
    {
      "inputs": [
        {
          "internalType": "address",
          "name": "account",
          "type": "address"
        }
      ],
      "name": "balanceOf",
      "outputs": [
        {
          "internalType": "uint256",
          "name": "",
          "type": "uint256"
        }
      ],
      "stateMutability": "view",
      "type": "function"
    },
    {
      "inputs": [
        {
          "internalType": "uint256",
          "name": "amount",
          "type": "uint256"
        }
      ],
      "name": "burn",
      "outputs": [],
      "stateMutability": "nonpayable",
      "type": "function"
    },
    {
      "inputs": [
        {
          "internalType": "address",
          "name": "account",
          "type": "address"
        },
        {
          "internalType": "uint256",
          "name": "amount",
          "type": "uint256"
        }
      ],
      "name": "burnFrom",
      "outputs": [],
      "stateMutability": "nonpayable",
      "type": "function"
    },
    {
      "inputs": [],
      "name": "decimals",
      "outputs": [
        {
          "internalType": "uint8",
          "name": "",
          "type": "uint8"
        }
      ],
      "stateMutability": "view",
      "type": "function"
    },
    {
      "inputs": [
        {
          "internalType": "address",
          "name": "spender",
          "type": "address"
        },
        {
          "internalType": "uint256",
          "name": "subtractedValue",
          "type": "uint256"
        }
      ],
      "name": "decreaseAllowance",
      "outputs": [
        {
          "internalType": "bool",
          "name": "",
          "type": "bool"
        }
      ],
      "stateMutability": "nonpayable",
      "type": "function"
    },
    {
      "inputs": [
        {
          "internalType": "uint256",
          "name": "_amount",
          "type": "uint256"
        },
        {
          "internalType": "address",
          "name": "_to",
          "type": "address"
        }
      ],
      "name": "externalMint",
      "outputs": [],
      "stateMutability": "nonpayable",
      "type": "function"
    },
    {
      "inputs": [
        {
          "internalType": "bytes32",
          "name": "role",
          "type": "bytes32"
        }
      ],
      "name": "getRoleAdmin",
      "outputs": [
        {
          "internalType": "bytes32",
          "name": "",
          "type": "bytes32"
        }
      ],
      "stateMutability": "view",
      "type": "function"
    },
    {
      "inputs": [
        {
          "internalType": "bytes32",
          "name": "role",
          "type": "bytes32"
        },
        {
          "internalType": "uint256",
          "name": "index",
          "type": "uint256"
        }
      ],
      "name": "getRoleMember",
      "outputs": [
        {
          "internalType": "address",
          "name": "",
          "type": "address"
        }
      ],
      "stateMutability": "view",
      "type": "function"
    },
    {
      "inputs": [
        {
          "internalType": "bytes32",
          "name": "role",
          "type": "bytes32"
        }
      ],
      "name": "getRoleMemberCount",
      "outputs": [
        {
          "internalType": "uint256",
          "name": "",
          "type": "uint256"
        }
      ],
      "stateMutability": "view",
      "type": "function"
    },
    {
      "inputs": [
        {
          "internalType": "bytes32",
          "name": "role",
          "type": "bytes32"
        },
        {
          "internalType": "address",
          "name": "account",
          "type": "address"
        }
      ],
      "name": "grantRole",
      "outputs": [],
      "stateMutability": "nonpayable",
      "type": "function"
    },
    {
      "inputs": [
        {
          "internalType": "bytes32",
          "name": "role",
          "type": "bytes32"
        },
        {
          "internalType": "address",
          "name": "account",
          "type": "address"
        }
      ],
      "name": "hasRole",
      "outputs": [
        {
          "internalType": "bool",
          "name": "",
          "type": "bool"
        }
      ],
      "stateMutability": "view",
      "type": "function"
    },
    {
      "inputs": [
        {
          "internalType": "address",
          "name": "spender",
          "type": "address"
        },
        {
          "internalType": "uint256",
          "name": "addedValue",
          "type": "uint256"
        }
      ],
      "name": "increaseAllowance",
      "outputs": [
        {
          "internalType": "bool",
          "name": "",
          "type": "bool"
        }
      ],
      "stateMutability": "nonpayable",
      "type": "function"
    },
    {
      "inputs": [
        {
          "internalType": "address",
          "name": "to",
          "type": "address"
        },
        {
          "internalType": "uint256",
          "name": "amount",
          "type": "uint256"
        }
      ],
      "name": "mint",
      "outputs": [],
      "stateMutability": "nonpayable",
      "type": "function"
    },
    {
      "inputs": [],
      "name": "name",
      "outputs": [
        {
          "internalType": "string",
          "name": "",
          "type": "string"
        }
      ],
      "stateMutability": "view",
      "type": "function"
    },
    {
      "inputs": [],
      "name": "pause",
      "outputs": [],
      "stateMutability": "nonpayable",
      "type": "function"
    },
    {
      "inputs": [],
      "name": "paused",
      "outputs": [
        {
          "internalType": "bool",
          "name": "",
          "type": "bool"
        }
      ],
      "stateMutability": "view",
      "type": "function"
    },
    {
      "inputs": [
        {
          "internalType": "bytes32",
          "name": "role",
          "type": "bytes32"
        },
        {
          "internalType": "address",
          "name": "account",
          "type": "address"
        }
      ],
      "name": "renounceRole",
      "outputs": [],
      "stateMutability": "nonpayable",
      "type": "function"
    },
    {
      "inputs": [
        {
          "internalType": "bytes32",
          "name": "role",
          "type": "bytes32"
        },
        {
          "internalType": "address",
          "name": "account",
          "type": "address"
        }
      ],
      "name": "revokeRole",
      "outputs": [],
      "stateMutability": "nonpayable",
      "type": "function"
    },
    {
      "inputs": [
        {
          "internalType": "bytes4",
          "name": "interfaceId",
          "type": "bytes4"
        }
      ],
      "name": "supportsInterface",
      "outputs": [
        {
          "internalType": "bool",
          "name": "",
          "type": "bool"
        }
      ],
      "stateMutability": "view",
      "type": "function"
    },
    {
      "inputs": [],
      "name": "symbol",
      "outputs": [
        {
          "internalType": "string",
          "name": "",
          "type": "string"
        }
      ],
      "stateMutability": "view",
      "type": "function"
    },
    {
      "inputs": [],
      "name": "totalSupply",
      "outputs": [
        {
          "internalType": "uint256",
          "name": "",
          "type": "uint256"
        }
      ],
      "stateMutability": "view",
      "type": "function"
    },
    {
      "inputs": [
        {
          "internalType": "address",
          "name": "recipient",
          "type": "address"
        },
        {
          "internalType": "uint256",
          "name": "amount",
          "type": "uint256"
        }
      ],
      "name": "transfer",
      "outputs": [
        {
          "internalType": "bool",
          "name": "",
          "type": "bool"
        }
      ],
      "stateMutability": "nonpayable",
      "type": "function"
    },
    {
      "inputs": [
        {
          "internalType": "address",
          "name": "sender",
          "type": "address"
        },
        {
          "internalType": "address",
          "name": "recipient",
          "type": "address"
        },
        {
          "internalType": "uint256",
          "name": "amount",
          "type": "uint256"
        }
      ],
      "name": "transferFrom",
      "outputs": [
        {
          "internalType": "bool",
          "name": "",
          "type": "bool"
        }
      ],
      "stateMutability": "nonpayable",
      "type": "function"
    },
    {
      "inputs": [],
      "name": "unpause",
      "outputs": [],
      "stateMutability": "nonpayable",
      "type": "function"
    },
    {
      "inputs": [
        {
          "internalType": "address",
          "name": "_address",
          "type": "address"
        }
      ],
      "name": "updateMinter",
      "outputs": [],
      "stateMutability": "nonpayable",
      "type": "function"
    }
  ],
  "bytecode": "0x60806040523480156200001157600080fd5b506040516200449e3803806200449e833981810160405281019062000037919062000775565b838383838181818181600590805190602001906200005792919062000625565b5080600690805190602001906200007092919062000625565b5050506000600760006101000a81548160ff021916908315150217905550620000b26000801b620000a66200018060201b60201c565b6200018860201b60201c565b620000f37f9f2df0fed2c77648de5860a4cc508cd0818c85b8b8a1ab4ceeef8d981c8956a6620000e76200018060201b60201c565b6200018860201b60201c565b620001347f65d7a28e3265b37a6474929f336521b332c1681b933f6cb9f3376673440d862a620001286200018060201b60201c565b6200018860201b60201c565b5050620001576200014a6200018060201b60201c565b85620001d060201b60201c565b82600760016101000a81548160ff021916908360ff160217905550505050505050505062000b48565b600033905090565b6200019f82826200033660201b620012731760201c565b620001cb81600160008581526020019081526020016000206200034c60201b620012811790919060201c565b505050565b600073ffffffffffffffffffffffffffffffffffffffff168273ffffffffffffffffffffffffffffffffffffffff16141562000243576040517f08c379a00000000000000000000000000000000000000000000000000000000081526004016200023a90620008ce565b60405180910390fd5b62000257600083836200038460201b60201c565b80600460008282546200026b9190620009a7565b9250508190555080600260008473ffffffffffffffffffffffffffffffffffffffff1673ffffffffffffffffffffffffffffffffffffffff1681526020019081526020016000206000828254620002c39190620009a7565b925050819055508173ffffffffffffffffffffffffffffffffffffffff16600073ffffffffffffffffffffffffffffffffffffffff167fddf252ad1be2c89b69c2b068fc378daa952ba7f163c4a11628f55a4df523b3ef836040516200032a919062000912565b60405180910390a35050565b620003488282620003a160201b60201c565b5050565b60006200037c836000018373ffffffffffffffffffffffffffffffffffffffff1660001b6200049260201b60201c565b905092915050565b6200039c8383836200050c60201b620012b11760201c565b505050565b620003b382826200057c60201b60201c565b6200048e57600160008084815260200190815260200160002060000160008373ffffffffffffffffffffffffffffffffffffffff1673ffffffffffffffffffffffffffffffffffffffff16815260200190815260200160002060006101000a81548160ff021916908315150217905550620004336200018060201b60201c565b73ffffffffffffffffffffffffffffffffffffffff168173ffffffffffffffffffffffffffffffffffffffff16837f2f8788117e7eff1d82e926ec794901d17c78024a50270940304540a733656f0d60405160405180910390a45b5050565b6000620004a68383620005e660201b60201c565b6200050157826000018290806001815401808255809150506001900390600052602060002001600090919091909150558260000180549050836001016000848152602001908152602001600020819055506001905062000506565b600090505b92915050565b620005248383836200060960201b620013091760201c565b620005346200060e60201b60201c565b1562000577576040517f08c379a00000000000000000000000000000000000000000000000000000000081526004016200056e90620008f0565b60405180910390fd5b505050565b600080600084815260200190815260200160002060000160008373ffffffffffffffffffffffffffffffffffffffff1673ffffffffffffffffffffffffffffffffffffffff16815260200190815260200160002060009054906101000a900460ff16905092915050565b600080836001016000848152602001908152602001600020541415905092915050565b505050565b6000600760009054906101000a900460ff16905090565b828054620006339062000a51565b90600052602060002090601f016020900481019282620006575760008555620006a3565b82601f106200067257805160ff1916838001178555620006a3565b82800160010185558215620006a3579182015b82811115620006a257825182559160200191906001019062000685565b5b509050620006b29190620006b6565b5090565b5b80821115620006d1576000816000905550600101620006b7565b5090565b6000620006ec620006e68462000963565b6200092f565b9050828152602081018484840111156200070557600080fd5b6200071284828562000a1b565b509392505050565b600082601f8301126200072c57600080fd5b81516200073e848260208601620006d5565b91505092915050565b600081519050620007588162000b14565b92915050565b6000815190506200076f8162000b2e565b92915050565b600080600080608085870312156200078c57600080fd5b60006200079c8782880162000747565b9450506020620007af878288016200075e565b935050604085015167ffffffffffffffff811115620007cd57600080fd5b620007db878288016200071a565b925050606085015167ffffffffffffffff811115620007f957600080fd5b62000807878288016200071a565b91505092959194509250565b600062000822601f8362000996565b91507f45524332303a206d696e7420746f20746865207a65726f2061646472657373006000830152602082019050919050565b600062000864602a8362000996565b91507f45524332305061757361626c653a20746f6b656e207472616e7366657220776860008301527f696c6520706175736564000000000000000000000000000000000000000000006020830152604082019050919050565b620008c88162000a04565b82525050565b60006020820190508181036000830152620008e98162000813565b9050919050565b600060208201905081810360008301526200090b8162000855565b9050919050565b6000602082019050620009296000830184620008bd565b92915050565b6000604051905081810181811067ffffffffffffffff8211171562000959576200095862000ae5565b5b8060405250919050565b600067ffffffffffffffff82111562000981576200098062000ae5565b5b601f19601f8301169050602081019050919050565b600082825260208201905092915050565b6000620009b48262000a04565b9150620009c18362000a04565b9250827fffffffffffffffffffffffffffffffffffffffffffffffffffffffffffffffff03821115620009f957620009f862000a87565b5b828201905092915050565b6000819050919050565b600060ff82169050919050565b60005b8381101562000a3b57808201518184015260208101905062000a1e565b8381111562000a4b576000848401525b50505050565b6000600282049050600182168062000a6a57607f821691505b6020821081141562000a815762000a8062000ab6565b5b50919050565b7f4e487b7100000000000000000000000000000000000000000000000000000000600052601160045260246000fd5b7f4e487b7100000000000000000000000000000000000000000000000000000000600052602260045260246000fd5b7f4e487b7100000000000000000000000000000000000000000000000000000000600052604160045260246000fd5b62000b1f8162000a04565b811462000b2b57600080fd5b50565b62000b398162000a0e565b811462000b4557600080fd5b50565b6139468062000b586000396000f3fe608060405234801561001057600080fd5b50600436106101f05760003560e01c80635c975abb1161010f578063a457c2d7116100a2578063d547741f11610071578063d547741f146105cd578063dd62ed3e146105e9578063e63ab1e914610619578063ff42012014610637576101f0565b8063a457c2d71461051f578063a9059cbb1461054f578063ca15c8731461057f578063d5391393146105af576101f0565b80639010d07c116100de5780639010d07c1461048357806391d14854146104b357806395d89b41146104e3578063a217fddf14610501576101f0565b80635c975abb1461040f57806370a082311461042d57806379cc67901461045d5780638456cb5914610479576101f0565b8063313ce567116101875780633f4ba83a116101565780633f4ba83a146103b157806340c10f19146103bb57806342966c68146103d75780634eb03f6e146103f3576101f0565b8063313ce5671461032b57806336568abe14610349578063395093511461036557806339a8c66114610395576101f0565b806318160ddd116101c357806318160ddd1461029157806323b872dd146102af578063248a9ca3146102df5780632f2ff15d1461030f576101f0565b806301ffc9a7146101f557806306fdde0314610225578063095ea7b3146102435780631117258614610273575b600080fd5b61020f600480360381019061020a91906127f4565b610655565b60405161021c9190613292565b60405180910390f35b61022d6106cf565b60405161023a91906132c8565b60405180910390f35b61025d60048036038101906102589190612717565b610761565b60405161026a9190613292565b60405180910390f35b61027b61077f565b60405161028891906132ad565b60405180910390f35b6102996107a3565b6040516102a691906135ea565b60405180910390f35b6102c960048036038101906102c491906126c8565b6107ad565b6040516102d69190613292565b60405180910390f35b6102f960048036038101906102f49190612753565b6108ae565b60405161030691906132ad565b60405180910390f35b6103296004803603810190610324919061277c565b6108cd565b005b610333610901565b6040516103409190613605565b60405180910390f35b610363600480360381019061035e919061277c565b610918565b005b61037f600480360381019061037a9190612717565b61094c565b60405161038c9190613292565b60405180910390f35b6103af60048036038101906103aa9190612846565b6109f8565b005b6103b9610a76565b005b6103d560048036038101906103d09190612717565b610af0565b005b6103f160048036038101906103ec919061281d565b610b6e565b005b61040d60048036038101906104089190612663565b610b82565b005b610417610d84565b6040516104249190613292565b60405180910390f35b61044760048036038101906104429190612663565b610d9b565b60405161045491906135ea565b60405180910390f35b61047760048036038101906104729190612717565b610de4565b005b610481610e68565b005b61049d600480360381019061049891906127b8565b610ee2565b6040516104aa9190613277565b60405180910390f35b6104cd60048036038101906104c8919061277c565b610f11565b6040516104da9190613292565b60405180910390f35b6104eb610f7b565b6040516104f891906132c8565b60405180910390f35b61050961100d565b60405161051691906132ad565b60405180910390f35b61053960048036038101906105349190612717565b611014565b6040516105469190613292565b60405180910390f35b61056960048036038101906105649190612717565b611108565b6040516105769190613292565b60405180910390f35b61059960048036038101906105949190612753565b611126565b6040516105a691906135ea565b60405180910390f35b6105b761114a565b6040516105c491906132ad565b60405180910390f35b6105e760048036038101906105e2919061277c565b61116e565b005b61060360048036038101906105fe919061268c565b6111a2565b60405161061091906135ea565b60405180910390f35b610621611229565b60405161062e91906132ad565b60405180910390f35b61063f61124d565b60405161064c9190613277565b60405180910390f35b60007f5a05180f000000000000000000000000000000000000000000000000000000007bffffffffffffffffffffffffffffffffffffffffffffffffffffffff1916827bffffffffffffffffffffffffffffffffffffffffffffffffffffffff191614806106c857506106c78261130e565b5b9050919050565b6060600580546106de90613813565b80601f016020809104026020016040519081016040528092919081815260200182805461070a90613813565b80156107575780601f1061072c57610100808354040283529160200191610757565b820191906000526020600020905b81548152906001019060200180831161073a57829003601f168201915b5050505050905090565b600061077561076e611388565b8484611390565b6001905092915050565b7f5e60f7acd354195c64e1c2c1e3ac5d68aea74bb6f1bf6b3a464c08e4b2fce80481565b6000600454905090565b60006107ba84848461155b565b6000600360008673ffffffffffffffffffffffffffffffffffffffff1673ffffffffffffffffffffffffffffffffffffffff1681526020019081526020016000206000610805611388565b73ffffffffffffffffffffffffffffffffffffffff1673ffffffffffffffffffffffffffffffffffffffff16815260200190815260200160002054905082811015610885576040517f08c379a000000000000000000000000000000000000000000000000000000000815260040161087c9061340a565b60405180910390fd5b6108a285610891611388565b858461089d91906136f7565b611390565b60019150509392505050565b6000806000838152602001908152602001600020600101549050919050565b6108d782826117dd565b6108fc816001600085815260200190815260200160002061128190919063ffffffff16565b505050565b6000600760019054906101000a900460ff16905090565b6109228282611806565b610947816001600085815260200190815260200160002061188990919063ffffffff16565b505050565b60006109ee610959611388565b848460036000610967611388565b73ffffffffffffffffffffffffffffffffffffffff1673ffffffffffffffffffffffffffffffffffffffff16815260200190815260200160002060008873ffffffffffffffffffffffffffffffffffffffff1673ffffffffffffffffffffffffffffffffffffffff168152602001908152602001600020546109e99190613647565b611390565b6001905092915050565b610a297f5e60f7acd354195c64e1c2c1e3ac5d68aea74bb6f1bf6b3a464c08e4b2fce804610a24611388565b610f11565b610a68576040517f08c379a0000000000000000000000000000000000000000000000000000000008152600401610a5f9061356a565b60405180910390fd5b610a7281836118b9565b5050565b610aa77f65d7a28e3265b37a6474929f336521b332c1681b933f6cb9f3376673440d862a610aa2611388565b610f11565b610ae6576040517f08c379a0000000000000000000000000000000000000000000000000000000008152600401610add9061338a565b60405180910390fd5b610aee611a0e565b565b610b217f9f2df0fed2c77648de5860a4cc508cd0818c85b8b8a1ab4ceeef8d981c8956a6610b1c611388565b610f11565b610b60576040517f08c379a0000000000000000000000000000000000000000000000000000000008152600401610b579061342a565b60405180910390fd5b610b6a82826118b9565b5050565b610b7f610b79611388565b82611ab0565b50565b610b966000801b610b91611388565b610f11565b610bd5576040517f08c379a0000000000000000000000000000000000000000000000000000000008152600401610bcc9061352a565b60405180910390fd5b610bff7f5e60f7acd354195c64e1c2c1e3ac5d68aea74bb6f1bf6b3a464c08e4b2fce804826108cd565b610c297f5e60f7acd354195c64e1c2c1e3ac5d68aea74bb6f1bf6b3a464c08e4b2fce80482610f11565b610c68576040517f08c379a0000000000000000000000000000000000000000000000000000000008152600401610c5f9061348a565b60405180910390fd5b610cb47f5e60f7acd354195c64e1c2c1e3ac5d68aea74bb6f1bf6b3a464c08e4b2fce804600760029054906101000a900473ffffffffffffffffffffffffffffffffffffffff1661116e565b610d007f5e60f7acd354195c64e1c2c1e3ac5d68aea74bb6f1bf6b3a464c08e4b2fce804600760029054906101000a900473ffffffffffffffffffffffffffffffffffffffff16610f11565b15610d40576040517f08c379a0000000000000000000000000000000000000000000000000000000008152600401610d379061350a565b60405180910390fd5b80600760026101000a81548173ffffffffffffffffffffffffffffffffffffffff021916908373ffffffffffffffffffffffffffffffffffffffff16021790555050565b6000600760009054906101000a900460ff16905090565b6000600260008373ffffffffffffffffffffffffffffffffffffffff1673ffffffffffffffffffffffffffffffffffffffff168152602001908152602001600020549050919050565b6000610df783610df2611388565b6111a2565b905081811015610e3c576040517f08c379a0000000000000000000000000000000000000000000000000000000008152600401610e339061344a565b60405180910390fd5b610e5983610e48611388565b8484610e5491906136f7565b611390565b610e638383611ab0565b505050565b610e997f65d7a28e3265b37a6474929f336521b332c1681b933f6cb9f3376673440d862a610e94611388565b610f11565b610ed8576040517f08c379a0000000000000000000000000000000000000000000000000000000008152600401610ecf906134ea565b60405180910390fd5b610ee0611c86565b565b6000610f098260016000868152602001908152602001600020611d2990919063ffffffff16565b905092915050565b600080600084815260200190815260200160002060000160008373ffffffffffffffffffffffffffffffffffffffff1673ffffffffffffffffffffffffffffffffffffffff16815260200190815260200160002060009054906101000a900460ff16905092915050565b606060068054610f8a90613813565b80601f0160208091040260200160405190810160405280929190818152602001828054610fb690613813565b80156110035780601f10610fd857610100808354040283529160200191611003565b820191906000526020600020905b815481529060010190602001808311610fe657829003601f168201915b5050505050905090565b6000801b81565b60008060036000611023611388565b73ffffffffffffffffffffffffffffffffffffffff1673ffffffffffffffffffffffffffffffffffffffff16815260200190815260200160002060008573ffffffffffffffffffffffffffffffffffffffff1673ffffffffffffffffffffffffffffffffffffffff168152602001908152602001600020549050828110156110e0576040517f08c379a00000000000000000000000000000000000000000000000000000000081526004016110d79061354a565b60405180910390fd5b6110fd6110eb611388565b8585846110f891906136f7565b611390565b600191505092915050565b600061111c611115611388565b848461155b565b6001905092915050565b600061114360016000848152602001908152602001600020611d43565b9050919050565b7f9f2df0fed2c77648de5860a4cc508cd0818c85b8b8a1ab4ceeef8d981c8956a681565b6111788282611d58565b61119d816001600085815260200190815260200160002061188990919063ffffffff16565b505050565b6000600360008473ffffffffffffffffffffffffffffffffffffffff1673ffffffffffffffffffffffffffffffffffffffff16815260200190815260200160002060008373ffffffffffffffffffffffffffffffffffffffff1673ffffffffffffffffffffffffffffffffffffffff16815260200190815260200160002054905092915050565b7f65d7a28e3265b37a6474929f336521b332c1681b933f6cb9f3376673440d862a81565b600760029054906101000a900473ffffffffffffffffffffffffffffffffffffffff1681565b61127d8282611d81565b5050565b60006112a9836000018373ffffffffffffffffffffffffffffffffffffffff1660001b611e61565b905092915050565b6112bc838383611309565b6112c4610d84565b15611304576040517f08c379a00000000000000000000000000000000000000000000000000000000081526004016112fb906135ca565b60405180910390fd5b505050565b505050565b60007f7965db0b000000000000000000000000000000000000000000000000000000007bffffffffffffffffffffffffffffffffffffffffffffffffffffffff1916827bffffffffffffffffffffffffffffffffffffffffffffffffffffffff19161480611381575061138082611ed1565b5b9050919050565b600033905090565b600073ffffffffffffffffffffffffffffffffffffffff168373ffffffffffffffffffffffffffffffffffffffff161415611400576040517f08c379a00000000000000000000000000000000000000000000000000000000081526004016113f7906134ca565b60405180910390fd5b600073ffffffffffffffffffffffffffffffffffffffff168273ffffffffffffffffffffffffffffffffffffffff161415611470576040517f08c379a0000000000000000000000000000000000000000000000000000000008152600401611467906133aa565b60405180910390fd5b80600360008573ffffffffffffffffffffffffffffffffffffffff1673ffffffffffffffffffffffffffffffffffffffff16815260200190815260200160002060008473ffffffffffffffffffffffffffffffffffffffff1673ffffffffffffffffffffffffffffffffffffffff168152602001908152602001600020819055508173ffffffffffffffffffffffffffffffffffffffff168373ffffffffffffffffffffffffffffffffffffffff167f8c5be1e5ebec7d5bd14f71427d1e84f3dd0314c0f7b2291e5b200ac8c7c3b9258360405161154e91906135ea565b60405180910390a3505050565b600073ffffffffffffffffffffffffffffffffffffffff168373ffffffffffffffffffffffffffffffffffffffff1614156115cb576040517f08c379a00000000000000000000000000000000000000000000000000000000081526004016115c2906134aa565b60405180910390fd5b600073ffffffffffffffffffffffffffffffffffffffff168273ffffffffffffffffffffffffffffffffffffffff16141561163b576040517f08c379a00000000000000000000000000000000000000000000000000000000081526004016116329061332a565b60405180910390fd5b611646838383611f3b565b6000600260008573ffffffffffffffffffffffffffffffffffffffff1673ffffffffffffffffffffffffffffffffffffffff168152602001908152602001600020549050818110156116cd576040517f08c379a00000000000000000000000000000000000000000000000000000000081526004016116c4906133ca565b60405180910390fd5b81816116d991906136f7565b600260008673ffffffffffffffffffffffffffffffffffffffff1673ffffffffffffffffffffffffffffffffffffffff1681526020019081526020016000208190555081600260008573ffffffffffffffffffffffffffffffffffffffff1673ffffffffffffffffffffffffffffffffffffffff168152602001908152602001600020600082825461176b9190613647565b925050819055508273ffffffffffffffffffffffffffffffffffffffff168473ffffffffffffffffffffffffffffffffffffffff167fddf252ad1be2c89b69c2b068fc378daa952ba7f163c4a11628f55a4df523b3ef846040516117cf91906135ea565b60405180910390a350505050565b6117e6826108ae565b6117f7816117f2611388565b611f4b565b6118018383611d81565b505050565b61180e611388565b73ffffffffffffffffffffffffffffffffffffffff168173ffffffffffffffffffffffffffffffffffffffff161461187b576040517f08c379a00000000000000000000000000000000000000000000000000000000081526004016118729061358a565b60405180910390fd5b6118858282611fe8565b5050565b60006118b1836000018373ffffffffffffffffffffffffffffffffffffffff1660001b6120c9565b905092915050565b600073ffffffffffffffffffffffffffffffffffffffff168273ffffffffffffffffffffffffffffffffffffffff161415611929576040517f08c379a0000000000000000000000000000000000000000000000000000000008152600401611920906135aa565b60405180910390fd5b61193560008383611f3b565b80600460008282546119479190613647565b9250508190555080600260008473ffffffffffffffffffffffffffffffffffffffff1673ffffffffffffffffffffffffffffffffffffffff168152602001908152602001600020600082825461199d9190613647565b925050819055508173ffffffffffffffffffffffffffffffffffffffff16600073ffffffffffffffffffffffffffffffffffffffff167fddf252ad1be2c89b69c2b068fc378daa952ba7f163c4a11628f55a4df523b3ef83604051611a0291906135ea565b60405180910390a35050565b611a16610d84565b611a55576040517f08c379a0000000000000000000000000000000000000000000000000000000008152600401611a4c9061334a565b60405180910390fd5b6000600760006101000a81548160ff0219169083151502179055507f5db9ee0a495bf2e6ff9c91a7834c1ba4fdd244a5e8aa4e537bd38aeae4b073aa611a99611388565b604051611aa69190613277565b60405180910390a1565b600073ffffffffffffffffffffffffffffffffffffffff168273ffffffffffffffffffffffffffffffffffffffff161415611b20576040517f08c379a0000000000000000000000000000000000000000000000000000000008152600401611b179061346a565b60405180910390fd5b611b2c82600083611f3b565b6000600260008473ffffffffffffffffffffffffffffffffffffffff1673ffffffffffffffffffffffffffffffffffffffff16815260200190815260200160002054905081811015611bb3576040517f08c379a0000000000000000000000000000000000000000000000000000000008152600401611baa9061336a565b60405180910390fd5b8181611bbf91906136f7565b600260008573ffffffffffffffffffffffffffffffffffffffff1673ffffffffffffffffffffffffffffffffffffffff168152602001908152602001600020819055508160046000828254611c1491906136f7565b92505081905550600073ffffffffffffffffffffffffffffffffffffffff168373ffffffffffffffffffffffffffffffffffffffff167fddf252ad1be2c89b69c2b068fc378daa952ba7f163c4a11628f55a4df523b3ef84604051611c7991906135ea565b60405180910390a3505050565b611c8e610d84565b15611cce576040517f08c379a0000000000000000000000000000000000000000000000000000000008152600401611cc5906133ea565b60405180910390fd5b6001600760006101000a81548160ff0219169083151502179055507f62e78cea01bee320cd4e420270b5ea74000d11b0c9f74754ebdbfc544b05a258611d12611388565b604051611d1f9190613277565b60405180910390a1565b6000611d388360000183612247565b60001c905092915050565b6000611d51826000016122e1565b9050919050565b611d61826108ae565b611d7281611d6d611388565b611f4b565b611d7c8383611fe8565b505050565b611d8b8282610f11565b611e5d57600160008084815260200190815260200160002060000160008373ffffffffffffffffffffffffffffffffffffffff1673ffffffffffffffffffffffffffffffffffffffff16815260200190815260200160002060006101000a81548160ff021916908315150217905550611e02611388565b73ffffffffffffffffffffffffffffffffffffffff168173ffffffffffffffffffffffffffffffffffffffff16837f2f8788117e7eff1d82e926ec794901d17c78024a50270940304540a733656f0d60405160405180910390a45b5050565b6000611e6d83836122f2565b611ec6578260000182908060018154018082558091505060019003906000526020600020016000909190919091505582600001805490508360010160008481526020019081526020016000208190555060019050611ecb565b600090505b92915050565b60007f01ffc9a7000000000000000000000000000000000000000000000000000000007bffffffffffffffffffffffffffffffffffffffffffffffffffffffff1916827bffffffffffffffffffffffffffffffffffffffffffffffffffffffff1916149050919050565b611f468383836112b1565b505050565b611f558282610f11565b611fe457611f7a8173ffffffffffffffffffffffffffffffffffffffff166014612315565b611f888360001c6020612315565b604051602001611f9992919061323d565b6040516020818303038152906040526040517f08c379a0000000000000000000000000000000000000000000000000000000008152600401611fdb91906132c8565b60405180910390fd5b5050565b611ff28282610f11565b156120c557600080600084815260200190815260200160002060000160008373ffffffffffffffffffffffffffffffffffffffff1673ffffffffffffffffffffffffffffffffffffffff16815260200190815260200160002060006101000a81548160ff02191690831515021790555061206a611388565b73ffffffffffffffffffffffffffffffffffffffff168173ffffffffffffffffffffffffffffffffffffffff16837ff6391f5c32d9c69d2a47ea670b442974b53935d1edc7fd64eb21e047a839171b60405160405180910390a45b5050565b6000808360010160008481526020019081526020016000205490506000811461223b5760006001826120fb91906136f7565b905060006001866000018054905061211391906136f7565b90506000866000018281548110612153577f4e487b7100000000000000000000000000000000000000000000000000000000600052603260045260246000fd5b906000526020600020015490508087600001848154811061219d577f4e487b7100000000000000000000000000000000000000000000000000000000600052603260045260246000fd5b90600052602060002001819055508387600101600083815260200190815260200160002081905550866000018054806121ff577f4e487b7100000000000000000000000000000000000000000000000000000000600052603160045260246000fd5b60019003818190600052602060002001600090559055866001016000878152602001908152602001600020600090556001945050505050612241565b60009150505b92915050565b600081836000018054905011612292576040517f08c379a0000000000000000000000000000000000000000000000000000000008152600401612289906132ea565b60405180910390fd5b8260000182815481106122ce577f4e487b7100000000000000000000000000000000000000000000000000000000600052603260045260246000fd5b9060005260206000200154905092915050565b600081600001805490509050919050565b600080836001016000848152602001908152602001600020541415905092915050565b606060006002836002612328919061369d565b6123329190613647565b67ffffffffffffffff811115612371577f4e487b7100000000000000000000000000000000000000000000000000000000600052604160045260246000fd5b6040519080825280601f01601f1916602001820160405280156123a35781602001600182028036833780820191505090505b5090507f300000000000000000000000000000000000000000000000000000000000000081600081518110612401577f4e487b7100000000000000000000000000000000000000000000000000000000600052603260045260246000fd5b60200101907effffffffffffffffffffffffffffffffffffffffffffffffffffffffffffff1916908160001a9053507f78000000000000000000000000000000000000000000000000000000000000008160018151811061248b577f4e487b7100000000000000000000000000000000000000000000000000000000600052603260045260246000fd5b60200101907effffffffffffffffffffffffffffffffffffffffffffffffffffffffffffff1916908160001a905350600060018460026124cb919061369d565b6124d59190613647565b90505b60018111156125c1577f3031323334353637383961626364656600000000000000000000000000000000600f86166010811061253d577f4e487b7100000000000000000000000000000000000000000000000000000000600052603260045260246000fd5b1a60f81b82828151811061257a577f4e487b7100000000000000000000000000000000000000000000000000000000600052603260045260246000fd5b60200101907effffffffffffffffffffffffffffffffffffffffffffffffffffffffffffff1916908160001a905350600485901c9450806125ba906137e9565b90506124d8565b5060008414612605576040517f08c379a00000000000000000000000000000000000000000000000000000000081526004016125fc9061330a565b60405180910390fd5b8091505092915050565b60008135905061261e816138b4565b92915050565b600081359050612633816138cb565b92915050565b600081359050612648816138e2565b92915050565b60008135905061265d816138f9565b92915050565b60006020828403121561267557600080fd5b60006126838482850161260f565b91505092915050565b6000806040838503121561269f57600080fd5b60006126ad8582860161260f565b92505060206126be8582860161260f565b9150509250929050565b6000806000606084860312156126dd57600080fd5b60006126eb8682870161260f565b93505060206126fc8682870161260f565b925050604061270d8682870161264e565b9150509250925092565b6000806040838503121561272a57600080fd5b60006127388582860161260f565b92505060206127498582860161264e565b9150509250929050565b60006020828403121561276557600080fd5b600061277384828501612624565b91505092915050565b6000806040838503121561278f57600080fd5b600061279d85828601612624565b92505060206127ae8582860161260f565b9150509250929050565b600080604083850312156127cb57600080fd5b60006127d985828601612624565b92505060206127ea8582860161264e565b9150509250929050565b60006020828403121561280657600080fd5b600061281484828501612639565b91505092915050565b60006020828403121561282f57600080fd5b600061283d8482850161264e565b91505092915050565b6000806040838503121561285957600080fd5b60006128678582860161264e565b92505060206128788582860161260f565b9150509250929050565b61288b8161372b565b82525050565b61289a8161373d565b82525050565b6128a981613749565b82525050565b60006128ba82613620565b6128c4818561362b565b93506128d48185602086016137b6565b6128dd816138a3565b840191505092915050565b60006128f382613620565b6128fd818561363c565b935061290d8185602086016137b6565b80840191505092915050565b600061292660228361362b565b91507f456e756d657261626c655365743a20696e646578206f7574206f6620626f756e60008301527f64730000000000000000000000000000000000000000000000000000000000006020830152604082019050919050565b600061298c60208361362b565b91507f537472696e67733a20686578206c656e67746820696e73756666696369656e746000830152602082019050919050565b60006129cc60238361362b565b91507f45524332303a207472616e7366657220746f20746865207a65726f206164647260008301527f65737300000000000000000000000000000000000000000000000000000000006020830152604082019050919050565b6000612a3260148361362b565b91507f5061757361626c653a206e6f74207061757365640000000000000000000000006000830152602082019050919050565b6000612a7260228361362b565b91507f45524332303a206275726e20616d6f756e7420657863656564732062616c616e60008301527f63650000000000000000000000000000000000000000000000000000000000006020830152604082019050919050565b6000612ad860398361362b565b91507f45524332305072657365744d696e7465725061757365723a206d75737420686160008301527f76652070617573657220726f6c6520746f20756e7061757365000000000000006020830152604082019050919050565b6000612b3e60228361362b565b91507f45524332303a20617070726f766520746f20746865207a65726f20616464726560008301527f73730000000000000000000000000000000000000000000000000000000000006020830152604082019050919050565b6000612ba460268361362b565b91507f45524332303a207472616e7366657220616d6f756e742065786365656473206260008301527f616c616e636500000000000000000000000000000000000000000000000000006020830152604082019050919050565b6000612c0a60108361362b565b91507f5061757361626c653a20706175736564000000000000000000000000000000006000830152602082019050919050565b6000612c4a60288361362b565b91507f45524332303a207472616e7366657220616d6f756e742065786365656473206160008301527f6c6c6f77616e63650000000000000000000000000000000000000000000000006020830152604082019050919050565b6000612cb060368361362b565b91507f45524332305072657365744d696e7465725061757365723a206d75737420686160008301527f7665206d696e74657220726f6c6520746f206d696e74000000000000000000006020830152604082019050919050565b6000612d1660248361362b565b91507f45524332303a206275726e20616d6f756e74206578636565647320616c6c6f7760008301527f616e6365000000000000000000000000000000000000000000000000000000006020830152604082019050919050565b6000612d7c60218361362b565b91507f45524332303a206275726e2066726f6d20746865207a65726f2061646472657360008301527f73000000000000000000000000000000000000000000000000000000000000006020830152604082019050919050565b6000612de260168361362b565b91507f726f6c6520686173206265656e207265636569766564000000000000000000006000830152602082019050919050565b6000612e2260258361362b565b91507f45524332303a207472616e736665722066726f6d20746865207a65726f20616460008301527f64726573730000000000000000000000000000000000000000000000000000006020830152604082019050919050565b6000612e8860248361362b565b91507f45524332303a20617070726f76652066726f6d20746865207a65726f2061646460008301527f72657373000000000000000000000000000000000000000000000000000000006020830152604082019050919050565b6000612eee60378361362b565b91507f45524332305072657365744d696e7465725061757365723a206d75737420686160008301527f76652070617573657220726f6c6520746f2070617573650000000000000000006020830152604082019050919050565b6000612f5460178361363c565b91507f416363657373436f6e74726f6c3a206163636f756e74200000000000000000006000830152601782019050919050565b6000612f9460238361362b565b91507f726f6c6520686173206265656e2072656d6f7665642070726f6d20706572766960008301527f6f757300000000000000000000000000000000000000000000000000000000006020830152604082019050919050565b6000612ffa600a8361362b565b91507f41646d696e206f6e6c79000000000000000000000000000000000000000000006000830152602082019050919050565b600061303a60258361362b565b91507f45524332303a2064656372656173656420616c6c6f77616e63652062656c6f7760008301527f207a65726f0000000000000000000000000000000000000000000000000000006020830152604082019050919050565b60006130a060118361363c565b91507f206973206d697373696e6720726f6c65200000000000000000000000000000006000830152601182019050919050565b60006130e060138361362b565b91507f4d696e7465722041646472657373206f6e6c79000000000000000000000000006000830152602082019050919050565b6000613120602f8361362b565b91507f416363657373436f6e74726f6c3a2063616e206f6e6c792072656e6f756e636560008301527f20726f6c657320666f722073656c6600000000000000000000000000000000006020830152604082019050919050565b6000613186601f8361362b565b91507f45524332303a206d696e7420746f20746865207a65726f2061646472657373006000830152602082019050919050565b60006131c6602a8361362b565b91507f45524332305061757361626c653a20746f6b656e207472616e7366657220776860008301527f696c6520706175736564000000000000000000000000000000000000000000006020830152604082019050919050565b6132288161379f565b82525050565b613237816137a9565b82525050565b600061324882612f47565b915061325482856128e8565b915061325f82613093565b915061326b82846128e8565b91508190509392505050565b600060208201905061328c6000830184612882565b92915050565b60006020820190506132a76000830184612891565b92915050565b60006020820190506132c260008301846128a0565b92915050565b600060208201905081810360008301526132e281846128af565b905092915050565b6000602082019050818103600083015261330381612919565b9050919050565b600060208201905081810360008301526133238161297f565b9050919050565b60006020820190508181036000830152613343816129bf565b9050919050565b6000602082019050818103600083015261336381612a25565b9050919050565b6000602082019050818103600083015261338381612a65565b9050919050565b600060208201905081810360008301526133a381612acb565b9050919050565b600060208201905081810360008301526133c381612b31565b9050919050565b600060208201905081810360008301526133e381612b97565b9050919050565b6000602082019050818103600083015261340381612bfd565b9050919050565b6000602082019050818103600083015261342381612c3d565b9050919050565b6000602082019050818103600083015261344381612ca3565b9050919050565b6000602082019050818103600083015261346381612d09565b9050919050565b6000602082019050818103600083015261348381612d6f565b9050919050565b600060208201905081810360008301526134a381612dd5565b9050919050565b600060208201905081810360008301526134c381612e15565b9050919050565b600060208201905081810360008301526134e381612e7b565b9050919050565b6000602082019050818103600083015261350381612ee1565b9050919050565b6000602082019050818103600083015261352381612f87565b9050919050565b6000602082019050818103600083015261354381612fed565b9050919050565b600060208201905081810360008301526135638161302d565b9050919050565b60006020820190508181036000830152613583816130d3565b9050919050565b600060208201905081810360008301526135a381613113565b9050919050565b600060208201905081810360008301526135c381613179565b9050919050565b600060208201905081810360008301526135e3816131b9565b9050919050565b60006020820190506135ff600083018461321f565b92915050565b600060208201905061361a600083018461322e565b92915050565b600081519050919050565b600082825260208201905092915050565b600081905092915050565b60006136528261379f565b915061365d8361379f565b9250827fffffffffffffffffffffffffffffffffffffffffffffffffffffffffffffffff0382111561369257613691613845565b5b828201905092915050565b60006136a88261379f565b91506136b38361379f565b9250817fffffffffffffffffffffffffffffffffffffffffffffffffffffffffffffffff04831182151516156136ec576136eb613845565b5b828202905092915050565b60006137028261379f565b915061370d8361379f565b9250828210156137205761371f613845565b5b828203905092915050565b60006137368261377f565b9050919050565b60008115159050919050565b6000819050919050565b60007fffffffff0000000000000000000000000000000000000000000000000000000082169050919050565b600073ffffffffffffffffffffffffffffffffffffffff82169050919050565b6000819050919050565b600060ff82169050919050565b60005b838110156137d45780820151818401526020810190506137b9565b838111156137e3576000848401525b50505050565b60006137f48261379f565b9150600082141561380857613807613845565b5b600182039050919050565b6000600282049050600182168061382b57607f821691505b6020821081141561383f5761383e613874565b5b50919050565b7f4e487b7100000000000000000000000000000000000000000000000000000000600052601160045260246000fd5b7f4e487b7100000000000000000000000000000000000000000000000000000000600052602260045260246000fd5b6000601f19601f8301169050919050565b6138bd8161372b565b81146138c857600080fd5b50565b6138d481613749565b81146138df57600080fd5b50565b6138eb81613753565b81146138f657600080fd5b50565b6139028161379f565b811461390d57600080fd5b5056fea2646970667358221220940f33d040bf9f8468d07297e9f33846f10b1a14f1afe339e9d87a56e7c2d33064736f6c63430008000033",
  "linkReferences": {},
  "deployedLinkReferences": {}
}