{
  "_format": "hh-sol-artifact-1",
  "contractName": "CS_Skin",
  "sourceName": "contracts/CS_Skin.sol",
  "abi": [
    {
      "inputs": [
        {
          "internalType": "address",
          "name": "_FAH",
          "type": "address"
        },
        {
          "internalType": "address",
          "name": "_CS_Case",
          "type": "address"
        },
        {
          "internalType": "address",
          "name": "_factory",
          "type": "address"
        },
        {
          "internalType": "address",
          "name": "_router",
          "type": "address"
        }
      ],
      "stateMutability": "nonpayable",
      "type": "constructor"
    },
    {
      "anonymous": false,
      "inputs": [
        {
          "indexed": true,
          "internalType": "address",
          "name": "account",
          "type": "address"
        },
        {
          "indexed": true,
          "internalType": "address",
          "name": "operator",
          "type": "address"
        },
        {
          "indexed": false,
          "internalType": "bool",
          "name": "approved",
          "type": "bool"
        }
      ],
      "name": "ApprovalForAll",
      "type": "event"
    },
    {
      "anonymous": false,
      "inputs": [
        {
          "indexed": false,
          "internalType": "address",
          "name": "account",
          "type": "address"
        }
      ],
      "name": "Paused",
      "type": "event"
    },
    {
      "anonymous": false,
      "inputs": [
        {
          "indexed": true,
          "internalType": "bytes32",
          "name": "role",
          "type": "bytes32"
        },
        {
          "indexed": true,
          "internalType": "bytes32",
          "name": "previousAdminRole",
          "type": "bytes32"
        },
        {
          "indexed": true,
          "internalType": "bytes32",
          "name": "newAdminRole",
          "type": "bytes32"
        }
      ],
      "name": "RoleAdminChanged",
      "type": "event"
    },
    {
      "anonymous": false,
      "inputs": [
        {
          "indexed": true,
          "internalType": "bytes32",
          "name": "role",
          "type": "bytes32"
        },
        {
          "indexed": true,
          "internalType": "address",
          "name": "account",
          "type": "address"
        },
        {
          "indexed": true,
          "internalType": "address",
          "name": "sender",
          "type": "address"
        }
      ],
      "name": "RoleGranted",
      "type": "event"
    },
    {
      "anonymous": false,
      "inputs": [
        {
          "indexed": true,
          "internalType": "bytes32",
          "name": "role",
          "type": "bytes32"
        },
        {
          "indexed": true,
          "internalType": "address",
          "name": "account",
          "type": "address"
        },
        {
          "indexed": true,
          "internalType": "address",
          "name": "sender",
          "type": "address"
        }
      ],
      "name": "RoleRevoked",
      "type": "event"
    },
    {
      "anonymous": false,
      "inputs": [
        {
          "indexed": true,
          "internalType": "address",
          "name": "operator",
          "type": "address"
        },
        {
          "indexed": true,
          "internalType": "address",
          "name": "from",
          "type": "address"
        },
        {
          "indexed": true,
          "internalType": "address",
          "name": "to",
          "type": "address"
        },
        {
          "indexed": false,
          "internalType": "uint256[]",
          "name": "ids",
          "type": "uint256[]"
        },
        {
          "indexed": false,
          "internalType": "uint256[]",
          "name": "values",
          "type": "uint256[]"
        }
      ],
      "name": "TransferBatch",
      "type": "event"
    },
    {
      "anonymous": false,
      "inputs": [
        {
          "indexed": true,
          "internalType": "address",
          "name": "operator",
          "type": "address"
        },
        {
          "indexed": true,
          "internalType": "address",
          "name": "from",
          "type": "address"
        },
        {
          "indexed": true,
          "internalType": "address",
          "name": "to",
          "type": "address"
        },
        {
          "indexed": false,
          "internalType": "uint256",
          "name": "id",
          "type": "uint256"
        },
        {
          "indexed": false,
          "internalType": "uint256",
          "name": "value",
          "type": "uint256"
        }
      ],
      "name": "TransferSingle",
      "type": "event"
    },
    {
      "anonymous": false,
      "inputs": [
        {
          "indexed": false,
          "internalType": "string",
          "name": "value",
          "type": "string"
        },
        {
          "indexed": true,
          "internalType": "uint256",
          "name": "id",
          "type": "uint256"
        }
      ],
      "name": "URI",
      "type": "event"
    },
    {
      "anonymous": false,
      "inputs": [
        {
          "indexed": false,
          "internalType": "address",
          "name": "account",
          "type": "address"
        }
      ],
      "name": "Unpaused",
      "type": "event"
    },
    {
      "inputs": [],
      "name": "DEFAULT_ADMIN_ROLE",
      "outputs": [
        {
          "internalType": "bytes32",
          "name": "",
          "type": "bytes32"
        }
      ],
      "stateMutability": "view",
      "type": "function"
    },
    {
      "inputs": [],
      "name": "LOCAL_MINTER_ROLE",
      "outputs": [
        {
          "internalType": "bytes32",
          "name": "",
          "type": "bytes32"
        }
      ],
      "stateMutability": "view",
      "type": "function"
    },
    {
      "inputs": [],
      "name": "MINTER_ROLE",
      "outputs": [
        {
          "internalType": "bytes32",
          "name": "",
          "type": "bytes32"
        }
      ],
      "stateMutability": "view",
      "type": "function"
    },
    {
      "inputs": [],
      "name": "PAUSER_ROLE",
      "outputs": [
        {
          "internalType": "bytes32",
          "name": "",
          "type": "bytes32"
        }
      ],
      "stateMutability": "view",
      "type": "function"
    },
    {
      "inputs": [
        {
          "internalType": "address",
          "name": "account",
          "type": "address"
        },
        {
          "internalType": "uint256",
          "name": "id",
          "type": "uint256"
        }
      ],
      "name": "balanceOf",
      "outputs": [
        {
          "internalType": "uint256",
          "name": "",
          "type": "uint256"
        }
      ],
      "stateMutability": "view",
      "type": "function"
    },
    {
      "inputs": [
        {
          "internalType": "address[]",
          "name": "accounts",
          "type": "address[]"
        },
        {
          "internalType": "uint256[]",
          "name": "ids",
          "type": "uint256[]"
        }
      ],
      "name": "balanceOfBatch",
      "outputs": [
        {
          "internalType": "uint256[]",
          "name": "",
          "type": "uint256[]"
        }
      ],
      "stateMutability": "view",
      "type": "function"
    },
    {
      "inputs": [
        {
          "internalType": "address",
          "name": "account",
          "type": "address"
        },
        {
          "internalType": "uint256",
          "name": "id",
          "type": "uint256"
        },
        {
          "internalType": "uint256",
          "name": "value",
          "type": "uint256"
        }
      ],
      "name": "burn",
      "outputs": [],
      "stateMutability": "nonpayable",
      "type": "function"
    },
    {
      "inputs": [
        {
          "internalType": "address",
          "name": "account",
          "type": "address"
        },
        {
          "internalType": "uint256[]",
          "name": "ids",
          "type": "uint256[]"
        },
        {
          "internalType": "uint256[]",
          "name": "values",
          "type": "uint256[]"
        }
      ],
      "name": "burnBatch",
      "outputs": [],
      "stateMutability": "nonpayable",
      "type": "function"
    },
    {
      "inputs": [
        {
          "internalType": "string",
          "name": "_id",
          "type": "string"
        }
      ],
      "name": "getAddress",
      "outputs": [
        {
          "internalType": "address",
          "name": "",
          "type": "address"
        }
      ],
      "stateMutability": "view",
      "type": "function"
    },
    {
      "inputs": [
        {
          "internalType": "bytes32",
          "name": "role",
          "type": "bytes32"
        }
      ],
      "name": "getRoleAdmin",
      "outputs": [
        {
          "internalType": "bytes32",
          "name": "",
          "type": "bytes32"
        }
      ],
      "stateMutability": "view",
      "type": "function"
    },
    {
      "inputs": [
        {
          "internalType": "bytes32",
          "name": "role",
          "type": "bytes32"
        },
        {
          "internalType": "uint256",
          "name": "index",
          "type": "uint256"
        }
      ],
      "name": "getRoleMember",
      "outputs": [
        {
          "internalType": "address",
          "name": "",
          "type": "address"
        }
      ],
      "stateMutability": "view",
      "type": "function"
    },
    {
      "inputs": [
        {
          "internalType": "bytes32",
          "name": "role",
          "type": "bytes32"
        }
      ],
      "name": "getRoleMemberCount",
      "outputs": [
        {
          "internalType": "uint256",
          "name": "",
          "type": "uint256"
        }
      ],
      "stateMutability": "view",
      "type": "function"
    },
    {
      "inputs": [
        {
          "internalType": "string",
          "name": "_id",
          "type": "string"
        }
      ],
      "name": "getScore",
      "outputs": [
        {
          "internalType": "uint256",
          "name": "",
          "type": "uint256"
        }
      ],
      "stateMutability": "view",
      "type": "function"
    },
    {
      "inputs": [
        {
          "internalType": "uint256",
          "name": "_id",
          "type": "uint256"
        }
      ],
      "name": "getSkinAvailability",
      "outputs": [
        {
          "internalType": "uint256",
          "name": "",
          "type": "uint256"
        }
      ],
      "stateMutability": "view",
      "type": "function"
    },
    {
      "inputs": [
        {
          "internalType": "bytes32",
          "name": "role",
          "type": "bytes32"
        },
        {
          "internalType": "address",
          "name": "account",
          "type": "address"
        }
      ],
      "name": "grantRole",
      "outputs": [],
      "stateMutability": "nonpayable",
      "type": "function"
    },
    {
      "inputs": [
        {
          "internalType": "bytes32",
          "name": "role",
          "type": "bytes32"
        },
        {
          "internalType": "address",
          "name": "account",
          "type": "address"
        }
      ],
      "name": "hasRole",
      "outputs": [
        {
          "internalType": "bool",
          "name": "",
          "type": "bool"
        }
      ],
      "stateMutability": "view",
      "type": "function"
    },
    {
      "inputs": [
        {
          "internalType": "address",
          "name": "account",
          "type": "address"
        },
        {
          "internalType": "address",
          "name": "operator",
          "type": "address"
        }
      ],
      "name": "isApprovedForAll",
      "outputs": [
        {
          "internalType": "bool",
          "name": "",
          "type": "bool"
        }
      ],
      "stateMutability": "view",
      "type": "function"
    },
    {
      "inputs": [
        {
          "internalType": "address",
          "name": "to",
          "type": "address"
        },
        {
          "internalType": "uint256",
          "name": "id",
          "type": "uint256"
        },
        {
          "internalType": "uint256",
          "name": "amount",
          "type": "uint256"
        },
        {
          "internalType": "bytes",
          "name": "data",
          "type": "bytes"
        }
      ],
      "name": "mint",
      "outputs": [],
      "stateMutability": "nonpayable",
      "type": "function"
    },
    {
      "inputs": [
        {
          "internalType": "address",
          "name": "to",
          "type": "address"
        },
        {
          "internalType": "uint256[]",
          "name": "ids",
          "type": "uint256[]"
        },
        {
          "internalType": "uint256[]",
          "name": "amounts",
          "type": "uint256[]"
        },
        {
          "internalType": "bytes",
          "name": "data",
          "type": "bytes"
        }
      ],
      "name": "mintBatch",
      "outputs": [],
      "stateMutability": "nonpayable",
      "type": "function"
    },
    {
      "inputs": [
        {
          "internalType": "uint256",
          "name": "_amount",
          "type": "uint256"
        },
        {
          "internalType": "uint256",
          "name": "_deadline",
          "type": "uint256"
        }
      ],
      "name": "newSkin",
      "outputs": [],
      "stateMutability": "nonpayable",
      "type": "function"
    },
    {
      "inputs": [
        {
          "internalType": "address",
          "name": "",
          "type": "address"
        },
        {
          "internalType": "address",
          "name": "",
          "type": "address"
        },
        {
          "internalType": "uint256[]",
          "name": "",
          "type": "uint256[]"
        },
        {
          "internalType": "uint256[]",
          "name": "",
          "type": "uint256[]"
        },
        {
          "internalType": "bytes",
          "name": "",
          "type": "bytes"
        }
      ],
      "name": "onERC1155BatchReceived",
      "outputs": [
        {
          "internalType": "bytes4",
          "name": "",
          "type": "bytes4"
        }
      ],
      "stateMutability": "nonpayable",
      "type": "function"
    },
    {
      "inputs": [
        {
          "internalType": "address",
          "name": "",
          "type": "address"
        },
        {
          "internalType": "address",
          "name": "",
          "type": "address"
        },
        {
          "internalType": "uint256",
          "name": "",
          "type": "uint256"
        },
        {
          "internalType": "uint256",
          "name": "",
          "type": "uint256"
        },
        {
          "internalType": "bytes",
          "name": "",
          "type": "bytes"
        }
      ],
      "name": "onERC1155Received",
      "outputs": [
        {
          "internalType": "bytes4",
          "name": "",
          "type": "bytes4"
        }
      ],
      "stateMutability": "nonpayable",
      "type": "function"
    },
    {
      "inputs": [],
      "name": "pause",
      "outputs": [],
      "stateMutability": "nonpayable",
      "type": "function"
    },
    {
      "inputs": [],
      "name": "paused",
      "outputs": [
        {
          "internalType": "bool",
          "name": "",
          "type": "bool"
        }
      ],
      "stateMutability": "view",
      "type": "function"
    },
    {
      "inputs": [
        {
          "internalType": "uint256",
          "name": "_amount",
          "type": "uint256"
        }
      ],
      "name": "poolSetup",
      "outputs": [],
      "stateMutability": "nonpayable",
      "type": "function"
    },
    {
      "inputs": [
        {
          "internalType": "bytes32",
          "name": "role",
          "type": "bytes32"
        },
        {
          "internalType": "address",
          "name": "account",
          "type": "address"
        }
      ],
      "name": "renounceRole",
      "outputs": [],
      "stateMutability": "nonpayable",
      "type": "function"
    },
    {
      "inputs": [
        {
          "internalType": "bytes32",
          "name": "role",
          "type": "bytes32"
        },
        {
          "internalType": "address",
          "name": "account",
          "type": "address"
        }
      ],
      "name": "revokeRole",
      "outputs": [],
      "stateMutability": "nonpayable",
      "type": "function"
    },
    {
      "inputs": [
        {
          "internalType": "address",
          "name": "from",
          "type": "address"
        },
        {
          "internalType": "address",
          "name": "to",
          "type": "address"
        },
        {
          "internalType": "uint256[]",
          "name": "ids",
          "type": "uint256[]"
        },
        {
          "internalType": "uint256[]",
          "name": "amounts",
          "type": "uint256[]"
        },
        {
          "internalType": "bytes",
          "name": "data",
          "type": "bytes"
        }
      ],
      "name": "safeBatchTransferFrom",
      "outputs": [],
      "stateMutability": "nonpayable",
      "type": "function"
    },
    {
      "inputs": [
        {
          "internalType": "address",
          "name": "from",
          "type": "address"
        },
        {
          "internalType": "address",
          "name": "to",
          "type": "address"
        },
        {
          "internalType": "uint256",
          "name": "id",
          "type": "uint256"
        },
        {
          "internalType": "uint256",
          "name": "amount",
          "type": "uint256"
        },
        {
          "internalType": "bytes",
          "name": "data",
          "type": "bytes"
        }
      ],
      "name": "safeTransferFrom",
      "outputs": [],
      "stateMutability": "nonpayable",
      "type": "function"
    },
    {
      "inputs": [
        {
          "internalType": "address",
          "name": "operator",
          "type": "address"
        },
        {
          "internalType": "bool",
          "name": "approved",
          "type": "bool"
        }
      ],
      "name": "setApprovalForAll",
      "outputs": [],
      "stateMutability": "nonpayable",
      "type": "function"
    },
    {
      "inputs": [
        {
          "internalType": "uint256",
          "name": "_score",
          "type": "uint256"
        },
        {
          "internalType": "string",
          "name": "_id",
          "type": "string"
        }
      ],
      "name": "signUp",
      "outputs": [],
      "stateMutability": "nonpayable",
      "type": "function"
    },
    {
      "inputs": [],
      "name": "skinCount",
      "outputs": [
        {
          "internalType": "uint256",
          "name": "",
          "type": "uint256"
        }
      ],
      "stateMutability": "view",
      "type": "function"
    },
    {
      "inputs": [
        {
          "internalType": "uint256",
          "name": "",
          "type": "uint256"
        }
      ],
      "name": "skinQuantities",
      "outputs": [
        {
          "internalType": "uint256",
          "name": "",
          "type": "uint256"
        }
      ],
      "stateMutability": "view",
      "type": "function"
    },
    {
      "inputs": [
        {
          "internalType": "bytes4",
          "name": "interfaceId",
          "type": "bytes4"
        }
      ],
      "name": "supportsInterface",
      "outputs": [
        {
          "internalType": "bool",
          "name": "",
          "type": "bool"
        }
      ],
      "stateMutability": "view",
      "type": "function"
    },
    {
      "inputs": [],
      "name": "uniqueSkinCount",
      "outputs": [
        {
          "internalType": "uint256",
          "name": "",
          "type": "uint256"
        }
      ],
      "stateMutability": "view",
      "type": "function"
    },
    {
      "inputs": [],
      "name": "unpause",
      "outputs": [],
      "stateMutability": "nonpayable",
      "type": "function"
    },
    {
      "inputs": [
        {
          "internalType": "uint256",
          "name": "_score",
          "type": "uint256"
        },
        {
          "internalType": "string",
          "name": "_id",
          "type": "string"
        }
      ],
      "name": "updateScore",
      "outputs": [],
      "stateMutability": "nonpayable",
      "type": "function"
    },
    {
      "inputs": [
        {
          "internalType": "uint256",
          "name": "",
          "type": "uint256"
        }
      ],
      "name": "uri",
      "outputs": [
        {
          "internalType": "string",
          "name": "",
          "type": "string"
        }
      ],
      "stateMutability": "view",
      "type": "function"
    },
    {
      "inputs": [
        {
          "internalType": "string",
          "name": "_id",
          "type": "string"
        }
      ],
      "name": "userExists",
      "outputs": [
        {
          "internalType": "bool",
          "name": "",
          "type": "bool"
        }
      ],
      "stateMutability": "view",
      "type": "function"
    }
  ],
  "bytecode": "0x60806040526000600e556000600f553480156200001b57600080fd5b5060405162007e5538038062007e55833981810160405281019062000041919062000ca6565b604051806020016040528060008152508085858585620000977f9f2df0fed2c77648de5860a4cc508cd0818c85b8b8a1ab4ceeef8d981c8956a66200008b6200047c60201b60201c565b6200048460201b60201c565b620000d87f9f2df0fed2c77648de5860a4cc508cd0818c85b8b8a1ab4ceeef8d981c8956a6620000cc6200047c60201b60201c565b620004cc60201b60201c565b6200011a576040517f08c379a0000000000000000000000000000000000000000000000000000000008152600401620001119062000f58565b60405180910390fd5b83600360006101000a81548173ffffffffffffffffffffffffffffffffffffffff021916908373ffffffffffffffffffffffffffffffffffffffff16021790555082600460006101000a81548173ffffffffffffffffffffffffffffffffffffffff021916908373ffffffffffffffffffffffffffffffffffffffff16021790555081600560006101000a81548173ffffffffffffffffffffffffffffffffffffffff021916908373ffffffffffffffffffffffffffffffffffffffff16021790555080600660006101000a81548173ffffffffffffffffffffffffffffffffffffffff021916908373ffffffffffffffffffffffffffffffffffffffff160217905550600560009054906101000a900473ffffffffffffffffffffffffffffffffffffffff1673ffffffffffffffffffffffffffffffffffffffff1663c9c6539685856040518363ffffffff1660e01b81526004016200027d92919062000ee5565b602060405180830381600087803b1580156200029857600080fd5b505af1158015620002ad573d6000803e3d6000fd5b505050506040513d601f19601f82011682018060405250810190620002d3919062000c7a565b600860006101000a81548173ffffffffffffffffffffffffffffffffffffffff021916908373ffffffffffffffffffffffffffffffffffffffff160217905550600860009054906101000a900473ffffffffffffffffffffffffffffffffffffffff16600760006101000a81548173ffffffffffffffffffffffffffffffffffffffff021916908373ffffffffffffffffffffffffffffffffffffffff160217905550505050506200038b816200053760201b60201c565b506000600c60006101000a81548160ff021916908315150217905550620003cb6000801b620003bf6200047c60201b60201c565b6200048460201b60201c565b6200040c7f9f2df0fed2c77648de5860a4cc508cd0818c85b8b8a1ab4ceeef8d981c8956a6620004006200047c60201b60201c565b6200048460201b60201c565b6200044d7f65d7a28e3265b37a6474929f336521b332c1681b933f6cb9f3376673440d862a620004416200047c60201b60201c565b6200048460201b60201c565b50620004726000801b620004666200047c60201b60201c565b6200055360201b60201c565b50505050620011c1565b600033905090565b6200049b82826200059b60201b62001eae1760201c565b620004c78160026000858152602001908152602001600020620005b160201b62001ebc1790919060201c565b505050565b60006001600084815260200190815260200160002060000160008373ffffffffffffffffffffffffffffffffffffffff1673ffffffffffffffffffffffffffffffffffffffff16815260200190815260200160002060009054906101000a900460ff16905092915050565b80600b90805190602001906200054f92919062000bb3565b5050565b6200056a8282620005e960201b62001eec1760201c565b620005968160026000858152602001908152602001600020620005b160201b62001ebc1790919060201c565b505050565b620005ad82826200063260201b60201c565b5050565b6000620005e1836000018373ffffffffffffffffffffffffffffffffffffffff1660001b6200072360201b60201c565b905092915050565b620005fa826200079d60201b60201c565b6200061b816200060f6200047c60201b60201c565b620007bd60201b60201c565b6200062d83836200063260201b60201c565b505050565b620006448282620004cc60201b60201c565b6200071f57600180600084815260200190815260200160002060000160008373ffffffffffffffffffffffffffffffffffffffff1673ffffffffffffffffffffffffffffffffffffffff16815260200190815260200160002060006101000a81548160ff021916908315150217905550620006c46200047c60201b60201c565b73ffffffffffffffffffffffffffffffffffffffff168173ffffffffffffffffffffffffffffffffffffffff16837f2f8788117e7eff1d82e926ec794901d17c78024a50270940304540a733656f0d60405160405180910390a45b5050565b60006200073783836200088160201b60201c565b6200079257826000018290806001815401808255809150506001900390600052602060002001600090919091909150558260000180549050836001016000848152602001908152602001600020819055506001905062000797565b600090505b92915050565b600060016000838152602001908152602001600020600101549050919050565b620007cf8282620004cc60201b60201c565b6200087d57620008028173ffffffffffffffffffffffffffffffffffffffff166014620008a460201b62001f151760201c565b6200081d8360001c6020620008a460201b62001f151760201c565b6040516020016200083092919062000ea3565b6040516020818303038152906040526040517f08c379a000000000000000000000000000000000000000000000000000000000815260040162000874919062000f12565b60405180910390fd5b5050565b600080836001016000848152602001908152602001600020541415905092915050565b606060006002836002620008b9919062000ffe565b620008c5919062000fa1565b67ffffffffffffffff81111562000905577f4e487b7100000000000000000000000000000000000000000000000000000000600052604160045260246000fd5b6040519080825280601f01601f191660200182016040528015620009385781602001600182028036833780820191505090505b5090507f30000000000000000000000000000000000000000000000000000000000000008160008151811062000997577f4e487b7100000000000000000000000000000000000000000000000000000000600052603260045260246000fd5b60200101907effffffffffffffffffffffffffffffffffffffffffffffffffffffffffffff1916908160001a9053507f78000000000000000000000000000000000000000000000000000000000000008160018151811062000a22577f4e487b7100000000000000000000000000000000000000000000000000000000600052603260045260246000fd5b60200101907effffffffffffffffffffffffffffffffffffffffffffffffffffffffffffff1916908160001a9053506000600184600262000a64919062000ffe565b62000a70919062000fa1565b90505b600181111562000b62577f3031323334353637383961626364656600000000000000000000000000000000600f86166010811062000ada577f4e487b7100000000000000000000000000000000000000000000000000000000600052603260045260246000fd5b1a60f81b82828151811062000b18577f4e487b7100000000000000000000000000000000000000000000000000000000600052603260045260246000fd5b60200101907effffffffffffffffffffffffffffffffffffffffffffffffffffffffffffff1916908160001a905350600485901c94508062000b5a90620010d3565b905062000a73565b506000841462000ba9576040517f08c379a000000000000000000000000000000000000000000000000000000000815260040162000ba09062000f36565b60405180910390fd5b8091505092915050565b82805462000bc19062001102565b90600052602060002090601f01602090048101928262000be5576000855562000c31565b82601f1062000c0057805160ff191683800117855562000c31565b8280016001018555821562000c31579182015b8281111562000c3057825182559160200191906001019062000c13565b5b50905062000c40919062000c44565b5090565b5b8082111562000c5f57600081600090555060010162000c45565b5090565b60008151905062000c7481620011a7565b92915050565b60006020828403121562000c8d57600080fd5b600062000c9d8482850162000c63565b91505092915050565b6000806000806080858703121562000cbd57600080fd5b600062000ccd8782880162000c63565b945050602062000ce08782880162000c63565b935050604062000cf38782880162000c63565b925050606062000d068782880162000c63565b91505092959194509250565b62000d1d816200105f565b82525050565b600062000d308262000f7a565b62000d3c818562000f85565b935062000d4e8185602086016200109d565b62000d598162001196565b840191505092915050565b600062000d718262000f7a565b62000d7d818562000f96565b935062000d8f8185602086016200109d565b80840191505092915050565b600062000daa60208362000f85565b91507f537472696e67733a20686578206c656e67746820696e73756666696369656e746000830152602082019050919050565b600062000dec60178362000f96565b91507f416363657373436f6e74726f6c3a206163636f756e74200000000000000000006000830152601782019050919050565b600062000e2e60128362000f85565b91507f446f6573206e6f74206861766520726f6c6500000000000000000000000000006000830152602082019050919050565b600062000e7060118362000f96565b91507f206973206d697373696e6720726f6c65200000000000000000000000000000006000830152601182019050919050565b600062000eb08262000ddd565b915062000ebe828562000d64565b915062000ecb8262000e61565b915062000ed9828462000d64565b91508190509392505050565b600060408201905062000efc600083018562000d12565b62000f0b602083018462000d12565b9392505050565b6000602082019050818103600083015262000f2e818462000d23565b905092915050565b6000602082019050818103600083015262000f518162000d9b565b9050919050565b6000602082019050818103600083015262000f738162000e1f565b9050919050565b600081519050919050565b600082825260208201905092915050565b600081905092915050565b600062000fae8262001093565b915062000fbb8362001093565b9250827fffffffffffffffffffffffffffffffffffffffffffffffffffffffffffffffff0382111562000ff35762000ff262001138565b5b828201905092915050565b60006200100b8262001093565b9150620010188362001093565b9250817fffffffffffffffffffffffffffffffffffffffffffffffffffffffffffffffff048311821515161562001054576200105362001138565b5b828202905092915050565b60006200106c8262001073565b9050919050565b600073ffffffffffffffffffffffffffffffffffffffff82169050919050565b6000819050919050565b60005b83811015620010bd578082015181840152602081019050620010a0565b83811115620010cd576000848401525b50505050565b6000620010e08262001093565b91506000821415620010f757620010f662001138565b5b600182039050919050565b600060028204905060018216806200111b57607f821691505b6020821081141562001132576200113162001167565b5b50919050565b7f4e487b7100000000000000000000000000000000000000000000000000000000600052601160045260246000fd5b7f4e487b7100000000000000000000000000000000000000000000000000000000600052602260045260246000fd5b6000601f19601f8301169050919050565b620011b2816200105f565b8114620011be57600080fd5b50565b616c8480620011d16000396000f3fe608060405234801561001057600080fd5b506004361061023c5760003560e01c80638456cb591161013b578063d179277d116100b8578063f23a6e611161007c578063f23a6e61146106fb578063f242432a1461072b578063f5298aca14610747578063fddc968e14610763578063feee2465146107935761023c565b8063d179277d14610657578063d539139314610673578063d547741f14610691578063e63ab1e9146106ad578063e985e9c5146106cb5761023c565b8063a22cb465116100ff578063a22cb4651461057b578063bc197c8114610597578063bf40fac1146105c7578063ca15c873146105f7578063cebe801f146106275761023c565b80638456cb59146104d75780639010d07c146104e157806391d14854146105115780639d4ea09514610541578063a217fddf1461055d5761023c565b80632f2ff15d116101c95780636b20c4541161018d5780636b20c45414610445578063731133e91461046157806373e3bfbd1461047d578063780410431461049b5780637abf0125146104b95761023c565b80632f2ff15d146103b557806336568abe146103d15780633f4ba83a146103ed5780634e1273f4146103f75780635c975abb146104275761023c565b8063160202731161021057806316020273146103015780631f7fdffa14610331578063248a9ca31461034d5780632bf4ec851461037d5780632eb2c2d6146103995761023c565b8062fdd58e1461024157806301ffc9a714610271578063077b0e4d146102a15780630e89341c146102d1575b600080fd5b61025b60048036038101906102569190614ce0565b6107af565b60405161026891906164b9565b60405180910390f35b61028b60048036038101906102869190614f5d565b610879565b6040516102989190616086565b60405180910390f35b6102bb60048036038101906102b6919061503f565b61088b565b6040516102c891906164b9565b60405180910390f35b6102eb60048036038101906102e6919061503f565b610920565b6040516102f891906160d7565b60405180910390f35b61031b60048036038101906103169190614faf565b6109b4565b60405161032891906164b9565b60405180910390f35b61034b60048036038101906103469190614bf9565b610a27565b005b61036760048036038101906103629190614ebc565b610aa9565b60405161037491906160a1565b60405180910390f35b61039760048036038101906103929190615091565b610ac9565b005b6103b360048036038101906103ae9190614a2c565b610c25565b005b6103cf60048036038101906103ca9190614ee5565b61101e565b005b6103eb60048036038101906103e69190614ee5565b611052565b005b6103f5611086565b005b610411600480360381019061040c9190614de6565b611100565b60405161041e919061602d565b60405180910390f35b61042f6112b1565b60405161043c9190616086565b60405180910390f35b61045f600480360381019061045a9190614b7a565b6112c8565b005b61047b60048036038101906104769190614d6b565b611365565b005b6104856113e7565b60405161049291906160a1565b60405180910390f35b6104a361140b565b6040516104b091906164b9565b60405180910390f35b6104c1611411565b6040516104ce91906164b9565b60405180910390f35b6104df611417565b005b6104fb60048036038101906104f69190614f21565b611491565b6040516105089190615ea9565b60405180910390f35b61052b60048036038101906105269190614ee5565b6114c0565b6040516105389190616086565b60405180910390f35b61055b600480360381019061055691906150e5565b61152b565b005b6105656115d4565b60405161057291906160a1565b60405180910390f35b61059560048036038101906105909190614ca4565b6115db565b005b6105b160048036038101906105ac9190614a2c565b61175c565b6040516105be91906160bc565b60405180910390f35b6105e160048036038101906105dc9190614faf565b611771565b6040516105ee9190615ea9565b60405180910390f35b610611600480360381019061060c9190614ebc565b611804565b60405161061e91906164b9565b60405180910390f35b610641600480360381019061063c919061503f565b611828565b60405161064e91906164b9565b60405180910390f35b610671600480360381019061066c9190615091565b61184c565b005b61067b6118f6565b60405161068891906160a1565b60405180910390f35b6106ab60048036038101906106a69190614ee5565b61191a565b005b6106b561194e565b6040516106c291906160a1565b60405180910390f35b6106e560048036038101906106e091906149f0565b611972565b6040516106f29190616086565b60405180910390f35b61071560048036038101906107109190614aeb565b611a06565b60405161072291906160bc565b60405180910390f35b61074560048036038101906107409190614aeb565b611a1b565b005b610761600480360381019061075c9190614d1c565b611d36565b005b61077d60048036038101906107789190614faf565b611dd3565b60405161078a9190616086565b60405180910390f35b6107ad60048036038101906107a8919061503f565b611e0a565b005b60008073ffffffffffffffffffffffffffffffffffffffff168373ffffffffffffffffffffffffffffffffffffffff161415610820576040517f08c379a0000000000000000000000000000000000000000000000000000000008152600401610817906161d9565b60405180910390fd5b6009600083815260200190815260200160002060008473ffffffffffffffffffffffffffffffffffffffff1673ffffffffffffffffffffffffffffffffffffffff16815260200190815260200160002054905092915050565b60006108848261220f565b9050919050565b6000600d8054905082106108d4576040517f08c379a00000000000000000000000000000000000000000000000000000000081526004016108cb90616199565b60405180910390fd5b600d828154811061090e577f4e487b7100000000000000000000000000000000000000000000000000000000600052603260045260246000fd5b90600052602060002001549050919050565b6060600b805461092f906169a2565b80601f016020809104026020016040519081016040528092919081815260200182805461095b906169a2565b80156109a85780601f1061097d576101008083540402835291602001916109a8565b820191906000526020600020905b81548152906001019060200180831161098b57829003601f168201915b50505050509050919050565b60006109bf82611dd3565b6109fe576040517f08c379a00000000000000000000000000000000000000000000000000000000081526004016109f5906163b9565b60405180910390fd5b600082604051610a0e9190615e58565b9081526020016040518091039020600101549050919050565b610a587f9f2df0fed2c77648de5860a4cc508cd0818c85b8b8a1ab4ceeef8d981c8956a6610a53612289565b6114c0565b610a97576040517f08c379a0000000000000000000000000000000000000000000000000000000008152600401610a8e90616359565b60405180910390fd5b610aa384848484612291565b50505050565b600060016000838152602001908152602001600020600101549050919050565b610ad281611dd3565b15610b12576040517f08c379a0000000000000000000000000000000000000000000000000000000008152600401610b0990616299565b60405180910390fd5b81600082604051610b239190615e58565b9081526020016040518091039020600101819055506001600082604051610b4a9190615e58565b908152602001604051809103902060000160006101000a81548160ff021916908315150217905550610b7a612289565b600082604051610b8a9190615e58565b908152602001604051809103902060020160006101000a81548173ffffffffffffffffffffffffffffffffffffffff021916908373ffffffffffffffffffffffffffffffffffffffff160217905550610be281611dd3565b610c21576040517f08c379a0000000000000000000000000000000000000000000000000000000008152600401610c18906163b9565b60405180910390fd5b5050565b8151835114610c69576040517f08c379a0000000000000000000000000000000000000000000000000000000008152600401610c6090616439565b60405180910390fd5b600073ffffffffffffffffffffffffffffffffffffffff168473ffffffffffffffffffffffffffffffffffffffff161415610cd9576040517f08c379a0000000000000000000000000000000000000000000000000000000008152600401610cd0906162f9565b60405180910390fd5b610ce1612289565b73ffffffffffffffffffffffffffffffffffffffff168573ffffffffffffffffffffffffffffffffffffffff161480610d275750610d2685610d21612289565b611972565b5b610d66576040517f08c379a0000000000000000000000000000000000000000000000000000000008152600401610d5d90616319565b60405180910390fd5b6000610d70612289565b9050610d808187878787876124fc565b60005b8451811015610f89576000858281518110610dc7577f4e487b7100000000000000000000000000000000000000000000000000000000600052603260045260246000fd5b602002602001015190506000858381518110610e0c577f4e487b7100000000000000000000000000000000000000000000000000000000600052603260045260246000fd5b6020026020010151905060006009600084815260200190815260200160002060008b73ffffffffffffffffffffffffffffffffffffffff1673ffffffffffffffffffffffffffffffffffffffff16815260200190815260200160002054905081811015610eae576040517f08c379a0000000000000000000000000000000000000000000000000000000008152600401610ea590616379565b60405180910390fd5b8181610eba9190616836565b6009600085815260200190815260200160002060008c73ffffffffffffffffffffffffffffffffffffffff1673ffffffffffffffffffffffffffffffffffffffff16815260200190815260200160002081905550816009600085815260200190815260200160002060008b73ffffffffffffffffffffffffffffffffffffffff1673ffffffffffffffffffffffffffffffffffffffff1681526020019081526020016000206000828254610f6e9190616755565b9250508190555050505080610f82906169d4565b9050610d83565b508473ffffffffffffffffffffffffffffffffffffffff168673ffffffffffffffffffffffffffffffffffffffff168273ffffffffffffffffffffffffffffffffffffffff167f4a39dc06d4c0dbc64b70af90fd698a233a518aa5d07e595d983b8c0526c8f7fb878760405161100092919061604f565b60405180910390a4611016818787878787612512565b505050505050565b6110288282611eec565b61104d8160026000858152602001908152602001600020611ebc90919063ffffffff16565b505050565b61105c82826126e2565b611081816002600085815260200190815260200160002061276590919063ffffffff16565b505050565b6110b77f65d7a28e3265b37a6474929f336521b332c1681b933f6cb9f3376673440d862a6110b2612289565b6114c0565b6110f6576040517f08c379a00000000000000000000000000000000000000000000000000000000081526004016110ed90616399565b60405180910390fd5b6110fe612795565b565b60608151835114611146576040517f08c379a000000000000000000000000000000000000000000000000000000000815260040161113d90616419565b60405180910390fd5b6000835167ffffffffffffffff811115611189577f4e487b7100000000000000000000000000000000000000000000000000000000600052604160045260246000fd5b6040519080825280602002602001820160405280156111b75781602001602082028036833780820191505090505b50905060005b84518110156112a657611250858281518110611202577f4e487b7100000000000000000000000000000000000000000000000000000000600052603260045260246000fd5b6020026020010151858381518110611243577f4e487b7100000000000000000000000000000000000000000000000000000000600052603260045260246000fd5b60200260200101516107af565b828281518110611289577f4e487b7100000000000000000000000000000000000000000000000000000000600052603260045260246000fd5b6020026020010181815250508061129f906169d4565b90506111bd565b508091505092915050565b6000600c60009054906101000a900460ff16905090565b6112d0612289565b73ffffffffffffffffffffffffffffffffffffffff168373ffffffffffffffffffffffffffffffffffffffff161480611316575061131583611310612289565b611972565b5b611355576040517f08c379a000000000000000000000000000000000000000000000000000000000815260040161134c90616239565b60405180910390fd5b611360838383612837565b505050565b6113967f9f2df0fed2c77648de5860a4cc508cd0818c85b8b8a1ab4ceeef8d981c8956a6611391612289565b6114c0565b6113d5576040517f08c379a00000000000000000000000000000000000000000000000000000000081526004016113cc90616359565b60405180910390fd5b6113e184848484612b3f565b50505050565b7f9f2df0fed2c77648de5860a4cc508cd0818c85b8b8a1ab4ceeef8d981c8956a681565b600e5481565b600f5481565b6114487f65d7a28e3265b37a6474929f336521b332c1681b933f6cb9f3376673440d862a611443612289565b6114c0565b611487576040517f08c379a000000000000000000000000000000000000000000000000000000000815260040161147e906163d9565b60405180910390fd5b61148f612cd6565b565b60006114b88260026000868152602001908152602001600020612d7990919063ffffffff16565b905092915050565b60006001600084815260200190815260200160002060000160008373ffffffffffffffffffffffffffffffffffffffff1673ffffffffffffffffffffffffffffffffffffffff16815260200190815260200160002060009054906101000a900460ff16905092915050565b61153482612d93565b600460009054906101000a900473ffffffffffffffffffffffffffffffffffffffff1673ffffffffffffffffffffffffffffffffffffffff166339a8c66183306040518363ffffffff1660e01b81526004016115919291906164d4565b600060405180830381600087803b1580156115ab57600080fd5b505af11580156115bf573d6000803e3d6000fd5b505050506115d0826103ca83612e60565b5050565b6000801b81565b8173ffffffffffffffffffffffffffffffffffffffff166115fa612289565b73ffffffffffffffffffffffffffffffffffffffff161415611651576040517f08c379a0000000000000000000000000000000000000000000000000000000008152600401611648906163f9565b60405180910390fd5b80600a600061165e612289565b73ffffffffffffffffffffffffffffffffffffffff1673ffffffffffffffffffffffffffffffffffffffff16815260200190815260200160002060008473ffffffffffffffffffffffffffffffffffffffff1673ffffffffffffffffffffffffffffffffffffffff16815260200190815260200160002060006101000a81548160ff0219169083151502179055508173ffffffffffffffffffffffffffffffffffffffff1661170b612289565b73ffffffffffffffffffffffffffffffffffffffff167f17307eab39ab6107e8899845ad3d59bd9653f200f220920489ca2b5937696c31836040516117509190616086565b60405180910390a35050565b600063bc197c8160e01b905095945050505050565b600061177c82611dd3565b6117bb576040517f08c379a00000000000000000000000000000000000000000000000000000000081526004016117b2906163b9565b60405180910390fd5b6000826040516117cb9190615e58565b908152602001604051809103902060020160009054906101000a900473ffffffffffffffffffffffffffffffffffffffff169050919050565b60006118216002600084815260200190815260200160002061340f565b9050919050565b600d818154811061183857600080fd5b906000526020600020016000915090505481565b60006118588383613424565b9050600360009054906101000a900473ffffffffffffffffffffffffffffffffffffffff1673ffffffffffffffffffffffffffffffffffffffff166339a8c661826118a285611771565b6040518363ffffffff1660e01b81526004016118bf9291906164d4565b600060405180830381600087803b1580156118d957600080fd5b505af11580156118ed573d6000803e3d6000fd5b50505050505050565b7f9f2df0fed2c77648de5860a4cc508cd0818c85b8b8a1ab4ceeef8d981c8956a681565b6119248282613518565b611949816002600085815260200190815260200160002061276590919063ffffffff16565b505050565b7f65d7a28e3265b37a6474929f336521b332c1681b933f6cb9f3376673440d862a81565b6000600a60008473ffffffffffffffffffffffffffffffffffffffff1673ffffffffffffffffffffffffffffffffffffffff16815260200190815260200160002060008373ffffffffffffffffffffffffffffffffffffffff1673ffffffffffffffffffffffffffffffffffffffff16815260200190815260200160002060009054906101000a900460ff16905092915050565b600063f23a6e6160e01b905095945050505050565b600073ffffffffffffffffffffffffffffffffffffffff168473ffffffffffffffffffffffffffffffffffffffff161415611a8b576040517f08c379a0000000000000000000000000000000000000000000000000000000008152600401611a82906162f9565b60405180910390fd5b611a93612289565b73ffffffffffffffffffffffffffffffffffffffff168573ffffffffffffffffffffffffffffffffffffffff161480611ad95750611ad885611ad3612289565b611972565b5b611b18576040517f08c379a0000000000000000000000000000000000000000000000000000000008152600401611b0f90616239565b60405180910390fd5b6000611b22612289565b9050611b42818787611b3388613541565b611b3c88613541565b876124fc565b60006009600086815260200190815260200160002060008873ffffffffffffffffffffffffffffffffffffffff1673ffffffffffffffffffffffffffffffffffffffff16815260200190815260200160002054905083811015611bda576040517f08c379a0000000000000000000000000000000000000000000000000000000008152600401611bd190616379565b60405180910390fd5b8381611be69190616836565b6009600087815260200190815260200160002060008973ffffffffffffffffffffffffffffffffffffffff1673ffffffffffffffffffffffffffffffffffffffff16815260200190815260200160002081905550836009600087815260200190815260200160002060008873ffffffffffffffffffffffffffffffffffffffff1673ffffffffffffffffffffffffffffffffffffffff1681526020019081526020016000206000828254611c9a9190616755565b925050819055508573ffffffffffffffffffffffffffffffffffffffff168773ffffffffffffffffffffffffffffffffffffffff168373ffffffffffffffffffffffffffffffffffffffff167fc3d58168c5ae7397731d063d5bbf3d657854427343f4c083240f7aacaa2d0f628888604051611d17929190616534565b60405180910390a4611d2d828888888888613607565b50505050505050565b611d3e612289565b73ffffffffffffffffffffffffffffffffffffffff168373ffffffffffffffffffffffffffffffffffffffff161480611d845750611d8383611d7e612289565b611972565b5b611dc3576040517f08c379a0000000000000000000000000000000000000000000000000000000008152600401611dba90616239565b60405180910390fd5b611dce8383836137d7565b505050565b60008082604051611de49190615e58565b908152602001604051809103902060000160009054906101000a900460ff169050919050565b611e1381612d93565b600460009054906101000a900473ffffffffffffffffffffffffffffffffffffffff1673ffffffffffffffffffffffffffffffffffffffff166339a8c66182306040518363ffffffff1660e01b8152600401611e709291906164d4565b600060405180830381600087803b158015611e8a57600080fd5b505af1158015611e9e573d6000803e3d6000fd5b50505050611eab816139ff565b50565b611eb88282613ea6565b5050565b6000611ee4836000018373ffffffffffffffffffffffffffffffffffffffff1660001b613f86565b905092915050565b611ef582610aa9565b611f0681611f01612289565b613ff6565b611f108383613ea6565b505050565b606060006002836002611f2891906167dc565b611f329190616755565b67ffffffffffffffff811115611f71577f4e487b7100000000000000000000000000000000000000000000000000000000600052604160045260246000fd5b6040519080825280601f01601f191660200182016040528015611fa35781602001600182028036833780820191505090505b5090507f300000000000000000000000000000000000000000000000000000000000000081600081518110612001577f4e487b7100000000000000000000000000000000000000000000000000000000600052603260045260246000fd5b60200101907effffffffffffffffffffffffffffffffffffffffffffffffffffffffffffff1916908160001a9053507f78000000000000000000000000000000000000000000000000000000000000008160018151811061208b577f4e487b7100000000000000000000000000000000000000000000000000000000600052603260045260246000fd5b60200101907effffffffffffffffffffffffffffffffffffffffffffffffffffffffffffff1916908160001a905350600060018460026120cb91906167dc565b6120d59190616755565b90505b60018111156121c1577f3031323334353637383961626364656600000000000000000000000000000000600f86166010811061213d577f4e487b7100000000000000000000000000000000000000000000000000000000600052603260045260246000fd5b1a60f81b82828151811061217a577f4e487b7100000000000000000000000000000000000000000000000000000000600052603260045260246000fd5b60200101907effffffffffffffffffffffffffffffffffffffffffffffffffffffffffffff1916908160001a905350600485901c9450806121ba90616978565b90506120d8565b5060008414612205576040517f08c379a00000000000000000000000000000000000000000000000000000000081526004016121fc90616139565b60405180910390fd5b8091505092915050565b60007f4e2312e0000000000000000000000000000000000000000000000000000000007bffffffffffffffffffffffffffffffffffffffffffffffffffffffff1916827bffffffffffffffffffffffffffffffffffffffffffffffffffffffff19161480612282575061228182614093565b5b9050919050565b600033905090565b600073ffffffffffffffffffffffffffffffffffffffff168473ffffffffffffffffffffffffffffffffffffffff161415612301576040517f08c379a00000000000000000000000000000000000000000000000000000000081526004016122f890616459565b60405180910390fd5b8151835114612345576040517f08c379a000000000000000000000000000000000000000000000000000000000815260040161233c90616439565b60405180910390fd5b600061234f612289565b9050612360816000878787876124fc565b60005b8451811015612466578381815181106123a5577f4e487b7100000000000000000000000000000000000000000000000000000000600052603260045260246000fd5b6020026020010151600960008784815181106123ea577f4e487b7100000000000000000000000000000000000000000000000000000000600052603260045260246000fd5b6020026020010151815260200190815260200160002060008873ffffffffffffffffffffffffffffffffffffffff1673ffffffffffffffffffffffffffffffffffffffff168152602001908152602001600020600082825461244c9190616755565b92505081905550808061245e906169d4565b915050612363565b508473ffffffffffffffffffffffffffffffffffffffff16600073ffffffffffffffffffffffffffffffffffffffff168273ffffffffffffffffffffffffffffffffffffffff167f4a39dc06d4c0dbc64b70af90fd698a233a518aa5d07e595d983b8c0526c8f7fb87876040516124de92919061604f565b60405180910390a46124f581600087878787612512565b5050505050565b61250a8686868686866140a5565b505050505050565b6125318473ffffffffffffffffffffffffffffffffffffffff16614103565b156126da578373ffffffffffffffffffffffffffffffffffffffff1663bc197c8187878686866040518663ffffffff1660e01b8152600401612577959493929190615ec4565b602060405180830381600087803b15801561259157600080fd5b505af19250505080156125c257506040513d601f19601f820116820180604052508101906125bf9190614f86565b60015b612651576125ce616af7565b806125d95750612616565b806040517f08c379a000000000000000000000000000000000000000000000000000000000815260040161260d91906160d7565b60405180910390fd5b6040517f08c379a0000000000000000000000000000000000000000000000000000000008152600401612648906160f9565b60405180910390fd5b63bc197c8160e01b7bffffffffffffffffffffffffffffffffffffffffffffffffffffffff1916817bffffffffffffffffffffffffffffffffffffffffffffffffffffffff1916146126d8576040517f08c379a00000000000000000000000000000000000000000000000000000000081526004016126cf90616159565b60405180910390fd5b505b505050505050565b6126ea612289565b73ffffffffffffffffffffffffffffffffffffffff168173ffffffffffffffffffffffffffffffffffffffff1614612757576040517f08c379a000000000000000000000000000000000000000000000000000000000815260040161274e90616499565b60405180910390fd5b6127618282614116565b5050565b600061278d836000018373ffffffffffffffffffffffffffffffffffffffff1660001b6141f8565b905092915050565b61279d6112b1565b6127dc576040517f08c379a00000000000000000000000000000000000000000000000000000000081526004016127d390616179565b60405180910390fd5b6000600c60006101000a81548160ff0219169083151502179055507f5db9ee0a495bf2e6ff9c91a7834c1ba4fdd244a5e8aa4e537bd38aeae4b073aa612820612289565b60405161282d9190615ea9565b60405180910390a1565b600073ffffffffffffffffffffffffffffffffffffffff168373ffffffffffffffffffffffffffffffffffffffff1614156128a7576040517f08c379a000000000000000000000000000000000000000000000000000000000815260040161289e90616339565b60405180910390fd5b80518251146128eb576040517f08c379a00000000000000000000000000000000000000000000000000000000081526004016128e290616439565b60405180910390fd5b60006128f5612289565b9050612915818560008686604051806020016040528060008152506124fc565b60005b8351811015612ab957600084828151811061295c577f4e487b7100000000000000000000000000000000000000000000000000000000600052603260045260246000fd5b6020026020010151905060008483815181106129a1577f4e487b7100000000000000000000000000000000000000000000000000000000600052603260045260246000fd5b6020026020010151905060006009600084815260200190815260200160002060008973ffffffffffffffffffffffffffffffffffffffff1673ffffffffffffffffffffffffffffffffffffffff16815260200190815260200160002054905081811015612a43576040517f08c379a0000000000000000000000000000000000000000000000000000000008152600401612a3a906161f9565b60405180910390fd5b8181612a4f9190616836565b6009600085815260200190815260200160002060008a73ffffffffffffffffffffffffffffffffffffffff1673ffffffffffffffffffffffffffffffffffffffff168152602001908152602001600020819055505050508080612ab1906169d4565b915050612918565b50600073ffffffffffffffffffffffffffffffffffffffff168473ffffffffffffffffffffffffffffffffffffffff168273ffffffffffffffffffffffffffffffffffffffff167f4a39dc06d4c0dbc64b70af90fd698a233a518aa5d07e595d983b8c0526c8f7fb8686604051612b3192919061604f565b60405180910390a450505050565b600073ffffffffffffffffffffffffffffffffffffffff168473ffffffffffffffffffffffffffffffffffffffff161415612baf576040517f08c379a0000000000000000000000000000000000000000000000000000000008152600401612ba690616459565b60405180910390fd5b6000612bb9612289565b9050612bda81600087612bcb88613541565b612bd488613541565b876124fc565b826009600086815260200190815260200160002060008773ffffffffffffffffffffffffffffffffffffffff1673ffffffffffffffffffffffffffffffffffffffff1681526020019081526020016000206000828254612c3a9190616755565b925050819055508473ffffffffffffffffffffffffffffffffffffffff16600073ffffffffffffffffffffffffffffffffffffffff168273ffffffffffffffffffffffffffffffffffffffff167fc3d58168c5ae7397731d063d5bbf3d657854427343f4c083240f7aacaa2d0f628787604051612cb8929190616534565b60405180910390a4612ccf81600087878787613607565b5050505050565b612cde6112b1565b15612d1e576040517f08c379a0000000000000000000000000000000000000000000000000000000008152600401612d15906162b9565b60405180910390fd5b6001600c60006101000a81548160ff0219169083151502179055507f62e78cea01bee320cd4e420270b5ea74000d11b0c9f74754ebdbfc544b05a258612d62612289565b604051612d6f9190615ea9565b60405180910390a1565b6000612d888360000183614376565b60001c905092915050565b612da76000801b612da2612289565b6114c0565b612de6576040517f08c379a0000000000000000000000000000000000000000000000000000000008152600401612ddd906161b9565b60405180910390fd5b612e0330600f548360405180602001604052806000815250611365565b600f6000815480929190612e16906169d4565b919050555080600e6000828254612e2d9190616755565b92505081905550600d81908060018154018082558091505060019003906000526020600020016000909190919091505550565b6103e88210612e6e57600080fd5b6000600267ffffffffffffffff811115612eb1577f4e487b7100000000000000000000000000000000000000000000000000000000600052604160045260246000fd5b604051908082528060200260200182016040528015612edf5781602001602082028036833780820191505090505b509050600460009054906101000a900473ffffffffffffffffffffffffffffffffffffffff1681600081518110612f3f577f4e487b7100000000000000000000000000000000000000000000000000000000600052603260045260246000fd5b602002602001019073ffffffffffffffffffffffffffffffffffffffff16908173ffffffffffffffffffffffffffffffffffffffff1681525050600360009054906101000a900473ffffffffffffffffffffffffffffffffffffffff1681600181518110612fd6577f4e487b7100000000000000000000000000000000000000000000000000000000600052603260045260246000fd5b602002602001019073ffffffffffffffffffffffffffffffffffffffff16908173ffffffffffffffffffffffffffffffffffffffff1681525050600460009054906101000a900473ffffffffffffffffffffffffffffffffffffffff1673ffffffffffffffffffffffffffffffffffffffff1663095ea7b3600860009054906101000a900473ffffffffffffffffffffffffffffffffffffffff16866040518363ffffffff1660e01b815260040161308f929190616004565b602060405180830381600087803b1580156130a957600080fd5b505af11580156130bd573d6000803e3d6000fd5b505050506040513d601f19601f820116820180604052508101906130e19190614e93565b613120576040517f08c379a000000000000000000000000000000000000000000000000000000000815260040161311790616279565b60405180910390fd5b83600460009054906101000a900473ffffffffffffffffffffffffffffffffffffffff1673ffffffffffffffffffffffffffffffffffffffff166370a08231306040518263ffffffff1660e01b815260040161317c9190615ea9565b60206040518083038186803b15801561319457600080fd5b505afa1580156131a8573d6000803e3d6000fd5b505050506040513d601f19601f820116820180604052508101906131cc9190615068565b10156131d757600080fd5b600080600760009054906101000a900473ffffffffffffffffffffffffffffffffffffffff1673ffffffffffffffffffffffffffffffffffffffff16630902f1ac6040518163ffffffff1660e01b815260040160606040518083038186803b15801561324257600080fd5b505afa158015613256573d6000803e3d6000fd5b505050506040513d601f19601f8201168201806040525081019061327a9190614ff0565b50915091506000600660009054906101000a900473ffffffffffffffffffffffffffffffffffffffff1673ffffffffffffffffffffffffffffffffffffffff1663054d50d48885856040518463ffffffff1660e01b81526004016132e0939291906164fd565b60206040518083038186803b1580156132f857600080fd5b505afa15801561330c573d6000803e3d6000fd5b505050506040513d601f19601f820116820180604052508101906133309190615068565b9050600660009054906101000a900473ffffffffffffffffffffffffffffffffffffffff1673ffffffffffffffffffffffffffffffffffffffff166338ed1739886103e8898561338091906167dc565b61338a91906167ab565b876000426040518663ffffffff1660e01b81526004016133ae95949392919061655d565b600060405180830381600087803b1580156133c857600080fd5b505af11580156133dc573d6000803e3d6000fd5b505050506040513d6000823e3d601f19601f820116820180604052508101906134059190614e52565b5050505050505050565b600061341d82600001614410565b9050919050565b600061342f82611dd3565b61346e576040517f08c379a0000000000000000000000000000000000000000000000000000000008152600401613465906163b9565b60405180910390fd5b82613478836109b4565b106134b8576040517f08c379a00000000000000000000000000000000000000000000000000000000081526004016134af906162d9565b60405180910390fd5b600080836040516134c99190615e58565b908152602001604051809103902060010154846134e69190616836565b9050836000846040516134f99190615e58565b9081526020016040518091039020600101819055508091505092915050565b61352182610aa9565b6135328161352d612289565b613ff6565b61353c8383614116565b505050565b60606000600167ffffffffffffffff811115613586577f4e487b7100000000000000000000000000000000000000000000000000000000600052604160045260246000fd5b6040519080825280602002602001820160405280156135b45781602001602082028036833780820191505090505b50905082816000815181106135f2577f4e487b7100000000000000000000000000000000000000000000000000000000600052603260045260246000fd5b60200260200101818152505080915050919050565b6136268473ffffffffffffffffffffffffffffffffffffffff16614103565b156137cf578373ffffffffffffffffffffffffffffffffffffffff1663f23a6e6187878686866040518663ffffffff1660e01b815260040161366c959493929190615f2c565b602060405180830381600087803b15801561368657600080fd5b505af19250505080156136b757506040513d601f19601f820116820180604052508101906136b49190614f86565b60015b613746576136c3616af7565b806136ce575061370b565b806040517f08c379a000000000000000000000000000000000000000000000000000000000815260040161370291906160d7565b60405180910390fd5b6040517f08c379a000000000000000000000000000000000000000000000000000000000815260040161373d906160f9565b60405180910390fd5b63f23a6e6160e01b7bffffffffffffffffffffffffffffffffffffffffffffffffffffffff1916817bffffffffffffffffffffffffffffffffffffffffffffffffffffffff1916146137cd576040517f08c379a00000000000000000000000000000000000000000000000000000000081526004016137c490616159565b60405180910390fd5b505b505050505050565b600073ffffffffffffffffffffffffffffffffffffffff168373ffffffffffffffffffffffffffffffffffffffff161415613847576040517f08c379a000000000000000000000000000000000000000000000000000000000815260040161383e90616339565b60405180910390fd5b6000613851612289565b90506138818185600061386387613541565b61386c87613541565b604051806020016040528060008152506124fc565b60006009600085815260200190815260200160002060008673ffffffffffffffffffffffffffffffffffffffff1673ffffffffffffffffffffffffffffffffffffffff16815260200190815260200160002054905082811015613919576040517f08c379a0000000000000000000000000000000000000000000000000000000008152600401613910906161f9565b60405180910390fd5b82816139259190616836565b6009600086815260200190815260200160002060008773ffffffffffffffffffffffffffffffffffffffff1673ffffffffffffffffffffffffffffffffffffffff16815260200190815260200160002081905550600073ffffffffffffffffffffffffffffffffffffffff168573ffffffffffffffffffffffffffffffffffffffff168373ffffffffffffffffffffffffffffffffffffffff167fc3d58168c5ae7397731d063d5bbf3d657854427343f4c083240f7aacaa2d0f6287876040516139f0929190616534565b60405180910390a45050505050565b600360009054906101000a900473ffffffffffffffffffffffffffffffffffffffff1673ffffffffffffffffffffffffffffffffffffffff1663095ea7b3600660009054906101000a900473ffffffffffffffffffffffffffffffffffffffff16836040518363ffffffff1660e01b8152600401613a7e929190616004565b602060405180830381600087803b158015613a9857600080fd5b505af1158015613aac573d6000803e3d6000fd5b505050506040513d601f19601f82011682018060405250810190613ad09190614e93565b613b0f576040517f08c379a0000000000000000000000000000000000000000000000000000000008152600401613b0690616259565b60405180910390fd5b600460009054906101000a900473ffffffffffffffffffffffffffffffffffffffff1673ffffffffffffffffffffffffffffffffffffffff1663095ea7b3600660009054906101000a900473ffffffffffffffffffffffffffffffffffffffff16836040518363ffffffff1660e01b8152600401613b8e929190616004565b602060405180830381600087803b158015613ba857600080fd5b505af1158015613bbc573d6000803e3d6000fd5b505050506040513d601f19601f82011682018060405250810190613be09190614e93565b613c1f576040517f08c379a0000000000000000000000000000000000000000000000000000000008152600401613c1690616279565b60405180910390fd5b600360009054906101000a900473ffffffffffffffffffffffffffffffffffffffff1673ffffffffffffffffffffffffffffffffffffffff166339a8c66182306040518363ffffffff1660e01b8152600401613c7c9291906164d4565b600060405180830381600087803b158015613c9657600080fd5b505af1158015613caa573d6000803e3d6000fd5b50505050600660009054906101000a900473ffffffffffffffffffffffffffffffffffffffff1673ffffffffffffffffffffffffffffffffffffffff1663e8e33700600360009054906101000a900473ffffffffffffffffffffffffffffffffffffffff16600460009054906101000a900473ffffffffffffffffffffffffffffffffffffffff168485868760006402540be3ff6040518963ffffffff1660e01b8152600401613d61989796959493929190615f86565b606060405180830381600087803b158015613d7b57600080fd5b505af1158015613d8f573d6000803e3d6000fd5b505050506040513d601f19601f82011682018060405250810190613db39190615121565b50505080600760009054906101000a900473ffffffffffffffffffffffffffffffffffffffff1673ffffffffffffffffffffffffffffffffffffffff166370a0823160006040518263ffffffff1660e01b8152600401613e139190615ea9565b60206040518083038186803b158015613e2b57600080fd5b505afa158015613e3f573d6000803e3d6000fd5b505050506040513d601f19601f82011682018060405250810190613e639190615068565b14613ea3576040517f08c379a0000000000000000000000000000000000000000000000000000000008152600401613e9a90616479565b60405180910390fd5b50565b613eb082826114c0565b613f8257600180600084815260200190815260200160002060000160008373ffffffffffffffffffffffffffffffffffffffff1673ffffffffffffffffffffffffffffffffffffffff16815260200190815260200160002060006101000a81548160ff021916908315150217905550613f27612289565b73ffffffffffffffffffffffffffffffffffffffff168173ffffffffffffffffffffffffffffffffffffffff16837f2f8788117e7eff1d82e926ec794901d17c78024a50270940304540a733656f0d60405160405180910390a45b5050565b6000613f928383614421565b613feb578260000182908060018154018082558091505060019003906000526020600020016000909190919091505582600001805490508360010160008481526020019081526020016000208190555060019050613ff0565b600090505b92915050565b61400082826114c0565b61408f576140258173ffffffffffffffffffffffffffffffffffffffff166014611f15565b6140338360001c6020611f15565b604051602001614044929190615e6f565b6040516020818303038152906040526040517f08c379a000000000000000000000000000000000000000000000000000000000815260040161408691906160d7565b60405180910390fd5b5050565b600061409e82614444565b9050919050565b6140b3868686868686614526565b6140bb6112b1565b156140fb576040517f08c379a00000000000000000000000000000000000000000000000000000000081526004016140f290616219565b60405180910390fd5b505050505050565b600080823b905060008111915050919050565b61412082826114c0565b156141f45760006001600084815260200190815260200160002060000160008373ffffffffffffffffffffffffffffffffffffffff1673ffffffffffffffffffffffffffffffffffffffff16815260200190815260200160002060006101000a81548160ff021916908315150217905550614199612289565b73ffffffffffffffffffffffffffffffffffffffff168173ffffffffffffffffffffffffffffffffffffffff16837ff6391f5c32d9c69d2a47ea670b442974b53935d1edc7fd64eb21e047a839171b60405160405180910390a45b5050565b6000808360010160008481526020019081526020016000205490506000811461436a57600060018261422a9190616836565b90506000600186600001805490506142429190616836565b90506000866000018281548110614282577f4e487b7100000000000000000000000000000000000000000000000000000000600052603260045260246000fd5b90600052602060002001549050808760000184815481106142cc577f4e487b7100000000000000000000000000000000000000000000000000000000600052603260045260246000fd5b906000526020600020018190555083876001016000838152602001908152602001600020819055508660000180548061432e577f4e487b7100000000000000000000000000000000000000000000000000000000600052603160045260246000fd5b60019003818190600052602060002001600090559055866001016000878152602001908152602001600020600090556001945050505050614370565b60009150505b92915050565b6000818360000180549050116143c1576040517f08c379a00000000000000000000000000000000000000000000000000000000081526004016143b890616119565b60405180910390fd5b8260000182815481106143fd577f4e487b7100000000000000000000000000000000000000000000000000000000600052603260045260246000fd5b9060005260206000200154905092915050565b600081600001805490509050919050565b600080836001016000848152602001908152602001600020541415905092915050565b60007fd9b67a26000000000000000000000000000000000000000000000000000000007bffffffffffffffffffffffffffffffffffffffffffffffffffffffff1916827bffffffffffffffffffffffffffffffffffffffffffffffffffffffff1916148061450f57507f0e89341c000000000000000000000000000000000000000000000000000000007bffffffffffffffffffffffffffffffffffffffffffffffffffffffff1916827bffffffffffffffffffffffffffffffffffffffffffffffffffffffff1916145b8061451f575061451e8261452e565b5b9050919050565b505050505050565b60007f5a05180f000000000000000000000000000000000000000000000000000000007bffffffffffffffffffffffffffffffffffffffffffffffffffffffff1916827bffffffffffffffffffffffffffffffffffffffffffffffffffffffff191614806145a157506145a0826145a8565b5b9050919050565b60007f7965db0b000000000000000000000000000000000000000000000000000000007bffffffffffffffffffffffffffffffffffffffffffffffffffffffff1916827bffffffffffffffffffffffffffffffffffffffffffffffffffffffff1916148061461b575061461a82614622565b5b9050919050565b60007f01ffc9a7000000000000000000000000000000000000000000000000000000007bffffffffffffffffffffffffffffffffffffffffffffffffffffffff1916827bffffffffffffffffffffffffffffffffffffffffffffffffffffffff1916149050919050565b600061469f61469a846165e8565b6165b7565b905080838252602082019050828560208602820111156146be57600080fd5b60005b858110156146ee57816146d4888261484c565b8452602084019350602083019250506001810190506146c1565b5050509392505050565b600061470b61470684616614565b6165b7565b9050808382526020820190508285602086028201111561472a57600080fd5b60005b8581101561475a578161474088826149b1565b84526020840193506020830192505060018101905061472d565b5050509392505050565b600061477761477284616614565b6165b7565b9050808382526020820190508285602086028201111561479657600080fd5b60005b858110156147c657816147ac88826149c6565b845260208401935060208301925050600181019050614799565b5050509392505050565b60006147e36147de84616640565b6165b7565b9050828152602081018484840111156147fb57600080fd5b614806848285616936565b509392505050565b600061482161481c84616670565b6165b7565b90508281526020810184848401111561483957600080fd5b614844848285616936565b509392505050565b60008135905061485b81616bad565b92915050565b600082601f83011261487257600080fd5b813561488284826020860161468c565b91505092915050565b600082601f83011261489c57600080fd5b81356148ac8482602086016146f8565b91505092915050565b600082601f8301126148c657600080fd5b81516148d6848260208601614764565b91505092915050565b6000813590506148ee81616bc4565b92915050565b60008151905061490381616bc4565b92915050565b60008135905061491881616bdb565b92915050565b60008135905061492d81616bf2565b92915050565b60008151905061494281616bf2565b92915050565b600082601f83011261495957600080fd5b81356149698482602086016147d0565b91505092915050565b600082601f83011261498357600080fd5b813561499384826020860161480e565b91505092915050565b6000815190506149ab81616c09565b92915050565b6000813590506149c081616c20565b92915050565b6000815190506149d581616c20565b92915050565b6000815190506149ea81616c37565b92915050565b60008060408385031215614a0357600080fd5b6000614a118582860161484c565b9250506020614a228582860161484c565b9150509250929050565b600080600080600060a08688031215614a4457600080fd5b6000614a528882890161484c565b9550506020614a638882890161484c565b945050604086013567ffffffffffffffff811115614a8057600080fd5b614a8c8882890161488b565b935050606086013567ffffffffffffffff811115614aa957600080fd5b614ab58882890161488b565b925050608086013567ffffffffffffffff811115614ad257600080fd5b614ade88828901614948565b9150509295509295909350565b600080600080600060a08688031215614b0357600080fd5b6000614b118882890161484c565b9550506020614b228882890161484c565b9450506040614b33888289016149b1565b9350506060614b44888289016149b1565b925050608086013567ffffffffffffffff811115614b6157600080fd5b614b6d88828901614948565b9150509295509295909350565b600080600060608486031215614b8f57600080fd5b6000614b9d8682870161484c565b935050602084013567ffffffffffffffff811115614bba57600080fd5b614bc68682870161488b565b925050604084013567ffffffffffffffff811115614be357600080fd5b614bef8682870161488b565b9150509250925092565b60008060008060808587031215614c0f57600080fd5b6000614c1d8782880161484c565b945050602085013567ffffffffffffffff811115614c3a57600080fd5b614c468782880161488b565b935050604085013567ffffffffffffffff811115614c6357600080fd5b614c6f8782880161488b565b925050606085013567ffffffffffffffff811115614c8c57600080fd5b614c9887828801614948565b91505092959194509250565b60008060408385031215614cb757600080fd5b6000614cc58582860161484c565b9250506020614cd6858286016148df565b9150509250929050565b60008060408385031215614cf357600080fd5b6000614d018582860161484c565b9250506020614d12858286016149b1565b9150509250929050565b600080600060608486031215614d3157600080fd5b6000614d3f8682870161484c565b9350506020614d50868287016149b1565b9250506040614d61868287016149b1565b9150509250925092565b60008060008060808587031215614d8157600080fd5b6000614d8f8782880161484c565b9450506020614da0878288016149b1565b9350506040614db1878288016149b1565b925050606085013567ffffffffffffffff811115614dce57600080fd5b614dda87828801614948565b91505092959194509250565b60008060408385031215614df957600080fd5b600083013567ffffffffffffffff811115614e1357600080fd5b614e1f85828601614861565b925050602083013567ffffffffffffffff811115614e3c57600080fd5b614e488582860161488b565b9150509250929050565b600060208284031215614e6457600080fd5b600082015167ffffffffffffffff811115614e7e57600080fd5b614e8a848285016148b5565b91505092915050565b600060208284031215614ea557600080fd5b6000614eb3848285016148f4565b91505092915050565b600060208284031215614ece57600080fd5b6000614edc84828501614909565b91505092915050565b60008060408385031215614ef857600080fd5b6000614f0685828601614909565b9250506020614f178582860161484c565b9150509250929050565b60008060408385031215614f3457600080fd5b6000614f4285828601614909565b9250506020614f53858286016149b1565b9150509250929050565b600060208284031215614f6f57600080fd5b6000614f7d8482850161491e565b91505092915050565b600060208284031215614f9857600080fd5b6000614fa684828501614933565b91505092915050565b600060208284031215614fc157600080fd5b600082013567ffffffffffffffff811115614fdb57600080fd5b614fe784828501614972565b91505092915050565b60008060006060848603121561500557600080fd5b60006150138682870161499c565b93505060206150248682870161499c565b9250506040615035868287016149db565b9150509250925092565b60006020828403121561505157600080fd5b600061505f848285016149b1565b91505092915050565b60006020828403121561507a57600080fd5b6000615088848285016149c6565b91505092915050565b600080604083850312156150a457600080fd5b60006150b2858286016149b1565b925050602083013567ffffffffffffffff8111156150cf57600080fd5b6150db85828601614972565b9150509250929050565b600080604083850312156150f857600080fd5b6000615106858286016149b1565b9250506020615117858286016149b1565b9150509250929050565b60008060006060848603121561513657600080fd5b6000615144868287016149c6565b9350506020615155868287016149c6565b9250506040615166868287016149c6565b9150509250925092565b600061517c83836151a0565b60208301905092915050565b60006151948383615e3a565b60208301905092915050565b6151a98161686a565b82525050565b6151b88161686a565b82525050565b60006151c9826166c0565b6151d38185616706565b93506151de836166a0565b8060005b8381101561520f5781516151f68882615170565b9750615201836166ec565b9250506001810190506151e2565b5085935050505092915050565b6000615227826166cb565b6152318185616717565b935061523c836166b0565b8060005b8381101561526d5781516152548882615188565b975061525f836166f9565b925050600181019050615240565b5085935050505092915050565b6152838161687c565b82525050565b61529281616888565b82525050565b6152a181616892565b82525050565b60006152b2826166d6565b6152bc8185616728565b93506152cc818560208601616945565b6152d581616ad9565b840191505092915050565b6152e981616912565b82525050565b60006152fa826166e1565b6153048185616739565b9350615314818560208601616945565b61531d81616ad9565b840191505092915050565b6000615333826166e1565b61533d818561674a565b935061534d818560208601616945565b80840191505092915050565b6000615366603483616739565b91507f455243313135353a207472616e7366657220746f206e6f6e204552433131353560008301527f526563656976657220696d706c656d656e7465720000000000000000000000006020830152604082019050919050565b60006153cc602283616739565b91507f456e756d657261626c655365743a20696e646578206f7574206f6620626f756e60008301527f64730000000000000000000000000000000000000000000000000000000000006020830152604082019050919050565b6000615432602083616739565b91507f537472696e67733a20686578206c656e67746820696e73756666696369656e746000830152602082019050919050565b6000615472602883616739565b91507f455243313135353a204552433131353552656365697665722072656a6563746560008301527f6420746f6b656e730000000000000000000000000000000000000000000000006020830152604082019050919050565b60006154d8601483616739565b91507f5061757361626c653a206e6f74207061757365640000000000000000000000006000830152602082019050919050565b6000615518602083616739565b91507f494420746f206c617267652c20736b696e20646f6573206e6f742065786973746000830152602082019050919050565b6000615558601583616739565b91507f4e6f207065726d697373696f6e20746f206d696e7400000000000000000000006000830152602082019050919050565b6000615598602b83616739565b91507f455243313135353a2062616c616e636520717565727920666f7220746865207a60008301527f65726f20616464726573730000000000000000000000000000000000000000006020830152604082019050919050565b60006155fe602483616739565b91507f455243313135353a206275726e20616d6f756e7420657863656564732062616c60008301527f616e6365000000000000000000000000000000000000000000000000000000006020830152604082019050919050565b6000615664602c83616739565b91507f455243313135355061757361626c653a20746f6b656e207472616e736665722060008301527f7768696c652070617573656400000000000000000000000000000000000000006020830152604082019050919050565b60006156ca602983616739565b91507f455243313135353a2063616c6c6572206973206e6f74206f776e6572206e6f7260008301527f20617070726f76656400000000000000000000000000000000000000000000006020830152604082019050919050565b6000615730601283616739565b91507f617070726f7665206661696c65642046414800000000000000000000000000006000830152602082019050919050565b6000615770601683616739565b91507f617070726f7665206661696c65642043535f43415345000000000000000000006000830152602082019050919050565b60006157b0600b83616739565b91507f55736572206578697374730000000000000000000000000000000000000000006000830152602082019050919050565b60006157f0601083616739565b91507f5061757361626c653a20706175736564000000000000000000000000000000006000830152602082019050919050565b6000615830601883616739565b91507f53636f726520746f6f204c6f772f206e6f206368616e676500000000000000006000830152602082019050919050565b6000615870602583616739565b91507f455243313135353a207472616e7366657220746f20746865207a65726f20616460008301527f64726573730000000000000000000000000000000000000000000000000000006020830152604082019050919050565b60006158d6603283616739565b91507f455243313135353a207472616e736665722063616c6c6572206973206e6f742060008301527f6f776e6572206e6f7220617070726f76656400000000000000000000000000006020830152604082019050919050565b600061593c602383616739565b91507f455243313135353a206275726e2066726f6d20746865207a65726f206164647260008301527f65737300000000000000000000000000000000000000000000000000000000006020830152604082019050919050565b60006159a2603883616739565b91507f455243313135355072657365744d696e7465725061757365723a206d7573742060008301527f68617665206d696e74657220726f6c6520746f206d696e7400000000000000006020830152604082019050919050565b6000615a08602a83616739565b91507f455243313135353a20696e73756666696369656e742062616c616e636520666f60008301527f72207472616e73666572000000000000000000000000000000000000000000006020830152604082019050919050565b6000615a6e603b83616739565b91507f455243313135355072657365744d696e7465725061757365723a206d7573742060008301527f686176652070617573657220726f6c6520746f20756e706175736500000000006020830152604082019050919050565b6000615ad4601283616739565b91507f5573657220646f65736e277420657869737400000000000000000000000000006000830152602082019050919050565b6000615b14603983616739565b91507f455243313135355072657365744d696e7465725061757365723a206d7573742060008301527f686176652070617573657220726f6c6520746f207061757365000000000000006020830152604082019050919050565b6000615b7a60178361674a565b91507f416363657373436f6e74726f6c3a206163636f756e74200000000000000000006000830152601782019050919050565b6000615bba602983616739565b91507f455243313135353a2073657474696e6720617070726f76616c2073746174757360008301527f20666f722073656c6600000000000000000000000000000000000000000000006020830152604082019050919050565b6000615c20602983616739565b91507f455243313135353a206163636f756e747320616e6420696473206c656e67746860008301527f206d69736d6174636800000000000000000000000000000000000000000000006020830152604082019050919050565b6000615c86602883616739565b91507f455243313135353a2069647320616e6420616d6f756e7473206c656e6774682060008301527f6d69736d617463680000000000000000000000000000000000000000000000006020830152604082019050919050565b6000615cec602183616739565b91507f455243313135353a206d696e7420746f20746865207a65726f2061646472657360008301527f73000000000000000000000000000000000000000000000000000000000000006020830152604082019050919050565b6000615d52601383616739565b91507f4c5020746f6b656e206e6f74206275726e6564000000000000000000000000006000830152602082019050919050565b6000615d9260118361674a565b91507f206973206d697373696e6720726f6c65200000000000000000000000000000006000830152601182019050919050565b6000615dd2602f83616739565b91507f416363657373436f6e74726f6c3a2063616e206f6e6c792072656e6f756e636560008301527f20726f6c657320666f722073656c6600000000000000000000000000000000006020830152604082019050919050565b615e3481616924565b82525050565b615e43816168f8565b82525050565b615e52816168f8565b82525050565b6000615e648284615328565b915081905092915050565b6000615e7a82615b6d565b9150615e868285615328565b9150615e9182615d85565b9150615e9d8284615328565b91508190509392505050565b6000602082019050615ebe60008301846151af565b92915050565b600060a082019050615ed960008301886151af565b615ee660208301876151af565b8181036040830152615ef8818661521c565b90508181036060830152615f0c818561521c565b90508181036080830152615f2081846152a7565b90509695505050505050565b600060a082019050615f4160008301886151af565b615f4e60208301876151af565b615f5b6040830186615e49565b615f686060830185615e49565b8181036080830152615f7a81846152a7565b90509695505050505050565b600061010082019050615f9c600083018b6151af565b615fa9602083018a6151af565b615fb66040830189615e49565b615fc36060830188615e49565b615fd06080830187615e49565b615fdd60a0830186615e49565b615fea60c08301856151af565b615ff760e08301846152e0565b9998505050505050505050565b600060408201905061601960008301856151af565b6160266020830184615e49565b9392505050565b60006020820190508181036000830152616047818461521c565b905092915050565b60006040820190508181036000830152616069818561521c565b9050818103602083015261607d818461521c565b90509392505050565b600060208201905061609b600083018461527a565b92915050565b60006020820190506160b66000830184615289565b92915050565b60006020820190506160d16000830184615298565b92915050565b600060208201905081810360008301526160f181846152ef565b905092915050565b6000602082019050818103600083015261611281615359565b9050919050565b60006020820190508181036000830152616132816153bf565b9050919050565b6000602082019050818103600083015261615281615425565b9050919050565b6000602082019050818103600083015261617281615465565b9050919050565b60006020820190508181036000830152616192816154cb565b9050919050565b600060208201905081810360008301526161b28161550b565b9050919050565b600060208201905081810360008301526161d28161554b565b9050919050565b600060208201905081810360008301526161f28161558b565b9050919050565b60006020820190508181036000830152616212816155f1565b9050919050565b6000602082019050818103600083015261623281615657565b9050919050565b60006020820190508181036000830152616252816156bd565b9050919050565b6000602082019050818103600083015261627281615723565b9050919050565b6000602082019050818103600083015261629281615763565b9050919050565b600060208201905081810360008301526162b2816157a3565b9050919050565b600060208201905081810360008301526162d2816157e3565b9050919050565b600060208201905081810360008301526162f281615823565b9050919050565b6000602082019050818103600083015261631281615863565b9050919050565b60006020820190508181036000830152616332816158c9565b9050919050565b600060208201905081810360008301526163528161592f565b9050919050565b6000602082019050818103600083015261637281615995565b9050919050565b60006020820190508181036000830152616392816159fb565b9050919050565b600060208201905081810360008301526163b281615a61565b9050919050565b600060208201905081810360008301526163d281615ac7565b9050919050565b600060208201905081810360008301526163f281615b07565b9050919050565b6000602082019050818103600083015261641281615bad565b9050919050565b6000602082019050818103600083015261643281615c13565b9050919050565b6000602082019050818103600083015261645281615c79565b9050919050565b6000602082019050818103600083015261647281615cdf565b9050919050565b6000602082019050818103600083015261649281615d45565b9050919050565b600060208201905081810360008301526164b281615dc5565b9050919050565b60006020820190506164ce6000830184615e49565b92915050565b60006040820190506164e96000830185615e49565b6164f660208301846151af565b9392505050565b60006060820190506165126000830186615e49565b61651f6020830185615e2b565b61652c6040830184615e2b565b949350505050565b60006040820190506165496000830185615e49565b6165566020830184615e49565b9392505050565b600060a0820190506165726000830188615e49565b61657f6020830187615e49565b818103604083015261659181866151be565b90506165a060608301856151af565b6165ad6080830184615e49565b9695505050505050565b6000604051905081810181811067ffffffffffffffff821117156165de576165dd616aaa565b5b8060405250919050565b600067ffffffffffffffff82111561660357616602616aaa565b5b602082029050602081019050919050565b600067ffffffffffffffff82111561662f5761662e616aaa565b5b602082029050602081019050919050565b600067ffffffffffffffff82111561665b5761665a616aaa565b5b601f19601f8301169050602081019050919050565b600067ffffffffffffffff82111561668b5761668a616aaa565b5b601f19601f8301169050602081019050919050565b6000819050602082019050919050565b6000819050602082019050919050565b600081519050919050565b600081519050919050565b600081519050919050565b600081519050919050565b6000602082019050919050565b6000602082019050919050565b600082825260208201905092915050565b600082825260208201905092915050565b600082825260208201905092915050565b600082825260208201905092915050565b600081905092915050565b6000616760826168f8565b915061676b836168f8565b9250827fffffffffffffffffffffffffffffffffffffffffffffffffffffffffffffffff038211156167a05761679f616a1d565b5b828201905092915050565b60006167b6826168f8565b91506167c1836168f8565b9250826167d1576167d0616a4c565b5b828204905092915050565b60006167e7826168f8565b91506167f2836168f8565b9250817fffffffffffffffffffffffffffffffffffffffffffffffffffffffffffffffff048311821515161561682b5761682a616a1d565b5b828202905092915050565b6000616841826168f8565b915061684c836168f8565b92508282101561685f5761685e616a1d565b5b828203905092915050565b6000616875826168d8565b9050919050565b60008115159050919050565b6000819050919050565b60007fffffffff0000000000000000000000000000000000000000000000000000000082169050919050565b60006dffffffffffffffffffffffffffff82169050919050565b600073ffffffffffffffffffffffffffffffffffffffff82169050919050565b6000819050919050565b600063ffffffff82169050919050565b600061691d826168f8565b9050919050565b600061692f826168be565b9050919050565b82818337600083830152505050565b60005b83811015616963578082015181840152602081019050616948565b83811115616972576000848401525b50505050565b6000616983826168f8565b9150600082141561699757616996616a1d565b5b600182039050919050565b600060028204905060018216806169ba57607f821691505b602082108114156169ce576169cd616a7b565b5b50919050565b60006169df826168f8565b91507fffffffffffffffffffffffffffffffffffffffffffffffffffffffffffffffff821415616a1257616a11616a1d565b5b600182019050919050565b7f4e487b7100000000000000000000000000000000000000000000000000000000600052601160045260246000fd5b7f4e487b7100000000000000000000000000000000000000000000000000000000600052601260045260246000fd5b7f4e487b7100000000000000000000000000000000000000000000000000000000600052602260045260246000fd5b7f4e487b7100000000000000000000000000000000000000000000000000000000600052604160045260246000fd5b6000601f19601f8301169050919050565b60008160e01c9050919050565b600060443d1015616b0757616baa565b60046000803e616b18600051616aea565b6308c379a08114616b295750616baa565b60405160043d036004823e80513d602482011167ffffffffffffffff82111715616b5557505050616baa565b808201805167ffffffffffffffff811115616b74575050505050616baa565b8060208301013d8501811115616b8f57505050505050616baa565b616b9882616ad9565b60208401016040528296505050505050505b90565b616bb68161686a565b8114616bc157600080fd5b50565b616bcd8161687c565b8114616bd857600080fd5b50565b616be481616888565b8114616bef57600080fd5b50565b616bfb81616892565b8114616c0657600080fd5b50565b616c12816168be565b8114616c1d57600080fd5b50565b616c29816168f8565b8114616c3457600080fd5b50565b616c4081616902565b8114616c4b57600080fd5b5056fea26469706673582212208b0961ba52d4f33eca3e6c0d500b7922b48c6f048b1a9e81745619082ee12a8f64736f6c63430008000033",
  "linkReferences": {},
  "deployedLinkReferences": {}
}