{
  "_format": "hh-sol-artifact-1",
  "contractName": "CS_Skin",
  "sourceName": "contracts/CS_Skin.sol",
  "abi": [
    {
      "inputs": [
        {
          "internalType": "address",
          "name": "_FAH",
          "type": "address"
        },
        {
          "internalType": "address",
          "name": "_CS_Case",
          "type": "address"
        },
        {
          "internalType": "address",
          "name": "_SushiFactory",
          "type": "address"
        },
        {
          "internalType": "address",
          "name": "_SushiRouter",
          "type": "address"
        }
      ],
      "stateMutability": "nonpayable",
      "type": "constructor"
    },
    {
      "anonymous": false,
      "inputs": [
        {
          "indexed": true,
          "internalType": "address",
          "name": "account",
          "type": "address"
        },
        {
          "indexed": true,
          "internalType": "address",
          "name": "operator",
          "type": "address"
        },
        {
          "indexed": false,
          "internalType": "bool",
          "name": "approved",
          "type": "bool"
        }
      ],
      "name": "ApprovalForAll",
      "type": "event"
    },
    {
      "anonymous": false,
      "inputs": [
        {
          "indexed": false,
          "internalType": "address",
          "name": "account",
          "type": "address"
        }
      ],
      "name": "Paused",
      "type": "event"
    },
    {
      "anonymous": false,
      "inputs": [
        {
          "indexed": true,
          "internalType": "bytes32",
          "name": "role",
          "type": "bytes32"
        },
        {
          "indexed": true,
          "internalType": "bytes32",
          "name": "previousAdminRole",
          "type": "bytes32"
        },
        {
          "indexed": true,
          "internalType": "bytes32",
          "name": "newAdminRole",
          "type": "bytes32"
        }
      ],
      "name": "RoleAdminChanged",
      "type": "event"
    },
    {
      "anonymous": false,
      "inputs": [
        {
          "indexed": true,
          "internalType": "bytes32",
          "name": "role",
          "type": "bytes32"
        },
        {
          "indexed": true,
          "internalType": "address",
          "name": "account",
          "type": "address"
        },
        {
          "indexed": true,
          "internalType": "address",
          "name": "sender",
          "type": "address"
        }
      ],
      "name": "RoleGranted",
      "type": "event"
    },
    {
      "anonymous": false,
      "inputs": [
        {
          "indexed": true,
          "internalType": "bytes32",
          "name": "role",
          "type": "bytes32"
        },
        {
          "indexed": true,
          "internalType": "address",
          "name": "account",
          "type": "address"
        },
        {
          "indexed": true,
          "internalType": "address",
          "name": "sender",
          "type": "address"
        }
      ],
      "name": "RoleRevoked",
      "type": "event"
    },
    {
      "anonymous": false,
      "inputs": [
        {
          "indexed": true,
          "internalType": "address",
          "name": "operator",
          "type": "address"
        },
        {
          "indexed": true,
          "internalType": "address",
          "name": "from",
          "type": "address"
        },
        {
          "indexed": true,
          "internalType": "address",
          "name": "to",
          "type": "address"
        },
        {
          "indexed": false,
          "internalType": "uint256[]",
          "name": "ids",
          "type": "uint256[]"
        },
        {
          "indexed": false,
          "internalType": "uint256[]",
          "name": "values",
          "type": "uint256[]"
        }
      ],
      "name": "TransferBatch",
      "type": "event"
    },
    {
      "anonymous": false,
      "inputs": [
        {
          "indexed": true,
          "internalType": "address",
          "name": "operator",
          "type": "address"
        },
        {
          "indexed": true,
          "internalType": "address",
          "name": "from",
          "type": "address"
        },
        {
          "indexed": true,
          "internalType": "address",
          "name": "to",
          "type": "address"
        },
        {
          "indexed": false,
          "internalType": "uint256",
          "name": "id",
          "type": "uint256"
        },
        {
          "indexed": false,
          "internalType": "uint256",
          "name": "value",
          "type": "uint256"
        }
      ],
      "name": "TransferSingle",
      "type": "event"
    },
    {
      "anonymous": false,
      "inputs": [
        {
          "indexed": false,
          "internalType": "string",
          "name": "value",
          "type": "string"
        },
        {
          "indexed": true,
          "internalType": "uint256",
          "name": "id",
          "type": "uint256"
        }
      ],
      "name": "URI",
      "type": "event"
    },
    {
      "anonymous": false,
      "inputs": [
        {
          "indexed": false,
          "internalType": "address",
          "name": "account",
          "type": "address"
        }
      ],
      "name": "Unpaused",
      "type": "event"
    },
    {
      "inputs": [],
      "name": "DEFAULT_ADMIN_ROLE",
      "outputs": [
        {
          "internalType": "bytes32",
          "name": "",
          "type": "bytes32"
        }
      ],
      "stateMutability": "view",
      "type": "function"
    },
    {
      "inputs": [],
      "name": "LOCAL_MINTER_ROLE",
      "outputs": [
        {
          "internalType": "bytes32",
          "name": "",
          "type": "bytes32"
        }
      ],
      "stateMutability": "view",
      "type": "function"
    },
    {
      "inputs": [],
      "name": "MINTER_ROLE",
      "outputs": [
        {
          "internalType": "bytes32",
          "name": "",
          "type": "bytes32"
        }
      ],
      "stateMutability": "view",
      "type": "function"
    },
    {
      "inputs": [],
      "name": "PAUSER_ROLE",
      "outputs": [
        {
          "internalType": "bytes32",
          "name": "",
          "type": "bytes32"
        }
      ],
      "stateMutability": "view",
      "type": "function"
    },
    {
      "inputs": [
        {
          "internalType": "address",
          "name": "account",
          "type": "address"
        },
        {
          "internalType": "uint256",
          "name": "id",
          "type": "uint256"
        }
      ],
      "name": "balanceOf",
      "outputs": [
        {
          "internalType": "uint256",
          "name": "",
          "type": "uint256"
        }
      ],
      "stateMutability": "view",
      "type": "function"
    },
    {
      "inputs": [
        {
          "internalType": "address[]",
          "name": "accounts",
          "type": "address[]"
        },
        {
          "internalType": "uint256[]",
          "name": "ids",
          "type": "uint256[]"
        }
      ],
      "name": "balanceOfBatch",
      "outputs": [
        {
          "internalType": "uint256[]",
          "name": "",
          "type": "uint256[]"
        }
      ],
      "stateMutability": "view",
      "type": "function"
    },
    {
      "inputs": [
        {
          "internalType": "address",
          "name": "account",
          "type": "address"
        },
        {
          "internalType": "uint256",
          "name": "id",
          "type": "uint256"
        },
        {
          "internalType": "uint256",
          "name": "value",
          "type": "uint256"
        }
      ],
      "name": "burn",
      "outputs": [],
      "stateMutability": "nonpayable",
      "type": "function"
    },
    {
      "inputs": [
        {
          "internalType": "address",
          "name": "account",
          "type": "address"
        },
        {
          "internalType": "uint256[]",
          "name": "ids",
          "type": "uint256[]"
        },
        {
          "internalType": "uint256[]",
          "name": "values",
          "type": "uint256[]"
        }
      ],
      "name": "burnBatch",
      "outputs": [],
      "stateMutability": "nonpayable",
      "type": "function"
    },
    {
      "inputs": [
        {
          "internalType": "string",
          "name": "_id",
          "type": "string"
        }
      ],
      "name": "getAddress",
      "outputs": [
        {
          "internalType": "address",
          "name": "",
          "type": "address"
        }
      ],
      "stateMutability": "view",
      "type": "function"
    },
    {
      "inputs": [
        {
          "internalType": "bytes32",
          "name": "role",
          "type": "bytes32"
        }
      ],
      "name": "getRoleAdmin",
      "outputs": [
        {
          "internalType": "bytes32",
          "name": "",
          "type": "bytes32"
        }
      ],
      "stateMutability": "view",
      "type": "function"
    },
    {
      "inputs": [
        {
          "internalType": "bytes32",
          "name": "role",
          "type": "bytes32"
        },
        {
          "internalType": "uint256",
          "name": "index",
          "type": "uint256"
        }
      ],
      "name": "getRoleMember",
      "outputs": [
        {
          "internalType": "address",
          "name": "",
          "type": "address"
        }
      ],
      "stateMutability": "view",
      "type": "function"
    },
    {
      "inputs": [
        {
          "internalType": "bytes32",
          "name": "role",
          "type": "bytes32"
        }
      ],
      "name": "getRoleMemberCount",
      "outputs": [
        {
          "internalType": "uint256",
          "name": "",
          "type": "uint256"
        }
      ],
      "stateMutability": "view",
      "type": "function"
    },
    {
      "inputs": [
        {
          "internalType": "string",
          "name": "_id",
          "type": "string"
        }
      ],
      "name": "getScore",
      "outputs": [
        {
          "internalType": "uint256",
          "name": "",
          "type": "uint256"
        }
      ],
      "stateMutability": "view",
      "type": "function"
    },
    {
      "inputs": [
        {
          "internalType": "uint256",
          "name": "_id",
          "type": "uint256"
        }
      ],
      "name": "getSkinAvailability",
      "outputs": [
        {
          "internalType": "uint256",
          "name": "",
          "type": "uint256"
        }
      ],
      "stateMutability": "view",
      "type": "function"
    },
    {
      "inputs": [
        {
          "internalType": "bytes32",
          "name": "role",
          "type": "bytes32"
        },
        {
          "internalType": "address",
          "name": "account",
          "type": "address"
        }
      ],
      "name": "grantRole",
      "outputs": [],
      "stateMutability": "nonpayable",
      "type": "function"
    },
    {
      "inputs": [
        {
          "internalType": "bytes32",
          "name": "role",
          "type": "bytes32"
        },
        {
          "internalType": "address",
          "name": "account",
          "type": "address"
        }
      ],
      "name": "hasRole",
      "outputs": [
        {
          "internalType": "bool",
          "name": "",
          "type": "bool"
        }
      ],
      "stateMutability": "view",
      "type": "function"
    },
    {
      "inputs": [
        {
          "internalType": "address",
          "name": "account",
          "type": "address"
        },
        {
          "internalType": "address",
          "name": "operator",
          "type": "address"
        }
      ],
      "name": "isApprovedForAll",
      "outputs": [
        {
          "internalType": "bool",
          "name": "",
          "type": "bool"
        }
      ],
      "stateMutability": "view",
      "type": "function"
    },
    {
      "inputs": [
        {
          "internalType": "address",
          "name": "to",
          "type": "address"
        },
        {
          "internalType": "uint256",
          "name": "id",
          "type": "uint256"
        },
        {
          "internalType": "uint256",
          "name": "amount",
          "type": "uint256"
        },
        {
          "internalType": "bytes",
          "name": "data",
          "type": "bytes"
        }
      ],
      "name": "mint",
      "outputs": [],
      "stateMutability": "nonpayable",
      "type": "function"
    },
    {
      "inputs": [
        {
          "internalType": "address",
          "name": "to",
          "type": "address"
        },
        {
          "internalType": "uint256[]",
          "name": "ids",
          "type": "uint256[]"
        },
        {
          "internalType": "uint256[]",
          "name": "amounts",
          "type": "uint256[]"
        },
        {
          "internalType": "bytes",
          "name": "data",
          "type": "bytes"
        }
      ],
      "name": "mintBatch",
      "outputs": [],
      "stateMutability": "nonpayable",
      "type": "function"
    },
    {
      "inputs": [
        {
          "internalType": "uint256",
          "name": "_amount",
          "type": "uint256"
        }
      ],
      "name": "newSkin",
      "outputs": [],
      "stateMutability": "nonpayable",
      "type": "function"
    },
    {
      "inputs": [
        {
          "internalType": "address",
          "name": "",
          "type": "address"
        },
        {
          "internalType": "address",
          "name": "",
          "type": "address"
        },
        {
          "internalType": "uint256[]",
          "name": "",
          "type": "uint256[]"
        },
        {
          "internalType": "uint256[]",
          "name": "",
          "type": "uint256[]"
        },
        {
          "internalType": "bytes",
          "name": "",
          "type": "bytes"
        }
      ],
      "name": "onERC1155BatchReceived",
      "outputs": [
        {
          "internalType": "bytes4",
          "name": "",
          "type": "bytes4"
        }
      ],
      "stateMutability": "nonpayable",
      "type": "function"
    },
    {
      "inputs": [
        {
          "internalType": "address",
          "name": "",
          "type": "address"
        },
        {
          "internalType": "address",
          "name": "",
          "type": "address"
        },
        {
          "internalType": "uint256",
          "name": "",
          "type": "uint256"
        },
        {
          "internalType": "uint256",
          "name": "",
          "type": "uint256"
        },
        {
          "internalType": "bytes",
          "name": "",
          "type": "bytes"
        }
      ],
      "name": "onERC1155Received",
      "outputs": [
        {
          "internalType": "bytes4",
          "name": "",
          "type": "bytes4"
        }
      ],
      "stateMutability": "nonpayable",
      "type": "function"
    },
    {
      "inputs": [],
      "name": "pause",
      "outputs": [],
      "stateMutability": "nonpayable",
      "type": "function"
    },
    {
      "inputs": [],
      "name": "paused",
      "outputs": [
        {
          "internalType": "bool",
          "name": "",
          "type": "bool"
        }
      ],
      "stateMutability": "view",
      "type": "function"
    },
    {
      "inputs": [
        {
          "internalType": "uint256",
          "name": "_FAH_amount",
          "type": "uint256"
        }
      ],
      "name": "poolSetup",
      "outputs": [],
      "stateMutability": "nonpayable",
      "type": "function"
    },
    {
      "inputs": [
        {
          "internalType": "bytes32",
          "name": "role",
          "type": "bytes32"
        },
        {
          "internalType": "address",
          "name": "account",
          "type": "address"
        }
      ],
      "name": "renounceRole",
      "outputs": [],
      "stateMutability": "nonpayable",
      "type": "function"
    },
    {
      "inputs": [
        {
          "internalType": "bytes32",
          "name": "role",
          "type": "bytes32"
        },
        {
          "internalType": "address",
          "name": "account",
          "type": "address"
        }
      ],
      "name": "revokeRole",
      "outputs": [],
      "stateMutability": "nonpayable",
      "type": "function"
    },
    {
      "inputs": [
        {
          "internalType": "address",
          "name": "from",
          "type": "address"
        },
        {
          "internalType": "address",
          "name": "to",
          "type": "address"
        },
        {
          "internalType": "uint256[]",
          "name": "ids",
          "type": "uint256[]"
        },
        {
          "internalType": "uint256[]",
          "name": "amounts",
          "type": "uint256[]"
        },
        {
          "internalType": "bytes",
          "name": "data",
          "type": "bytes"
        }
      ],
      "name": "safeBatchTransferFrom",
      "outputs": [],
      "stateMutability": "nonpayable",
      "type": "function"
    },
    {
      "inputs": [
        {
          "internalType": "address",
          "name": "from",
          "type": "address"
        },
        {
          "internalType": "address",
          "name": "to",
          "type": "address"
        },
        {
          "internalType": "uint256",
          "name": "id",
          "type": "uint256"
        },
        {
          "internalType": "uint256",
          "name": "amount",
          "type": "uint256"
        },
        {
          "internalType": "bytes",
          "name": "data",
          "type": "bytes"
        }
      ],
      "name": "safeTransferFrom",
      "outputs": [],
      "stateMutability": "nonpayable",
      "type": "function"
    },
    {
      "inputs": [
        {
          "internalType": "address",
          "name": "operator",
          "type": "address"
        },
        {
          "internalType": "bool",
          "name": "approved",
          "type": "bool"
        }
      ],
      "name": "setApprovalForAll",
      "outputs": [],
      "stateMutability": "nonpayable",
      "type": "function"
    },
    {
      "inputs": [
        {
          "internalType": "uint256",
          "name": "_score",
          "type": "uint256"
        },
        {
          "internalType": "string",
          "name": "_id",
          "type": "string"
        }
      ],
      "name": "signUp",
      "outputs": [],
      "stateMutability": "nonpayable",
      "type": "function"
    },
    {
      "inputs": [],
      "name": "skinCount",
      "outputs": [
        {
          "internalType": "uint256",
          "name": "",
          "type": "uint256"
        }
      ],
      "stateMutability": "view",
      "type": "function"
    },
    {
      "inputs": [
        {
          "internalType": "uint256",
          "name": "",
          "type": "uint256"
        }
      ],
      "name": "skinQuantities",
      "outputs": [
        {
          "internalType": "uint256",
          "name": "",
          "type": "uint256"
        }
      ],
      "stateMutability": "view",
      "type": "function"
    },
    {
      "inputs": [
        {
          "internalType": "bytes4",
          "name": "interfaceId",
          "type": "bytes4"
        }
      ],
      "name": "supportsInterface",
      "outputs": [
        {
          "internalType": "bool",
          "name": "",
          "type": "bool"
        }
      ],
      "stateMutability": "view",
      "type": "function"
    },
    {
      "inputs": [],
      "name": "uniqueSkinCount",
      "outputs": [
        {
          "internalType": "uint256",
          "name": "",
          "type": "uint256"
        }
      ],
      "stateMutability": "view",
      "type": "function"
    },
    {
      "inputs": [],
      "name": "unpause",
      "outputs": [],
      "stateMutability": "nonpayable",
      "type": "function"
    },
    {
      "inputs": [
        {
          "internalType": "uint256",
          "name": "_score",
          "type": "uint256"
        },
        {
          "internalType": "string",
          "name": "_id",
          "type": "string"
        }
      ],
      "name": "updateScore",
      "outputs": [],
      "stateMutability": "nonpayable",
      "type": "function"
    },
    {
      "inputs": [
        {
          "internalType": "uint256",
          "name": "",
          "type": "uint256"
        }
      ],
      "name": "uri",
      "outputs": [
        {
          "internalType": "string",
          "name": "",
          "type": "string"
        }
      ],
      "stateMutability": "view",
      "type": "function"
    },
    {
      "inputs": [
        {
          "internalType": "string",
          "name": "_id",
          "type": "string"
        }
      ],
      "name": "userExists",
      "outputs": [
        {
          "internalType": "bool",
          "name": "",
          "type": "bool"
        }
      ],
      "stateMutability": "view",
      "type": "function"
    }
  ],
  "bytecode": "0x60806040526000600e556000600f553480156200001b57600080fd5b5060405162006dfe38038062006dfe833981810160405281019062000041919062000cb5565b604051806020016040528060008152508085858585620000977f9f2df0fed2c77648de5860a4cc508cd0818c85b8b8a1ab4ceeef8d981c8956a66200008b620004a060201b60201c565b620004a860201b60201c565b620000d87f9f2df0fed2c77648de5860a4cc508cd0818c85b8b8a1ab4ceeef8d981c8956a6620000cc620004a060201b60201c565b620004f060201b60201c565b6200011a576040517f08c379a0000000000000000000000000000000000000000000000000000000008152600401620001119062000fa4565b60405180910390fd5b83600360006101000a81548173ffffffffffffffffffffffffffffffffffffffff021916908373ffffffffffffffffffffffffffffffffffffffff16021790555082600460006101000a81548173ffffffffffffffffffffffffffffffffffffffff021916908373ffffffffffffffffffffffffffffffffffffffff16021790555081600560006101000a81548173ffffffffffffffffffffffffffffffffffffffff021916908373ffffffffffffffffffffffffffffffffffffffff16021790555080600660006101000a81548173ffffffffffffffffffffffffffffffffffffffff021916908373ffffffffffffffffffffffffffffffffffffffff160217905550600360009054906101000a900473ffffffffffffffffffffffffffffffffffffffff1673ffffffffffffffffffffffffffffffffffffffff1663095ea7b382670de0b6b3a76400006040518363ffffffff1660e01b81526004016200028592919062000f31565b602060405180830381600087803b158015620002a057600080fd5b505af1158015620002b5573d6000803e3d6000fd5b505050506040513d601f19601f82011682018060405250810190620002db919062000d21565b50600460009054906101000a900473ffffffffffffffffffffffffffffffffffffffff1673ffffffffffffffffffffffffffffffffffffffff1663095ea7b382670de0b6b3a76400006040518363ffffffff1660e01b81526004016200034392919062000f31565b602060405180830381600087803b1580156200035e57600080fd5b505af115801562000373573d6000803e3d6000fd5b505050506040513d601f19601f8201168201806040525081019062000399919062000d21565b5050505050620003af816200055b60201b60201c565b506000600c60006101000a81548160ff021916908315150217905550620003ef6000801b620003e3620004a060201b60201c565b620004a860201b60201c565b620004307f9f2df0fed2c77648de5860a4cc508cd0818c85b8b8a1ab4ceeef8d981c8956a662000424620004a060201b60201c565b620004a860201b60201c565b620004717f65d7a28e3265b37a6474929f336521b332c1681b933f6cb9f3376673440d862a62000465620004a060201b60201c565b620004a860201b60201c565b50620004966000801b6200048a620004a060201b60201c565b6200057760201b60201c565b5050505062001247565b600033905090565b620004bf8282620005bf60201b62001e8e1760201c565b620004eb8160026000858152602001908152602001600020620005d560201b62001e9c1790919060201c565b505050565b60006001600084815260200190815260200160002060000160008373ffffffffffffffffffffffffffffffffffffffff1673ffffffffffffffffffffffffffffffffffffffff16815260200190815260200160002060009054906101000a900460ff16905092915050565b80600b90805190602001906200057392919062000bd7565b5050565b6200058e82826200060d60201b62001ecc1760201c565b620005ba8160026000858152602001908152602001600020620005d560201b62001e9c1790919060201c565b505050565b620005d182826200065660201b60201c565b5050565b600062000605836000018373ffffffffffffffffffffffffffffffffffffffff1660001b6200074760201b60201c565b905092915050565b6200061e82620007c160201b60201c565b6200063f8162000633620004a060201b60201c565b620007e160201b60201c565b6200065183836200065660201b60201c565b505050565b620006688282620004f060201b60201c565b6200074357600180600084815260200190815260200160002060000160008373ffffffffffffffffffffffffffffffffffffffff1673ffffffffffffffffffffffffffffffffffffffff16815260200190815260200160002060006101000a81548160ff021916908315150217905550620006e8620004a060201b60201c565b73ffffffffffffffffffffffffffffffffffffffff168173ffffffffffffffffffffffffffffffffffffffff16837f2f8788117e7eff1d82e926ec794901d17c78024a50270940304540a733656f0d60405160405180910390a45b5050565b60006200075b8383620008a560201b60201c565b620007b6578260000182908060018154018082558091505060019003906000526020600020016000909190919091505582600001805490508360010160008481526020019081526020016000208190555060019050620007bb565b600090505b92915050565b600060016000838152602001908152602001600020600101549050919050565b620007f38282620004f060201b60201c565b620008a157620008268173ffffffffffffffffffffffffffffffffffffffff166014620008c860201b62001ef51760201c565b620008418360001c6020620008c860201b62001ef51760201c565b6040516020016200085492919062000eef565b6040516020818303038152906040526040517f08c379a000000000000000000000000000000000000000000000000000000000815260040162000898919062000f5e565b60405180910390fd5b5050565b600080836001016000848152602001908152602001600020541415905092915050565b606060006002836002620008dd91906200104a565b620008e9919062000fed565b67ffffffffffffffff81111562000929577f4e487b7100000000000000000000000000000000000000000000000000000000600052604160045260246000fd5b6040519080825280601f01601f1916602001820160405280156200095c5781602001600182028036833780820191505090505b5090507f300000000000000000000000000000000000000000000000000000000000000081600081518110620009bb577f4e487b7100000000000000000000000000000000000000000000000000000000600052603260045260246000fd5b60200101907effffffffffffffffffffffffffffffffffffffffffffffffffffffffffffff1916908160001a9053507f78000000000000000000000000000000000000000000000000000000000000008160018151811062000a46577f4e487b7100000000000000000000000000000000000000000000000000000000600052603260045260246000fd5b60200101907effffffffffffffffffffffffffffffffffffffffffffffffffffffffffffff1916908160001a9053506000600184600262000a8891906200104a565b62000a94919062000fed565b90505b600181111562000b86577f3031323334353637383961626364656600000000000000000000000000000000600f86166010811062000afe577f4e487b7100000000000000000000000000000000000000000000000000000000600052603260045260246000fd5b1a60f81b82828151811062000b3c577f4e487b7100000000000000000000000000000000000000000000000000000000600052603260045260246000fd5b60200101907effffffffffffffffffffffffffffffffffffffffffffffffffffffffffffff1916908160001a905350600485901c94508062000b7e906200113f565b905062000a97565b506000841462000bcd576040517f08c379a000000000000000000000000000000000000000000000000000000000815260040162000bc49062000f82565b60405180910390fd5b8091505092915050565b82805462000be5906200116e565b90600052602060002090601f01602090048101928262000c09576000855562000c55565b82601f1062000c2457805160ff191683800117855562000c55565b8280016001018555821562000c55579182015b8281111562000c5457825182559160200191906001019062000c37565b5b50905062000c64919062000c68565b5090565b5b8082111562000c8357600081600090555060010162000c69565b5090565b60008151905062000c988162001213565b92915050565b60008151905062000caf816200122d565b92915050565b6000806000806080858703121562000ccc57600080fd5b600062000cdc8782880162000c87565b945050602062000cef8782880162000c87565b935050604062000d028782880162000c87565b925050606062000d158782880162000c87565b91505092959194509250565b60006020828403121562000d3457600080fd5b600062000d448482850162000c9e565b91505092915050565b62000d5881620010ab565b82525050565b62000d6981620010f5565b82525050565b600062000d7c8262000fc6565b62000d88818562000fd1565b935062000d9a81856020860162001109565b62000da58162001202565b840191505092915050565b600062000dbd8262000fc6565b62000dc9818562000fe2565b935062000ddb81856020860162001109565b80840191505092915050565b600062000df660208362000fd1565b91507f537472696e67733a20686578206c656e67746820696e73756666696369656e746000830152602082019050919050565b600062000e3860178362000fe2565b91507f416363657373436f6e74726f6c3a206163636f756e74200000000000000000006000830152601782019050919050565b600062000e7a60128362000fd1565b91507f446f6573206e6f74206861766520726f6c6500000000000000000000000000006000830152602082019050919050565b600062000ebc60118362000fe2565b91507f206973206d697373696e6720726f6c65200000000000000000000000000000006000830152601182019050919050565b600062000efc8262000e29565b915062000f0a828562000db0565b915062000f178262000ead565b915062000f25828462000db0565b91508190509392505050565b600060408201905062000f48600083018562000d4d565b62000f57602083018462000d5e565b9392505050565b6000602082019050818103600083015262000f7a818462000d6f565b905092915050565b6000602082019050818103600083015262000f9d8162000de7565b9050919050565b6000602082019050818103600083015262000fbf8162000e6b565b9050919050565b600081519050919050565b600082825260208201905092915050565b600081905092915050565b600062000ffa82620010eb565b91506200100783620010eb565b9250827fffffffffffffffffffffffffffffffffffffffffffffffffffffffffffffffff038211156200103f576200103e620011a4565b5b828201905092915050565b60006200105782620010eb565b91506200106483620010eb565b9250817fffffffffffffffffffffffffffffffffffffffffffffffffffffffffffffffff0483118215151615620010a0576200109f620011a4565b5b828202905092915050565b6000620010b882620010cb565b9050919050565b60008115159050919050565b600073ffffffffffffffffffffffffffffffffffffffff82169050919050565b6000819050919050565b60006200110282620010eb565b9050919050565b60005b83811015620011295780820151818401526020810190506200110c565b8381111562001139576000848401525b50505050565b60006200114c82620010eb565b91506000821415620011635762001162620011a4565b5b600182039050919050565b600060028204905060018216806200118757607f821691505b602082108114156200119e576200119d620011d3565b5b50919050565b7f4e487b7100000000000000000000000000000000000000000000000000000000600052601160045260246000fd5b7f4e487b7100000000000000000000000000000000000000000000000000000000600052602260045260246000fd5b6000601f19601f8301169050919050565b6200121e81620010ab565b81146200122a57600080fd5b50565b6200123881620010bf565b81146200124457600080fd5b50565b615ba780620012576000396000f3fe608060405234801561001057600080fd5b506004361061023c5760003560e01c80638456cb591161013b578063d5391393116100b8578063f23a6e611161007c578063f23a6e61146106fb578063f242432a1461072b578063f5298aca14610747578063fddc968e14610763578063feee2465146107935761023c565b8063d539139314610657578063d547741f14610675578063e5c7920f14610691578063e63ab1e9146106ad578063e985e9c5146106cb5761023c565b8063bc197c81116100ff578063bc197c811461057b578063bf40fac1146105ab578063ca15c873146105db578063cebe801f1461060b578063d179277d1461063b5761023c565b80638456cb59146104d75780639010d07c146104e157806391d1485414610511578063a217fddf14610541578063a22cb4651461055f5761023c565b80632f2ff15d116101c95780636b20c4541161018d5780636b20c45414610445578063731133e91461046157806373e3bfbd1461047d578063780410431461049b5780637abf0125146104b95761023c565b80632f2ff15d146103b557806336568abe146103d15780633f4ba83a146103ed5780634e1273f4146103f75780635c975abb146104275761023c565b8063160202731161021057806316020273146103015780631f7fdffa14610331578063248a9ca31461034d5780632bf4ec851461037d5780632eb2c2d6146103995761023c565b8062fdd58e1461024157806301ffc9a714610271578063077b0e4d146102a15780630e89341c146102d1575b600080fd5b61025b60048036038101906102569190614180565b6107af565b6040516102689190615582565b60405180910390f35b61028b60048036038101906102869190614393565b610879565b60405161029891906151af565b60405180910390f35b6102bb60048036038101906102b69190614426565b61088b565b6040516102c89190615582565b60405180910390f35b6102eb60048036038101906102e69190614426565b610920565b6040516102f89190615200565b60405180910390f35b61031b600480360381019061031691906143e5565b6109b4565b6040516103289190615582565b60405180910390f35b61034b60048036038101906103469190614099565b610a27565b005b610367600480360381019061036291906142f2565b610aa9565b60405161037491906151ca565b60405180910390f35b6103976004803603810190610392919061444f565b610ac9565b005b6103b360048036038101906103ae9190613ecc565b610c25565b005b6103cf60048036038101906103ca919061431b565b61101e565b005b6103eb60048036038101906103e6919061431b565b611052565b005b6103f5611086565b005b610411600480360381019061040c9190614286565b611100565b60405161041e9190615156565b60405180910390f35b61042f6112b1565b60405161043c91906151af565b60405180910390f35b61045f600480360381019061045a919061401a565b6112c8565b005b61047b6004803603810190610476919061420b565b611365565b005b6104856113e7565b60405161049291906151ca565b60405180910390f35b6104a361140b565b6040516104b09190615582565b60405180910390f35b6104c1611411565b6040516104ce9190615582565b60405180910390f35b6104df611417565b005b6104fb60048036038101906104f69190614357565b611491565b6040516105089190615079565b60405180910390f35b61052b6004803603810190610526919061431b565b6114c0565b60405161053891906151af565b60405180910390f35b61054961152b565b60405161055691906151ca565b60405180910390f35b61057960048036038101906105749190614144565b611532565b005b61059560048036038101906105909190613ecc565b6116b3565b6040516105a291906151e5565b60405180910390f35b6105c560048036038101906105c091906143e5565b6116c8565b6040516105d29190615079565b60405180910390f35b6105f560048036038101906105f091906142f2565b61175b565b6040516106029190615582565b60405180910390f35b61062560048036038101906106209190614426565b61177f565b6040516106329190615582565b60405180910390f35b6106556004803603810190610650919061444f565b6117a3565b005b61065f61184d565b60405161066c91906151ca565b60405180910390f35b61068f600480360381019061068a919061431b565b611871565b005b6106ab60048036038101906106a69190614426565b6118a5565b005b6106b5611940565b6040516106c291906151ca565b60405180910390f35b6106e560048036038101906106e09190613e90565b611964565b6040516106f291906151af565b60405180910390f35b61071560048036038101906107109190613f8b565b6119f8565b60405161072291906151e5565b60405180910390f35b61074560048036038101906107409190613f8b565b611a0d565b005b610761600480360381019061075c91906141bc565b611d28565b005b61077d600480360381019061077891906143e5565b611dc5565b60405161078a91906151af565b60405180910390f35b6107ad60048036038101906107a89190614426565b611dfc565b005b60008073ffffffffffffffffffffffffffffffffffffffff168373ffffffffffffffffffffffffffffffffffffffff161415610820576040517f08c379a000000000000000000000000000000000000000000000000000000000815260040161081790615302565b60405180910390fd5b6009600083815260200190815260200160002060008473ffffffffffffffffffffffffffffffffffffffff1673ffffffffffffffffffffffffffffffffffffffff16815260200190815260200160002054905092915050565b6000610884826121ef565b9050919050565b6000600d8054905082106108d4576040517f08c379a00000000000000000000000000000000000000000000000000000000081526004016108cb906152c2565b60405180910390fd5b600d828154811061090e577f4e487b7100000000000000000000000000000000000000000000000000000000600052603260045260246000fd5b90600052602060002001549050919050565b6060600b805461092f90615922565b80601f016020809104026020016040519081016040528092919081815260200182805461095b90615922565b80156109a85780601f1061097d576101008083540402835291602001916109a8565b820191906000526020600020905b81548152906001019060200180831161098b57829003601f168201915b50505050509050919050565b60006109bf82611dc5565b6109fe576040517f08c379a00000000000000000000000000000000000000000000000000000000081526004016109f5906154a2565b60405180910390fd5b600082604051610a0e9190615028565b9081526020016040518091039020600101549050919050565b610a587f9f2df0fed2c77648de5860a4cc508cd0818c85b8b8a1ab4ceeef8d981c8956a6610a53612269565b6114c0565b610a97576040517f08c379a0000000000000000000000000000000000000000000000000000000008152600401610a8e90615442565b60405180910390fd5b610aa384848484612271565b50505050565b600060016000838152602001908152602001600020600101549050919050565b610ad281611dc5565b15610b12576040517f08c379a0000000000000000000000000000000000000000000000000000000008152600401610b0990615382565b60405180910390fd5b81600082604051610b239190615028565b9081526020016040518091039020600101819055506001600082604051610b4a9190615028565b908152602001604051809103902060000160006101000a81548160ff021916908315150217905550610b7a612269565b600082604051610b8a9190615028565b908152602001604051809103902060020160006101000a81548173ffffffffffffffffffffffffffffffffffffffff021916908373ffffffffffffffffffffffffffffffffffffffff160217905550610be281611dc5565b610c21576040517f08c379a0000000000000000000000000000000000000000000000000000000008152600401610c18906154a2565b60405180910390fd5b5050565b8151835114610c69576040517f08c379a0000000000000000000000000000000000000000000000000000000008152600401610c6090615522565b60405180910390fd5b600073ffffffffffffffffffffffffffffffffffffffff168473ffffffffffffffffffffffffffffffffffffffff161415610cd9576040517f08c379a0000000000000000000000000000000000000000000000000000000008152600401610cd0906153e2565b60405180910390fd5b610ce1612269565b73ffffffffffffffffffffffffffffffffffffffff168573ffffffffffffffffffffffffffffffffffffffff161480610d275750610d2685610d21612269565b611964565b5b610d66576040517f08c379a0000000000000000000000000000000000000000000000000000000008152600401610d5d90615402565b60405180910390fd5b6000610d70612269565b9050610d808187878787876124dc565b60005b8451811015610f89576000858281518110610dc7577f4e487b7100000000000000000000000000000000000000000000000000000000600052603260045260246000fd5b602002602001015190506000858381518110610e0c577f4e487b7100000000000000000000000000000000000000000000000000000000600052603260045260246000fd5b6020026020010151905060006009600084815260200190815260200160002060008b73ffffffffffffffffffffffffffffffffffffffff1673ffffffffffffffffffffffffffffffffffffffff16815260200190815260200160002054905081811015610eae576040517f08c379a0000000000000000000000000000000000000000000000000000000008152600401610ea590615462565b60405180910390fd5b8181610eba9190615804565b6009600085815260200190815260200160002060008c73ffffffffffffffffffffffffffffffffffffffff1673ffffffffffffffffffffffffffffffffffffffff16815260200190815260200160002081905550816009600085815260200190815260200160002060008b73ffffffffffffffffffffffffffffffffffffffff1673ffffffffffffffffffffffffffffffffffffffff1681526020019081526020016000206000828254610f6e9190615754565b9250508190555050505080610f8290615954565b9050610d83565b508473ffffffffffffffffffffffffffffffffffffffff168673ffffffffffffffffffffffffffffffffffffffff168273ffffffffffffffffffffffffffffffffffffffff167f4a39dc06d4c0dbc64b70af90fd698a233a518aa5d07e595d983b8c0526c8f7fb8787604051611000929190615178565b60405180910390a46110168187878787876124f2565b505050505050565b6110288282611ecc565b61104d8160026000858152602001908152602001600020611e9c90919063ffffffff16565b505050565b61105c82826126c2565b611081816002600085815260200190815260200160002061274590919063ffffffff16565b505050565b6110b77f65d7a28e3265b37a6474929f336521b332c1681b933f6cb9f3376673440d862a6110b2612269565b6114c0565b6110f6576040517f08c379a00000000000000000000000000000000000000000000000000000000081526004016110ed90615482565b60405180910390fd5b6110fe612775565b565b60608151835114611146576040517f08c379a000000000000000000000000000000000000000000000000000000000815260040161113d90615502565b60405180910390fd5b6000835167ffffffffffffffff811115611189577f4e487b7100000000000000000000000000000000000000000000000000000000600052604160045260246000fd5b6040519080825280602002602001820160405280156111b75781602001602082028036833780820191505090505b50905060005b84518110156112a657611250858281518110611202577f4e487b7100000000000000000000000000000000000000000000000000000000600052603260045260246000fd5b6020026020010151858381518110611243577f4e487b7100000000000000000000000000000000000000000000000000000000600052603260045260246000fd5b60200260200101516107af565b828281518110611289577f4e487b7100000000000000000000000000000000000000000000000000000000600052603260045260246000fd5b6020026020010181815250508061129f90615954565b90506111bd565b508091505092915050565b6000600c60009054906101000a900460ff16905090565b6112d0612269565b73ffffffffffffffffffffffffffffffffffffffff168373ffffffffffffffffffffffffffffffffffffffff161480611316575061131583611310612269565b611964565b5b611355576040517f08c379a000000000000000000000000000000000000000000000000000000000815260040161134c90615362565b60405180910390fd5b611360838383612817565b505050565b6113967f9f2df0fed2c77648de5860a4cc508cd0818c85b8b8a1ab4ceeef8d981c8956a6611391612269565b6114c0565b6113d5576040517f08c379a00000000000000000000000000000000000000000000000000000000081526004016113cc90615442565b60405180910390fd5b6113e184848484612b1f565b50505050565b7f9f2df0fed2c77648de5860a4cc508cd0818c85b8b8a1ab4ceeef8d981c8956a681565b600e5481565b600f5481565b6114487f65d7a28e3265b37a6474929f336521b332c1681b933f6cb9f3376673440d862a611443612269565b6114c0565b611487576040517f08c379a000000000000000000000000000000000000000000000000000000000815260040161147e906154c2565b60405180910390fd5b61148f612cb6565b565b60006114b88260026000868152602001908152602001600020612d5990919063ffffffff16565b905092915050565b60006001600084815260200190815260200160002060000160008373ffffffffffffffffffffffffffffffffffffffff1673ffffffffffffffffffffffffffffffffffffffff16815260200190815260200160002060009054906101000a900460ff16905092915050565b6000801b81565b8173ffffffffffffffffffffffffffffffffffffffff16611551612269565b73ffffffffffffffffffffffffffffffffffffffff1614156115a8576040517f08c379a000000000000000000000000000000000000000000000000000000000815260040161159f906154e2565b60405180910390fd5b80600a60006115b5612269565b73ffffffffffffffffffffffffffffffffffffffff1673ffffffffffffffffffffffffffffffffffffffff16815260200190815260200160002060008473ffffffffffffffffffffffffffffffffffffffff1673ffffffffffffffffffffffffffffffffffffffff16815260200190815260200160002060006101000a81548160ff0219169083151502179055508173ffffffffffffffffffffffffffffffffffffffff16611662612269565b73ffffffffffffffffffffffffffffffffffffffff167f17307eab39ab6107e8899845ad3d59bd9653f200f220920489ca2b5937696c31836040516116a791906151af565b60405180910390a35050565b600063bc197c8160e01b905095945050505050565b60006116d382611dc5565b611712576040517f08c379a0000000000000000000000000000000000000000000000000000000008152600401611709906154a2565b60405180910390fd5b6000826040516117229190615028565b908152602001604051809103902060020160009054906101000a900473ffffffffffffffffffffffffffffffffffffffff169050919050565b600061177860026000848152602001908152602001600020612d73565b9050919050565b600d818154811061178f57600080fd5b906000526020600020016000915090505481565b60006117af8383612d88565b9050600360009054906101000a900473ffffffffffffffffffffffffffffffffffffffff1673ffffffffffffffffffffffffffffffffffffffff166339a8c661826117f9856116c8565b6040518363ffffffff1660e01b815260040161181692919061559d565b600060405180830381600087803b15801561183057600080fd5b505af1158015611844573d6000803e3d6000fd5b50505050505050565b7f9f2df0fed2c77648de5860a4cc508cd0818c85b8b8a1ab4ceeef8d981c8956a681565b61187b8282612e7c565b6118a0816002600085815260200190815260200160002061274590919063ffffffff16565b505050565b6118ae81612ea5565b600460009054906101000a900473ffffffffffffffffffffffffffffffffffffffff1673ffffffffffffffffffffffffffffffffffffffff166339a8c66182306040518363ffffffff1660e01b815260040161190b92919061559d565b600060405180830381600087803b15801561192557600080fd5b505af1158015611939573d6000803e3d6000fd5b5050505050565b7f65d7a28e3265b37a6474929f336521b332c1681b933f6cb9f3376673440d862a81565b6000600a60008473ffffffffffffffffffffffffffffffffffffffff1673ffffffffffffffffffffffffffffffffffffffff16815260200190815260200160002060008373ffffffffffffffffffffffffffffffffffffffff1673ffffffffffffffffffffffffffffffffffffffff16815260200190815260200160002060009054906101000a900460ff16905092915050565b600063f23a6e6160e01b905095945050505050565b600073ffffffffffffffffffffffffffffffffffffffff168473ffffffffffffffffffffffffffffffffffffffff161415611a7d576040517f08c379a0000000000000000000000000000000000000000000000000000000008152600401611a74906153e2565b60405180910390fd5b611a85612269565b73ffffffffffffffffffffffffffffffffffffffff168573ffffffffffffffffffffffffffffffffffffffff161480611acb5750611aca85611ac5612269565b611964565b5b611b0a576040517f08c379a0000000000000000000000000000000000000000000000000000000008152600401611b0190615362565b60405180910390fd5b6000611b14612269565b9050611b34818787611b2588612f72565b611b2e88612f72565b876124dc565b60006009600086815260200190815260200160002060008873ffffffffffffffffffffffffffffffffffffffff1673ffffffffffffffffffffffffffffffffffffffff16815260200190815260200160002054905083811015611bcc576040517f08c379a0000000000000000000000000000000000000000000000000000000008152600401611bc390615462565b60405180910390fd5b8381611bd89190615804565b6009600087815260200190815260200160002060008973ffffffffffffffffffffffffffffffffffffffff1673ffffffffffffffffffffffffffffffffffffffff16815260200190815260200160002081905550836009600087815260200190815260200160002060008873ffffffffffffffffffffffffffffffffffffffff1673ffffffffffffffffffffffffffffffffffffffff1681526020019081526020016000206000828254611c8c9190615754565b925050819055508573ffffffffffffffffffffffffffffffffffffffff168773ffffffffffffffffffffffffffffffffffffffff168373ffffffffffffffffffffffffffffffffffffffff167fc3d58168c5ae7397731d063d5bbf3d657854427343f4c083240f7aacaa2d0f628888604051611d099291906155c6565b60405180910390a4611d1f828888888888613038565b50505050505050565b611d30612269565b73ffffffffffffffffffffffffffffffffffffffff168373ffffffffffffffffffffffffffffffffffffffff161480611d765750611d7583611d70612269565b611964565b5b611db5576040517f08c379a0000000000000000000000000000000000000000000000000000000008152600401611dac90615362565b60405180910390fd5b611dc0838383613208565b505050565b60008082604051611dd69190615028565b908152602001604051809103902060000160009054906101000a900460ff169050919050565b600360009054906101000a900473ffffffffffffffffffffffffffffffffffffffff1673ffffffffffffffffffffffffffffffffffffffff166339a8c66182306040518363ffffffff1660e01b8152600401611e5992919061559d565b600060405180830381600087803b158015611e7357600080fd5b505af1158015611e87573d6000803e3d6000fd5b5050505050565b611e988282613430565b5050565b6000611ec4836000018373ffffffffffffffffffffffffffffffffffffffff1660001b613510565b905092915050565b611ed582610aa9565b611ee681611ee1612269565b613580565b611ef08383613430565b505050565b606060006002836002611f0891906157aa565b611f129190615754565b67ffffffffffffffff811115611f51577f4e487b7100000000000000000000000000000000000000000000000000000000600052604160045260246000fd5b6040519080825280601f01601f191660200182016040528015611f835781602001600182028036833780820191505090505b5090507f300000000000000000000000000000000000000000000000000000000000000081600081518110611fe1577f4e487b7100000000000000000000000000000000000000000000000000000000600052603260045260246000fd5b60200101907effffffffffffffffffffffffffffffffffffffffffffffffffffffffffffff1916908160001a9053507f78000000000000000000000000000000000000000000000000000000000000008160018151811061206b577f4e487b7100000000000000000000000000000000000000000000000000000000600052603260045260246000fd5b60200101907effffffffffffffffffffffffffffffffffffffffffffffffffffffffffffff1916908160001a905350600060018460026120ab91906157aa565b6120b59190615754565b90505b60018111156121a1577f3031323334353637383961626364656600000000000000000000000000000000600f86166010811061211d577f4e487b7100000000000000000000000000000000000000000000000000000000600052603260045260246000fd5b1a60f81b82828151811061215a577f4e487b7100000000000000000000000000000000000000000000000000000000600052603260045260246000fd5b60200101907effffffffffffffffffffffffffffffffffffffffffffffffffffffffffffff1916908160001a905350600485901c94508061219a906158f8565b90506120b8565b50600084146121e5576040517f08c379a00000000000000000000000000000000000000000000000000000000081526004016121dc90615262565b60405180910390fd5b8091505092915050565b60007f4e2312e0000000000000000000000000000000000000000000000000000000007bffffffffffffffffffffffffffffffffffffffffffffffffffffffff1916827bffffffffffffffffffffffffffffffffffffffffffffffffffffffff1916148061226257506122618261361d565b5b9050919050565b600033905090565b600073ffffffffffffffffffffffffffffffffffffffff168473ffffffffffffffffffffffffffffffffffffffff1614156122e1576040517f08c379a00000000000000000000000000000000000000000000000000000000081526004016122d890615542565b60405180910390fd5b8151835114612325576040517f08c379a000000000000000000000000000000000000000000000000000000000815260040161231c90615522565b60405180910390fd5b600061232f612269565b9050612340816000878787876124dc565b60005b845181101561244657838181518110612385577f4e487b7100000000000000000000000000000000000000000000000000000000600052603260045260246000fd5b6020026020010151600960008784815181106123ca577f4e487b7100000000000000000000000000000000000000000000000000000000600052603260045260246000fd5b6020026020010151815260200190815260200160002060008873ffffffffffffffffffffffffffffffffffffffff1673ffffffffffffffffffffffffffffffffffffffff168152602001908152602001600020600082825461242c9190615754565b92505081905550808061243e90615954565b915050612343565b508473ffffffffffffffffffffffffffffffffffffffff16600073ffffffffffffffffffffffffffffffffffffffff168273ffffffffffffffffffffffffffffffffffffffff167f4a39dc06d4c0dbc64b70af90fd698a233a518aa5d07e595d983b8c0526c8f7fb87876040516124be929190615178565b60405180910390a46124d5816000878787876124f2565b5050505050565b6124ea86868686868661362f565b505050505050565b6125118473ffffffffffffffffffffffffffffffffffffffff1661368d565b156126ba578373ffffffffffffffffffffffffffffffffffffffff1663bc197c8187878686866040518663ffffffff1660e01b8152600401612557959493929190615094565b602060405180830381600087803b15801561257157600080fd5b505af19250505080156125a257506040513d601f19601f8201168201806040525081019061259f91906143bc565b60015b612631576125ae615a48565b806125b957506125f6565b806040517f08c379a00000000000000000000000000000000000000000000000000000000081526004016125ed9190615200565b60405180910390fd5b6040517f08c379a000000000000000000000000000000000000000000000000000000000815260040161262890615222565b60405180910390fd5b63bc197c8160e01b7bffffffffffffffffffffffffffffffffffffffffffffffffffffffff1916817bffffffffffffffffffffffffffffffffffffffffffffffffffffffff1916146126b8576040517f08c379a00000000000000000000000000000000000000000000000000000000081526004016126af90615282565b60405180910390fd5b505b505050505050565b6126ca612269565b73ffffffffffffffffffffffffffffffffffffffff168173ffffffffffffffffffffffffffffffffffffffff1614612737576040517f08c379a000000000000000000000000000000000000000000000000000000000815260040161272e90615562565b60405180910390fd5b61274182826136a0565b5050565b600061276d836000018373ffffffffffffffffffffffffffffffffffffffff1660001b613782565b905092915050565b61277d6112b1565b6127bc576040517f08c379a00000000000000000000000000000000000000000000000000000000081526004016127b3906152a2565b60405180910390fd5b6000600c60006101000a81548160ff0219169083151502179055507f5db9ee0a495bf2e6ff9c91a7834c1ba4fdd244a5e8aa4e537bd38aeae4b073aa612800612269565b60405161280d9190615079565b60405180910390a1565b600073ffffffffffffffffffffffffffffffffffffffff168373ffffffffffffffffffffffffffffffffffffffff161415612887576040517f08c379a000000000000000000000000000000000000000000000000000000000815260040161287e90615422565b60405180910390fd5b80518251146128cb576040517f08c379a00000000000000000000000000000000000000000000000000000000081526004016128c290615522565b60405180910390fd5b60006128d5612269565b90506128f5818560008686604051806020016040528060008152506124dc565b60005b8351811015612a9957600084828151811061293c577f4e487b7100000000000000000000000000000000000000000000000000000000600052603260045260246000fd5b602002602001015190506000848381518110612981577f4e487b7100000000000000000000000000000000000000000000000000000000600052603260045260246000fd5b6020026020010151905060006009600084815260200190815260200160002060008973ffffffffffffffffffffffffffffffffffffffff1673ffffffffffffffffffffffffffffffffffffffff16815260200190815260200160002054905081811015612a23576040517f08c379a0000000000000000000000000000000000000000000000000000000008152600401612a1a90615322565b60405180910390fd5b8181612a2f9190615804565b6009600085815260200190815260200160002060008a73ffffffffffffffffffffffffffffffffffffffff1673ffffffffffffffffffffffffffffffffffffffff168152602001908152602001600020819055505050508080612a9190615954565b9150506128f8565b50600073ffffffffffffffffffffffffffffffffffffffff168473ffffffffffffffffffffffffffffffffffffffff168273ffffffffffffffffffffffffffffffffffffffff167f4a39dc06d4c0dbc64b70af90fd698a233a518aa5d07e595d983b8c0526c8f7fb8686604051612b11929190615178565b60405180910390a450505050565b600073ffffffffffffffffffffffffffffffffffffffff168473ffffffffffffffffffffffffffffffffffffffff161415612b8f576040517f08c379a0000000000000000000000000000000000000000000000000000000008152600401612b8690615542565b60405180910390fd5b6000612b99612269565b9050612bba81600087612bab88612f72565b612bb488612f72565b876124dc565b826009600086815260200190815260200160002060008773ffffffffffffffffffffffffffffffffffffffff1673ffffffffffffffffffffffffffffffffffffffff1681526020019081526020016000206000828254612c1a9190615754565b925050819055508473ffffffffffffffffffffffffffffffffffffffff16600073ffffffffffffffffffffffffffffffffffffffff168273ffffffffffffffffffffffffffffffffffffffff167fc3d58168c5ae7397731d063d5bbf3d657854427343f4c083240f7aacaa2d0f628787604051612c989291906155c6565b60405180910390a4612caf81600087878787613038565b5050505050565b612cbe6112b1565b15612cfe576040517f08c379a0000000000000000000000000000000000000000000000000000000008152600401612cf5906153a2565b60405180910390fd5b6001600c60006101000a81548160ff0219169083151502179055507f62e78cea01bee320cd4e420270b5ea74000d11b0c9f74754ebdbfc544b05a258612d42612269565b604051612d4f9190615079565b60405180910390a1565b6000612d688360000183613900565b60001c905092915050565b6000612d818260000161399a565b9050919050565b6000612d9382611dc5565b612dd2576040517f08c379a0000000000000000000000000000000000000000000000000000000008152600401612dc9906154a2565b60405180910390fd5b82612ddc836109b4565b10612e1c576040517f08c379a0000000000000000000000000000000000000000000000000000000008152600401612e13906153c2565b60405180910390fd5b60008083604051612e2d9190615028565b90815260200160405180910390206001015484612e4a9190615804565b905083600084604051612e5d9190615028565b9081526020016040518091039020600101819055508091505092915050565b612e8582610aa9565b612e9681612e91612269565b613580565b612ea083836136a0565b505050565b612eb96000801b612eb4612269565b6114c0565b612ef8576040517f08c379a0000000000000000000000000000000000000000000000000000000008152600401612eef906152e2565b60405180910390fd5b612f1530600f548360405180602001604052806000815250611365565b600f6000815480929190612f2890615954565b919050555080600e6000828254612f3f9190615754565b92505081905550600d81908060018154018082558091505060019003906000526020600020016000909190919091505550565b60606000600167ffffffffffffffff811115612fb7577f4e487b7100000000000000000000000000000000000000000000000000000000600052604160045260246000fd5b604051908082528060200260200182016040528015612fe55781602001602082028036833780820191505090505b5090508281600081518110613023577f4e487b7100000000000000000000000000000000000000000000000000000000600052603260045260246000fd5b60200260200101818152505080915050919050565b6130578473ffffffffffffffffffffffffffffffffffffffff1661368d565b15613200578373ffffffffffffffffffffffffffffffffffffffff1663f23a6e6187878686866040518663ffffffff1660e01b815260040161309d9594939291906150fc565b602060405180830381600087803b1580156130b757600080fd5b505af19250505080156130e857506040513d601f19601f820116820180604052508101906130e591906143bc565b60015b613177576130f4615a48565b806130ff575061313c565b806040517f08c379a00000000000000000000000000000000000000000000000000000000081526004016131339190615200565b60405180910390fd5b6040517f08c379a000000000000000000000000000000000000000000000000000000000815260040161316e90615222565b60405180910390fd5b63f23a6e6160e01b7bffffffffffffffffffffffffffffffffffffffffffffffffffffffff1916817bffffffffffffffffffffffffffffffffffffffffffffffffffffffff1916146131fe576040517f08c379a00000000000000000000000000000000000000000000000000000000081526004016131f590615282565b60405180910390fd5b505b505050505050565b600073ffffffffffffffffffffffffffffffffffffffff168373ffffffffffffffffffffffffffffffffffffffff161415613278576040517f08c379a000000000000000000000000000000000000000000000000000000000815260040161326f90615422565b60405180910390fd5b6000613282612269565b90506132b28185600061329487612f72565b61329d87612f72565b604051806020016040528060008152506124dc565b60006009600085815260200190815260200160002060008673ffffffffffffffffffffffffffffffffffffffff1673ffffffffffffffffffffffffffffffffffffffff1681526020019081526020016000205490508281101561334a576040517f08c379a000000000000000000000000000000000000000000000000000000000815260040161334190615322565b60405180910390fd5b82816133569190615804565b6009600086815260200190815260200160002060008773ffffffffffffffffffffffffffffffffffffffff1673ffffffffffffffffffffffffffffffffffffffff16815260200190815260200160002081905550600073ffffffffffffffffffffffffffffffffffffffff168573ffffffffffffffffffffffffffffffffffffffff168373ffffffffffffffffffffffffffffffffffffffff167fc3d58168c5ae7397731d063d5bbf3d657854427343f4c083240f7aacaa2d0f6287876040516134219291906155c6565b60405180910390a45050505050565b61343a82826114c0565b61350c57600180600084815260200190815260200160002060000160008373ffffffffffffffffffffffffffffffffffffffff1673ffffffffffffffffffffffffffffffffffffffff16815260200190815260200160002060006101000a81548160ff0219169083151502179055506134b1612269565b73ffffffffffffffffffffffffffffffffffffffff168173ffffffffffffffffffffffffffffffffffffffff16837f2f8788117e7eff1d82e926ec794901d17c78024a50270940304540a733656f0d60405160405180910390a45b5050565b600061351c83836139ab565b61357557826000018290806001815401808255809150506001900390600052602060002001600090919091909150558260000180549050836001016000848152602001908152602001600020819055506001905061357a565b600090505b92915050565b61358a82826114c0565b613619576135af8173ffffffffffffffffffffffffffffffffffffffff166014611ef5565b6135bd8360001c6020611ef5565b6040516020016135ce92919061503f565b6040516020818303038152906040526040517f08c379a00000000000000000000000000000000000000000000000000000000081526004016136109190615200565b60405180910390fd5b5050565b6000613628826139ce565b9050919050565b61363d868686868686613ab0565b6136456112b1565b15613685576040517f08c379a000000000000000000000000000000000000000000000000000000000815260040161367c90615342565b60405180910390fd5b505050505050565b600080823b905060008111915050919050565b6136aa82826114c0565b1561377e5760006001600084815260200190815260200160002060000160008373ffffffffffffffffffffffffffffffffffffffff1673ffffffffffffffffffffffffffffffffffffffff16815260200190815260200160002060006101000a81548160ff021916908315150217905550613723612269565b73ffffffffffffffffffffffffffffffffffffffff168173ffffffffffffffffffffffffffffffffffffffff16837ff6391f5c32d9c69d2a47ea670b442974b53935d1edc7fd64eb21e047a839171b60405160405180910390a45b5050565b600080836001016000848152602001908152602001600020549050600081146138f45760006001826137b49190615804565b90506000600186600001805490506137cc9190615804565b9050600086600001828154811061380c577f4e487b7100000000000000000000000000000000000000000000000000000000600052603260045260246000fd5b9060005260206000200154905080876000018481548110613856577f4e487b7100000000000000000000000000000000000000000000000000000000600052603260045260246000fd5b90600052602060002001819055508387600101600083815260200190815260200160002081905550866000018054806138b8577f4e487b7100000000000000000000000000000000000000000000000000000000600052603160045260246000fd5b600190038181906000526020600020016000905590558660010160008781526020019081526020016000206000905560019450505050506138fa565b60009150505b92915050565b60008183600001805490501161394b576040517f08c379a000000000000000000000000000000000000000000000000000000000815260040161394290615242565b60405180910390fd5b826000018281548110613987577f4e487b7100000000000000000000000000000000000000000000000000000000600052603260045260246000fd5b9060005260206000200154905092915050565b600081600001805490509050919050565b600080836001016000848152602001908152602001600020541415905092915050565b60007fd9b67a26000000000000000000000000000000000000000000000000000000007bffffffffffffffffffffffffffffffffffffffffffffffffffffffff1916827bffffffffffffffffffffffffffffffffffffffffffffffffffffffff19161480613a9957507f0e89341c000000000000000000000000000000000000000000000000000000007bffffffffffffffffffffffffffffffffffffffffffffffffffffffff1916827bffffffffffffffffffffffffffffffffffffffffffffffffffffffff1916145b80613aa95750613aa882613ab8565b5b9050919050565b505050505050565b60007f5a05180f000000000000000000000000000000000000000000000000000000007bffffffffffffffffffffffffffffffffffffffffffffffffffffffff1916827bffffffffffffffffffffffffffffffffffffffffffffffffffffffff19161480613b2b5750613b2a82613b32565b5b9050919050565b60007f7965db0b000000000000000000000000000000000000000000000000000000007bffffffffffffffffffffffffffffffffffffffffffffffffffffffff1916827bffffffffffffffffffffffffffffffffffffffffffffffffffffffff19161480613ba55750613ba482613bac565b5b9050919050565b60007f01ffc9a7000000000000000000000000000000000000000000000000000000007bffffffffffffffffffffffffffffffffffffffffffffffffffffffff1916827bffffffffffffffffffffffffffffffffffffffffffffffffffffffff1916149050919050565b6000613c29613c2484615620565b6155ef565b90508083825260208201905082856020860282011115613c4857600080fd5b60005b85811015613c785781613c5e8882613d6a565b845260208401935060208301925050600181019050613c4b565b5050509392505050565b6000613c95613c908461564c565b6155ef565b90508083825260208201905082856020860282011115613cb457600080fd5b60005b85811015613ce45781613cca8882613e7b565b845260208401935060208301925050600181019050613cb7565b5050509392505050565b6000613d01613cfc84615678565b6155ef565b905082815260208101848484011115613d1957600080fd5b613d248482856158b6565b509392505050565b6000613d3f613d3a846156a8565b6155ef565b905082815260208101848484011115613d5757600080fd5b613d628482856158b6565b509392505050565b600081359050613d7981615afe565b92915050565b600082601f830112613d9057600080fd5b8135613da0848260208601613c16565b91505092915050565b600082601f830112613dba57600080fd5b8135613dca848260208601613c82565b91505092915050565b600081359050613de281615b15565b92915050565b600081359050613df781615b2c565b92915050565b600081359050613e0c81615b43565b92915050565b600081519050613e2181615b43565b92915050565b600082601f830112613e3857600080fd5b8135613e48848260208601613cee565b91505092915050565b600082601f830112613e6257600080fd5b8135613e72848260208601613d2c565b91505092915050565b600081359050613e8a81615b5a565b92915050565b60008060408385031215613ea357600080fd5b6000613eb185828601613d6a565b9250506020613ec285828601613d6a565b9150509250929050565b600080600080600060a08688031215613ee457600080fd5b6000613ef288828901613d6a565b9550506020613f0388828901613d6a565b945050604086013567ffffffffffffffff811115613f2057600080fd5b613f2c88828901613da9565b935050606086013567ffffffffffffffff811115613f4957600080fd5b613f5588828901613da9565b925050608086013567ffffffffffffffff811115613f7257600080fd5b613f7e88828901613e27565b9150509295509295909350565b600080600080600060a08688031215613fa357600080fd5b6000613fb188828901613d6a565b9550506020613fc288828901613d6a565b9450506040613fd388828901613e7b565b9350506060613fe488828901613e7b565b925050608086013567ffffffffffffffff81111561400157600080fd5b61400d88828901613e27565b9150509295509295909350565b60008060006060848603121561402f57600080fd5b600061403d86828701613d6a565b935050602084013567ffffffffffffffff81111561405a57600080fd5b61406686828701613da9565b925050604084013567ffffffffffffffff81111561408357600080fd5b61408f86828701613da9565b9150509250925092565b600080600080608085870312156140af57600080fd5b60006140bd87828801613d6a565b945050602085013567ffffffffffffffff8111156140da57600080fd5b6140e687828801613da9565b935050604085013567ffffffffffffffff81111561410357600080fd5b61410f87828801613da9565b925050606085013567ffffffffffffffff81111561412c57600080fd5b61413887828801613e27565b91505092959194509250565b6000806040838503121561415757600080fd5b600061416585828601613d6a565b925050602061417685828601613dd3565b9150509250929050565b6000806040838503121561419357600080fd5b60006141a185828601613d6a565b92505060206141b285828601613e7b565b9150509250929050565b6000806000606084860312156141d157600080fd5b60006141df86828701613d6a565b93505060206141f086828701613e7b565b925050604061420186828701613e7b565b9150509250925092565b6000806000806080858703121561422157600080fd5b600061422f87828801613d6a565b945050602061424087828801613e7b565b935050604061425187828801613e7b565b925050606085013567ffffffffffffffff81111561426e57600080fd5b61427a87828801613e27565b91505092959194509250565b6000806040838503121561429957600080fd5b600083013567ffffffffffffffff8111156142b357600080fd5b6142bf85828601613d7f565b925050602083013567ffffffffffffffff8111156142dc57600080fd5b6142e885828601613da9565b9150509250929050565b60006020828403121561430457600080fd5b600061431284828501613de8565b91505092915050565b6000806040838503121561432e57600080fd5b600061433c85828601613de8565b925050602061434d85828601613d6a565b9150509250929050565b6000806040838503121561436a57600080fd5b600061437885828601613de8565b925050602061438985828601613e7b565b9150509250929050565b6000602082840312156143a557600080fd5b60006143b384828501613dfd565b91505092915050565b6000602082840312156143ce57600080fd5b60006143dc84828501613e12565b91505092915050565b6000602082840312156143f757600080fd5b600082013567ffffffffffffffff81111561441157600080fd5b61441d84828501613e51565b91505092915050565b60006020828403121561443857600080fd5b600061444684828501613e7b565b91505092915050565b6000806040838503121561446257600080fd5b600061447085828601613e7b565b925050602083013567ffffffffffffffff81111561448d57600080fd5b61449985828601613e51565b9150509250929050565b60006144af838361500a565b60208301905092915050565b6144c481615838565b82525050565b60006144d5826156e8565b6144df8185615716565b93506144ea836156d8565b8060005b8381101561451b57815161450288826144a3565b975061450d83615709565b9250506001810190506144ee565b5085935050505092915050565b6145318161584a565b82525050565b61454081615856565b82525050565b61454f81615860565b82525050565b6000614560826156f3565b61456a8185615727565b935061457a8185602086016158c5565b61458381615a2a565b840191505092915050565b6000614599826156fe565b6145a38185615738565b93506145b38185602086016158c5565b6145bc81615a2a565b840191505092915050565b60006145d2826156fe565b6145dc8185615749565b93506145ec8185602086016158c5565b80840191505092915050565b6000614605603483615738565b91507f455243313135353a207472616e7366657220746f206e6f6e204552433131353560008301527f526563656976657220696d706c656d656e7465720000000000000000000000006020830152604082019050919050565b600061466b602283615738565b91507f456e756d657261626c655365743a20696e646578206f7574206f6620626f756e60008301527f64730000000000000000000000000000000000000000000000000000000000006020830152604082019050919050565b60006146d1602083615738565b91507f537472696e67733a20686578206c656e67746820696e73756666696369656e746000830152602082019050919050565b6000614711602883615738565b91507f455243313135353a204552433131353552656365697665722072656a6563746560008301527f6420746f6b656e730000000000000000000000000000000000000000000000006020830152604082019050919050565b6000614777601483615738565b91507f5061757361626c653a206e6f74207061757365640000000000000000000000006000830152602082019050919050565b60006147b7602083615738565b91507f494420746f206c617267652c20736b696e20646f6573206e6f742065786973746000830152602082019050919050565b60006147f7601583615738565b91507f4e6f207065726d697373696f6e20746f206d696e7400000000000000000000006000830152602082019050919050565b6000614837602b83615738565b91507f455243313135353a2062616c616e636520717565727920666f7220746865207a60008301527f65726f20616464726573730000000000000000000000000000000000000000006020830152604082019050919050565b600061489d602483615738565b91507f455243313135353a206275726e20616d6f756e7420657863656564732062616c60008301527f616e6365000000000000000000000000000000000000000000000000000000006020830152604082019050919050565b6000614903602c83615738565b91507f455243313135355061757361626c653a20746f6b656e207472616e736665722060008301527f7768696c652070617573656400000000000000000000000000000000000000006020830152604082019050919050565b6000614969602983615738565b91507f455243313135353a2063616c6c6572206973206e6f74206f776e6572206e6f7260008301527f20617070726f76656400000000000000000000000000000000000000000000006020830152604082019050919050565b60006149cf600b83615738565b91507f55736572206578697374730000000000000000000000000000000000000000006000830152602082019050919050565b6000614a0f601083615738565b91507f5061757361626c653a20706175736564000000000000000000000000000000006000830152602082019050919050565b6000614a4f601883615738565b91507f53636f726520746f6f204c6f772f206e6f206368616e676500000000000000006000830152602082019050919050565b6000614a8f602583615738565b91507f455243313135353a207472616e7366657220746f20746865207a65726f20616460008301527f64726573730000000000000000000000000000000000000000000000000000006020830152604082019050919050565b6000614af5603283615738565b91507f455243313135353a207472616e736665722063616c6c6572206973206e6f742060008301527f6f776e6572206e6f7220617070726f76656400000000000000000000000000006020830152604082019050919050565b6000614b5b602383615738565b91507f455243313135353a206275726e2066726f6d20746865207a65726f206164647260008301527f65737300000000000000000000000000000000000000000000000000000000006020830152604082019050919050565b6000614bc1603883615738565b91507f455243313135355072657365744d696e7465725061757365723a206d7573742060008301527f68617665206d696e74657220726f6c6520746f206d696e7400000000000000006020830152604082019050919050565b6000614c27602a83615738565b91507f455243313135353a20696e73756666696369656e742062616c616e636520666f60008301527f72207472616e73666572000000000000000000000000000000000000000000006020830152604082019050919050565b6000614c8d603b83615738565b91507f455243313135355072657365744d696e7465725061757365723a206d7573742060008301527f686176652070617573657220726f6c6520746f20756e706175736500000000006020830152604082019050919050565b6000614cf3601283615738565b91507f5573657220646f65736e277420657869737400000000000000000000000000006000830152602082019050919050565b6000614d33603983615738565b91507f455243313135355072657365744d696e7465725061757365723a206d7573742060008301527f686176652070617573657220726f6c6520746f207061757365000000000000006020830152604082019050919050565b6000614d99601783615749565b91507f416363657373436f6e74726f6c3a206163636f756e74200000000000000000006000830152601782019050919050565b6000614dd9602983615738565b91507f455243313135353a2073657474696e6720617070726f76616c2073746174757360008301527f20666f722073656c6600000000000000000000000000000000000000000000006020830152604082019050919050565b6000614e3f602983615738565b91507f455243313135353a206163636f756e747320616e6420696473206c656e67746860008301527f206d69736d6174636800000000000000000000000000000000000000000000006020830152604082019050919050565b6000614ea5602883615738565b91507f455243313135353a2069647320616e6420616d6f756e7473206c656e6774682060008301527f6d69736d617463680000000000000000000000000000000000000000000000006020830152604082019050919050565b6000614f0b602183615738565b91507f455243313135353a206d696e7420746f20746865207a65726f2061646472657360008301527f73000000000000000000000000000000000000000000000000000000000000006020830152604082019050919050565b6000614f71601183615749565b91507f206973206d697373696e6720726f6c65200000000000000000000000000000006000830152601182019050919050565b6000614fb1602f83615738565b91507f416363657373436f6e74726f6c3a2063616e206f6e6c792072656e6f756e636560008301527f20726f6c657320666f722073656c6600000000000000000000000000000000006020830152604082019050919050565b615013816158ac565b82525050565b615022816158ac565b82525050565b600061503482846145c7565b915081905092915050565b600061504a82614d8c565b915061505682856145c7565b915061506182614f64565b915061506d82846145c7565b91508190509392505050565b600060208201905061508e60008301846144bb565b92915050565b600060a0820190506150a960008301886144bb565b6150b660208301876144bb565b81810360408301526150c881866144ca565b905081810360608301526150dc81856144ca565b905081810360808301526150f08184614555565b90509695505050505050565b600060a08201905061511160008301886144bb565b61511e60208301876144bb565b61512b6040830186615019565b6151386060830185615019565b818103608083015261514a8184614555565b90509695505050505050565b6000602082019050818103600083015261517081846144ca565b905092915050565b6000604082019050818103600083015261519281856144ca565b905081810360208301526151a681846144ca565b90509392505050565b60006020820190506151c46000830184614528565b92915050565b60006020820190506151df6000830184614537565b92915050565b60006020820190506151fa6000830184614546565b92915050565b6000602082019050818103600083015261521a818461458e565b905092915050565b6000602082019050818103600083015261523b816145f8565b9050919050565b6000602082019050818103600083015261525b8161465e565b9050919050565b6000602082019050818103600083015261527b816146c4565b9050919050565b6000602082019050818103600083015261529b81614704565b9050919050565b600060208201905081810360008301526152bb8161476a565b9050919050565b600060208201905081810360008301526152db816147aa565b9050919050565b600060208201905081810360008301526152fb816147ea565b9050919050565b6000602082019050818103600083015261531b8161482a565b9050919050565b6000602082019050818103600083015261533b81614890565b9050919050565b6000602082019050818103600083015261535b816148f6565b9050919050565b6000602082019050818103600083015261537b8161495c565b9050919050565b6000602082019050818103600083015261539b816149c2565b9050919050565b600060208201905081810360008301526153bb81614a02565b9050919050565b600060208201905081810360008301526153db81614a42565b9050919050565b600060208201905081810360008301526153fb81614a82565b9050919050565b6000602082019050818103600083015261541b81614ae8565b9050919050565b6000602082019050818103600083015261543b81614b4e565b9050919050565b6000602082019050818103600083015261545b81614bb4565b9050919050565b6000602082019050818103600083015261547b81614c1a565b9050919050565b6000602082019050818103600083015261549b81614c80565b9050919050565b600060208201905081810360008301526154bb81614ce6565b9050919050565b600060208201905081810360008301526154db81614d26565b9050919050565b600060208201905081810360008301526154fb81614dcc565b9050919050565b6000602082019050818103600083015261551b81614e32565b9050919050565b6000602082019050818103600083015261553b81614e98565b9050919050565b6000602082019050818103600083015261555b81614efe565b9050919050565b6000602082019050818103600083015261557b81614fa4565b9050919050565b60006020820190506155976000830184615019565b92915050565b60006040820190506155b26000830185615019565b6155bf60208301846144bb565b9392505050565b60006040820190506155db6000830185615019565b6155e86020830184615019565b9392505050565b6000604051905081810181811067ffffffffffffffff82111715615616576156156159fb565b5b8060405250919050565b600067ffffffffffffffff82111561563b5761563a6159fb565b5b602082029050602081019050919050565b600067ffffffffffffffff821115615667576156666159fb565b5b602082029050602081019050919050565b600067ffffffffffffffff821115615693576156926159fb565b5b601f19601f8301169050602081019050919050565b600067ffffffffffffffff8211156156c3576156c26159fb565b5b601f19601f8301169050602081019050919050565b6000819050602082019050919050565b600081519050919050565b600081519050919050565b600081519050919050565b6000602082019050919050565b600082825260208201905092915050565b600082825260208201905092915050565b600082825260208201905092915050565b600081905092915050565b600061575f826158ac565b915061576a836158ac565b9250827fffffffffffffffffffffffffffffffffffffffffffffffffffffffffffffffff0382111561579f5761579e61599d565b5b828201905092915050565b60006157b5826158ac565b91506157c0836158ac565b9250817fffffffffffffffffffffffffffffffffffffffffffffffffffffffffffffffff04831182151516156157f9576157f861599d565b5b828202905092915050565b600061580f826158ac565b915061581a836158ac565b92508282101561582d5761582c61599d565b5b828203905092915050565b60006158438261588c565b9050919050565b60008115159050919050565b6000819050919050565b60007fffffffff0000000000000000000000000000000000000000000000000000000082169050919050565b600073ffffffffffffffffffffffffffffffffffffffff82169050919050565b6000819050919050565b82818337600083830152505050565b60005b838110156158e35780820151818401526020810190506158c8565b838111156158f2576000848401525b50505050565b6000615903826158ac565b915060008214156159175761591661599d565b5b600182039050919050565b6000600282049050600182168061593a57607f821691505b6020821081141561594e5761594d6159cc565b5b50919050565b600061595f826158ac565b91507fffffffffffffffffffffffffffffffffffffffffffffffffffffffffffffffff8214156159925761599161599d565b5b600182019050919050565b7f4e487b7100000000000000000000000000000000000000000000000000000000600052601160045260246000fd5b7f4e487b7100000000000000000000000000000000000000000000000000000000600052602260045260246000fd5b7f4e487b7100000000000000000000000000000000000000000000000000000000600052604160045260246000fd5b6000601f19601f8301169050919050565b60008160e01c9050919050565b600060443d1015615a5857615afb565b60046000803e615a69600051615a3b565b6308c379a08114615a7a5750615afb565b60405160043d036004823e80513d602482011167ffffffffffffffff82111715615aa657505050615afb565b808201805167ffffffffffffffff811115615ac5575050505050615afb565b8060208301013d8501811115615ae057505050505050615afb565b615ae982615a2a565b60208401016040528296505050505050505b90565b615b0781615838565b8114615b1257600080fd5b50565b615b1e8161584a565b8114615b2957600080fd5b50565b615b3581615856565b8114615b4057600080fd5b50565b615b4c81615860565b8114615b5757600080fd5b50565b615b63816158ac565b8114615b6e57600080fd5b5056fea26469706673582212200532be9ae7faff479ca16c4301f975048ed2c28f18c76195db9268807bfce5cd64736f6c63430008000033",
  "linkReferences": {},
  "deployedLinkReferences": {}
}