{
  "_format": "hh-sol-artifact-1",
  "contractName": "CS_Skin",
  "sourceName": "contracts/CS_Skin.sol",
  "abi": [
    {
      "inputs": [],
      "stateMutability": "nonpayable",
      "type": "constructor"
    },
    {
      "anonymous": false,
      "inputs": [
        {
          "indexed": true,
          "internalType": "address",
          "name": "account",
          "type": "address"
        },
        {
          "indexed": true,
          "internalType": "address",
          "name": "operator",
          "type": "address"
        },
        {
          "indexed": false,
          "internalType": "bool",
          "name": "approved",
          "type": "bool"
        }
      ],
      "name": "ApprovalForAll",
      "type": "event"
    },
    {
      "anonymous": false,
      "inputs": [
        {
          "indexed": false,
          "internalType": "address",
          "name": "account",
          "type": "address"
        }
      ],
      "name": "Paused",
      "type": "event"
    },
    {
      "anonymous": false,
      "inputs": [
        {
          "indexed": true,
          "internalType": "bytes32",
          "name": "role",
          "type": "bytes32"
        },
        {
          "indexed": true,
          "internalType": "bytes32",
          "name": "previousAdminRole",
          "type": "bytes32"
        },
        {
          "indexed": true,
          "internalType": "bytes32",
          "name": "newAdminRole",
          "type": "bytes32"
        }
      ],
      "name": "RoleAdminChanged",
      "type": "event"
    },
    {
      "anonymous": false,
      "inputs": [
        {
          "indexed": true,
          "internalType": "bytes32",
          "name": "role",
          "type": "bytes32"
        },
        {
          "indexed": true,
          "internalType": "address",
          "name": "account",
          "type": "address"
        },
        {
          "indexed": true,
          "internalType": "address",
          "name": "sender",
          "type": "address"
        }
      ],
      "name": "RoleGranted",
      "type": "event"
    },
    {
      "anonymous": false,
      "inputs": [
        {
          "indexed": true,
          "internalType": "bytes32",
          "name": "role",
          "type": "bytes32"
        },
        {
          "indexed": true,
          "internalType": "address",
          "name": "account",
          "type": "address"
        },
        {
          "indexed": true,
          "internalType": "address",
          "name": "sender",
          "type": "address"
        }
      ],
      "name": "RoleRevoked",
      "type": "event"
    },
    {
      "anonymous": false,
      "inputs": [
        {
          "indexed": true,
          "internalType": "address",
          "name": "operator",
          "type": "address"
        },
        {
          "indexed": true,
          "internalType": "address",
          "name": "from",
          "type": "address"
        },
        {
          "indexed": true,
          "internalType": "address",
          "name": "to",
          "type": "address"
        },
        {
          "indexed": false,
          "internalType": "uint256[]",
          "name": "ids",
          "type": "uint256[]"
        },
        {
          "indexed": false,
          "internalType": "uint256[]",
          "name": "values",
          "type": "uint256[]"
        }
      ],
      "name": "TransferBatch",
      "type": "event"
    },
    {
      "anonymous": false,
      "inputs": [
        {
          "indexed": true,
          "internalType": "address",
          "name": "operator",
          "type": "address"
        },
        {
          "indexed": true,
          "internalType": "address",
          "name": "from",
          "type": "address"
        },
        {
          "indexed": true,
          "internalType": "address",
          "name": "to",
          "type": "address"
        },
        {
          "indexed": false,
          "internalType": "uint256",
          "name": "id",
          "type": "uint256"
        },
        {
          "indexed": false,
          "internalType": "uint256",
          "name": "value",
          "type": "uint256"
        }
      ],
      "name": "TransferSingle",
      "type": "event"
    },
    {
      "anonymous": false,
      "inputs": [
        {
          "indexed": false,
          "internalType": "string",
          "name": "value",
          "type": "string"
        },
        {
          "indexed": true,
          "internalType": "uint256",
          "name": "id",
          "type": "uint256"
        }
      ],
      "name": "URI",
      "type": "event"
    },
    {
      "anonymous": false,
      "inputs": [
        {
          "indexed": false,
          "internalType": "address",
          "name": "account",
          "type": "address"
        }
      ],
      "name": "Unpaused",
      "type": "event"
    },
    {
      "inputs": [],
      "name": "DEFAULT_ADMIN_ROLE",
      "outputs": [
        {
          "internalType": "bytes32",
          "name": "",
          "type": "bytes32"
        }
      ],
      "stateMutability": "view",
      "type": "function"
    },
    {
      "inputs": [],
      "name": "LOCAL_MINTER_ROLE",
      "outputs": [
        {
          "internalType": "bytes32",
          "name": "",
          "type": "bytes32"
        }
      ],
      "stateMutability": "view",
      "type": "function"
    },
    {
      "inputs": [],
      "name": "MINTER_ROLE",
      "outputs": [
        {
          "internalType": "bytes32",
          "name": "",
          "type": "bytes32"
        }
      ],
      "stateMutability": "view",
      "type": "function"
    },
    {
      "inputs": [],
      "name": "PAUSER_ROLE",
      "outputs": [
        {
          "internalType": "bytes32",
          "name": "",
          "type": "bytes32"
        }
      ],
      "stateMutability": "view",
      "type": "function"
    },
    {
      "inputs": [
        {
          "internalType": "address",
          "name": "account",
          "type": "address"
        },
        {
          "internalType": "uint256",
          "name": "id",
          "type": "uint256"
        }
      ],
      "name": "balanceOf",
      "outputs": [
        {
          "internalType": "uint256",
          "name": "",
          "type": "uint256"
        }
      ],
      "stateMutability": "view",
      "type": "function"
    },
    {
      "inputs": [
        {
          "internalType": "address[]",
          "name": "accounts",
          "type": "address[]"
        },
        {
          "internalType": "uint256[]",
          "name": "ids",
          "type": "uint256[]"
        }
      ],
      "name": "balanceOfBatch",
      "outputs": [
        {
          "internalType": "uint256[]",
          "name": "",
          "type": "uint256[]"
        }
      ],
      "stateMutability": "view",
      "type": "function"
    },
    {
      "inputs": [
        {
          "internalType": "address",
          "name": "account",
          "type": "address"
        },
        {
          "internalType": "uint256",
          "name": "id",
          "type": "uint256"
        },
        {
          "internalType": "uint256",
          "name": "value",
          "type": "uint256"
        }
      ],
      "name": "burn",
      "outputs": [],
      "stateMutability": "nonpayable",
      "type": "function"
    },
    {
      "inputs": [
        {
          "internalType": "address",
          "name": "account",
          "type": "address"
        },
        {
          "internalType": "uint256[]",
          "name": "ids",
          "type": "uint256[]"
        },
        {
          "internalType": "uint256[]",
          "name": "values",
          "type": "uint256[]"
        }
      ],
      "name": "burnBatch",
      "outputs": [],
      "stateMutability": "nonpayable",
      "type": "function"
    },
    {
      "inputs": [
        {
          "internalType": "string",
          "name": "_id",
          "type": "string"
        }
      ],
      "name": "getAddress",
      "outputs": [
        {
          "internalType": "address",
          "name": "",
          "type": "address"
        }
      ],
      "stateMutability": "view",
      "type": "function"
    },
    {
      "inputs": [
        {
          "internalType": "bytes32",
          "name": "role",
          "type": "bytes32"
        }
      ],
      "name": "getRoleAdmin",
      "outputs": [
        {
          "internalType": "bytes32",
          "name": "",
          "type": "bytes32"
        }
      ],
      "stateMutability": "view",
      "type": "function"
    },
    {
      "inputs": [
        {
          "internalType": "bytes32",
          "name": "role",
          "type": "bytes32"
        },
        {
          "internalType": "uint256",
          "name": "index",
          "type": "uint256"
        }
      ],
      "name": "getRoleMember",
      "outputs": [
        {
          "internalType": "address",
          "name": "",
          "type": "address"
        }
      ],
      "stateMutability": "view",
      "type": "function"
    },
    {
      "inputs": [
        {
          "internalType": "bytes32",
          "name": "role",
          "type": "bytes32"
        }
      ],
      "name": "getRoleMemberCount",
      "outputs": [
        {
          "internalType": "uint256",
          "name": "",
          "type": "uint256"
        }
      ],
      "stateMutability": "view",
      "type": "function"
    },
    {
      "inputs": [
        {
          "internalType": "string",
          "name": "_id",
          "type": "string"
        }
      ],
      "name": "getScore",
      "outputs": [
        {
          "internalType": "uint256",
          "name": "",
          "type": "uint256"
        }
      ],
      "stateMutability": "view",
      "type": "function"
    },
    {
      "inputs": [
        {
          "internalType": "uint256",
          "name": "_id",
          "type": "uint256"
        }
      ],
      "name": "getSkinAvailability",
      "outputs": [
        {
          "internalType": "uint256",
          "name": "",
          "type": "uint256"
        }
      ],
      "stateMutability": "view",
      "type": "function"
    },
    {
      "inputs": [
        {
          "internalType": "bytes32",
          "name": "role",
          "type": "bytes32"
        },
        {
          "internalType": "address",
          "name": "account",
          "type": "address"
        }
      ],
      "name": "grantRole",
      "outputs": [],
      "stateMutability": "nonpayable",
      "type": "function"
    },
    {
      "inputs": [
        {
          "internalType": "bytes32",
          "name": "role",
          "type": "bytes32"
        },
        {
          "internalType": "address",
          "name": "account",
          "type": "address"
        }
      ],
      "name": "hasRole",
      "outputs": [
        {
          "internalType": "bool",
          "name": "",
          "type": "bool"
        }
      ],
      "stateMutability": "view",
      "type": "function"
    },
    {
      "inputs": [
        {
          "internalType": "address",
          "name": "account",
          "type": "address"
        },
        {
          "internalType": "address",
          "name": "operator",
          "type": "address"
        }
      ],
      "name": "isApprovedForAll",
      "outputs": [
        {
          "internalType": "bool",
          "name": "",
          "type": "bool"
        }
      ],
      "stateMutability": "view",
      "type": "function"
    },
    {
      "inputs": [
        {
          "internalType": "address",
          "name": "to",
          "type": "address"
        },
        {
          "internalType": "uint256",
          "name": "id",
          "type": "uint256"
        },
        {
          "internalType": "uint256",
          "name": "amount",
          "type": "uint256"
        },
        {
          "internalType": "bytes",
          "name": "data",
          "type": "bytes"
        }
      ],
      "name": "mint",
      "outputs": [],
      "stateMutability": "nonpayable",
      "type": "function"
    },
    {
      "inputs": [
        {
          "internalType": "address",
          "name": "to",
          "type": "address"
        },
        {
          "internalType": "uint256[]",
          "name": "ids",
          "type": "uint256[]"
        },
        {
          "internalType": "uint256[]",
          "name": "amounts",
          "type": "uint256[]"
        },
        {
          "internalType": "bytes",
          "name": "data",
          "type": "bytes"
        }
      ],
      "name": "mintBatch",
      "outputs": [],
      "stateMutability": "nonpayable",
      "type": "function"
    },
    {
      "inputs": [
        {
          "internalType": "uint256",
          "name": "_amount",
          "type": "uint256"
        }
      ],
      "name": "newSkin",
      "outputs": [],
      "stateMutability": "nonpayable",
      "type": "function"
    },
    {
      "inputs": [
        {
          "internalType": "address",
          "name": "",
          "type": "address"
        },
        {
          "internalType": "address",
          "name": "",
          "type": "address"
        },
        {
          "internalType": "uint256[]",
          "name": "",
          "type": "uint256[]"
        },
        {
          "internalType": "uint256[]",
          "name": "",
          "type": "uint256[]"
        },
        {
          "internalType": "bytes",
          "name": "",
          "type": "bytes"
        }
      ],
      "name": "onERC1155BatchReceived",
      "outputs": [
        {
          "internalType": "bytes4",
          "name": "",
          "type": "bytes4"
        }
      ],
      "stateMutability": "nonpayable",
      "type": "function"
    },
    {
      "inputs": [
        {
          "internalType": "address",
          "name": "",
          "type": "address"
        },
        {
          "internalType": "address",
          "name": "",
          "type": "address"
        },
        {
          "internalType": "uint256",
          "name": "",
          "type": "uint256"
        },
        {
          "internalType": "uint256",
          "name": "",
          "type": "uint256"
        },
        {
          "internalType": "bytes",
          "name": "",
          "type": "bytes"
        }
      ],
      "name": "onERC1155Received",
      "outputs": [
        {
          "internalType": "bytes4",
          "name": "",
          "type": "bytes4"
        }
      ],
      "stateMutability": "nonpayable",
      "type": "function"
    },
    {
      "inputs": [],
      "name": "pause",
      "outputs": [],
      "stateMutability": "nonpayable",
      "type": "function"
    },
    {
      "inputs": [],
      "name": "paused",
      "outputs": [
        {
          "internalType": "bool",
          "name": "",
          "type": "bool"
        }
      ],
      "stateMutability": "view",
      "type": "function"
    },
    {
      "inputs": [
        {
          "internalType": "bytes32",
          "name": "role",
          "type": "bytes32"
        },
        {
          "internalType": "address",
          "name": "account",
          "type": "address"
        }
      ],
      "name": "renounceRole",
      "outputs": [],
      "stateMutability": "nonpayable",
      "type": "function"
    },
    {
      "inputs": [
        {
          "internalType": "bytes32",
          "name": "role",
          "type": "bytes32"
        },
        {
          "internalType": "address",
          "name": "account",
          "type": "address"
        }
      ],
      "name": "revokeRole",
      "outputs": [],
      "stateMutability": "nonpayable",
      "type": "function"
    },
    {
      "inputs": [
        {
          "internalType": "address",
          "name": "from",
          "type": "address"
        },
        {
          "internalType": "address",
          "name": "to",
          "type": "address"
        },
        {
          "internalType": "uint256[]",
          "name": "ids",
          "type": "uint256[]"
        },
        {
          "internalType": "uint256[]",
          "name": "amounts",
          "type": "uint256[]"
        },
        {
          "internalType": "bytes",
          "name": "data",
          "type": "bytes"
        }
      ],
      "name": "safeBatchTransferFrom",
      "outputs": [],
      "stateMutability": "nonpayable",
      "type": "function"
    },
    {
      "inputs": [
        {
          "internalType": "address",
          "name": "from",
          "type": "address"
        },
        {
          "internalType": "address",
          "name": "to",
          "type": "address"
        },
        {
          "internalType": "uint256",
          "name": "id",
          "type": "uint256"
        },
        {
          "internalType": "uint256",
          "name": "amount",
          "type": "uint256"
        },
        {
          "internalType": "bytes",
          "name": "data",
          "type": "bytes"
        }
      ],
      "name": "safeTransferFrom",
      "outputs": [],
      "stateMutability": "nonpayable",
      "type": "function"
    },
    {
      "inputs": [
        {
          "internalType": "address",
          "name": "operator",
          "type": "address"
        },
        {
          "internalType": "bool",
          "name": "approved",
          "type": "bool"
        }
      ],
      "name": "setApprovalForAll",
      "outputs": [],
      "stateMutability": "nonpayable",
      "type": "function"
    },
    {
      "inputs": [
        {
          "internalType": "address",
          "name": "_FAH",
          "type": "address"
        },
        {
          "internalType": "address",
          "name": "_CS_Case",
          "type": "address"
        }
      ],
      "name": "setContracts",
      "outputs": [],
      "stateMutability": "nonpayable",
      "type": "function"
    },
    {
      "inputs": [
        {
          "internalType": "uint256",
          "name": "_score",
          "type": "uint256"
        },
        {
          "internalType": "string",
          "name": "_id",
          "type": "string"
        }
      ],
      "name": "signUp",
      "outputs": [],
      "stateMutability": "nonpayable",
      "type": "function"
    },
    {
      "inputs": [],
      "name": "skinCount",
      "outputs": [
        {
          "internalType": "uint256",
          "name": "",
          "type": "uint256"
        }
      ],
      "stateMutability": "view",
      "type": "function"
    },
    {
      "inputs": [
        {
          "internalType": "uint256",
          "name": "",
          "type": "uint256"
        }
      ],
      "name": "skinQuantities",
      "outputs": [
        {
          "internalType": "uint256",
          "name": "",
          "type": "uint256"
        }
      ],
      "stateMutability": "view",
      "type": "function"
    },
    {
      "inputs": [
        {
          "internalType": "bytes4",
          "name": "interfaceId",
          "type": "bytes4"
        }
      ],
      "name": "supportsInterface",
      "outputs": [
        {
          "internalType": "bool",
          "name": "",
          "type": "bool"
        }
      ],
      "stateMutability": "view",
      "type": "function"
    },
    {
      "inputs": [],
      "name": "uniqueSkinCount",
      "outputs": [
        {
          "internalType": "uint256",
          "name": "",
          "type": "uint256"
        }
      ],
      "stateMutability": "view",
      "type": "function"
    },
    {
      "inputs": [],
      "name": "unpause",
      "outputs": [],
      "stateMutability": "nonpayable",
      "type": "function"
    },
    {
      "inputs": [
        {
          "internalType": "uint256",
          "name": "_score",
          "type": "uint256"
        },
        {
          "internalType": "string",
          "name": "_id",
          "type": "string"
        }
      ],
      "name": "updateScore",
      "outputs": [],
      "stateMutability": "nonpayable",
      "type": "function"
    },
    {
      "inputs": [
        {
          "internalType": "uint256",
          "name": "",
          "type": "uint256"
        }
      ],
      "name": "uri",
      "outputs": [
        {
          "internalType": "string",
          "name": "",
          "type": "string"
        }
      ],
      "stateMutability": "view",
      "type": "function"
    },
    {
      "inputs": [
        {
          "internalType": "string",
          "name": "_id",
          "type": "string"
        }
      ],
      "name": "userExists",
      "outputs": [
        {
          "internalType": "bool",
          "name": "",
          "type": "bool"
        }
      ],
      "stateMutability": "view",
      "type": "function"
    }
  ],
  "bytecode": "0x60806040526000600a556000600b553480156200001b57600080fd5b5060405180602001604052806000815250806200006e7f9f2df0fed2c77648de5860a4cc508cd0818c85b8b8a1ab4ceeef8d981c8956a6620000626200016c60201b60201c565b6200017460201b60201c565b6200007f81620001bc60201b60201c565b506000600860006101000a81548160ff021916908315150217905550620000bf6000801b620000b36200016c60201b60201c565b6200017460201b60201c565b620001007f9f2df0fed2c77648de5860a4cc508cd0818c85b8b8a1ab4ceeef8d981c8956a6620000f46200016c60201b60201c565b6200017460201b60201c565b620001417f65d7a28e3265b37a6474929f336521b332c1681b933f6cb9f3376673440d862a620001356200016c60201b60201c565b6200017460201b60201c565b50620001666000801b6200015a6200016c60201b60201c565b620001d860201b60201c565b62000d12565b600033905090565b6200018b82826200022060201b62001e9f1760201c565b620001b781600260008581526020019081526020016000206200023660201b62001ead1790919060201c565b505050565b8060079080519060200190620001d4929190620008a3565b5050565b620001ef82826200026e60201b62001edd1760201c565b6200021b81600260008581526020019081526020016000206200023660201b62001ead1790919060201c565b505050565b620002328282620002b760201b60201c565b5050565b600062000266836000018373ffffffffffffffffffffffffffffffffffffffff1660001b620003a860201b60201c565b905092915050565b6200027f826200042260201b60201c565b620002a081620002946200016c60201b60201c565b6200044260201b60201c565b620002b28383620002b760201b60201c565b505050565b620002c982826200050660201b60201c565b620003a457600180600084815260200190815260200160002060000160008373ffffffffffffffffffffffffffffffffffffffff1673ffffffffffffffffffffffffffffffffffffffff16815260200190815260200160002060006101000a81548160ff021916908315150217905550620003496200016c60201b60201c565b73ffffffffffffffffffffffffffffffffffffffff168173ffffffffffffffffffffffffffffffffffffffff16837f2f8788117e7eff1d82e926ec794901d17c78024a50270940304540a733656f0d60405160405180910390a45b5050565b6000620003bc83836200057160201b60201c565b620004175782600001829080600181540180825580915050600190039060005260206000200160009091909190915055826000018054905083600101600084815260200190815260200160002081905550600190506200041c565b600090505b92915050565b600060016000838152602001908152602001600020600101549050919050565b6200045482826200050660201b60201c565b6200050257620004878173ffffffffffffffffffffffffffffffffffffffff1660146200059460201b62001f061760201c565b620004a28360001c60206200059460201b62001f061760201c565b604051602001620004b592919062000a91565b6040516020818303038152906040526040517f08c379a0000000000000000000000000000000000000000000000000000000008152600401620004f9919062000ad3565b60405180910390fd5b5050565b60006001600084815260200190815260200160002060000160008373ffffffffffffffffffffffffffffffffffffffff1673ffffffffffffffffffffffffffffffffffffffff16815260200190815260200160002060009054906101000a900460ff16905092915050565b600080836001016000848152602001908152602001600020541415905092915050565b606060006002836002620005a9919062000b9d565b620005b5919062000b40565b67ffffffffffffffff811115620005f5577f4e487b7100000000000000000000000000000000000000000000000000000000600052604160045260246000fd5b6040519080825280601f01601f191660200182016040528015620006285781602001600182028036833780820191505090505b5090507f30000000000000000000000000000000000000000000000000000000000000008160008151811062000687577f4e487b7100000000000000000000000000000000000000000000000000000000600052603260045260246000fd5b60200101907effffffffffffffffffffffffffffffffffffffffffffffffffffffffffffff1916908160001a9053507f78000000000000000000000000000000000000000000000000000000000000008160018151811062000712577f4e487b7100000000000000000000000000000000000000000000000000000000600052603260045260246000fd5b60200101907effffffffffffffffffffffffffffffffffffffffffffffffffffffffffffff1916908160001a9053506000600184600262000754919062000b9d565b62000760919062000b40565b90505b600181111562000852577f3031323334353637383961626364656600000000000000000000000000000000600f861660108110620007ca577f4e487b7100000000000000000000000000000000000000000000000000000000600052603260045260246000fd5b1a60f81b82828151811062000808577f4e487b7100000000000000000000000000000000000000000000000000000000600052603260045260246000fd5b60200101907effffffffffffffffffffffffffffffffffffffffffffffffffffffffffffff1916908160001a905350600485901c9450806200084a9062000c3e565b905062000763565b506000841462000899576040517f08c379a0000000000000000000000000000000000000000000000000000000008152600401620008909062000af7565b60405180910390fd5b8091505092915050565b828054620008b19062000c6d565b90600052602060002090601f016020900481019282620008d5576000855562000921565b82601f10620008f057805160ff191683800117855562000921565b8280016001018555821562000921579182015b828111156200092057825182559160200191906001019062000903565b5b50905062000930919062000934565b5090565b5b808211156200094f57600081600090555060010162000935565b5090565b6000620009608262000b19565b6200096c818562000b24565b93506200097e81856020860162000c08565b620009898162000d01565b840191505092915050565b6000620009a18262000b19565b620009ad818562000b35565b9350620009bf81856020860162000c08565b80840191505092915050565b6000620009da60208362000b24565b91507f537472696e67733a20686578206c656e67746820696e73756666696369656e746000830152602082019050919050565b600062000a1c60178362000b35565b91507f416363657373436f6e74726f6c3a206163636f756e74200000000000000000006000830152601782019050919050565b600062000a5e60118362000b35565b91507f206973206d697373696e6720726f6c65200000000000000000000000000000006000830152601182019050919050565b600062000a9e8262000a0d565b915062000aac828562000994565b915062000ab98262000a4f565b915062000ac7828462000994565b91508190509392505050565b6000602082019050818103600083015262000aef818462000953565b905092915050565b6000602082019050818103600083015262000b1281620009cb565b9050919050565b600081519050919050565b600082825260208201905092915050565b600081905092915050565b600062000b4d8262000bfe565b915062000b5a8362000bfe565b9250827fffffffffffffffffffffffffffffffffffffffffffffffffffffffffffffffff0382111562000b925762000b9162000ca3565b5b828201905092915050565b600062000baa8262000bfe565b915062000bb78362000bfe565b9250817fffffffffffffffffffffffffffffffffffffffffffffffffffffffffffffffff048311821515161562000bf35762000bf262000ca3565b5b828202905092915050565b6000819050919050565b60005b8381101562000c2857808201518184015260208101905062000c0b565b8381111562000c38576000848401525b50505050565b600062000c4b8262000bfe565b9150600082141562000c625762000c6162000ca3565b5b600182039050919050565b6000600282049050600182168062000c8657607f821691505b6020821081141562000c9d5762000c9c62000cd2565b5b50919050565b7f4e487b7100000000000000000000000000000000000000000000000000000000600052601160045260246000fd5b7f4e487b7100000000000000000000000000000000000000000000000000000000600052602260045260246000fd5b6000601f19601f8301169050919050565b615e238062000d226000396000f3fe608060405234801561001057600080fd5b506004361061023c5760003560e01c80638456cb591161013b578063d5391393116100b8578063e985e9c51161007c578063e985e9c5146106e7578063f23a6e6114610717578063f242432a14610747578063f5298aca14610763578063fddc968e1461077f5761023c565b8063d539139314610657578063d547741f14610675578063d8952a4914610691578063e5c7920f146106ad578063e63ab1e9146106c95761023c565b8063bc197c81116100ff578063bc197c811461057b578063bf40fac1146105ab578063ca15c873146105db578063cebe801f1461060b578063d179277d1461063b5761023c565b80638456cb59146104d75780639010d07c146104e157806391d1485414610511578063a217fddf14610541578063a22cb4651461055f5761023c565b80632f2ff15d116101c95780636b20c4541161018d5780636b20c45414610445578063731133e91461046157806373e3bfbd1461047d578063780410431461049b5780637abf0125146104b95761023c565b80632f2ff15d146103b557806336568abe146103d15780633f4ba83a146103ed5780634e1273f4146103f75780635c975abb146104275761023c565b8063160202731161021057806316020273146103015780631f7fdffa14610331578063248a9ca31461034d5780632bf4ec851461037d5780632eb2c2d6146103995761023c565b8062fdd58e1461024157806301ffc9a714610271578063077b0e4d146102a15780630e89341c146102d1575b600080fd5b61025b60048036038101906102569190614313565b6107af565b60405161026891906157fe565b60405180910390f35b61028b60048036038101906102869190614526565b610879565b60405161029891906153eb565b60405180910390f35b6102bb60048036038101906102b691906145b9565b61088b565b6040516102c891906157fe565b60405180910390f35b6102eb60048036038101906102e691906145b9565b610920565b6040516102f8919061543c565b60405180910390f35b61031b60048036038101906103169190614578565b6109b4565b60405161032891906157fe565b60405180910390f35b61034b6004803603810190610346919061422c565b610a27565b005b61036760048036038101906103629190614485565b610aa9565b6040516103749190615406565b60405180910390f35b6103976004803603810190610392919061460b565b610ac9565b005b6103b360048036038101906103ae919061405f565b610c25565b005b6103cf60048036038101906103ca91906144ae565b61101e565b005b6103eb60048036038101906103e691906144ae565b611052565b005b6103f5611086565b005b610411600480360381019061040c9190614419565b611100565b60405161041e9190615392565b60405180910390f35b61042f6112b1565b60405161043c91906153eb565b60405180910390f35b61045f600480360381019061045a91906141ad565b6112c8565b005b61047b6004803603810190610476919061439e565b611365565b005b6104856113e7565b6040516104929190615406565b60405180910390f35b6104a361140b565b6040516104b091906157fe565b60405180910390f35b6104c1611411565b6040516104ce91906157fe565b60405180910390f35b6104df611417565b005b6104fb60048036038101906104f691906144ea565b611491565b60405161050891906152b5565b60405180910390f35b61052b600480360381019061052691906144ae565b6114c0565b60405161053891906153eb565b60405180910390f35b61054961152b565b6040516105569190615406565b60405180910390f35b610579600480360381019061057491906142d7565b611532565b005b6105956004803603810190610590919061405f565b6116b3565b6040516105a29190615421565b60405180910390f35b6105c560048036038101906105c09190614578565b6116c8565b6040516105d291906152b5565b60405180910390f35b6105f560048036038101906105f09190614485565b61175b565b60405161060291906157fe565b60405180910390f35b610625600480360381019061062091906145b9565b61177f565b60405161063291906157fe565b60405180910390f35b6106556004803603810190610650919061460b565b6117a3565b005b61065f6117c8565b60405161066c9190615406565b60405180910390f35b61068f600480360381019061068a91906144ae565b6117ec565b005b6106ab60048036038101906106a69190614023565b611820565b005b6106c760048036038101906106c291906145b9565b611916565b005b6106d16119e3565b6040516106de9190615406565b60405180910390f35b61070160048036038101906106fc9190614023565b611a07565b60405161070e91906153eb565b60405180910390f35b610731600480360381019061072c919061411e565b611a9b565b60405161073e9190615421565b60405180910390f35b610761600480360381019061075c919061411e565b611ab0565b005b61077d6004803603810190610778919061434f565b611dcb565b005b61079960048036038101906107949190614578565b611e68565b6040516107a691906153eb565b60405180910390f35b60008073ffffffffffffffffffffffffffffffffffffffff168373ffffffffffffffffffffffffffffffffffffffff161415610820576040517f08c379a00000000000000000000000000000000000000000000000000000000081526004016108179061553e565b60405180910390fd5b6005600083815260200190815260200160002060008473ffffffffffffffffffffffffffffffffffffffff1673ffffffffffffffffffffffffffffffffffffffff16815260200190815260200160002054905092915050565b600061088482612200565b9050919050565b600060098054905082106108d4576040517f08c379a00000000000000000000000000000000000000000000000000000000081526004016108cb906154fe565b60405180910390fd5b6009828154811061090e577f4e487b7100000000000000000000000000000000000000000000000000000000600052603260045260246000fd5b90600052602060002001549050919050565b60606007805461092f90615b9e565b80601f016020809104026020016040519081016040528092919081815260200182805461095b90615b9e565b80156109a85780601f1061097d576101008083540402835291602001916109a8565b820191906000526020600020905b81548152906001019060200180831161098b57829003601f168201915b50505050509050919050565b60006109bf82611e68565b6109fe576040517f08c379a00000000000000000000000000000000000000000000000000000000081526004016109f5906156fe565b60405180910390fd5b600082604051610a0e9190615264565b9081526020016040518091039020600101549050919050565b610a587f9f2df0fed2c77648de5860a4cc508cd0818c85b8b8a1ab4ceeef8d981c8956a6610a5361227a565b6114c0565b610a97576040517f08c379a0000000000000000000000000000000000000000000000000000000008152600401610a8e9061569e565b60405180910390fd5b610aa384848484612282565b50505050565b600060016000838152602001908152602001600020600101549050919050565b610ad281611e68565b15610b12576040517f08c379a0000000000000000000000000000000000000000000000000000000008152600401610b09906155be565b60405180910390fd5b81600082604051610b239190615264565b9081526020016040518091039020600101819055506001600082604051610b4a9190615264565b908152602001604051809103902060000160006101000a81548160ff021916908315150217905550610b7a61227a565b600082604051610b8a9190615264565b908152602001604051809103902060020160006101000a81548173ffffffffffffffffffffffffffffffffffffffff021916908373ffffffffffffffffffffffffffffffffffffffff160217905550610be281611e68565b610c21576040517f08c379a0000000000000000000000000000000000000000000000000000000008152600401610c18906156fe565b60405180910390fd5b5050565b8151835114610c69576040517f08c379a0000000000000000000000000000000000000000000000000000000008152600401610c609061577e565b60405180910390fd5b600073ffffffffffffffffffffffffffffffffffffffff168473ffffffffffffffffffffffffffffffffffffffff161415610cd9576040517f08c379a0000000000000000000000000000000000000000000000000000000008152600401610cd09061561e565b60405180910390fd5b610ce161227a565b73ffffffffffffffffffffffffffffffffffffffff168573ffffffffffffffffffffffffffffffffffffffff161480610d275750610d2685610d2161227a565b611a07565b5b610d66576040517f08c379a0000000000000000000000000000000000000000000000000000000008152600401610d5d9061563e565b60405180910390fd5b6000610d7061227a565b9050610d808187878787876124ed565b60005b8451811015610f89576000858281518110610dc7577f4e487b7100000000000000000000000000000000000000000000000000000000600052603260045260246000fd5b602002602001015190506000858381518110610e0c577f4e487b7100000000000000000000000000000000000000000000000000000000600052603260045260246000fd5b6020026020010151905060006005600084815260200190815260200160002060008b73ffffffffffffffffffffffffffffffffffffffff1673ffffffffffffffffffffffffffffffffffffffff16815260200190815260200160002054905081811015610eae576040517f08c379a0000000000000000000000000000000000000000000000000000000008152600401610ea5906156be565b60405180910390fd5b8181610eba9190615a80565b6005600085815260200190815260200160002060008c73ffffffffffffffffffffffffffffffffffffffff1673ffffffffffffffffffffffffffffffffffffffff16815260200190815260200160002081905550816005600085815260200190815260200160002060008b73ffffffffffffffffffffffffffffffffffffffff1673ffffffffffffffffffffffffffffffffffffffff1681526020019081526020016000206000828254610f6e91906159d0565b9250508190555050505080610f8290615bd0565b9050610d83565b508473ffffffffffffffffffffffffffffffffffffffff168673ffffffffffffffffffffffffffffffffffffffff168273ffffffffffffffffffffffffffffffffffffffff167f4a39dc06d4c0dbc64b70af90fd698a233a518aa5d07e595d983b8c0526c8f7fb87876040516110009291906153b4565b60405180910390a4611016818787878787612503565b505050505050565b6110288282611edd565b61104d8160026000858152602001908152602001600020611ead90919063ffffffff16565b505050565b61105c82826126d3565b611081816002600085815260200190815260200160002061275690919063ffffffff16565b505050565b6110b77f65d7a28e3265b37a6474929f336521b332c1681b933f6cb9f3376673440d862a6110b261227a565b6114c0565b6110f6576040517f08c379a00000000000000000000000000000000000000000000000000000000081526004016110ed906156de565b60405180910390fd5b6110fe612786565b565b60608151835114611146576040517f08c379a000000000000000000000000000000000000000000000000000000000815260040161113d9061575e565b60405180910390fd5b6000835167ffffffffffffffff811115611189577f4e487b7100000000000000000000000000000000000000000000000000000000600052604160045260246000fd5b6040519080825280602002602001820160405280156111b75781602001602082028036833780820191505090505b50905060005b84518110156112a657611250858281518110611202577f4e487b7100000000000000000000000000000000000000000000000000000000600052603260045260246000fd5b6020026020010151858381518110611243577f4e487b7100000000000000000000000000000000000000000000000000000000600052603260045260246000fd5b60200260200101516107af565b828281518110611289577f4e487b7100000000000000000000000000000000000000000000000000000000600052603260045260246000fd5b6020026020010181815250508061129f90615bd0565b90506111bd565b508091505092915050565b6000600860009054906101000a900460ff16905090565b6112d061227a565b73ffffffffffffffffffffffffffffffffffffffff168373ffffffffffffffffffffffffffffffffffffffff16148061131657506113158361131061227a565b611a07565b5b611355576040517f08c379a000000000000000000000000000000000000000000000000000000000815260040161134c9061559e565b60405180910390fd5b611360838383612828565b505050565b6113967f9f2df0fed2c77648de5860a4cc508cd0818c85b8b8a1ab4ceeef8d981c8956a661139161227a565b6114c0565b6113d5576040517f08c379a00000000000000000000000000000000000000000000000000000000081526004016113cc9061569e565b60405180910390fd5b6113e184848484612b30565b50505050565b7f9f2df0fed2c77648de5860a4cc508cd0818c85b8b8a1ab4ceeef8d981c8956a681565b600a5481565b600b5481565b6114487f65d7a28e3265b37a6474929f336521b332c1681b933f6cb9f3376673440d862a61144361227a565b6114c0565b611487576040517f08c379a000000000000000000000000000000000000000000000000000000000815260040161147e9061571e565b60405180910390fd5b61148f612cc7565b565b60006114b88260026000868152602001908152602001600020612d6a90919063ffffffff16565b905092915050565b60006001600084815260200190815260200160002060000160008373ffffffffffffffffffffffffffffffffffffffff1673ffffffffffffffffffffffffffffffffffffffff16815260200190815260200160002060009054906101000a900460ff16905092915050565b6000801b81565b8173ffffffffffffffffffffffffffffffffffffffff1661155161227a565b73ffffffffffffffffffffffffffffffffffffffff1614156115a8576040517f08c379a000000000000000000000000000000000000000000000000000000000815260040161159f9061573e565b60405180910390fd5b80600660006115b561227a565b73ffffffffffffffffffffffffffffffffffffffff1673ffffffffffffffffffffffffffffffffffffffff16815260200190815260200160002060008473ffffffffffffffffffffffffffffffffffffffff1673ffffffffffffffffffffffffffffffffffffffff16815260200190815260200160002060006101000a81548160ff0219169083151502179055508173ffffffffffffffffffffffffffffffffffffffff1661166261227a565b73ffffffffffffffffffffffffffffffffffffffff167f17307eab39ab6107e8899845ad3d59bd9653f200f220920489ca2b5937696c31836040516116a791906153eb565b60405180910390a35050565b600063bc197c8160e01b905095945050505050565b60006116d382611e68565b611712576040517f08c379a0000000000000000000000000000000000000000000000000000000008152600401611709906156fe565b60405180910390fd5b6000826040516117229190615264565b908152602001604051809103902060020160009054906101000a900473ffffffffffffffffffffffffffffffffffffffff169050919050565b600061177860026000848152602001908152602001600020612d84565b9050919050565b6009818154811061178f57600080fd5b906000526020600020016000915090505481565b60006117af8383612d99565b90506117c3816117be846116c8565b612e8d565b505050565b7f9f2df0fed2c77648de5860a4cc508cd0818c85b8b8a1ab4ceeef8d981c8956a681565b6117f682826130c7565b61181b816002600085815260200190815260200160002061275690919063ffffffff16565b505050565b6118517f9f2df0fed2c77648de5860a4cc508cd0818c85b8b8a1ab4ceeef8d981c8956a661184c61227a565b6114c0565b611890576040517f08c379a0000000000000000000000000000000000000000000000000000000008152600401611887906157be565b60405180910390fd5b81600360006101000a81548173ffffffffffffffffffffffffffffffffffffffff021916908373ffffffffffffffffffffffffffffffffffffffff16021790555080600460006101000a81548173ffffffffffffffffffffffffffffffffffffffff021916908373ffffffffffffffffffffffffffffffffffffffff1602179055505050565b61192a6000801b61192561227a565b6114c0565b611969576040517f08c379a00000000000000000000000000000000000000000000000000000000081526004016119609061551e565b60405180910390fd5b61198630600b548360405180602001604052806000815250611365565b600b600081548092919061199990615bd0565b919050555080600a60008282546119b091906159d0565b92505081905550600981908060018154018082558091505060019003906000526020600020016000909190919091505550565b7f65d7a28e3265b37a6474929f336521b332c1681b933f6cb9f3376673440d862a81565b6000600660008473ffffffffffffffffffffffffffffffffffffffff1673ffffffffffffffffffffffffffffffffffffffff16815260200190815260200160002060008373ffffffffffffffffffffffffffffffffffffffff1673ffffffffffffffffffffffffffffffffffffffff16815260200190815260200160002060009054906101000a900460ff16905092915050565b600063f23a6e6160e01b905095945050505050565b600073ffffffffffffffffffffffffffffffffffffffff168473ffffffffffffffffffffffffffffffffffffffff161415611b20576040517f08c379a0000000000000000000000000000000000000000000000000000000008152600401611b179061561e565b60405180910390fd5b611b2861227a565b73ffffffffffffffffffffffffffffffffffffffff168573ffffffffffffffffffffffffffffffffffffffff161480611b6e5750611b6d85611b6861227a565b611a07565b5b611bad576040517f08c379a0000000000000000000000000000000000000000000000000000000008152600401611ba49061559e565b60405180910390fd5b6000611bb761227a565b9050611bd7818787611bc8886130f0565b611bd1886130f0565b876124ed565b60006005600086815260200190815260200160002060008873ffffffffffffffffffffffffffffffffffffffff1673ffffffffffffffffffffffffffffffffffffffff16815260200190815260200160002054905083811015611c6f576040517f08c379a0000000000000000000000000000000000000000000000000000000008152600401611c66906156be565b60405180910390fd5b8381611c7b9190615a80565b6005600087815260200190815260200160002060008973ffffffffffffffffffffffffffffffffffffffff1673ffffffffffffffffffffffffffffffffffffffff16815260200190815260200160002081905550836005600087815260200190815260200160002060008873ffffffffffffffffffffffffffffffffffffffff1673ffffffffffffffffffffffffffffffffffffffff1681526020019081526020016000206000828254611d2f91906159d0565b925050819055508573ffffffffffffffffffffffffffffffffffffffff168773ffffffffffffffffffffffffffffffffffffffff168373ffffffffffffffffffffffffffffffffffffffff167fc3d58168c5ae7397731d063d5bbf3d657854427343f4c083240f7aacaa2d0f628888604051611dac929190615842565b60405180910390a4611dc28288888888886131b6565b50505050505050565b611dd361227a565b73ffffffffffffffffffffffffffffffffffffffff168373ffffffffffffffffffffffffffffffffffffffff161480611e195750611e1883611e1361227a565b611a07565b5b611e58576040517f08c379a0000000000000000000000000000000000000000000000000000000008152600401611e4f9061559e565b60405180910390fd5b611e63838383613386565b505050565b60008082604051611e799190615264565b908152602001604051809103902060000160009054906101000a900460ff169050919050565b611ea982826135ae565b5050565b6000611ed5836000018373ffffffffffffffffffffffffffffffffffffffff1660001b61368e565b905092915050565b611ee682610aa9565b611ef781611ef261227a565b6136fe565b611f0183836135ae565b505050565b606060006002836002611f199190615a26565b611f2391906159d0565b67ffffffffffffffff811115611f62577f4e487b7100000000000000000000000000000000000000000000000000000000600052604160045260246000fd5b6040519080825280601f01601f191660200182016040528015611f945781602001600182028036833780820191505090505b5090507f300000000000000000000000000000000000000000000000000000000000000081600081518110611ff2577f4e487b7100000000000000000000000000000000000000000000000000000000600052603260045260246000fd5b60200101907effffffffffffffffffffffffffffffffffffffffffffffffffffffffffffff1916908160001a9053507f78000000000000000000000000000000000000000000000000000000000000008160018151811061207c577f4e487b7100000000000000000000000000000000000000000000000000000000600052603260045260246000fd5b60200101907effffffffffffffffffffffffffffffffffffffffffffffffffffffffffffff1916908160001a905350600060018460026120bc9190615a26565b6120c691906159d0565b90505b60018111156121b2577f3031323334353637383961626364656600000000000000000000000000000000600f86166010811061212e577f4e487b7100000000000000000000000000000000000000000000000000000000600052603260045260246000fd5b1a60f81b82828151811061216b577f4e487b7100000000000000000000000000000000000000000000000000000000600052603260045260246000fd5b60200101907effffffffffffffffffffffffffffffffffffffffffffffffffffffffffffff1916908160001a905350600485901c9450806121ab90615b74565b90506120c9565b50600084146121f6576040517f08c379a00000000000000000000000000000000000000000000000000000000081526004016121ed9061549e565b60405180910390fd5b8091505092915050565b60007f4e2312e0000000000000000000000000000000000000000000000000000000007bffffffffffffffffffffffffffffffffffffffffffffffffffffffff1916827bffffffffffffffffffffffffffffffffffffffffffffffffffffffff1916148061227357506122728261379b565b5b9050919050565b600033905090565b600073ffffffffffffffffffffffffffffffffffffffff168473ffffffffffffffffffffffffffffffffffffffff1614156122f2576040517f08c379a00000000000000000000000000000000000000000000000000000000081526004016122e99061579e565b60405180910390fd5b8151835114612336576040517f08c379a000000000000000000000000000000000000000000000000000000000815260040161232d9061577e565b60405180910390fd5b600061234061227a565b9050612351816000878787876124ed565b60005b845181101561245757838181518110612396577f4e487b7100000000000000000000000000000000000000000000000000000000600052603260045260246000fd5b6020026020010151600560008784815181106123db577f4e487b7100000000000000000000000000000000000000000000000000000000600052603260045260246000fd5b6020026020010151815260200190815260200160002060008873ffffffffffffffffffffffffffffffffffffffff1673ffffffffffffffffffffffffffffffffffffffff168152602001908152602001600020600082825461243d91906159d0565b92505081905550808061244f90615bd0565b915050612354565b508473ffffffffffffffffffffffffffffffffffffffff16600073ffffffffffffffffffffffffffffffffffffffff168273ffffffffffffffffffffffffffffffffffffffff167f4a39dc06d4c0dbc64b70af90fd698a233a518aa5d07e595d983b8c0526c8f7fb87876040516124cf9291906153b4565b60405180910390a46124e681600087878787612503565b5050505050565b6124fb8686868686866137ad565b505050505050565b6125228473ffffffffffffffffffffffffffffffffffffffff1661380b565b156126cb578373ffffffffffffffffffffffffffffffffffffffff1663bc197c8187878686866040518663ffffffff1660e01b81526004016125689594939291906152d0565b602060405180830381600087803b15801561258257600080fd5b505af19250505080156125b357506040513d601f19601f820116820180604052508101906125b0919061454f565b60015b612642576125bf615cc4565b806125ca5750612607565b806040517f08c379a00000000000000000000000000000000000000000000000000000000081526004016125fe919061543c565b60405180910390fd5b6040517f08c379a00000000000000000000000000000000000000000000000000000000081526004016126399061545e565b60405180910390fd5b63bc197c8160e01b7bffffffffffffffffffffffffffffffffffffffffffffffffffffffff1916817bffffffffffffffffffffffffffffffffffffffffffffffffffffffff1916146126c9576040517f08c379a00000000000000000000000000000000000000000000000000000000081526004016126c0906154be565b60405180910390fd5b505b505050505050565b6126db61227a565b73ffffffffffffffffffffffffffffffffffffffff168173ffffffffffffffffffffffffffffffffffffffff1614612748576040517f08c379a000000000000000000000000000000000000000000000000000000000815260040161273f906157de565b60405180910390fd5b612752828261381e565b5050565b600061277e836000018373ffffffffffffffffffffffffffffffffffffffff1660001b613900565b905092915050565b61278e6112b1565b6127cd576040517f08c379a00000000000000000000000000000000000000000000000000000000081526004016127c4906154de565b60405180910390fd5b6000600860006101000a81548160ff0219169083151502179055507f5db9ee0a495bf2e6ff9c91a7834c1ba4fdd244a5e8aa4e537bd38aeae4b073aa61281161227a565b60405161281e91906152b5565b60405180910390a1565b600073ffffffffffffffffffffffffffffffffffffffff168373ffffffffffffffffffffffffffffffffffffffff161415612898576040517f08c379a000000000000000000000000000000000000000000000000000000000815260040161288f9061567e565b60405180910390fd5b80518251146128dc576040517f08c379a00000000000000000000000000000000000000000000000000000000081526004016128d39061577e565b60405180910390fd5b60006128e661227a565b9050612906818560008686604051806020016040528060008152506124ed565b60005b8351811015612aaa57600084828151811061294d577f4e487b7100000000000000000000000000000000000000000000000000000000600052603260045260246000fd5b602002602001015190506000848381518110612992577f4e487b7100000000000000000000000000000000000000000000000000000000600052603260045260246000fd5b6020026020010151905060006005600084815260200190815260200160002060008973ffffffffffffffffffffffffffffffffffffffff1673ffffffffffffffffffffffffffffffffffffffff16815260200190815260200160002054905081811015612a34576040517f08c379a0000000000000000000000000000000000000000000000000000000008152600401612a2b9061555e565b60405180910390fd5b8181612a409190615a80565b6005600085815260200190815260200160002060008a73ffffffffffffffffffffffffffffffffffffffff1673ffffffffffffffffffffffffffffffffffffffff168152602001908152602001600020819055505050508080612aa290615bd0565b915050612909565b50600073ffffffffffffffffffffffffffffffffffffffff168473ffffffffffffffffffffffffffffffffffffffff168273ffffffffffffffffffffffffffffffffffffffff167f4a39dc06d4c0dbc64b70af90fd698a233a518aa5d07e595d983b8c0526c8f7fb8686604051612b229291906153b4565b60405180910390a450505050565b600073ffffffffffffffffffffffffffffffffffffffff168473ffffffffffffffffffffffffffffffffffffffff161415612ba0576040517f08c379a0000000000000000000000000000000000000000000000000000000008152600401612b979061579e565b60405180910390fd5b6000612baa61227a565b9050612bcb81600087612bbc886130f0565b612bc5886130f0565b876124ed565b826005600086815260200190815260200160002060008773ffffffffffffffffffffffffffffffffffffffff1673ffffffffffffffffffffffffffffffffffffffff1681526020019081526020016000206000828254612c2b91906159d0565b925050819055508473ffffffffffffffffffffffffffffffffffffffff16600073ffffffffffffffffffffffffffffffffffffffff168273ffffffffffffffffffffffffffffffffffffffff167fc3d58168c5ae7397731d063d5bbf3d657854427343f4c083240f7aacaa2d0f628787604051612ca9929190615842565b60405180910390a4612cc0816000878787876131b6565b5050505050565b612ccf6112b1565b15612d0f576040517f08c379a0000000000000000000000000000000000000000000000000000000008152600401612d06906155de565b60405180910390fd5b6001600860006101000a81548160ff0219169083151502179055507f62e78cea01bee320cd4e420270b5ea74000d11b0c9f74754ebdbfc544b05a258612d5361227a565b604051612d6091906152b5565b60405180910390a1565b6000612d798360000183613a7e565b60001c905092915050565b6000612d9282600001613b18565b9050919050565b6000612da482611e68565b612de3576040517f08c379a0000000000000000000000000000000000000000000000000000000008152600401612dda906156fe565b60405180910390fd5b82612ded836109b4565b10612e2d576040517f08c379a0000000000000000000000000000000000000000000000000000000008152600401612e24906155fe565b60405180910390fd5b60008083604051612e3e9190615264565b90815260200160405180910390206001015484612e5b9190615a80565b905083600084604051612e6e9190615264565b9081526020016040518091039020600101819055508091505092915050565b6000600360009054906101000a900473ffffffffffffffffffffffffffffffffffffffff1673ffffffffffffffffffffffffffffffffffffffff166370a08231836040518263ffffffff1660e01b8152600401612eea91906152b5565b60206040518083038186803b158015612f0257600080fd5b505afa158015612f16573d6000803e3d6000fd5b505050506040513d601f19601f82011682018060405250810190612f3a91906145e2565b9050600360009054906101000a900473ffffffffffffffffffffffffffffffffffffffff1673ffffffffffffffffffffffffffffffffffffffff166339a8c66184846040518363ffffffff1660e01b8152600401612f99929190615819565b600060405180830381600087803b158015612fb357600080fd5b505af1158015612fc7573d6000803e3d6000fd5b505050508281600360009054906101000a900473ffffffffffffffffffffffffffffffffffffffff1673ffffffffffffffffffffffffffffffffffffffff166370a08231856040518263ffffffff1660e01b815260040161302891906152b5565b60206040518083038186803b15801561304057600080fd5b505afa158015613054573d6000803e3d6000fd5b505050506040513d601f19601f8201168201806040525081019061307891906145e2565b6130829190615a80565b146130c2576040517f08c379a00000000000000000000000000000000000000000000000000000000081526004016130b99061565e565b60405180910390fd5b505050565b6130d082610aa9565b6130e1816130dc61227a565b6136fe565b6130eb838361381e565b505050565b60606000600167ffffffffffffffff811115613135577f4e487b7100000000000000000000000000000000000000000000000000000000600052604160045260246000fd5b6040519080825280602002602001820160405280156131635781602001602082028036833780820191505090505b50905082816000815181106131a1577f4e487b7100000000000000000000000000000000000000000000000000000000600052603260045260246000fd5b60200260200101818152505080915050919050565b6131d58473ffffffffffffffffffffffffffffffffffffffff1661380b565b1561337e578373ffffffffffffffffffffffffffffffffffffffff1663f23a6e6187878686866040518663ffffffff1660e01b815260040161321b959493929190615338565b602060405180830381600087803b15801561323557600080fd5b505af192505050801561326657506040513d601f19601f82011682018060405250810190613263919061454f565b60015b6132f557613272615cc4565b8061327d57506132ba565b806040517f08c379a00000000000000000000000000000000000000000000000000000000081526004016132b1919061543c565b60405180910390fd5b6040517f08c379a00000000000000000000000000000000000000000000000000000000081526004016132ec9061545e565b60405180910390fd5b63f23a6e6160e01b7bffffffffffffffffffffffffffffffffffffffffffffffffffffffff1916817bffffffffffffffffffffffffffffffffffffffffffffffffffffffff19161461337c576040517f08c379a0000000000000000000000000000000000000000000000000000000008152600401613373906154be565b60405180910390fd5b505b505050505050565b600073ffffffffffffffffffffffffffffffffffffffff168373ffffffffffffffffffffffffffffffffffffffff1614156133f6576040517f08c379a00000000000000000000000000000000000000000000000000000000081526004016133ed9061567e565b60405180910390fd5b600061340061227a565b905061343081856000613412876130f0565b61341b876130f0565b604051806020016040528060008152506124ed565b60006005600085815260200190815260200160002060008673ffffffffffffffffffffffffffffffffffffffff1673ffffffffffffffffffffffffffffffffffffffff168152602001908152602001600020549050828110156134c8576040517f08c379a00000000000000000000000000000000000000000000000000000000081526004016134bf9061555e565b60405180910390fd5b82816134d49190615a80565b6005600086815260200190815260200160002060008773ffffffffffffffffffffffffffffffffffffffff1673ffffffffffffffffffffffffffffffffffffffff16815260200190815260200160002081905550600073ffffffffffffffffffffffffffffffffffffffff168573ffffffffffffffffffffffffffffffffffffffff168373ffffffffffffffffffffffffffffffffffffffff167fc3d58168c5ae7397731d063d5bbf3d657854427343f4c083240f7aacaa2d0f62878760405161359f929190615842565b60405180910390a45050505050565b6135b882826114c0565b61368a57600180600084815260200190815260200160002060000160008373ffffffffffffffffffffffffffffffffffffffff1673ffffffffffffffffffffffffffffffffffffffff16815260200190815260200160002060006101000a81548160ff02191690831515021790555061362f61227a565b73ffffffffffffffffffffffffffffffffffffffff168173ffffffffffffffffffffffffffffffffffffffff16837f2f8788117e7eff1d82e926ec794901d17c78024a50270940304540a733656f0d60405160405180910390a45b5050565b600061369a8383613b29565b6136f35782600001829080600181540180825580915050600190039060005260206000200160009091909190915055826000018054905083600101600084815260200190815260200160002081905550600190506136f8565b600090505b92915050565b61370882826114c0565b6137975761372d8173ffffffffffffffffffffffffffffffffffffffff166014611f06565b61373b8360001c6020611f06565b60405160200161374c92919061527b565b6040516020818303038152906040526040517f08c379a000000000000000000000000000000000000000000000000000000000815260040161378e919061543c565b60405180910390fd5b5050565b60006137a682613b4c565b9050919050565b6137bb868686868686613c2e565b6137c36112b1565b15613803576040517f08c379a00000000000000000000000000000000000000000000000000000000081526004016137fa9061557e565b60405180910390fd5b505050505050565b600080823b905060008111915050919050565b61382882826114c0565b156138fc5760006001600084815260200190815260200160002060000160008373ffffffffffffffffffffffffffffffffffffffff1673ffffffffffffffffffffffffffffffffffffffff16815260200190815260200160002060006101000a81548160ff0219169083151502179055506138a161227a565b73ffffffffffffffffffffffffffffffffffffffff168173ffffffffffffffffffffffffffffffffffffffff16837ff6391f5c32d9c69d2a47ea670b442974b53935d1edc7fd64eb21e047a839171b60405160405180910390a45b5050565b60008083600101600084815260200190815260200160002054905060008114613a725760006001826139329190615a80565b905060006001866000018054905061394a9190615a80565b9050600086600001828154811061398a577f4e487b7100000000000000000000000000000000000000000000000000000000600052603260045260246000fd5b90600052602060002001549050808760000184815481106139d4577f4e487b7100000000000000000000000000000000000000000000000000000000600052603260045260246000fd5b9060005260206000200181905550838760010160008381526020019081526020016000208190555086600001805480613a36577f4e487b7100000000000000000000000000000000000000000000000000000000600052603160045260246000fd5b60019003818190600052602060002001600090559055866001016000878152602001908152602001600020600090556001945050505050613a78565b60009150505b92915050565b600081836000018054905011613ac9576040517f08c379a0000000000000000000000000000000000000000000000000000000008152600401613ac09061547e565b60405180910390fd5b826000018281548110613b05577f4e487b7100000000000000000000000000000000000000000000000000000000600052603260045260246000fd5b9060005260206000200154905092915050565b600081600001805490509050919050565b600080836001016000848152602001908152602001600020541415905092915050565b60007fd9b67a26000000000000000000000000000000000000000000000000000000007bffffffffffffffffffffffffffffffffffffffffffffffffffffffff1916827bffffffffffffffffffffffffffffffffffffffffffffffffffffffff19161480613c1757507f0e89341c000000000000000000000000000000000000000000000000000000007bffffffffffffffffffffffffffffffffffffffffffffffffffffffff1916827bffffffffffffffffffffffffffffffffffffffffffffffffffffffff1916145b80613c275750613c2682613c36565b5b9050919050565b505050505050565b60007f5a05180f000000000000000000000000000000000000000000000000000000007bffffffffffffffffffffffffffffffffffffffffffffffffffffffff1916827bffffffffffffffffffffffffffffffffffffffffffffffffffffffff19161480613ca95750613ca882613cb0565b5b9050919050565b60007f7965db0b000000000000000000000000000000000000000000000000000000007bffffffffffffffffffffffffffffffffffffffffffffffffffffffff1916827bffffffffffffffffffffffffffffffffffffffffffffffffffffffff19161480613d235750613d2282613d2a565b5b9050919050565b60007f01ffc9a7000000000000000000000000000000000000000000000000000000007bffffffffffffffffffffffffffffffffffffffffffffffffffffffff1916827bffffffffffffffffffffffffffffffffffffffffffffffffffffffff1916149050919050565b6000613da7613da28461589c565b61586b565b90508083825260208201905082856020860282011115613dc657600080fd5b60005b85811015613df65781613ddc8882613ee8565b845260208401935060208301925050600181019050613dc9565b5050509392505050565b6000613e13613e0e846158c8565b61586b565b90508083825260208201905082856020860282011115613e3257600080fd5b60005b85811015613e625781613e488882613ff9565b845260208401935060208301925050600181019050613e35565b5050509392505050565b6000613e7f613e7a846158f4565b61586b565b905082815260208101848484011115613e9757600080fd5b613ea2848285615b32565b509392505050565b6000613ebd613eb884615924565b61586b565b905082815260208101848484011115613ed557600080fd5b613ee0848285615b32565b509392505050565b600081359050613ef781615d7a565b92915050565b600082601f830112613f0e57600080fd5b8135613f1e848260208601613d94565b91505092915050565b600082601f830112613f3857600080fd5b8135613f48848260208601613e00565b91505092915050565b600081359050613f6081615d91565b92915050565b600081359050613f7581615da8565b92915050565b600081359050613f8a81615dbf565b92915050565b600081519050613f9f81615dbf565b92915050565b600082601f830112613fb657600080fd5b8135613fc6848260208601613e6c565b91505092915050565b600082601f830112613fe057600080fd5b8135613ff0848260208601613eaa565b91505092915050565b60008135905061400881615dd6565b92915050565b60008151905061401d81615dd6565b92915050565b6000806040838503121561403657600080fd5b600061404485828601613ee8565b925050602061405585828601613ee8565b9150509250929050565b600080600080600060a0868803121561407757600080fd5b600061408588828901613ee8565b955050602061409688828901613ee8565b945050604086013567ffffffffffffffff8111156140b357600080fd5b6140bf88828901613f27565b935050606086013567ffffffffffffffff8111156140dc57600080fd5b6140e888828901613f27565b925050608086013567ffffffffffffffff81111561410557600080fd5b61411188828901613fa5565b9150509295509295909350565b600080600080600060a0868803121561413657600080fd5b600061414488828901613ee8565b955050602061415588828901613ee8565b945050604061416688828901613ff9565b935050606061417788828901613ff9565b925050608086013567ffffffffffffffff81111561419457600080fd5b6141a088828901613fa5565b9150509295509295909350565b6000806000606084860312156141c257600080fd5b60006141d086828701613ee8565b935050602084013567ffffffffffffffff8111156141ed57600080fd5b6141f986828701613f27565b925050604084013567ffffffffffffffff81111561421657600080fd5b61422286828701613f27565b9150509250925092565b6000806000806080858703121561424257600080fd5b600061425087828801613ee8565b945050602085013567ffffffffffffffff81111561426d57600080fd5b61427987828801613f27565b935050604085013567ffffffffffffffff81111561429657600080fd5b6142a287828801613f27565b925050606085013567ffffffffffffffff8111156142bf57600080fd5b6142cb87828801613fa5565b91505092959194509250565b600080604083850312156142ea57600080fd5b60006142f885828601613ee8565b925050602061430985828601613f51565b9150509250929050565b6000806040838503121561432657600080fd5b600061433485828601613ee8565b925050602061434585828601613ff9565b9150509250929050565b60008060006060848603121561436457600080fd5b600061437286828701613ee8565b935050602061438386828701613ff9565b925050604061439486828701613ff9565b9150509250925092565b600080600080608085870312156143b457600080fd5b60006143c287828801613ee8565b94505060206143d387828801613ff9565b93505060406143e487828801613ff9565b925050606085013567ffffffffffffffff81111561440157600080fd5b61440d87828801613fa5565b91505092959194509250565b6000806040838503121561442c57600080fd5b600083013567ffffffffffffffff81111561444657600080fd5b61445285828601613efd565b925050602083013567ffffffffffffffff81111561446f57600080fd5b61447b85828601613f27565b9150509250929050565b60006020828403121561449757600080fd5b60006144a584828501613f66565b91505092915050565b600080604083850312156144c157600080fd5b60006144cf85828601613f66565b92505060206144e085828601613ee8565b9150509250929050565b600080604083850312156144fd57600080fd5b600061450b85828601613f66565b925050602061451c85828601613ff9565b9150509250929050565b60006020828403121561453857600080fd5b600061454684828501613f7b565b91505092915050565b60006020828403121561456157600080fd5b600061456f84828501613f90565b91505092915050565b60006020828403121561458a57600080fd5b600082013567ffffffffffffffff8111156145a457600080fd5b6145b084828501613fcf565b91505092915050565b6000602082840312156145cb57600080fd5b60006145d984828501613ff9565b91505092915050565b6000602082840312156145f457600080fd5b60006146028482850161400e565b91505092915050565b6000806040838503121561461e57600080fd5b600061462c85828601613ff9565b925050602083013567ffffffffffffffff81111561464957600080fd5b61465585828601613fcf565b9150509250929050565b600061466b8383615246565b60208301905092915050565b61468081615ab4565b82525050565b600061469182615964565b61469b8185615992565b93506146a683615954565b8060005b838110156146d75781516146be888261465f565b97506146c983615985565b9250506001810190506146aa565b5085935050505092915050565b6146ed81615ac6565b82525050565b6146fc81615ad2565b82525050565b61470b81615adc565b82525050565b600061471c8261596f565b61472681856159a3565b9350614736818560208601615b41565b61473f81615ca6565b840191505092915050565b60006147558261597a565b61475f81856159b4565b935061476f818560208601615b41565b61477881615ca6565b840191505092915050565b600061478e8261597a565b61479881856159c5565b93506147a8818560208601615b41565b80840191505092915050565b60006147c16034836159b4565b91507f455243313135353a207472616e7366657220746f206e6f6e204552433131353560008301527f526563656976657220696d706c656d656e7465720000000000000000000000006020830152604082019050919050565b60006148276022836159b4565b91507f456e756d657261626c655365743a20696e646578206f7574206f6620626f756e60008301527f64730000000000000000000000000000000000000000000000000000000000006020830152604082019050919050565b600061488d6020836159b4565b91507f537472696e67733a20686578206c656e67746820696e73756666696369656e746000830152602082019050919050565b60006148cd6028836159b4565b91507f455243313135353a204552433131353552656365697665722072656a6563746560008301527f6420746f6b656e730000000000000000000000000000000000000000000000006020830152604082019050919050565b60006149336014836159b4565b91507f5061757361626c653a206e6f74207061757365640000000000000000000000006000830152602082019050919050565b60006149736020836159b4565b91507f494420746f206c617267652c20736b696e20646f6573206e6f742065786973746000830152602082019050919050565b60006149b36015836159b4565b91507f4e6f207065726d697373696f6e20746f206d696e7400000000000000000000006000830152602082019050919050565b60006149f3602b836159b4565b91507f455243313135353a2062616c616e636520717565727920666f7220746865207a60008301527f65726f20616464726573730000000000000000000000000000000000000000006020830152604082019050919050565b6000614a596024836159b4565b91507f455243313135353a206275726e20616d6f756e7420657863656564732062616c60008301527f616e6365000000000000000000000000000000000000000000000000000000006020830152604082019050919050565b6000614abf602c836159b4565b91507f455243313135355061757361626c653a20746f6b656e207472616e736665722060008301527f7768696c652070617573656400000000000000000000000000000000000000006020830152604082019050919050565b6000614b256029836159b4565b91507f455243313135353a2063616c6c6572206973206e6f74206f776e6572206e6f7260008301527f20617070726f76656400000000000000000000000000000000000000000000006020830152604082019050919050565b6000614b8b600b836159b4565b91507f55736572206578697374730000000000000000000000000000000000000000006000830152602082019050919050565b6000614bcb6010836159b4565b91507f5061757361626c653a20706175736564000000000000000000000000000000006000830152602082019050919050565b6000614c0b6018836159b4565b91507f53636f726520746f6f204c6f772f206e6f206368616e676500000000000000006000830152602082019050919050565b6000614c4b6025836159b4565b91507f455243313135353a207472616e7366657220746f20746865207a65726f20616460008301527f64726573730000000000000000000000000000000000000000000000000000006020830152604082019050919050565b6000614cb16032836159b4565b91507f455243313135353a207472616e736665722063616c6c6572206973206e6f742060008301527f6f776e6572206e6f7220617070726f76656400000000000000000000000000006020830152604082019050919050565b6000614d176019836159b4565b91507f436f727265637420616d6f756e74206e6f74206d696e746564000000000000006000830152602082019050919050565b6000614d576023836159b4565b91507f455243313135353a206275726e2066726f6d20746865207a65726f206164647260008301527f65737300000000000000000000000000000000000000000000000000000000006020830152604082019050919050565b6000614dbd6038836159b4565b91507f455243313135355072657365744d696e7465725061757365723a206d7573742060008301527f68617665206d696e74657220726f6c6520746f206d696e7400000000000000006020830152604082019050919050565b6000614e23602a836159b4565b91507f455243313135353a20696e73756666696369656e742062616c616e636520666f60008301527f72207472616e73666572000000000000000000000000000000000000000000006020830152604082019050919050565b6000614e89603b836159b4565b91507f455243313135355072657365744d696e7465725061757365723a206d7573742060008301527f686176652070617573657220726f6c6520746f20756e706175736500000000006020830152604082019050919050565b6000614eef6012836159b4565b91507f5573657220646f65736e277420657869737400000000000000000000000000006000830152602082019050919050565b6000614f2f6039836159b4565b91507f455243313135355072657365744d696e7465725061757365723a206d7573742060008301527f686176652070617573657220726f6c6520746f207061757365000000000000006020830152604082019050919050565b6000614f956017836159c5565b91507f416363657373436f6e74726f6c3a206163636f756e74200000000000000000006000830152601782019050919050565b6000614fd56029836159b4565b91507f455243313135353a2073657474696e6720617070726f76616c2073746174757360008301527f20666f722073656c6600000000000000000000000000000000000000000000006020830152604082019050919050565b600061503b6029836159b4565b91507f455243313135353a206163636f756e747320616e6420696473206c656e67746860008301527f206d69736d6174636800000000000000000000000000000000000000000000006020830152604082019050919050565b60006150a16028836159b4565b91507f455243313135353a2069647320616e6420616d6f756e7473206c656e6774682060008301527f6d69736d617463680000000000000000000000000000000000000000000000006020830152604082019050919050565b60006151076021836159b4565b91507f455243313135353a206d696e7420746f20746865207a65726f2061646472657360008301527f73000000000000000000000000000000000000000000000000000000000000006020830152604082019050919050565b600061516d6012836159b4565b91507f446f6573206e6f74206861766520726f6c6500000000000000000000000000006000830152602082019050919050565b60006151ad6011836159c5565b91507f206973206d697373696e6720726f6c65200000000000000000000000000000006000830152601182019050919050565b60006151ed602f836159b4565b91507f416363657373436f6e74726f6c3a2063616e206f6e6c792072656e6f756e636560008301527f20726f6c657320666f722073656c6600000000000000000000000000000000006020830152604082019050919050565b61524f81615b28565b82525050565b61525e81615b28565b82525050565b60006152708284614783565b915081905092915050565b600061528682614f88565b91506152928285614783565b915061529d826151a0565b91506152a98284614783565b91508190509392505050565b60006020820190506152ca6000830184614677565b92915050565b600060a0820190506152e56000830188614677565b6152f26020830187614677565b81810360408301526153048186614686565b905081810360608301526153188185614686565b9050818103608083015261532c8184614711565b90509695505050505050565b600060a08201905061534d6000830188614677565b61535a6020830187614677565b6153676040830186615255565b6153746060830185615255565b81810360808301526153868184614711565b90509695505050505050565b600060208201905081810360008301526153ac8184614686565b905092915050565b600060408201905081810360008301526153ce8185614686565b905081810360208301526153e28184614686565b90509392505050565b600060208201905061540060008301846146e4565b92915050565b600060208201905061541b60008301846146f3565b92915050565b60006020820190506154366000830184614702565b92915050565b60006020820190508181036000830152615456818461474a565b905092915050565b60006020820190508181036000830152615477816147b4565b9050919050565b600060208201905081810360008301526154978161481a565b9050919050565b600060208201905081810360008301526154b781614880565b9050919050565b600060208201905081810360008301526154d7816148c0565b9050919050565b600060208201905081810360008301526154f781614926565b9050919050565b6000602082019050818103600083015261551781614966565b9050919050565b60006020820190508181036000830152615537816149a6565b9050919050565b60006020820190508181036000830152615557816149e6565b9050919050565b6000602082019050818103600083015261557781614a4c565b9050919050565b6000602082019050818103600083015261559781614ab2565b9050919050565b600060208201905081810360008301526155b781614b18565b9050919050565b600060208201905081810360008301526155d781614b7e565b9050919050565b600060208201905081810360008301526155f781614bbe565b9050919050565b6000602082019050818103600083015261561781614bfe565b9050919050565b6000602082019050818103600083015261563781614c3e565b9050919050565b6000602082019050818103600083015261565781614ca4565b9050919050565b6000602082019050818103600083015261567781614d0a565b9050919050565b6000602082019050818103600083015261569781614d4a565b9050919050565b600060208201905081810360008301526156b781614db0565b9050919050565b600060208201905081810360008301526156d781614e16565b9050919050565b600060208201905081810360008301526156f781614e7c565b9050919050565b6000602082019050818103600083015261571781614ee2565b9050919050565b6000602082019050818103600083015261573781614f22565b9050919050565b6000602082019050818103600083015261575781614fc8565b9050919050565b600060208201905081810360008301526157778161502e565b9050919050565b6000602082019050818103600083015261579781615094565b9050919050565b600060208201905081810360008301526157b7816150fa565b9050919050565b600060208201905081810360008301526157d781615160565b9050919050565b600060208201905081810360008301526157f7816151e0565b9050919050565b60006020820190506158136000830184615255565b92915050565b600060408201905061582e6000830185615255565b61583b6020830184614677565b9392505050565b60006040820190506158576000830185615255565b6158646020830184615255565b9392505050565b6000604051905081810181811067ffffffffffffffff8211171561589257615891615c77565b5b8060405250919050565b600067ffffffffffffffff8211156158b7576158b6615c77565b5b602082029050602081019050919050565b600067ffffffffffffffff8211156158e3576158e2615c77565b5b602082029050602081019050919050565b600067ffffffffffffffff82111561590f5761590e615c77565b5b601f19601f8301169050602081019050919050565b600067ffffffffffffffff82111561593f5761593e615c77565b5b601f19601f8301169050602081019050919050565b6000819050602082019050919050565b600081519050919050565b600081519050919050565b600081519050919050565b6000602082019050919050565b600082825260208201905092915050565b600082825260208201905092915050565b600082825260208201905092915050565b600081905092915050565b60006159db82615b28565b91506159e683615b28565b9250827fffffffffffffffffffffffffffffffffffffffffffffffffffffffffffffffff03821115615a1b57615a1a615c19565b5b828201905092915050565b6000615a3182615b28565b9150615a3c83615b28565b9250817fffffffffffffffffffffffffffffffffffffffffffffffffffffffffffffffff0483118215151615615a7557615a74615c19565b5b828202905092915050565b6000615a8b82615b28565b9150615a9683615b28565b925082821015615aa957615aa8615c19565b5b828203905092915050565b6000615abf82615b08565b9050919050565b60008115159050919050565b6000819050919050565b60007fffffffff0000000000000000000000000000000000000000000000000000000082169050919050565b600073ffffffffffffffffffffffffffffffffffffffff82169050919050565b6000819050919050565b82818337600083830152505050565b60005b83811015615b5f578082015181840152602081019050615b44565b83811115615b6e576000848401525b50505050565b6000615b7f82615b28565b91506000821415615b9357615b92615c19565b5b600182039050919050565b60006002820490506001821680615bb657607f821691505b60208210811415615bca57615bc9615c48565b5b50919050565b6000615bdb82615b28565b91507fffffffffffffffffffffffffffffffffffffffffffffffffffffffffffffffff821415615c0e57615c0d615c19565b5b600182019050919050565b7f4e487b7100000000000000000000000000000000000000000000000000000000600052601160045260246000fd5b7f4e487b7100000000000000000000000000000000000000000000000000000000600052602260045260246000fd5b7f4e487b7100000000000000000000000000000000000000000000000000000000600052604160045260246000fd5b6000601f19601f8301169050919050565b60008160e01c9050919050565b600060443d1015615cd457615d77565b60046000803e615ce5600051615cb7565b6308c379a08114615cf65750615d77565b60405160043d036004823e80513d602482011167ffffffffffffffff82111715615d2257505050615d77565b808201805167ffffffffffffffff811115615d41575050505050615d77565b8060208301013d8501811115615d5c57505050505050615d77565b615d6582615ca6565b60208401016040528296505050505050505b90565b615d8381615ab4565b8114615d8e57600080fd5b50565b615d9a81615ac6565b8114615da557600080fd5b50565b615db181615ad2565b8114615dbc57600080fd5b50565b615dc881615adc565b8114615dd357600080fd5b50565b615ddf81615b28565b8114615dea57600080fd5b5056fea264697066735822122043a5d5c5cebd7cd681b5cfc56dc9a8fa405f5a2347f18af96313daeff2d9c14e64736f6c63430008000033",
  "linkReferences": {},
  "deployedLinkReferences": {}
}