{
  "_format": "hh-sol-artifact-1",
  "contractName": "CS_Skin",
  "sourceName": "contracts/CS_Skin.sol",
  "abi": [
    {
      "inputs": [
        {
          "internalType": "address",
          "name": "_FAH",
          "type": "address"
        },
        {
          "internalType": "address",
          "name": "_CS_Case",
          "type": "address"
        },
        {
          "internalType": "address",
          "name": "_SushiFactory",
          "type": "address"
        },
        {
          "internalType": "address",
          "name": "_SushiRouter",
          "type": "address"
        }
      ],
      "stateMutability": "nonpayable",
      "type": "constructor"
    },
    {
      "anonymous": false,
      "inputs": [
        {
          "indexed": true,
          "internalType": "address",
          "name": "account",
          "type": "address"
        },
        {
          "indexed": true,
          "internalType": "address",
          "name": "operator",
          "type": "address"
        },
        {
          "indexed": false,
          "internalType": "bool",
          "name": "approved",
          "type": "bool"
        }
      ],
      "name": "ApprovalForAll",
      "type": "event"
    },
    {
      "anonymous": false,
      "inputs": [
        {
          "indexed": false,
          "internalType": "address",
          "name": "account",
          "type": "address"
        }
      ],
      "name": "Paused",
      "type": "event"
    },
    {
      "anonymous": false,
      "inputs": [
        {
          "indexed": true,
          "internalType": "bytes32",
          "name": "role",
          "type": "bytes32"
        },
        {
          "indexed": true,
          "internalType": "bytes32",
          "name": "previousAdminRole",
          "type": "bytes32"
        },
        {
          "indexed": true,
          "internalType": "bytes32",
          "name": "newAdminRole",
          "type": "bytes32"
        }
      ],
      "name": "RoleAdminChanged",
      "type": "event"
    },
    {
      "anonymous": false,
      "inputs": [
        {
          "indexed": true,
          "internalType": "bytes32",
          "name": "role",
          "type": "bytes32"
        },
        {
          "indexed": true,
          "internalType": "address",
          "name": "account",
          "type": "address"
        },
        {
          "indexed": true,
          "internalType": "address",
          "name": "sender",
          "type": "address"
        }
      ],
      "name": "RoleGranted",
      "type": "event"
    },
    {
      "anonymous": false,
      "inputs": [
        {
          "indexed": true,
          "internalType": "bytes32",
          "name": "role",
          "type": "bytes32"
        },
        {
          "indexed": true,
          "internalType": "address",
          "name": "account",
          "type": "address"
        },
        {
          "indexed": true,
          "internalType": "address",
          "name": "sender",
          "type": "address"
        }
      ],
      "name": "RoleRevoked",
      "type": "event"
    },
    {
      "anonymous": false,
      "inputs": [
        {
          "indexed": true,
          "internalType": "address",
          "name": "operator",
          "type": "address"
        },
        {
          "indexed": true,
          "internalType": "address",
          "name": "from",
          "type": "address"
        },
        {
          "indexed": true,
          "internalType": "address",
          "name": "to",
          "type": "address"
        },
        {
          "indexed": false,
          "internalType": "uint256[]",
          "name": "ids",
          "type": "uint256[]"
        },
        {
          "indexed": false,
          "internalType": "uint256[]",
          "name": "values",
          "type": "uint256[]"
        }
      ],
      "name": "TransferBatch",
      "type": "event"
    },
    {
      "anonymous": false,
      "inputs": [
        {
          "indexed": true,
          "internalType": "address",
          "name": "operator",
          "type": "address"
        },
        {
          "indexed": true,
          "internalType": "address",
          "name": "from",
          "type": "address"
        },
        {
          "indexed": true,
          "internalType": "address",
          "name": "to",
          "type": "address"
        },
        {
          "indexed": false,
          "internalType": "uint256",
          "name": "id",
          "type": "uint256"
        },
        {
          "indexed": false,
          "internalType": "uint256",
          "name": "value",
          "type": "uint256"
        }
      ],
      "name": "TransferSingle",
      "type": "event"
    },
    {
      "anonymous": false,
      "inputs": [
        {
          "indexed": false,
          "internalType": "string",
          "name": "value",
          "type": "string"
        },
        {
          "indexed": true,
          "internalType": "uint256",
          "name": "id",
          "type": "uint256"
        }
      ],
      "name": "URI",
      "type": "event"
    },
    {
      "anonymous": false,
      "inputs": [
        {
          "indexed": false,
          "internalType": "address",
          "name": "account",
          "type": "address"
        }
      ],
      "name": "Unpaused",
      "type": "event"
    },
    {
      "inputs": [],
      "name": "DEFAULT_ADMIN_ROLE",
      "outputs": [
        {
          "internalType": "bytes32",
          "name": "",
          "type": "bytes32"
        }
      ],
      "stateMutability": "view",
      "type": "function"
    },
    {
      "inputs": [],
      "name": "LOCAL_MINTER_ROLE",
      "outputs": [
        {
          "internalType": "bytes32",
          "name": "",
          "type": "bytes32"
        }
      ],
      "stateMutability": "view",
      "type": "function"
    },
    {
      "inputs": [],
      "name": "MINTER_ROLE",
      "outputs": [
        {
          "internalType": "bytes32",
          "name": "",
          "type": "bytes32"
        }
      ],
      "stateMutability": "view",
      "type": "function"
    },
    {
      "inputs": [],
      "name": "PAUSER_ROLE",
      "outputs": [
        {
          "internalType": "bytes32",
          "name": "",
          "type": "bytes32"
        }
      ],
      "stateMutability": "view",
      "type": "function"
    },
    {
      "inputs": [
        {
          "internalType": "address",
          "name": "account",
          "type": "address"
        },
        {
          "internalType": "uint256",
          "name": "id",
          "type": "uint256"
        }
      ],
      "name": "balanceOf",
      "outputs": [
        {
          "internalType": "uint256",
          "name": "",
          "type": "uint256"
        }
      ],
      "stateMutability": "view",
      "type": "function"
    },
    {
      "inputs": [
        {
          "internalType": "address[]",
          "name": "accounts",
          "type": "address[]"
        },
        {
          "internalType": "uint256[]",
          "name": "ids",
          "type": "uint256[]"
        }
      ],
      "name": "balanceOfBatch",
      "outputs": [
        {
          "internalType": "uint256[]",
          "name": "",
          "type": "uint256[]"
        }
      ],
      "stateMutability": "view",
      "type": "function"
    },
    {
      "inputs": [
        {
          "internalType": "address",
          "name": "account",
          "type": "address"
        },
        {
          "internalType": "uint256",
          "name": "id",
          "type": "uint256"
        },
        {
          "internalType": "uint256",
          "name": "value",
          "type": "uint256"
        }
      ],
      "name": "burn",
      "outputs": [],
      "stateMutability": "nonpayable",
      "type": "function"
    },
    {
      "inputs": [
        {
          "internalType": "address",
          "name": "account",
          "type": "address"
        },
        {
          "internalType": "uint256[]",
          "name": "ids",
          "type": "uint256[]"
        },
        {
          "internalType": "uint256[]",
          "name": "values",
          "type": "uint256[]"
        }
      ],
      "name": "burnBatch",
      "outputs": [],
      "stateMutability": "nonpayable",
      "type": "function"
    },
    {
      "inputs": [
        {
          "internalType": "string",
          "name": "_id",
          "type": "string"
        }
      ],
      "name": "getAddress",
      "outputs": [
        {
          "internalType": "address",
          "name": "",
          "type": "address"
        }
      ],
      "stateMutability": "view",
      "type": "function"
    },
    {
      "inputs": [
        {
          "internalType": "bytes32",
          "name": "role",
          "type": "bytes32"
        }
      ],
      "name": "getRoleAdmin",
      "outputs": [
        {
          "internalType": "bytes32",
          "name": "",
          "type": "bytes32"
        }
      ],
      "stateMutability": "view",
      "type": "function"
    },
    {
      "inputs": [
        {
          "internalType": "bytes32",
          "name": "role",
          "type": "bytes32"
        },
        {
          "internalType": "uint256",
          "name": "index",
          "type": "uint256"
        }
      ],
      "name": "getRoleMember",
      "outputs": [
        {
          "internalType": "address",
          "name": "",
          "type": "address"
        }
      ],
      "stateMutability": "view",
      "type": "function"
    },
    {
      "inputs": [
        {
          "internalType": "bytes32",
          "name": "role",
          "type": "bytes32"
        }
      ],
      "name": "getRoleMemberCount",
      "outputs": [
        {
          "internalType": "uint256",
          "name": "",
          "type": "uint256"
        }
      ],
      "stateMutability": "view",
      "type": "function"
    },
    {
      "inputs": [
        {
          "internalType": "string",
          "name": "_id",
          "type": "string"
        }
      ],
      "name": "getScore",
      "outputs": [
        {
          "internalType": "uint256",
          "name": "",
          "type": "uint256"
        }
      ],
      "stateMutability": "view",
      "type": "function"
    },
    {
      "inputs": [
        {
          "internalType": "uint256",
          "name": "_id",
          "type": "uint256"
        }
      ],
      "name": "getSkinAvailability",
      "outputs": [
        {
          "internalType": "uint256",
          "name": "",
          "type": "uint256"
        }
      ],
      "stateMutability": "view",
      "type": "function"
    },
    {
      "inputs": [
        {
          "internalType": "bytes32",
          "name": "role",
          "type": "bytes32"
        },
        {
          "internalType": "address",
          "name": "account",
          "type": "address"
        }
      ],
      "name": "grantRole",
      "outputs": [],
      "stateMutability": "nonpayable",
      "type": "function"
    },
    {
      "inputs": [
        {
          "internalType": "bytes32",
          "name": "role",
          "type": "bytes32"
        },
        {
          "internalType": "address",
          "name": "account",
          "type": "address"
        }
      ],
      "name": "hasRole",
      "outputs": [
        {
          "internalType": "bool",
          "name": "",
          "type": "bool"
        }
      ],
      "stateMutability": "view",
      "type": "function"
    },
    {
      "inputs": [
        {
          "internalType": "address",
          "name": "account",
          "type": "address"
        },
        {
          "internalType": "address",
          "name": "operator",
          "type": "address"
        }
      ],
      "name": "isApprovedForAll",
      "outputs": [
        {
          "internalType": "bool",
          "name": "",
          "type": "bool"
        }
      ],
      "stateMutability": "view",
      "type": "function"
    },
    {
      "inputs": [
        {
          "internalType": "address",
          "name": "to",
          "type": "address"
        },
        {
          "internalType": "uint256",
          "name": "id",
          "type": "uint256"
        },
        {
          "internalType": "uint256",
          "name": "amount",
          "type": "uint256"
        },
        {
          "internalType": "bytes",
          "name": "data",
          "type": "bytes"
        }
      ],
      "name": "mint",
      "outputs": [],
      "stateMutability": "nonpayable",
      "type": "function"
    },
    {
      "inputs": [
        {
          "internalType": "address",
          "name": "to",
          "type": "address"
        },
        {
          "internalType": "uint256[]",
          "name": "ids",
          "type": "uint256[]"
        },
        {
          "internalType": "uint256[]",
          "name": "amounts",
          "type": "uint256[]"
        },
        {
          "internalType": "bytes",
          "name": "data",
          "type": "bytes"
        }
      ],
      "name": "mintBatch",
      "outputs": [],
      "stateMutability": "nonpayable",
      "type": "function"
    },
    {
      "inputs": [
        {
          "internalType": "uint256",
          "name": "_amount",
          "type": "uint256"
        }
      ],
      "name": "newSkin",
      "outputs": [],
      "stateMutability": "nonpayable",
      "type": "function"
    },
    {
      "inputs": [
        {
          "internalType": "address",
          "name": "",
          "type": "address"
        },
        {
          "internalType": "address",
          "name": "",
          "type": "address"
        },
        {
          "internalType": "uint256[]",
          "name": "",
          "type": "uint256[]"
        },
        {
          "internalType": "uint256[]",
          "name": "",
          "type": "uint256[]"
        },
        {
          "internalType": "bytes",
          "name": "",
          "type": "bytes"
        }
      ],
      "name": "onERC1155BatchReceived",
      "outputs": [
        {
          "internalType": "bytes4",
          "name": "",
          "type": "bytes4"
        }
      ],
      "stateMutability": "nonpayable",
      "type": "function"
    },
    {
      "inputs": [
        {
          "internalType": "address",
          "name": "",
          "type": "address"
        },
        {
          "internalType": "address",
          "name": "",
          "type": "address"
        },
        {
          "internalType": "uint256",
          "name": "",
          "type": "uint256"
        },
        {
          "internalType": "uint256",
          "name": "",
          "type": "uint256"
        },
        {
          "internalType": "bytes",
          "name": "",
          "type": "bytes"
        }
      ],
      "name": "onERC1155Received",
      "outputs": [
        {
          "internalType": "bytes4",
          "name": "",
          "type": "bytes4"
        }
      ],
      "stateMutability": "nonpayable",
      "type": "function"
    },
    {
      "inputs": [],
      "name": "pause",
      "outputs": [],
      "stateMutability": "nonpayable",
      "type": "function"
    },
    {
      "inputs": [],
      "name": "paused",
      "outputs": [
        {
          "internalType": "bool",
          "name": "",
          "type": "bool"
        }
      ],
      "stateMutability": "view",
      "type": "function"
    },
    {
      "inputs": [
        {
          "internalType": "uint256",
          "name": "_amount",
          "type": "uint256"
        }
      ],
      "name": "poolSetup",
      "outputs": [],
      "stateMutability": "nonpayable",
      "type": "function"
    },
    {
      "inputs": [
        {
          "internalType": "bytes32",
          "name": "role",
          "type": "bytes32"
        },
        {
          "internalType": "address",
          "name": "account",
          "type": "address"
        }
      ],
      "name": "renounceRole",
      "outputs": [],
      "stateMutability": "nonpayable",
      "type": "function"
    },
    {
      "inputs": [
        {
          "internalType": "bytes32",
          "name": "role",
          "type": "bytes32"
        },
        {
          "internalType": "address",
          "name": "account",
          "type": "address"
        }
      ],
      "name": "revokeRole",
      "outputs": [],
      "stateMutability": "nonpayable",
      "type": "function"
    },
    {
      "inputs": [
        {
          "internalType": "address",
          "name": "from",
          "type": "address"
        },
        {
          "internalType": "address",
          "name": "to",
          "type": "address"
        },
        {
          "internalType": "uint256[]",
          "name": "ids",
          "type": "uint256[]"
        },
        {
          "internalType": "uint256[]",
          "name": "amounts",
          "type": "uint256[]"
        },
        {
          "internalType": "bytes",
          "name": "data",
          "type": "bytes"
        }
      ],
      "name": "safeBatchTransferFrom",
      "outputs": [],
      "stateMutability": "nonpayable",
      "type": "function"
    },
    {
      "inputs": [
        {
          "internalType": "address",
          "name": "from",
          "type": "address"
        },
        {
          "internalType": "address",
          "name": "to",
          "type": "address"
        },
        {
          "internalType": "uint256",
          "name": "id",
          "type": "uint256"
        },
        {
          "internalType": "uint256",
          "name": "amount",
          "type": "uint256"
        },
        {
          "internalType": "bytes",
          "name": "data",
          "type": "bytes"
        }
      ],
      "name": "safeTransferFrom",
      "outputs": [],
      "stateMutability": "nonpayable",
      "type": "function"
    },
    {
      "inputs": [
        {
          "internalType": "address",
          "name": "operator",
          "type": "address"
        },
        {
          "internalType": "bool",
          "name": "approved",
          "type": "bool"
        }
      ],
      "name": "setApprovalForAll",
      "outputs": [],
      "stateMutability": "nonpayable",
      "type": "function"
    },
    {
      "inputs": [
        {
          "internalType": "uint256",
          "name": "_score",
          "type": "uint256"
        },
        {
          "internalType": "string",
          "name": "_id",
          "type": "string"
        }
      ],
      "name": "signUp",
      "outputs": [],
      "stateMutability": "nonpayable",
      "type": "function"
    },
    {
      "inputs": [],
      "name": "skinCount",
      "outputs": [
        {
          "internalType": "uint256",
          "name": "",
          "type": "uint256"
        }
      ],
      "stateMutability": "view",
      "type": "function"
    },
    {
      "inputs": [
        {
          "internalType": "uint256",
          "name": "",
          "type": "uint256"
        }
      ],
      "name": "skinQuantities",
      "outputs": [
        {
          "internalType": "uint256",
          "name": "",
          "type": "uint256"
        }
      ],
      "stateMutability": "view",
      "type": "function"
    },
    {
      "inputs": [
        {
          "internalType": "bytes4",
          "name": "interfaceId",
          "type": "bytes4"
        }
      ],
      "name": "supportsInterface",
      "outputs": [
        {
          "internalType": "bool",
          "name": "",
          "type": "bool"
        }
      ],
      "stateMutability": "view",
      "type": "function"
    },
    {
      "inputs": [],
      "name": "uniqueSkinCount",
      "outputs": [
        {
          "internalType": "uint256",
          "name": "",
          "type": "uint256"
        }
      ],
      "stateMutability": "view",
      "type": "function"
    },
    {
      "inputs": [],
      "name": "unpause",
      "outputs": [],
      "stateMutability": "nonpayable",
      "type": "function"
    },
    {
      "inputs": [
        {
          "internalType": "uint256",
          "name": "_score",
          "type": "uint256"
        },
        {
          "internalType": "string",
          "name": "_id",
          "type": "string"
        }
      ],
      "name": "updateScore",
      "outputs": [],
      "stateMutability": "nonpayable",
      "type": "function"
    },
    {
      "inputs": [
        {
          "internalType": "uint256",
          "name": "",
          "type": "uint256"
        }
      ],
      "name": "uri",
      "outputs": [
        {
          "internalType": "string",
          "name": "",
          "type": "string"
        }
      ],
      "stateMutability": "view",
      "type": "function"
    },
    {
      "inputs": [
        {
          "internalType": "string",
          "name": "_id",
          "type": "string"
        }
      ],
      "name": "userExists",
      "outputs": [
        {
          "internalType": "bool",
          "name": "",
          "type": "bool"
        }
      ],
      "stateMutability": "view",
      "type": "function"
    }
  ],
  "bytecode": "0x60806040526000600e556000600f553480156200001b57600080fd5b506040516200704338038062007043833981810160405281019062000041919062000cb5565b604051806020016040528060008152508085858585620000977f9f2df0fed2c77648de5860a4cc508cd0818c85b8b8a1ab4ceeef8d981c8956a66200008b620004a060201b60201c565b620004a860201b60201c565b620000d87f9f2df0fed2c77648de5860a4cc508cd0818c85b8b8a1ab4ceeef8d981c8956a6620000cc620004a060201b60201c565b620004f060201b60201c565b6200011a576040517f08c379a0000000000000000000000000000000000000000000000000000000008152600401620001119062000fa4565b60405180910390fd5b83600360006101000a81548173ffffffffffffffffffffffffffffffffffffffff021916908373ffffffffffffffffffffffffffffffffffffffff16021790555082600460006101000a81548173ffffffffffffffffffffffffffffffffffffffff021916908373ffffffffffffffffffffffffffffffffffffffff16021790555081600560006101000a81548173ffffffffffffffffffffffffffffffffffffffff021916908373ffffffffffffffffffffffffffffffffffffffff16021790555080600660006101000a81548173ffffffffffffffffffffffffffffffffffffffff021916908373ffffffffffffffffffffffffffffffffffffffff160217905550600360009054906101000a900473ffffffffffffffffffffffffffffffffffffffff1673ffffffffffffffffffffffffffffffffffffffff1663095ea7b382670de0b6b3a76400006040518363ffffffff1660e01b81526004016200028592919062000f31565b602060405180830381600087803b158015620002a057600080fd5b505af1158015620002b5573d6000803e3d6000fd5b505050506040513d601f19601f82011682018060405250810190620002db919062000d21565b50600460009054906101000a900473ffffffffffffffffffffffffffffffffffffffff1673ffffffffffffffffffffffffffffffffffffffff1663095ea7b382670de0b6b3a76400006040518363ffffffff1660e01b81526004016200034392919062000f31565b602060405180830381600087803b1580156200035e57600080fd5b505af115801562000373573d6000803e3d6000fd5b505050506040513d601f19601f8201168201806040525081019062000399919062000d21565b5050505050620003af816200055b60201b60201c565b506000600c60006101000a81548160ff021916908315150217905550620003ef6000801b620003e3620004a060201b60201c565b620004a860201b60201c565b620004307f9f2df0fed2c77648de5860a4cc508cd0818c85b8b8a1ab4ceeef8d981c8956a662000424620004a060201b60201c565b620004a860201b60201c565b620004717f65d7a28e3265b37a6474929f336521b332c1681b933f6cb9f3376673440d862a62000465620004a060201b60201c565b620004a860201b60201c565b50620004966000801b6200048a620004a060201b60201c565b6200057760201b60201c565b5050505062001247565b600033905090565b620004bf8282620005bf60201b62001e111760201c565b620004eb8160026000858152602001908152602001600020620005d560201b62001e1f1790919060201c565b505050565b60006001600084815260200190815260200160002060000160008373ffffffffffffffffffffffffffffffffffffffff1673ffffffffffffffffffffffffffffffffffffffff16815260200190815260200160002060009054906101000a900460ff16905092915050565b80600b90805190602001906200057392919062000bd7565b5050565b6200058e82826200060d60201b62001e4f1760201c565b620005ba8160026000858152602001908152602001600020620005d560201b62001e1f1790919060201c565b505050565b620005d182826200065660201b60201c565b5050565b600062000605836000018373ffffffffffffffffffffffffffffffffffffffff1660001b6200074760201b60201c565b905092915050565b6200061e82620007c160201b60201c565b6200063f8162000633620004a060201b60201c565b620007e160201b60201c565b6200065183836200065660201b60201c565b505050565b620006688282620004f060201b60201c565b6200074357600180600084815260200190815260200160002060000160008373ffffffffffffffffffffffffffffffffffffffff1673ffffffffffffffffffffffffffffffffffffffff16815260200190815260200160002060006101000a81548160ff021916908315150217905550620006e8620004a060201b60201c565b73ffffffffffffffffffffffffffffffffffffffff168173ffffffffffffffffffffffffffffffffffffffff16837f2f8788117e7eff1d82e926ec794901d17c78024a50270940304540a733656f0d60405160405180910390a45b5050565b60006200075b8383620008a560201b60201c565b620007b6578260000182908060018154018082558091505060019003906000526020600020016000909190919091505582600001805490508360010160008481526020019081526020016000208190555060019050620007bb565b600090505b92915050565b600060016000838152602001908152602001600020600101549050919050565b620007f38282620004f060201b60201c565b620008a157620008268173ffffffffffffffffffffffffffffffffffffffff166014620008c860201b62001e781760201c565b620008418360001c6020620008c860201b62001e781760201c565b6040516020016200085492919062000eef565b6040516020818303038152906040526040517f08c379a000000000000000000000000000000000000000000000000000000000815260040162000898919062000f5e565b60405180910390fd5b5050565b600080836001016000848152602001908152602001600020541415905092915050565b606060006002836002620008dd91906200104a565b620008e9919062000fed565b67ffffffffffffffff81111562000929577f4e487b7100000000000000000000000000000000000000000000000000000000600052604160045260246000fd5b6040519080825280601f01601f1916602001820160405280156200095c5781602001600182028036833780820191505090505b5090507f300000000000000000000000000000000000000000000000000000000000000081600081518110620009bb577f4e487b7100000000000000000000000000000000000000000000000000000000600052603260045260246000fd5b60200101907effffffffffffffffffffffffffffffffffffffffffffffffffffffffffffff1916908160001a9053507f78000000000000000000000000000000000000000000000000000000000000008160018151811062000a46577f4e487b7100000000000000000000000000000000000000000000000000000000600052603260045260246000fd5b60200101907effffffffffffffffffffffffffffffffffffffffffffffffffffffffffffff1916908160001a9053506000600184600262000a8891906200104a565b62000a94919062000fed565b90505b600181111562000b86577f3031323334353637383961626364656600000000000000000000000000000000600f86166010811062000afe577f4e487b7100000000000000000000000000000000000000000000000000000000600052603260045260246000fd5b1a60f81b82828151811062000b3c577f4e487b7100000000000000000000000000000000000000000000000000000000600052603260045260246000fd5b60200101907effffffffffffffffffffffffffffffffffffffffffffffffffffffffffffff1916908160001a905350600485901c94508062000b7e906200113f565b905062000a97565b506000841462000bcd576040517f08c379a000000000000000000000000000000000000000000000000000000000815260040162000bc49062000f82565b60405180910390fd5b8091505092915050565b82805462000be5906200116e565b90600052602060002090601f01602090048101928262000c09576000855562000c55565b82601f1062000c2457805160ff191683800117855562000c55565b8280016001018555821562000c55579182015b8281111562000c5457825182559160200191906001019062000c37565b5b50905062000c64919062000c68565b5090565b5b8082111562000c8357600081600090555060010162000c69565b5090565b60008151905062000c988162001213565b92915050565b60008151905062000caf816200122d565b92915050565b6000806000806080858703121562000ccc57600080fd5b600062000cdc8782880162000c87565b945050602062000cef8782880162000c87565b935050604062000d028782880162000c87565b925050606062000d158782880162000c87565b91505092959194509250565b60006020828403121562000d3457600080fd5b600062000d448482850162000c9e565b91505092915050565b62000d5881620010ab565b82525050565b62000d6981620010f5565b82525050565b600062000d7c8262000fc6565b62000d88818562000fd1565b935062000d9a81856020860162001109565b62000da58162001202565b840191505092915050565b600062000dbd8262000fc6565b62000dc9818562000fe2565b935062000ddb81856020860162001109565b80840191505092915050565b600062000df660208362000fd1565b91507f537472696e67733a20686578206c656e67746820696e73756666696369656e746000830152602082019050919050565b600062000e3860178362000fe2565b91507f416363657373436f6e74726f6c3a206163636f756e74200000000000000000006000830152601782019050919050565b600062000e7a60128362000fd1565b91507f446f6573206e6f74206861766520726f6c6500000000000000000000000000006000830152602082019050919050565b600062000ebc60118362000fe2565b91507f206973206d697373696e6720726f6c65200000000000000000000000000000006000830152601182019050919050565b600062000efc8262000e29565b915062000f0a828562000db0565b915062000f178262000ead565b915062000f25828462000db0565b91508190509392505050565b600060408201905062000f48600083018562000d4d565b62000f57602083018462000d5e565b9392505050565b6000602082019050818103600083015262000f7a818462000d6f565b905092915050565b6000602082019050818103600083015262000f9d8162000de7565b9050919050565b6000602082019050818103600083015262000fbf8162000e6b565b9050919050565b600081519050919050565b600082825260208201905092915050565b600081905092915050565b600062000ffa82620010eb565b91506200100783620010eb565b9250827fffffffffffffffffffffffffffffffffffffffffffffffffffffffffffffffff038211156200103f576200103e620011a4565b5b828201905092915050565b60006200105782620010eb565b91506200106483620010eb565b9250817fffffffffffffffffffffffffffffffffffffffffffffffffffffffffffffffff0483118215151615620010a0576200109f620011a4565b5b828202905092915050565b6000620010b882620010cb565b9050919050565b60008115159050919050565b600073ffffffffffffffffffffffffffffffffffffffff82169050919050565b6000819050919050565b60006200110282620010eb565b9050919050565b60005b83811015620011295780820151818401526020810190506200110c565b8381111562001139576000848401525b50505050565b60006200114c82620010eb565b91506000821415620011635762001162620011a4565b5b600182039050919050565b600060028204905060018216806200118757607f821691505b602082108114156200119e576200119d620011d3565b5b50919050565b7f4e487b7100000000000000000000000000000000000000000000000000000000600052601160045260246000fd5b7f4e487b7100000000000000000000000000000000000000000000000000000000600052602260045260246000fd5b6000601f19601f8301169050919050565b6200121e81620010ab565b81146200122a57600080fd5b50565b6200123881620010bf565b81146200124457600080fd5b50565b615dec80620012576000396000f3fe608060405234801561001057600080fd5b506004361061023c5760003560e01c80638456cb591161013b578063d5391393116100b8578063f23a6e611161007c578063f23a6e61146106fb578063f242432a1461072b578063f5298aca14610747578063fddc968e14610763578063feee2465146107935761023c565b8063d539139314610657578063d547741f14610675578063e5c7920f14610691578063e63ab1e9146106ad578063e985e9c5146106cb5761023c565b8063bc197c81116100ff578063bc197c811461057b578063bf40fac1146105ab578063ca15c873146105db578063cebe801f1461060b578063d179277d1461063b5761023c565b80638456cb59146104d75780639010d07c146104e157806391d1485414610511578063a217fddf14610541578063a22cb4651461055f5761023c565b80632f2ff15d116101c95780636b20c4541161018d5780636b20c45414610445578063731133e91461046157806373e3bfbd1461047d578063780410431461049b5780637abf0125146104b95761023c565b80632f2ff15d146103b557806336568abe146103d15780633f4ba83a146103ed5780634e1273f4146103f75780635c975abb146104275761023c565b8063160202731161021057806316020273146103015780631f7fdffa14610331578063248a9ca31461034d5780632bf4ec851461037d5780632eb2c2d6146103995761023c565b8062fdd58e1461024157806301ffc9a714610271578063077b0e4d146102a15780630e89341c146102d1575b600080fd5b61025b600480360381019061025691906142b6565b6107af565b60405161026891906157a3565b60405180910390f35b61028b600480360381019061028691906144c9565b610879565b60405161029891906153d0565b60405180910390f35b6102bb60048036038101906102b6919061455c565b61088b565b6040516102c891906157a3565b60405180910390f35b6102eb60048036038101906102e6919061455c565b610920565b6040516102f89190615421565b60405180910390f35b61031b6004803603810190610316919061451b565b6109b4565b60405161032891906157a3565b60405180910390f35b61034b600480360381019061034691906141cf565b610a27565b005b61036760048036038101906103629190614428565b610aa9565b60405161037491906153eb565b60405180910390f35b61039760048036038101906103929190614585565b610ac9565b005b6103b360048036038101906103ae9190614002565b610c25565b005b6103cf60048036038101906103ca9190614451565b61101e565b005b6103eb60048036038101906103e69190614451565b611052565b005b6103f5611086565b005b610411600480360381019061040c91906143bc565b611100565b60405161041e9190615377565b60405180910390f35b61042f6112b1565b60405161043c91906153d0565b60405180910390f35b61045f600480360381019061045a9190614150565b6112c8565b005b61047b60048036038101906104769190614341565b611365565b005b6104856113e7565b60405161049291906153eb565b60405180910390f35b6104a361140b565b6040516104b091906157a3565b60405180910390f35b6104c1611411565b6040516104ce91906157a3565b60405180910390f35b6104df611417565b005b6104fb60048036038101906104f6919061448d565b611491565b604051610508919061521c565b60405180910390f35b61052b60048036038101906105269190614451565b6114c0565b60405161053891906153d0565b60405180910390f35b61054961152b565b60405161055691906153eb565b60405180910390f35b6105796004803603810190610574919061427a565b611532565b005b61059560048036038101906105909190614002565b6116b3565b6040516105a29190615406565b60405180910390f35b6105c560048036038101906105c0919061451b565b6116c8565b6040516105d2919061521c565b60405180910390f35b6105f560048036038101906105f09190614428565b61175b565b60405161060291906157a3565b60405180910390f35b6106256004803603810190610620919061455c565b61177f565b60405161063291906157a3565b60405180910390f35b61065560048036038101906106509190614585565b6117a3565b005b61065f61184d565b60405161066c91906153eb565b60405180910390f35b61068f600480360381019061068a9190614451565b611871565b005b6106ab60048036038101906106a6919061455c565b6118a5565b005b6106b5611940565b6040516106c291906153eb565b60405180910390f35b6106e560048036038101906106e09190613fc6565b611964565b6040516106f291906153d0565b60405180910390f35b610715600480360381019061071091906140c1565b6119f8565b6040516107229190615406565b60405180910390f35b610745600480360381019061074091906140c1565b611a0d565b005b610761600480360381019061075c91906142f2565b611d28565b005b61077d6004803603810190610778919061451b565b611dc5565b60405161078a91906153d0565b60405180910390f35b6107ad60048036038101906107a8919061455c565b611dfc565b005b60008073ffffffffffffffffffffffffffffffffffffffff168373ffffffffffffffffffffffffffffffffffffffff161415610820576040517f08c379a000000000000000000000000000000000000000000000000000000000815260040161081790615523565b60405180910390fd5b6009600083815260200190815260200160002060008473ffffffffffffffffffffffffffffffffffffffff1673ffffffffffffffffffffffffffffffffffffffff16815260200190815260200160002054905092915050565b600061088482612172565b9050919050565b6000600d8054905082106108d4576040517f08c379a00000000000000000000000000000000000000000000000000000000081526004016108cb906154e3565b60405180910390fd5b600d828154811061090e577f4e487b7100000000000000000000000000000000000000000000000000000000600052603260045260246000fd5b90600052602060002001549050919050565b6060600b805461092f90615b67565b80601f016020809104026020016040519081016040528092919081815260200182805461095b90615b67565b80156109a85780601f1061097d576101008083540402835291602001916109a8565b820191906000526020600020905b81548152906001019060200180831161098b57829003601f168201915b50505050509050919050565b60006109bf82611dc5565b6109fe576040517f08c379a00000000000000000000000000000000000000000000000000000000081526004016109f5906156c3565b60405180910390fd5b600082604051610a0e91906151cb565b9081526020016040518091039020600101549050919050565b610a587f9f2df0fed2c77648de5860a4cc508cd0818c85b8b8a1ab4ceeef8d981c8956a6610a536121ec565b6114c0565b610a97576040517f08c379a0000000000000000000000000000000000000000000000000000000008152600401610a8e90615663565b60405180910390fd5b610aa3848484846121f4565b50505050565b600060016000838152602001908152602001600020600101549050919050565b610ad281611dc5565b15610b12576040517f08c379a0000000000000000000000000000000000000000000000000000000008152600401610b09906155a3565b60405180910390fd5b81600082604051610b2391906151cb565b9081526020016040518091039020600101819055506001600082604051610b4a91906151cb565b908152602001604051809103902060000160006101000a81548160ff021916908315150217905550610b7a6121ec565b600082604051610b8a91906151cb565b908152602001604051809103902060020160006101000a81548173ffffffffffffffffffffffffffffffffffffffff021916908373ffffffffffffffffffffffffffffffffffffffff160217905550610be281611dc5565b610c21576040517f08c379a0000000000000000000000000000000000000000000000000000000008152600401610c18906156c3565b60405180910390fd5b5050565b8151835114610c69576040517f08c379a0000000000000000000000000000000000000000000000000000000008152600401610c6090615743565b60405180910390fd5b600073ffffffffffffffffffffffffffffffffffffffff168473ffffffffffffffffffffffffffffffffffffffff161415610cd9576040517f08c379a0000000000000000000000000000000000000000000000000000000008152600401610cd090615603565b60405180910390fd5b610ce16121ec565b73ffffffffffffffffffffffffffffffffffffffff168573ffffffffffffffffffffffffffffffffffffffff161480610d275750610d2685610d216121ec565b611964565b5b610d66576040517f08c379a0000000000000000000000000000000000000000000000000000000008152600401610d5d90615623565b60405180910390fd5b6000610d706121ec565b9050610d8081878787878761245f565b60005b8451811015610f89576000858281518110610dc7577f4e487b7100000000000000000000000000000000000000000000000000000000600052603260045260246000fd5b602002602001015190506000858381518110610e0c577f4e487b7100000000000000000000000000000000000000000000000000000000600052603260045260246000fd5b6020026020010151905060006009600084815260200190815260200160002060008b73ffffffffffffffffffffffffffffffffffffffff1673ffffffffffffffffffffffffffffffffffffffff16815260200190815260200160002054905081811015610eae576040517f08c379a0000000000000000000000000000000000000000000000000000000008152600401610ea590615683565b60405180910390fd5b8181610eba9190615a25565b6009600085815260200190815260200160002060008c73ffffffffffffffffffffffffffffffffffffffff1673ffffffffffffffffffffffffffffffffffffffff16815260200190815260200160002081905550816009600085815260200190815260200160002060008b73ffffffffffffffffffffffffffffffffffffffff1673ffffffffffffffffffffffffffffffffffffffff1681526020019081526020016000206000828254610f6e9190615975565b9250508190555050505080610f8290615b99565b9050610d83565b508473ffffffffffffffffffffffffffffffffffffffff168673ffffffffffffffffffffffffffffffffffffffff168273ffffffffffffffffffffffffffffffffffffffff167f4a39dc06d4c0dbc64b70af90fd698a233a518aa5d07e595d983b8c0526c8f7fb8787604051611000929190615399565b60405180910390a4611016818787878787612475565b505050505050565b6110288282611e4f565b61104d8160026000858152602001908152602001600020611e1f90919063ffffffff16565b505050565b61105c8282612645565b61108181600260008581526020019081526020016000206126c890919063ffffffff16565b505050565b6110b77f65d7a28e3265b37a6474929f336521b332c1681b933f6cb9f3376673440d862a6110b26121ec565b6114c0565b6110f6576040517f08c379a00000000000000000000000000000000000000000000000000000000081526004016110ed906156a3565b60405180910390fd5b6110fe6126f8565b565b60608151835114611146576040517f08c379a000000000000000000000000000000000000000000000000000000000815260040161113d90615723565b60405180910390fd5b6000835167ffffffffffffffff811115611189577f4e487b7100000000000000000000000000000000000000000000000000000000600052604160045260246000fd5b6040519080825280602002602001820160405280156111b75781602001602082028036833780820191505090505b50905060005b84518110156112a657611250858281518110611202577f4e487b7100000000000000000000000000000000000000000000000000000000600052603260045260246000fd5b6020026020010151858381518110611243577f4e487b7100000000000000000000000000000000000000000000000000000000600052603260045260246000fd5b60200260200101516107af565b828281518110611289577f4e487b7100000000000000000000000000000000000000000000000000000000600052603260045260246000fd5b6020026020010181815250508061129f90615b99565b90506111bd565b508091505092915050565b6000600c60009054906101000a900460ff16905090565b6112d06121ec565b73ffffffffffffffffffffffffffffffffffffffff168373ffffffffffffffffffffffffffffffffffffffff1614806113165750611315836113106121ec565b611964565b5b611355576040517f08c379a000000000000000000000000000000000000000000000000000000000815260040161134c90615583565b60405180910390fd5b61136083838361279a565b505050565b6113967f9f2df0fed2c77648de5860a4cc508cd0818c85b8b8a1ab4ceeef8d981c8956a66113916121ec565b6114c0565b6113d5576040517f08c379a00000000000000000000000000000000000000000000000000000000081526004016113cc90615663565b60405180910390fd5b6113e184848484612aa2565b50505050565b7f9f2df0fed2c77648de5860a4cc508cd0818c85b8b8a1ab4ceeef8d981c8956a681565b600e5481565b600f5481565b6114487f65d7a28e3265b37a6474929f336521b332c1681b933f6cb9f3376673440d862a6114436121ec565b6114c0565b611487576040517f08c379a000000000000000000000000000000000000000000000000000000000815260040161147e906156e3565b60405180910390fd5b61148f612c39565b565b60006114b88260026000868152602001908152602001600020612cdc90919063ffffffff16565b905092915050565b60006001600084815260200190815260200160002060000160008373ffffffffffffffffffffffffffffffffffffffff1673ffffffffffffffffffffffffffffffffffffffff16815260200190815260200160002060009054906101000a900460ff16905092915050565b6000801b81565b8173ffffffffffffffffffffffffffffffffffffffff166115516121ec565b73ffffffffffffffffffffffffffffffffffffffff1614156115a8576040517f08c379a000000000000000000000000000000000000000000000000000000000815260040161159f90615703565b60405180910390fd5b80600a60006115b56121ec565b73ffffffffffffffffffffffffffffffffffffffff1673ffffffffffffffffffffffffffffffffffffffff16815260200190815260200160002060008473ffffffffffffffffffffffffffffffffffffffff1673ffffffffffffffffffffffffffffffffffffffff16815260200190815260200160002060006101000a81548160ff0219169083151502179055508173ffffffffffffffffffffffffffffffffffffffff166116626121ec565b73ffffffffffffffffffffffffffffffffffffffff167f17307eab39ab6107e8899845ad3d59bd9653f200f220920489ca2b5937696c31836040516116a791906153d0565b60405180910390a35050565b600063bc197c8160e01b905095945050505050565b60006116d382611dc5565b611712576040517f08c379a0000000000000000000000000000000000000000000000000000000008152600401611709906156c3565b60405180910390fd5b60008260405161172291906151cb565b908152602001604051809103902060020160009054906101000a900473ffffffffffffffffffffffffffffffffffffffff169050919050565b600061177860026000848152602001908152602001600020612cf6565b9050919050565b600d818154811061178f57600080fd5b906000526020600020016000915090505481565b60006117af8383612d0b565b9050600360009054906101000a900473ffffffffffffffffffffffffffffffffffffffff1673ffffffffffffffffffffffffffffffffffffffff166339a8c661826117f9856116c8565b6040518363ffffffff1660e01b81526004016118169291906157be565b600060405180830381600087803b15801561183057600080fd5b505af1158015611844573d6000803e3d6000fd5b50505050505050565b7f9f2df0fed2c77648de5860a4cc508cd0818c85b8b8a1ab4ceeef8d981c8956a681565b61187b8282612dff565b6118a081600260008581526020019081526020016000206126c890919063ffffffff16565b505050565b6118ae81612e28565b600460009054906101000a900473ffffffffffffffffffffffffffffffffffffffff1673ffffffffffffffffffffffffffffffffffffffff166339a8c66182306040518363ffffffff1660e01b815260040161190b9291906157be565b600060405180830381600087803b15801561192557600080fd5b505af1158015611939573d6000803e3d6000fd5b5050505050565b7f65d7a28e3265b37a6474929f336521b332c1681b933f6cb9f3376673440d862a81565b6000600a60008473ffffffffffffffffffffffffffffffffffffffff1673ffffffffffffffffffffffffffffffffffffffff16815260200190815260200160002060008373ffffffffffffffffffffffffffffffffffffffff1673ffffffffffffffffffffffffffffffffffffffff16815260200190815260200160002060009054906101000a900460ff16905092915050565b600063f23a6e6160e01b905095945050505050565b600073ffffffffffffffffffffffffffffffffffffffff168473ffffffffffffffffffffffffffffffffffffffff161415611a7d576040517f08c379a0000000000000000000000000000000000000000000000000000000008152600401611a7490615603565b60405180910390fd5b611a856121ec565b73ffffffffffffffffffffffffffffffffffffffff168573ffffffffffffffffffffffffffffffffffffffff161480611acb5750611aca85611ac56121ec565b611964565b5b611b0a576040517f08c379a0000000000000000000000000000000000000000000000000000000008152600401611b0190615583565b60405180910390fd5b6000611b146121ec565b9050611b34818787611b2588612ef5565b611b2e88612ef5565b8761245f565b60006009600086815260200190815260200160002060008873ffffffffffffffffffffffffffffffffffffffff1673ffffffffffffffffffffffffffffffffffffffff16815260200190815260200160002054905083811015611bcc576040517f08c379a0000000000000000000000000000000000000000000000000000000008152600401611bc390615683565b60405180910390fd5b8381611bd89190615a25565b6009600087815260200190815260200160002060008973ffffffffffffffffffffffffffffffffffffffff1673ffffffffffffffffffffffffffffffffffffffff16815260200190815260200160002081905550836009600087815260200190815260200160002060008873ffffffffffffffffffffffffffffffffffffffff1673ffffffffffffffffffffffffffffffffffffffff1681526020019081526020016000206000828254611c8c9190615975565b925050819055508573ffffffffffffffffffffffffffffffffffffffff168773ffffffffffffffffffffffffffffffffffffffff168373ffffffffffffffffffffffffffffffffffffffff167fc3d58168c5ae7397731d063d5bbf3d657854427343f4c083240f7aacaa2d0f628888604051611d099291906157e7565b60405180910390a4611d1f828888888888612fbb565b50505050505050565b611d306121ec565b73ffffffffffffffffffffffffffffffffffffffff168373ffffffffffffffffffffffffffffffffffffffff161480611d765750611d7583611d706121ec565b611964565b5b611db5576040517f08c379a0000000000000000000000000000000000000000000000000000000008152600401611dac90615583565b60405180910390fd5b611dc083838361318b565b505050565b60008082604051611dd691906151cb565b908152602001604051809103902060000160009054906101000a900460ff169050919050565b611e05816133b3565b611e0e816118a5565b50565b611e1b8282613551565b5050565b6000611e47836000018373ffffffffffffffffffffffffffffffffffffffff1660001b613631565b905092915050565b611e5882610aa9565b611e6981611e646121ec565b6136a1565b611e738383613551565b505050565b606060006002836002611e8b91906159cb565b611e959190615975565b67ffffffffffffffff811115611ed4577f4e487b7100000000000000000000000000000000000000000000000000000000600052604160045260246000fd5b6040519080825280601f01601f191660200182016040528015611f065781602001600182028036833780820191505090505b5090507f300000000000000000000000000000000000000000000000000000000000000081600081518110611f64577f4e487b7100000000000000000000000000000000000000000000000000000000600052603260045260246000fd5b60200101907effffffffffffffffffffffffffffffffffffffffffffffffffffffffffffff1916908160001a9053507f780000000000000000000000000000000000000000000000000000000000000081600181518110611fee577f4e487b7100000000000000000000000000000000000000000000000000000000600052603260045260246000fd5b60200101907effffffffffffffffffffffffffffffffffffffffffffffffffffffffffffff1916908160001a9053506000600184600261202e91906159cb565b6120389190615975565b90505b6001811115612124577f3031323334353637383961626364656600000000000000000000000000000000600f8616601081106120a0577f4e487b7100000000000000000000000000000000000000000000000000000000600052603260045260246000fd5b1a60f81b8282815181106120dd577f4e487b7100000000000000000000000000000000000000000000000000000000600052603260045260246000fd5b60200101907effffffffffffffffffffffffffffffffffffffffffffffffffffffffffffff1916908160001a905350600485901c94508061211d90615b3d565b905061203b565b5060008414612168576040517f08c379a000000000000000000000000000000000000000000000000000000000815260040161215f90615483565b60405180910390fd5b8091505092915050565b60007f4e2312e0000000000000000000000000000000000000000000000000000000007bffffffffffffffffffffffffffffffffffffffffffffffffffffffff1916827bffffffffffffffffffffffffffffffffffffffffffffffffffffffff191614806121e557506121e48261373e565b5b9050919050565b600033905090565b600073ffffffffffffffffffffffffffffffffffffffff168473ffffffffffffffffffffffffffffffffffffffff161415612264576040517f08c379a000000000000000000000000000000000000000000000000000000000815260040161225b90615763565b60405180910390fd5b81518351146122a8576040517f08c379a000000000000000000000000000000000000000000000000000000000815260040161229f90615743565b60405180910390fd5b60006122b26121ec565b90506122c38160008787878761245f565b60005b84518110156123c957838181518110612308577f4e487b7100000000000000000000000000000000000000000000000000000000600052603260045260246000fd5b60200260200101516009600087848151811061234d577f4e487b7100000000000000000000000000000000000000000000000000000000600052603260045260246000fd5b6020026020010151815260200190815260200160002060008873ffffffffffffffffffffffffffffffffffffffff1673ffffffffffffffffffffffffffffffffffffffff16815260200190815260200160002060008282546123af9190615975565b9250508190555080806123c190615b99565b9150506122c6565b508473ffffffffffffffffffffffffffffffffffffffff16600073ffffffffffffffffffffffffffffffffffffffff168273ffffffffffffffffffffffffffffffffffffffff167f4a39dc06d4c0dbc64b70af90fd698a233a518aa5d07e595d983b8c0526c8f7fb8787604051612441929190615399565b60405180910390a461245881600087878787612475565b5050505050565b61246d868686868686613750565b505050505050565b6124948473ffffffffffffffffffffffffffffffffffffffff166137ae565b1561263d578373ffffffffffffffffffffffffffffffffffffffff1663bc197c8187878686866040518663ffffffff1660e01b81526004016124da959493929190615237565b602060405180830381600087803b1580156124f457600080fd5b505af192505050801561252557506040513d601f19601f8201168201806040525081019061252291906144f2565b60015b6125b457612531615c8d565b8061253c5750612579565b806040517f08c379a00000000000000000000000000000000000000000000000000000000081526004016125709190615421565b60405180910390fd5b6040517f08c379a00000000000000000000000000000000000000000000000000000000081526004016125ab90615443565b60405180910390fd5b63bc197c8160e01b7bffffffffffffffffffffffffffffffffffffffffffffffffffffffff1916817bffffffffffffffffffffffffffffffffffffffffffffffffffffffff19161461263b576040517f08c379a0000000000000000000000000000000000000000000000000000000008152600401612632906154a3565b60405180910390fd5b505b505050505050565b61264d6121ec565b73ffffffffffffffffffffffffffffffffffffffff168173ffffffffffffffffffffffffffffffffffffffff16146126ba576040517f08c379a00000000000000000000000000000000000000000000000000000000081526004016126b190615783565b60405180910390fd5b6126c482826137c1565b5050565b60006126f0836000018373ffffffffffffffffffffffffffffffffffffffff1660001b6138a3565b905092915050565b6127006112b1565b61273f576040517f08c379a0000000000000000000000000000000000000000000000000000000008152600401612736906154c3565b60405180910390fd5b6000600c60006101000a81548160ff0219169083151502179055507f5db9ee0a495bf2e6ff9c91a7834c1ba4fdd244a5e8aa4e537bd38aeae4b073aa6127836121ec565b604051612790919061521c565b60405180910390a1565b600073ffffffffffffffffffffffffffffffffffffffff168373ffffffffffffffffffffffffffffffffffffffff16141561280a576040517f08c379a000000000000000000000000000000000000000000000000000000000815260040161280190615643565b60405180910390fd5b805182511461284e576040517f08c379a000000000000000000000000000000000000000000000000000000000815260040161284590615743565b60405180910390fd5b60006128586121ec565b90506128788185600086866040518060200160405280600081525061245f565b60005b8351811015612a1c5760008482815181106128bf577f4e487b7100000000000000000000000000000000000000000000000000000000600052603260045260246000fd5b602002602001015190506000848381518110612904577f4e487b7100000000000000000000000000000000000000000000000000000000600052603260045260246000fd5b6020026020010151905060006009600084815260200190815260200160002060008973ffffffffffffffffffffffffffffffffffffffff1673ffffffffffffffffffffffffffffffffffffffff168152602001908152602001600020549050818110156129a6576040517f08c379a000000000000000000000000000000000000000000000000000000000815260040161299d90615543565b60405180910390fd5b81816129b29190615a25565b6009600085815260200190815260200160002060008a73ffffffffffffffffffffffffffffffffffffffff1673ffffffffffffffffffffffffffffffffffffffff168152602001908152602001600020819055505050508080612a1490615b99565b91505061287b565b50600073ffffffffffffffffffffffffffffffffffffffff168473ffffffffffffffffffffffffffffffffffffffff168273ffffffffffffffffffffffffffffffffffffffff167f4a39dc06d4c0dbc64b70af90fd698a233a518aa5d07e595d983b8c0526c8f7fb8686604051612a94929190615399565b60405180910390a450505050565b600073ffffffffffffffffffffffffffffffffffffffff168473ffffffffffffffffffffffffffffffffffffffff161415612b12576040517f08c379a0000000000000000000000000000000000000000000000000000000008152600401612b0990615763565b60405180910390fd5b6000612b1c6121ec565b9050612b3d81600087612b2e88612ef5565b612b3788612ef5565b8761245f565b826009600086815260200190815260200160002060008773ffffffffffffffffffffffffffffffffffffffff1673ffffffffffffffffffffffffffffffffffffffff1681526020019081526020016000206000828254612b9d9190615975565b925050819055508473ffffffffffffffffffffffffffffffffffffffff16600073ffffffffffffffffffffffffffffffffffffffff168273ffffffffffffffffffffffffffffffffffffffff167fc3d58168c5ae7397731d063d5bbf3d657854427343f4c083240f7aacaa2d0f628787604051612c1b9291906157e7565b60405180910390a4612c3281600087878787612fbb565b5050505050565b612c416112b1565b15612c81576040517f08c379a0000000000000000000000000000000000000000000000000000000008152600401612c78906155c3565b60405180910390fd5b6001600c60006101000a81548160ff0219169083151502179055507f62e78cea01bee320cd4e420270b5ea74000d11b0c9f74754ebdbfc544b05a258612cc56121ec565b604051612cd2919061521c565b60405180910390a1565b6000612ceb8360000183613a21565b60001c905092915050565b6000612d0482600001613abb565b9050919050565b6000612d1682611dc5565b612d55576040517f08c379a0000000000000000000000000000000000000000000000000000000008152600401612d4c906156c3565b60405180910390fd5b82612d5f836109b4565b10612d9f576040517f08c379a0000000000000000000000000000000000000000000000000000000008152600401612d96906155e3565b60405180910390fd5b60008083604051612db091906151cb565b90815260200160405180910390206001015484612dcd9190615a25565b905083600084604051612de091906151cb565b9081526020016040518091039020600101819055508091505092915050565b612e0882610aa9565b612e1981612e146121ec565b6136a1565b612e2383836137c1565b505050565b612e3c6000801b612e376121ec565b6114c0565b612e7b576040517f08c379a0000000000000000000000000000000000000000000000000000000008152600401612e7290615503565b60405180910390fd5b612e9830600f548360405180602001604052806000815250611365565b600f6000815480929190612eab90615b99565b919050555080600e6000828254612ec29190615975565b92505081905550600d81908060018154018082558091505060019003906000526020600020016000909190919091505550565b60606000600167ffffffffffffffff811115612f3a577f4e487b7100000000000000000000000000000000000000000000000000000000600052604160045260246000fd5b604051908082528060200260200182016040528015612f685781602001602082028036833780820191505090505b5090508281600081518110612fa6577f4e487b7100000000000000000000000000000000000000000000000000000000600052603260045260246000fd5b60200260200101818152505080915050919050565b612fda8473ffffffffffffffffffffffffffffffffffffffff166137ae565b15613183578373ffffffffffffffffffffffffffffffffffffffff1663f23a6e6187878686866040518663ffffffff1660e01b815260040161302095949392919061531d565b602060405180830381600087803b15801561303a57600080fd5b505af192505050801561306b57506040513d601f19601f8201168201806040525081019061306891906144f2565b60015b6130fa57613077615c8d565b8061308257506130bf565b806040517f08c379a00000000000000000000000000000000000000000000000000000000081526004016130b69190615421565b60405180910390fd5b6040517f08c379a00000000000000000000000000000000000000000000000000000000081526004016130f190615443565b60405180910390fd5b63f23a6e6160e01b7bffffffffffffffffffffffffffffffffffffffffffffffffffffffff1916817bffffffffffffffffffffffffffffffffffffffffffffffffffffffff191614613181576040517f08c379a0000000000000000000000000000000000000000000000000000000008152600401613178906154a3565b60405180910390fd5b505b505050505050565b600073ffffffffffffffffffffffffffffffffffffffff168373ffffffffffffffffffffffffffffffffffffffff1614156131fb576040517f08c379a00000000000000000000000000000000000000000000000000000000081526004016131f290615643565b60405180910390fd5b60006132056121ec565b90506132358185600061321787612ef5565b61322087612ef5565b6040518060200160405280600081525061245f565b60006009600085815260200190815260200160002060008673ffffffffffffffffffffffffffffffffffffffff1673ffffffffffffffffffffffffffffffffffffffff168152602001908152602001600020549050828110156132cd576040517f08c379a00000000000000000000000000000000000000000000000000000000081526004016132c490615543565b60405180910390fd5b82816132d99190615a25565b6009600086815260200190815260200160002060008773ffffffffffffffffffffffffffffffffffffffff1673ffffffffffffffffffffffffffffffffffffffff16815260200190815260200160002081905550600073ffffffffffffffffffffffffffffffffffffffff168573ffffffffffffffffffffffffffffffffffffffff168373ffffffffffffffffffffffffffffffffffffffff167fc3d58168c5ae7397731d063d5bbf3d657854427343f4c083240f7aacaa2d0f6287876040516133a49291906157e7565b60405180910390a45050505050565b600360009054906101000a900473ffffffffffffffffffffffffffffffffffffffff1673ffffffffffffffffffffffffffffffffffffffff166339a8c66182306040518363ffffffff1660e01b81526004016134109291906157be565b600060405180830381600087803b15801561342a57600080fd5b505af115801561343e573d6000803e3d6000fd5b50505050600660009054906101000a900473ffffffffffffffffffffffffffffffffffffffff1673ffffffffffffffffffffffffffffffffffffffff1663e8e33700600360009054906101000a900473ffffffffffffffffffffffffffffffffffffffff16600460009054906101000a900473ffffffffffffffffffffffffffffffffffffffff166107d0806107d08060006402540be3ff6040518963ffffffff1660e01b81526004016134f998979695949392919061529f565b606060405180830381600087803b15801561351357600080fd5b505af1158015613527573d6000803e3d6000fd5b505050506040513d601f19601f8201168201806040525081019061354b91906145d9565b50505050565b61355b82826114c0565b61362d57600180600084815260200190815260200160002060000160008373ffffffffffffffffffffffffffffffffffffffff1673ffffffffffffffffffffffffffffffffffffffff16815260200190815260200160002060006101000a81548160ff0219169083151502179055506135d26121ec565b73ffffffffffffffffffffffffffffffffffffffff168173ffffffffffffffffffffffffffffffffffffffff16837f2f8788117e7eff1d82e926ec794901d17c78024a50270940304540a733656f0d60405160405180910390a45b5050565b600061363d8383613acc565b61369657826000018290806001815401808255809150506001900390600052602060002001600090919091909150558260000180549050836001016000848152602001908152602001600020819055506001905061369b565b600090505b92915050565b6136ab82826114c0565b61373a576136d08173ffffffffffffffffffffffffffffffffffffffff166014611e78565b6136de8360001c6020611e78565b6040516020016136ef9291906151e2565b6040516020818303038152906040526040517f08c379a00000000000000000000000000000000000000000000000000000000081526004016137319190615421565b60405180910390fd5b5050565b600061374982613aef565b9050919050565b61375e868686868686613bd1565b6137666112b1565b156137a6576040517f08c379a000000000000000000000000000000000000000000000000000000000815260040161379d90615563565b60405180910390fd5b505050505050565b600080823b905060008111915050919050565b6137cb82826114c0565b1561389f5760006001600084815260200190815260200160002060000160008373ffffffffffffffffffffffffffffffffffffffff1673ffffffffffffffffffffffffffffffffffffffff16815260200190815260200160002060006101000a81548160ff0219169083151502179055506138446121ec565b73ffffffffffffffffffffffffffffffffffffffff168173ffffffffffffffffffffffffffffffffffffffff16837ff6391f5c32d9c69d2a47ea670b442974b53935d1edc7fd64eb21e047a839171b60405160405180910390a45b5050565b60008083600101600084815260200190815260200160002054905060008114613a155760006001826138d59190615a25565b90506000600186600001805490506138ed9190615a25565b9050600086600001828154811061392d577f4e487b7100000000000000000000000000000000000000000000000000000000600052603260045260246000fd5b9060005260206000200154905080876000018481548110613977577f4e487b7100000000000000000000000000000000000000000000000000000000600052603260045260246000fd5b90600052602060002001819055508387600101600083815260200190815260200160002081905550866000018054806139d9577f4e487b7100000000000000000000000000000000000000000000000000000000600052603160045260246000fd5b60019003818190600052602060002001600090559055866001016000878152602001908152602001600020600090556001945050505050613a1b565b60009150505b92915050565b600081836000018054905011613a6c576040517f08c379a0000000000000000000000000000000000000000000000000000000008152600401613a6390615463565b60405180910390fd5b826000018281548110613aa8577f4e487b7100000000000000000000000000000000000000000000000000000000600052603260045260246000fd5b9060005260206000200154905092915050565b600081600001805490509050919050565b600080836001016000848152602001908152602001600020541415905092915050565b60007fd9b67a26000000000000000000000000000000000000000000000000000000007bffffffffffffffffffffffffffffffffffffffffffffffffffffffff1916827bffffffffffffffffffffffffffffffffffffffffffffffffffffffff19161480613bba57507f0e89341c000000000000000000000000000000000000000000000000000000007bffffffffffffffffffffffffffffffffffffffffffffffffffffffff1916827bffffffffffffffffffffffffffffffffffffffffffffffffffffffff1916145b80613bca5750613bc982613bd9565b5b9050919050565b505050505050565b60007f5a05180f000000000000000000000000000000000000000000000000000000007bffffffffffffffffffffffffffffffffffffffffffffffffffffffff1916827bffffffffffffffffffffffffffffffffffffffffffffffffffffffff19161480613c4c5750613c4b82613c53565b5b9050919050565b60007f7965db0b000000000000000000000000000000000000000000000000000000007bffffffffffffffffffffffffffffffffffffffffffffffffffffffff1916827bffffffffffffffffffffffffffffffffffffffffffffffffffffffff19161480613cc65750613cc582613ccd565b5b9050919050565b60007f01ffc9a7000000000000000000000000000000000000000000000000000000007bffffffffffffffffffffffffffffffffffffffffffffffffffffffff1916827bffffffffffffffffffffffffffffffffffffffffffffffffffffffff1916149050919050565b6000613d4a613d4584615841565b615810565b90508083825260208201905082856020860282011115613d6957600080fd5b60005b85811015613d995781613d7f8882613e8b565b845260208401935060208301925050600181019050613d6c565b5050509392505050565b6000613db6613db18461586d565b615810565b90508083825260208201905082856020860282011115613dd557600080fd5b60005b85811015613e055781613deb8882613f9c565b845260208401935060208301925050600181019050613dd8565b5050509392505050565b6000613e22613e1d84615899565b615810565b905082815260208101848484011115613e3a57600080fd5b613e45848285615afb565b509392505050565b6000613e60613e5b846158c9565b615810565b905082815260208101848484011115613e7857600080fd5b613e83848285615afb565b509392505050565b600081359050613e9a81615d43565b92915050565b600082601f830112613eb157600080fd5b8135613ec1848260208601613d37565b91505092915050565b600082601f830112613edb57600080fd5b8135613eeb848260208601613da3565b91505092915050565b600081359050613f0381615d5a565b92915050565b600081359050613f1881615d71565b92915050565b600081359050613f2d81615d88565b92915050565b600081519050613f4281615d88565b92915050565b600082601f830112613f5957600080fd5b8135613f69848260208601613e0f565b91505092915050565b600082601f830112613f8357600080fd5b8135613f93848260208601613e4d565b91505092915050565b600081359050613fab81615d9f565b92915050565b600081519050613fc081615d9f565b92915050565b60008060408385031215613fd957600080fd5b6000613fe785828601613e8b565b9250506020613ff885828601613e8b565b9150509250929050565b600080600080600060a0868803121561401a57600080fd5b600061402888828901613e8b565b955050602061403988828901613e8b565b945050604086013567ffffffffffffffff81111561405657600080fd5b61406288828901613eca565b935050606086013567ffffffffffffffff81111561407f57600080fd5b61408b88828901613eca565b925050608086013567ffffffffffffffff8111156140a857600080fd5b6140b488828901613f48565b9150509295509295909350565b600080600080600060a086880312156140d957600080fd5b60006140e788828901613e8b565b95505060206140f888828901613e8b565b945050604061410988828901613f9c565b935050606061411a88828901613f9c565b925050608086013567ffffffffffffffff81111561413757600080fd5b61414388828901613f48565b9150509295509295909350565b60008060006060848603121561416557600080fd5b600061417386828701613e8b565b935050602084013567ffffffffffffffff81111561419057600080fd5b61419c86828701613eca565b925050604084013567ffffffffffffffff8111156141b957600080fd5b6141c586828701613eca565b9150509250925092565b600080600080608085870312156141e557600080fd5b60006141f387828801613e8b565b945050602085013567ffffffffffffffff81111561421057600080fd5b61421c87828801613eca565b935050604085013567ffffffffffffffff81111561423957600080fd5b61424587828801613eca565b925050606085013567ffffffffffffffff81111561426257600080fd5b61426e87828801613f48565b91505092959194509250565b6000806040838503121561428d57600080fd5b600061429b85828601613e8b565b92505060206142ac85828601613ef4565b9150509250929050565b600080604083850312156142c957600080fd5b60006142d785828601613e8b565b92505060206142e885828601613f9c565b9150509250929050565b60008060006060848603121561430757600080fd5b600061431586828701613e8b565b935050602061432686828701613f9c565b925050604061433786828701613f9c565b9150509250925092565b6000806000806080858703121561435757600080fd5b600061436587828801613e8b565b945050602061437687828801613f9c565b935050604061438787828801613f9c565b925050606085013567ffffffffffffffff8111156143a457600080fd5b6143b087828801613f48565b91505092959194509250565b600080604083850312156143cf57600080fd5b600083013567ffffffffffffffff8111156143e957600080fd5b6143f585828601613ea0565b925050602083013567ffffffffffffffff81111561441257600080fd5b61441e85828601613eca565b9150509250929050565b60006020828403121561443a57600080fd5b600061444884828501613f09565b91505092915050565b6000806040838503121561446457600080fd5b600061447285828601613f09565b925050602061448385828601613e8b565b9150509250929050565b600080604083850312156144a057600080fd5b60006144ae85828601613f09565b92505060206144bf85828601613f9c565b9150509250929050565b6000602082840312156144db57600080fd5b60006144e984828501613f1e565b91505092915050565b60006020828403121561450457600080fd5b600061451284828501613f33565b91505092915050565b60006020828403121561452d57600080fd5b600082013567ffffffffffffffff81111561454757600080fd5b61455384828501613f72565b91505092915050565b60006020828403121561456e57600080fd5b600061457c84828501613f9c565b91505092915050565b6000806040838503121561459857600080fd5b60006145a685828601613f9c565b925050602083013567ffffffffffffffff8111156145c357600080fd5b6145cf85828601613f72565b9150509250929050565b6000806000606084860312156145ee57600080fd5b60006145fc86828701613fb1565b935050602061460d86828701613fb1565b925050604061461e86828701613fb1565b9150509250925092565b600061463483836151ad565b60208301905092915050565b61464981615a59565b82525050565b600061465a82615909565b6146648185615937565b935061466f836158f9565b8060005b838110156146a05781516146878882614628565b97506146928361592a565b925050600181019050614673565b5085935050505092915050565b6146b681615a6b565b82525050565b6146c581615a77565b82525050565b6146d481615a81565b82525050565b60006146e582615914565b6146ef8185615948565b93506146ff818560208601615b0a565b61470881615c6f565b840191505092915050565b61471c81615ad7565b82525050565b61472b81615ae9565b82525050565b600061473c8261591f565b6147468185615959565b9350614756818560208601615b0a565b61475f81615c6f565b840191505092915050565b60006147758261591f565b61477f818561596a565b935061478f818560208601615b0a565b80840191505092915050565b60006147a8603483615959565b91507f455243313135353a207472616e7366657220746f206e6f6e204552433131353560008301527f526563656976657220696d706c656d656e7465720000000000000000000000006020830152604082019050919050565b600061480e602283615959565b91507f456e756d657261626c655365743a20696e646578206f7574206f6620626f756e60008301527f64730000000000000000000000000000000000000000000000000000000000006020830152604082019050919050565b6000614874602083615959565b91507f537472696e67733a20686578206c656e67746820696e73756666696369656e746000830152602082019050919050565b60006148b4602883615959565b91507f455243313135353a204552433131353552656365697665722072656a6563746560008301527f6420746f6b656e730000000000000000000000000000000000000000000000006020830152604082019050919050565b600061491a601483615959565b91507f5061757361626c653a206e6f74207061757365640000000000000000000000006000830152602082019050919050565b600061495a602083615959565b91507f494420746f206c617267652c20736b696e20646f6573206e6f742065786973746000830152602082019050919050565b600061499a601583615959565b91507f4e6f207065726d697373696f6e20746f206d696e7400000000000000000000006000830152602082019050919050565b60006149da602b83615959565b91507f455243313135353a2062616c616e636520717565727920666f7220746865207a60008301527f65726f20616464726573730000000000000000000000000000000000000000006020830152604082019050919050565b6000614a40602483615959565b91507f455243313135353a206275726e20616d6f756e7420657863656564732062616c60008301527f616e6365000000000000000000000000000000000000000000000000000000006020830152604082019050919050565b6000614aa6602c83615959565b91507f455243313135355061757361626c653a20746f6b656e207472616e736665722060008301527f7768696c652070617573656400000000000000000000000000000000000000006020830152604082019050919050565b6000614b0c602983615959565b91507f455243313135353a2063616c6c6572206973206e6f74206f776e6572206e6f7260008301527f20617070726f76656400000000000000000000000000000000000000000000006020830152604082019050919050565b6000614b72600b83615959565b91507f55736572206578697374730000000000000000000000000000000000000000006000830152602082019050919050565b6000614bb2601083615959565b91507f5061757361626c653a20706175736564000000000000000000000000000000006000830152602082019050919050565b6000614bf2601883615959565b91507f53636f726520746f6f204c6f772f206e6f206368616e676500000000000000006000830152602082019050919050565b6000614c32602583615959565b91507f455243313135353a207472616e7366657220746f20746865207a65726f20616460008301527f64726573730000000000000000000000000000000000000000000000000000006020830152604082019050919050565b6000614c98603283615959565b91507f455243313135353a207472616e736665722063616c6c6572206973206e6f742060008301527f6f776e6572206e6f7220617070726f76656400000000000000000000000000006020830152604082019050919050565b6000614cfe602383615959565b91507f455243313135353a206275726e2066726f6d20746865207a65726f206164647260008301527f65737300000000000000000000000000000000000000000000000000000000006020830152604082019050919050565b6000614d64603883615959565b91507f455243313135355072657365744d696e7465725061757365723a206d7573742060008301527f68617665206d696e74657220726f6c6520746f206d696e7400000000000000006020830152604082019050919050565b6000614dca602a83615959565b91507f455243313135353a20696e73756666696369656e742062616c616e636520666f60008301527f72207472616e73666572000000000000000000000000000000000000000000006020830152604082019050919050565b6000614e30603b83615959565b91507f455243313135355072657365744d696e7465725061757365723a206d7573742060008301527f686176652070617573657220726f6c6520746f20756e706175736500000000006020830152604082019050919050565b6000614e96601283615959565b91507f5573657220646f65736e277420657869737400000000000000000000000000006000830152602082019050919050565b6000614ed6603983615959565b91507f455243313135355072657365744d696e7465725061757365723a206d7573742060008301527f686176652070617573657220726f6c6520746f207061757365000000000000006020830152604082019050919050565b6000614f3c60178361596a565b91507f416363657373436f6e74726f6c3a206163636f756e74200000000000000000006000830152601782019050919050565b6000614f7c602983615959565b91507f455243313135353a2073657474696e6720617070726f76616c2073746174757360008301527f20666f722073656c6600000000000000000000000000000000000000000000006020830152604082019050919050565b6000614fe2602983615959565b91507f455243313135353a206163636f756e747320616e6420696473206c656e67746860008301527f206d69736d6174636800000000000000000000000000000000000000000000006020830152604082019050919050565b6000615048602883615959565b91507f455243313135353a2069647320616e6420616d6f756e7473206c656e6774682060008301527f6d69736d617463680000000000000000000000000000000000000000000000006020830152604082019050919050565b60006150ae602183615959565b91507f455243313135353a206d696e7420746f20746865207a65726f2061646472657360008301527f73000000000000000000000000000000000000000000000000000000000000006020830152604082019050919050565b600061511460118361596a565b91507f206973206d697373696e6720726f6c65200000000000000000000000000000006000830152601182019050919050565b6000615154602f83615959565b91507f416363657373436f6e74726f6c3a2063616e206f6e6c792072656e6f756e636560008301527f20726f6c657320666f722073656c6600000000000000000000000000000000006020830152604082019050919050565b6151b681615acd565b82525050565b6151c581615acd565b82525050565b60006151d7828461476a565b915081905092915050565b60006151ed82614f2f565b91506151f9828561476a565b915061520482615107565b9150615210828461476a565b91508190509392505050565b60006020820190506152316000830184614640565b92915050565b600060a08201905061524c6000830188614640565b6152596020830187614640565b818103604083015261526b818661464f565b9050818103606083015261527f818561464f565b9050818103608083015261529381846146da565b90509695505050505050565b6000610100820190506152b5600083018b614640565b6152c2602083018a614640565b6152cf6040830189614713565b6152dc6060830188614713565b6152e96080830187614713565b6152f660a0830186614713565b61530360c0830185614640565b61531060e0830184614722565b9998505050505050505050565b600060a0820190506153326000830188614640565b61533f6020830187614640565b61534c60408301866151bc565b61535960608301856151bc565b818103608083015261536b81846146da565b90509695505050505050565b60006020820190508181036000830152615391818461464f565b905092915050565b600060408201905081810360008301526153b3818561464f565b905081810360208301526153c7818461464f565b90509392505050565b60006020820190506153e560008301846146ad565b92915050565b600060208201905061540060008301846146bc565b92915050565b600060208201905061541b60008301846146cb565b92915050565b6000602082019050818103600083015261543b8184614731565b905092915050565b6000602082019050818103600083015261545c8161479b565b9050919050565b6000602082019050818103600083015261547c81614801565b9050919050565b6000602082019050818103600083015261549c81614867565b9050919050565b600060208201905081810360008301526154bc816148a7565b9050919050565b600060208201905081810360008301526154dc8161490d565b9050919050565b600060208201905081810360008301526154fc8161494d565b9050919050565b6000602082019050818103600083015261551c8161498d565b9050919050565b6000602082019050818103600083015261553c816149cd565b9050919050565b6000602082019050818103600083015261555c81614a33565b9050919050565b6000602082019050818103600083015261557c81614a99565b9050919050565b6000602082019050818103600083015261559c81614aff565b9050919050565b600060208201905081810360008301526155bc81614b65565b9050919050565b600060208201905081810360008301526155dc81614ba5565b9050919050565b600060208201905081810360008301526155fc81614be5565b9050919050565b6000602082019050818103600083015261561c81614c25565b9050919050565b6000602082019050818103600083015261563c81614c8b565b9050919050565b6000602082019050818103600083015261565c81614cf1565b9050919050565b6000602082019050818103600083015261567c81614d57565b9050919050565b6000602082019050818103600083015261569c81614dbd565b9050919050565b600060208201905081810360008301526156bc81614e23565b9050919050565b600060208201905081810360008301526156dc81614e89565b9050919050565b600060208201905081810360008301526156fc81614ec9565b9050919050565b6000602082019050818103600083015261571c81614f6f565b9050919050565b6000602082019050818103600083015261573c81614fd5565b9050919050565b6000602082019050818103600083015261575c8161503b565b9050919050565b6000602082019050818103600083015261577c816150a1565b9050919050565b6000602082019050818103600083015261579c81615147565b9050919050565b60006020820190506157b860008301846151bc565b92915050565b60006040820190506157d360008301856151bc565b6157e06020830184614640565b9392505050565b60006040820190506157fc60008301856151bc565b61580960208301846151bc565b9392505050565b6000604051905081810181811067ffffffffffffffff8211171561583757615836615c40565b5b8060405250919050565b600067ffffffffffffffff82111561585c5761585b615c40565b5b602082029050602081019050919050565b600067ffffffffffffffff82111561588857615887615c40565b5b602082029050602081019050919050565b600067ffffffffffffffff8211156158b4576158b3615c40565b5b601f19601f8301169050602081019050919050565b600067ffffffffffffffff8211156158e4576158e3615c40565b5b601f19601f8301169050602081019050919050565b6000819050602082019050919050565b600081519050919050565b600081519050919050565b600081519050919050565b6000602082019050919050565b600082825260208201905092915050565b600082825260208201905092915050565b600082825260208201905092915050565b600081905092915050565b600061598082615acd565b915061598b83615acd565b9250827fffffffffffffffffffffffffffffffffffffffffffffffffffffffffffffffff038211156159c0576159bf615be2565b5b828201905092915050565b60006159d682615acd565b91506159e183615acd565b9250817fffffffffffffffffffffffffffffffffffffffffffffffffffffffffffffffff0483118215151615615a1a57615a19615be2565b5b828202905092915050565b6000615a3082615acd565b9150615a3b83615acd565b925082821015615a4e57615a4d615be2565b5b828203905092915050565b6000615a6482615aad565b9050919050565b60008115159050919050565b6000819050919050565b60007fffffffff0000000000000000000000000000000000000000000000000000000082169050919050565b600073ffffffffffffffffffffffffffffffffffffffff82169050919050565b6000819050919050565b6000615ae282615acd565b9050919050565b6000615af482615acd565b9050919050565b82818337600083830152505050565b60005b83811015615b28578082015181840152602081019050615b0d565b83811115615b37576000848401525b50505050565b6000615b4882615acd565b91506000821415615b5c57615b5b615be2565b5b600182039050919050565b60006002820490506001821680615b7f57607f821691505b60208210811415615b9357615b92615c11565b5b50919050565b6000615ba482615acd565b91507fffffffffffffffffffffffffffffffffffffffffffffffffffffffffffffffff821415615bd757615bd6615be2565b5b600182019050919050565b7f4e487b7100000000000000000000000000000000000000000000000000000000600052601160045260246000fd5b7f4e487b7100000000000000000000000000000000000000000000000000000000600052602260045260246000fd5b7f4e487b7100000000000000000000000000000000000000000000000000000000600052604160045260246000fd5b6000601f19601f8301169050919050565b60008160e01c9050919050565b600060443d1015615c9d57615d40565b60046000803e615cae600051615c80565b6308c379a08114615cbf5750615d40565b60405160043d036004823e80513d602482011167ffffffffffffffff82111715615ceb57505050615d40565b808201805167ffffffffffffffff811115615d0a575050505050615d40565b8060208301013d8501811115615d2557505050505050615d40565b615d2e82615c6f565b60208401016040528296505050505050505b90565b615d4c81615a59565b8114615d5757600080fd5b50565b615d6381615a6b565b8114615d6e57600080fd5b50565b615d7a81615a77565b8114615d8557600080fd5b50565b615d9181615a81565b8114615d9c57600080fd5b50565b615da881615acd565b8114615db357600080fd5b5056fea2646970667358221220916c40cbd630db247e430bf76dab1f2214720e749e0e278bf788d62e1955aa3764736f6c63430008000033",
  "linkReferences": {},
  "deployedLinkReferences": {}
}