{
  "_format": "hh-sol-artifact-1",
  "contractName": "CS_Skin",
  "sourceName": "contracts/CS_Skin.sol",
  "abi": [
    {
      "inputs": [
        {
          "internalType": "address",
          "name": "_FAH",
          "type": "address"
        },
        {
          "internalType": "address",
          "name": "_CS_Case",
          "type": "address"
        },
        {
          "internalType": "address",
          "name": "_factory",
          "type": "address"
        },
        {
          "internalType": "address",
          "name": "_router",
          "type": "address"
        }
      ],
      "stateMutability": "nonpayable",
      "type": "constructor"
    },
    {
      "anonymous": false,
      "inputs": [
        {
          "indexed": true,
          "internalType": "address",
          "name": "account",
          "type": "address"
        },
        {
          "indexed": true,
          "internalType": "address",
          "name": "operator",
          "type": "address"
        },
        {
          "indexed": false,
          "internalType": "bool",
          "name": "approved",
          "type": "bool"
        }
      ],
      "name": "ApprovalForAll",
      "type": "event"
    },
    {
      "anonymous": false,
      "inputs": [
        {
          "indexed": false,
          "internalType": "address",
          "name": "account",
          "type": "address"
        }
      ],
      "name": "Paused",
      "type": "event"
    },
    {
      "anonymous": false,
      "inputs": [
        {
          "indexed": true,
          "internalType": "bytes32",
          "name": "role",
          "type": "bytes32"
        },
        {
          "indexed": true,
          "internalType": "bytes32",
          "name": "previousAdminRole",
          "type": "bytes32"
        },
        {
          "indexed": true,
          "internalType": "bytes32",
          "name": "newAdminRole",
          "type": "bytes32"
        }
      ],
      "name": "RoleAdminChanged",
      "type": "event"
    },
    {
      "anonymous": false,
      "inputs": [
        {
          "indexed": true,
          "internalType": "bytes32",
          "name": "role",
          "type": "bytes32"
        },
        {
          "indexed": true,
          "internalType": "address",
          "name": "account",
          "type": "address"
        },
        {
          "indexed": true,
          "internalType": "address",
          "name": "sender",
          "type": "address"
        }
      ],
      "name": "RoleGranted",
      "type": "event"
    },
    {
      "anonymous": false,
      "inputs": [
        {
          "indexed": true,
          "internalType": "bytes32",
          "name": "role",
          "type": "bytes32"
        },
        {
          "indexed": true,
          "internalType": "address",
          "name": "account",
          "type": "address"
        },
        {
          "indexed": true,
          "internalType": "address",
          "name": "sender",
          "type": "address"
        }
      ],
      "name": "RoleRevoked",
      "type": "event"
    },
    {
      "anonymous": false,
      "inputs": [
        {
          "indexed": true,
          "internalType": "address",
          "name": "operator",
          "type": "address"
        },
        {
          "indexed": true,
          "internalType": "address",
          "name": "from",
          "type": "address"
        },
        {
          "indexed": true,
          "internalType": "address",
          "name": "to",
          "type": "address"
        },
        {
          "indexed": false,
          "internalType": "uint256[]",
          "name": "ids",
          "type": "uint256[]"
        },
        {
          "indexed": false,
          "internalType": "uint256[]",
          "name": "values",
          "type": "uint256[]"
        }
      ],
      "name": "TransferBatch",
      "type": "event"
    },
    {
      "anonymous": false,
      "inputs": [
        {
          "indexed": true,
          "internalType": "address",
          "name": "operator",
          "type": "address"
        },
        {
          "indexed": true,
          "internalType": "address",
          "name": "from",
          "type": "address"
        },
        {
          "indexed": true,
          "internalType": "address",
          "name": "to",
          "type": "address"
        },
        {
          "indexed": false,
          "internalType": "uint256",
          "name": "id",
          "type": "uint256"
        },
        {
          "indexed": false,
          "internalType": "uint256",
          "name": "value",
          "type": "uint256"
        }
      ],
      "name": "TransferSingle",
      "type": "event"
    },
    {
      "anonymous": false,
      "inputs": [
        {
          "indexed": false,
          "internalType": "string",
          "name": "value",
          "type": "string"
        },
        {
          "indexed": true,
          "internalType": "uint256",
          "name": "id",
          "type": "uint256"
        }
      ],
      "name": "URI",
      "type": "event"
    },
    {
      "anonymous": false,
      "inputs": [
        {
          "indexed": false,
          "internalType": "address",
          "name": "account",
          "type": "address"
        }
      ],
      "name": "Unpaused",
      "type": "event"
    },
    {
      "inputs": [],
      "name": "DEFAULT_ADMIN_ROLE",
      "outputs": [
        {
          "internalType": "bytes32",
          "name": "",
          "type": "bytes32"
        }
      ],
      "stateMutability": "view",
      "type": "function"
    },
    {
      "inputs": [],
      "name": "LOCAL_MINTER_ROLE",
      "outputs": [
        {
          "internalType": "bytes32",
          "name": "",
          "type": "bytes32"
        }
      ],
      "stateMutability": "view",
      "type": "function"
    },
    {
      "inputs": [],
      "name": "MINTER_ROLE",
      "outputs": [
        {
          "internalType": "bytes32",
          "name": "",
          "type": "bytes32"
        }
      ],
      "stateMutability": "view",
      "type": "function"
    },
    {
      "inputs": [],
      "name": "PAUSER_ROLE",
      "outputs": [
        {
          "internalType": "bytes32",
          "name": "",
          "type": "bytes32"
        }
      ],
      "stateMutability": "view",
      "type": "function"
    },
    {
      "inputs": [
        {
          "internalType": "address",
          "name": "account",
          "type": "address"
        },
        {
          "internalType": "uint256",
          "name": "id",
          "type": "uint256"
        }
      ],
      "name": "balanceOf",
      "outputs": [
        {
          "internalType": "uint256",
          "name": "",
          "type": "uint256"
        }
      ],
      "stateMutability": "view",
      "type": "function"
    },
    {
      "inputs": [
        {
          "internalType": "address[]",
          "name": "accounts",
          "type": "address[]"
        },
        {
          "internalType": "uint256[]",
          "name": "ids",
          "type": "uint256[]"
        }
      ],
      "name": "balanceOfBatch",
      "outputs": [
        {
          "internalType": "uint256[]",
          "name": "",
          "type": "uint256[]"
        }
      ],
      "stateMutability": "view",
      "type": "function"
    },
    {
      "inputs": [
        {
          "internalType": "address",
          "name": "account",
          "type": "address"
        },
        {
          "internalType": "uint256",
          "name": "id",
          "type": "uint256"
        },
        {
          "internalType": "uint256",
          "name": "value",
          "type": "uint256"
        }
      ],
      "name": "burn",
      "outputs": [],
      "stateMutability": "nonpayable",
      "type": "function"
    },
    {
      "inputs": [
        {
          "internalType": "address",
          "name": "account",
          "type": "address"
        },
        {
          "internalType": "uint256[]",
          "name": "ids",
          "type": "uint256[]"
        },
        {
          "internalType": "uint256[]",
          "name": "values",
          "type": "uint256[]"
        }
      ],
      "name": "burnBatch",
      "outputs": [],
      "stateMutability": "nonpayable",
      "type": "function"
    },
    {
      "inputs": [
        {
          "internalType": "string",
          "name": "_id",
          "type": "string"
        }
      ],
      "name": "getAddress",
      "outputs": [
        {
          "internalType": "address",
          "name": "",
          "type": "address"
        }
      ],
      "stateMutability": "view",
      "type": "function"
    },
    {
      "inputs": [
        {
          "internalType": "bytes32",
          "name": "role",
          "type": "bytes32"
        }
      ],
      "name": "getRoleAdmin",
      "outputs": [
        {
          "internalType": "bytes32",
          "name": "",
          "type": "bytes32"
        }
      ],
      "stateMutability": "view",
      "type": "function"
    },
    {
      "inputs": [
        {
          "internalType": "bytes32",
          "name": "role",
          "type": "bytes32"
        },
        {
          "internalType": "uint256",
          "name": "index",
          "type": "uint256"
        }
      ],
      "name": "getRoleMember",
      "outputs": [
        {
          "internalType": "address",
          "name": "",
          "type": "address"
        }
      ],
      "stateMutability": "view",
      "type": "function"
    },
    {
      "inputs": [
        {
          "internalType": "bytes32",
          "name": "role",
          "type": "bytes32"
        }
      ],
      "name": "getRoleMemberCount",
      "outputs": [
        {
          "internalType": "uint256",
          "name": "",
          "type": "uint256"
        }
      ],
      "stateMutability": "view",
      "type": "function"
    },
    {
      "inputs": [
        {
          "internalType": "string",
          "name": "_id",
          "type": "string"
        }
      ],
      "name": "getScore",
      "outputs": [
        {
          "internalType": "uint256",
          "name": "",
          "type": "uint256"
        }
      ],
      "stateMutability": "view",
      "type": "function"
    },
    {
      "inputs": [
        {
          "internalType": "uint256",
          "name": "_id",
          "type": "uint256"
        }
      ],
      "name": "getSkinAvailability",
      "outputs": [
        {
          "internalType": "uint256",
          "name": "",
          "type": "uint256"
        }
      ],
      "stateMutability": "view",
      "type": "function"
    },
    {
      "inputs": [
        {
          "internalType": "bytes32",
          "name": "role",
          "type": "bytes32"
        },
        {
          "internalType": "address",
          "name": "account",
          "type": "address"
        }
      ],
      "name": "grantRole",
      "outputs": [],
      "stateMutability": "nonpayable",
      "type": "function"
    },
    {
      "inputs": [
        {
          "internalType": "bytes32",
          "name": "role",
          "type": "bytes32"
        },
        {
          "internalType": "address",
          "name": "account",
          "type": "address"
        }
      ],
      "name": "hasRole",
      "outputs": [
        {
          "internalType": "bool",
          "name": "",
          "type": "bool"
        }
      ],
      "stateMutability": "view",
      "type": "function"
    },
    {
      "inputs": [
        {
          "internalType": "address",
          "name": "account",
          "type": "address"
        },
        {
          "internalType": "address",
          "name": "operator",
          "type": "address"
        }
      ],
      "name": "isApprovedForAll",
      "outputs": [
        {
          "internalType": "bool",
          "name": "",
          "type": "bool"
        }
      ],
      "stateMutability": "view",
      "type": "function"
    },
    {
      "inputs": [
        {
          "internalType": "address",
          "name": "to",
          "type": "address"
        },
        {
          "internalType": "uint256",
          "name": "id",
          "type": "uint256"
        },
        {
          "internalType": "uint256",
          "name": "amount",
          "type": "uint256"
        },
        {
          "internalType": "bytes",
          "name": "data",
          "type": "bytes"
        }
      ],
      "name": "mint",
      "outputs": [],
      "stateMutability": "nonpayable",
      "type": "function"
    },
    {
      "inputs": [
        {
          "internalType": "address",
          "name": "to",
          "type": "address"
        },
        {
          "internalType": "uint256[]",
          "name": "ids",
          "type": "uint256[]"
        },
        {
          "internalType": "uint256[]",
          "name": "amounts",
          "type": "uint256[]"
        },
        {
          "internalType": "bytes",
          "name": "data",
          "type": "bytes"
        }
      ],
      "name": "mintBatch",
      "outputs": [],
      "stateMutability": "nonpayable",
      "type": "function"
    },
    {
      "inputs": [
        {
          "internalType": "uint256",
          "name": "_amount",
          "type": "uint256"
        },
        {
          "internalType": "uint256",
          "name": "_deadline",
          "type": "uint256"
        }
      ],
      "name": "newSkin",
      "outputs": [],
      "stateMutability": "nonpayable",
      "type": "function"
    },
    {
      "inputs": [
        {
          "internalType": "address",
          "name": "",
          "type": "address"
        },
        {
          "internalType": "address",
          "name": "",
          "type": "address"
        },
        {
          "internalType": "uint256[]",
          "name": "",
          "type": "uint256[]"
        },
        {
          "internalType": "uint256[]",
          "name": "",
          "type": "uint256[]"
        },
        {
          "internalType": "bytes",
          "name": "",
          "type": "bytes"
        }
      ],
      "name": "onERC1155BatchReceived",
      "outputs": [
        {
          "internalType": "bytes4",
          "name": "",
          "type": "bytes4"
        }
      ],
      "stateMutability": "nonpayable",
      "type": "function"
    },
    {
      "inputs": [
        {
          "internalType": "address",
          "name": "",
          "type": "address"
        },
        {
          "internalType": "address",
          "name": "",
          "type": "address"
        },
        {
          "internalType": "uint256",
          "name": "",
          "type": "uint256"
        },
        {
          "internalType": "uint256",
          "name": "",
          "type": "uint256"
        },
        {
          "internalType": "bytes",
          "name": "",
          "type": "bytes"
        }
      ],
      "name": "onERC1155Received",
      "outputs": [
        {
          "internalType": "bytes4",
          "name": "",
          "type": "bytes4"
        }
      ],
      "stateMutability": "nonpayable",
      "type": "function"
    },
    {
      "inputs": [],
      "name": "pause",
      "outputs": [],
      "stateMutability": "nonpayable",
      "type": "function"
    },
    {
      "inputs": [],
      "name": "paused",
      "outputs": [
        {
          "internalType": "bool",
          "name": "",
          "type": "bool"
        }
      ],
      "stateMutability": "view",
      "type": "function"
    },
    {
      "inputs": [
        {
          "internalType": "uint256",
          "name": "_amount",
          "type": "uint256"
        }
      ],
      "name": "poolSetup",
      "outputs": [],
      "stateMutability": "nonpayable",
      "type": "function"
    },
    {
      "inputs": [
        {
          "internalType": "bytes32",
          "name": "role",
          "type": "bytes32"
        },
        {
          "internalType": "address",
          "name": "account",
          "type": "address"
        }
      ],
      "name": "renounceRole",
      "outputs": [],
      "stateMutability": "nonpayable",
      "type": "function"
    },
    {
      "inputs": [
        {
          "internalType": "bytes32",
          "name": "role",
          "type": "bytes32"
        },
        {
          "internalType": "address",
          "name": "account",
          "type": "address"
        }
      ],
      "name": "revokeRole",
      "outputs": [],
      "stateMutability": "nonpayable",
      "type": "function"
    },
    {
      "inputs": [
        {
          "internalType": "address",
          "name": "from",
          "type": "address"
        },
        {
          "internalType": "address",
          "name": "to",
          "type": "address"
        },
        {
          "internalType": "uint256[]",
          "name": "ids",
          "type": "uint256[]"
        },
        {
          "internalType": "uint256[]",
          "name": "amounts",
          "type": "uint256[]"
        },
        {
          "internalType": "bytes",
          "name": "data",
          "type": "bytes"
        }
      ],
      "name": "safeBatchTransferFrom",
      "outputs": [],
      "stateMutability": "nonpayable",
      "type": "function"
    },
    {
      "inputs": [
        {
          "internalType": "address",
          "name": "from",
          "type": "address"
        },
        {
          "internalType": "address",
          "name": "to",
          "type": "address"
        },
        {
          "internalType": "uint256",
          "name": "id",
          "type": "uint256"
        },
        {
          "internalType": "uint256",
          "name": "amount",
          "type": "uint256"
        },
        {
          "internalType": "bytes",
          "name": "data",
          "type": "bytes"
        }
      ],
      "name": "safeTransferFrom",
      "outputs": [],
      "stateMutability": "nonpayable",
      "type": "function"
    },
    {
      "inputs": [
        {
          "internalType": "address",
          "name": "operator",
          "type": "address"
        },
        {
          "internalType": "bool",
          "name": "approved",
          "type": "bool"
        }
      ],
      "name": "setApprovalForAll",
      "outputs": [],
      "stateMutability": "nonpayable",
      "type": "function"
    },
    {
      "inputs": [
        {
          "internalType": "uint256",
          "name": "_score",
          "type": "uint256"
        },
        {
          "internalType": "string",
          "name": "_id",
          "type": "string"
        }
      ],
      "name": "signUp",
      "outputs": [],
      "stateMutability": "nonpayable",
      "type": "function"
    },
    {
      "inputs": [],
      "name": "skinCount",
      "outputs": [
        {
          "internalType": "uint256",
          "name": "",
          "type": "uint256"
        }
      ],
      "stateMutability": "view",
      "type": "function"
    },
    {
      "inputs": [
        {
          "internalType": "uint256",
          "name": "",
          "type": "uint256"
        }
      ],
      "name": "skinQuantities",
      "outputs": [
        {
          "internalType": "uint256",
          "name": "",
          "type": "uint256"
        }
      ],
      "stateMutability": "view",
      "type": "function"
    },
    {
      "inputs": [
        {
          "internalType": "bytes4",
          "name": "interfaceId",
          "type": "bytes4"
        }
      ],
      "name": "supportsInterface",
      "outputs": [
        {
          "internalType": "bool",
          "name": "",
          "type": "bool"
        }
      ],
      "stateMutability": "view",
      "type": "function"
    },
    {
      "inputs": [],
      "name": "uniqueSkinCount",
      "outputs": [
        {
          "internalType": "uint256",
          "name": "",
          "type": "uint256"
        }
      ],
      "stateMutability": "view",
      "type": "function"
    },
    {
      "inputs": [],
      "name": "unpause",
      "outputs": [],
      "stateMutability": "nonpayable",
      "type": "function"
    },
    {
      "inputs": [
        {
          "internalType": "uint256",
          "name": "_score",
          "type": "uint256"
        },
        {
          "internalType": "string",
          "name": "_id",
          "type": "string"
        }
      ],
      "name": "updateScore",
      "outputs": [],
      "stateMutability": "nonpayable",
      "type": "function"
    },
    {
      "inputs": [
        {
          "internalType": "uint256",
          "name": "",
          "type": "uint256"
        }
      ],
      "name": "uri",
      "outputs": [
        {
          "internalType": "string",
          "name": "",
          "type": "string"
        }
      ],
      "stateMutability": "view",
      "type": "function"
    },
    {
      "inputs": [
        {
          "internalType": "string",
          "name": "_id",
          "type": "string"
        }
      ],
      "name": "userExists",
      "outputs": [
        {
          "internalType": "bool",
          "name": "",
          "type": "bool"
        }
      ],
      "stateMutability": "view",
      "type": "function"
    }
  ],
  "bytecode": "0x60806040526000600e556000600f553480156200001b57600080fd5b5060405162007d4838038062007d48833981810160405281019062000041919062000ca6565b604051806020016040528060008152508085858585620000977f9f2df0fed2c77648de5860a4cc508cd0818c85b8b8a1ab4ceeef8d981c8956a66200008b6200047c60201b60201c565b6200048460201b60201c565b620000d87f9f2df0fed2c77648de5860a4cc508cd0818c85b8b8a1ab4ceeef8d981c8956a6620000cc6200047c60201b60201c565b620004cc60201b60201c565b6200011a576040517f08c379a0000000000000000000000000000000000000000000000000000000008152600401620001119062000f58565b60405180910390fd5b83600360006101000a81548173ffffffffffffffffffffffffffffffffffffffff021916908373ffffffffffffffffffffffffffffffffffffffff16021790555082600460006101000a81548173ffffffffffffffffffffffffffffffffffffffff021916908373ffffffffffffffffffffffffffffffffffffffff16021790555081600560006101000a81548173ffffffffffffffffffffffffffffffffffffffff021916908373ffffffffffffffffffffffffffffffffffffffff16021790555080600660006101000a81548173ffffffffffffffffffffffffffffffffffffffff021916908373ffffffffffffffffffffffffffffffffffffffff160217905550600560009054906101000a900473ffffffffffffffffffffffffffffffffffffffff1673ffffffffffffffffffffffffffffffffffffffff1663c9c6539685856040518363ffffffff1660e01b81526004016200027d92919062000ee5565b602060405180830381600087803b1580156200029857600080fd5b505af1158015620002ad573d6000803e3d6000fd5b505050506040513d601f19601f82011682018060405250810190620002d3919062000c7a565b600860006101000a81548173ffffffffffffffffffffffffffffffffffffffff021916908373ffffffffffffffffffffffffffffffffffffffff160217905550600860009054906101000a900473ffffffffffffffffffffffffffffffffffffffff16600760006101000a81548173ffffffffffffffffffffffffffffffffffffffff021916908373ffffffffffffffffffffffffffffffffffffffff160217905550505050506200038b816200053760201b60201c565b506000600c60006101000a81548160ff021916908315150217905550620003cb6000801b620003bf6200047c60201b60201c565b6200048460201b60201c565b6200040c7f9f2df0fed2c77648de5860a4cc508cd0818c85b8b8a1ab4ceeef8d981c8956a6620004006200047c60201b60201c565b6200048460201b60201c565b6200044d7f65d7a28e3265b37a6474929f336521b332c1681b933f6cb9f3376673440d862a620004416200047c60201b60201c565b6200048460201b60201c565b50620004726000801b620004666200047c60201b60201c565b6200055360201b60201c565b50505050620011c1565b600033905090565b6200049b82826200059b60201b62001eae1760201c565b620004c78160026000858152602001908152602001600020620005b160201b62001ebc1790919060201c565b505050565b60006001600084815260200190815260200160002060000160008373ffffffffffffffffffffffffffffffffffffffff1673ffffffffffffffffffffffffffffffffffffffff16815260200190815260200160002060009054906101000a900460ff16905092915050565b80600b90805190602001906200054f92919062000bb3565b5050565b6200056a8282620005e960201b62001eec1760201c565b620005968160026000858152602001908152602001600020620005b160201b62001ebc1790919060201c565b505050565b620005ad82826200063260201b60201c565b5050565b6000620005e1836000018373ffffffffffffffffffffffffffffffffffffffff1660001b6200072360201b60201c565b905092915050565b620005fa826200079d60201b60201c565b6200061b816200060f6200047c60201b60201c565b620007bd60201b60201c565b6200062d83836200063260201b60201c565b505050565b620006448282620004cc60201b60201c565b6200071f57600180600084815260200190815260200160002060000160008373ffffffffffffffffffffffffffffffffffffffff1673ffffffffffffffffffffffffffffffffffffffff16815260200190815260200160002060006101000a81548160ff021916908315150217905550620006c46200047c60201b60201c565b73ffffffffffffffffffffffffffffffffffffffff168173ffffffffffffffffffffffffffffffffffffffff16837f2f8788117e7eff1d82e926ec794901d17c78024a50270940304540a733656f0d60405160405180910390a45b5050565b60006200073783836200088160201b60201c565b6200079257826000018290806001815401808255809150506001900390600052602060002001600090919091909150558260000180549050836001016000848152602001908152602001600020819055506001905062000797565b600090505b92915050565b600060016000838152602001908152602001600020600101549050919050565b620007cf8282620004cc60201b60201c565b6200087d57620008028173ffffffffffffffffffffffffffffffffffffffff166014620008a460201b62001f151760201c565b6200081d8360001c6020620008a460201b62001f151760201c565b6040516020016200083092919062000ea3565b6040516020818303038152906040526040517f08c379a000000000000000000000000000000000000000000000000000000000815260040162000874919062000f12565b60405180910390fd5b5050565b600080836001016000848152602001908152602001600020541415905092915050565b606060006002836002620008b9919062000ffe565b620008c5919062000fa1565b67ffffffffffffffff81111562000905577f4e487b7100000000000000000000000000000000000000000000000000000000600052604160045260246000fd5b6040519080825280601f01601f191660200182016040528015620009385781602001600182028036833780820191505090505b5090507f30000000000000000000000000000000000000000000000000000000000000008160008151811062000997577f4e487b7100000000000000000000000000000000000000000000000000000000600052603260045260246000fd5b60200101907effffffffffffffffffffffffffffffffffffffffffffffffffffffffffffff1916908160001a9053507f78000000000000000000000000000000000000000000000000000000000000008160018151811062000a22577f4e487b7100000000000000000000000000000000000000000000000000000000600052603260045260246000fd5b60200101907effffffffffffffffffffffffffffffffffffffffffffffffffffffffffffff1916908160001a9053506000600184600262000a64919062000ffe565b62000a70919062000fa1565b90505b600181111562000b62577f3031323334353637383961626364656600000000000000000000000000000000600f86166010811062000ada577f4e487b7100000000000000000000000000000000000000000000000000000000600052603260045260246000fd5b1a60f81b82828151811062000b18577f4e487b7100000000000000000000000000000000000000000000000000000000600052603260045260246000fd5b60200101907effffffffffffffffffffffffffffffffffffffffffffffffffffffffffffff1916908160001a905350600485901c94508062000b5a90620010d3565b905062000a73565b506000841462000ba9576040517f08c379a000000000000000000000000000000000000000000000000000000000815260040162000ba09062000f36565b60405180910390fd5b8091505092915050565b82805462000bc19062001102565b90600052602060002090601f01602090048101928262000be5576000855562000c31565b82601f1062000c0057805160ff191683800117855562000c31565b8280016001018555821562000c31579182015b8281111562000c3057825182559160200191906001019062000c13565b5b50905062000c40919062000c44565b5090565b5b8082111562000c5f57600081600090555060010162000c45565b5090565b60008151905062000c7481620011a7565b92915050565b60006020828403121562000c8d57600080fd5b600062000c9d8482850162000c63565b91505092915050565b6000806000806080858703121562000cbd57600080fd5b600062000ccd8782880162000c63565b945050602062000ce08782880162000c63565b935050604062000cf38782880162000c63565b925050606062000d068782880162000c63565b91505092959194509250565b62000d1d816200105f565b82525050565b600062000d308262000f7a565b62000d3c818562000f85565b935062000d4e8185602086016200109d565b62000d598162001196565b840191505092915050565b600062000d718262000f7a565b62000d7d818562000f96565b935062000d8f8185602086016200109d565b80840191505092915050565b600062000daa60208362000f85565b91507f537472696e67733a20686578206c656e67746820696e73756666696369656e746000830152602082019050919050565b600062000dec60178362000f96565b91507f416363657373436f6e74726f6c3a206163636f756e74200000000000000000006000830152601782019050919050565b600062000e2e60128362000f85565b91507f446f6573206e6f74206861766520726f6c6500000000000000000000000000006000830152602082019050919050565b600062000e7060118362000f96565b91507f206973206d697373696e6720726f6c65200000000000000000000000000000006000830152601182019050919050565b600062000eb08262000ddd565b915062000ebe828562000d64565b915062000ecb8262000e61565b915062000ed9828462000d64565b91508190509392505050565b600060408201905062000efc600083018562000d12565b62000f0b602083018462000d12565b9392505050565b6000602082019050818103600083015262000f2e818462000d23565b905092915050565b6000602082019050818103600083015262000f518162000d9b565b9050919050565b6000602082019050818103600083015262000f738162000e1f565b9050919050565b600081519050919050565b600082825260208201905092915050565b600081905092915050565b600062000fae8262001093565b915062000fbb8362001093565b9250827fffffffffffffffffffffffffffffffffffffffffffffffffffffffffffffffff0382111562000ff35762000ff262001138565b5b828201905092915050565b60006200100b8262001093565b9150620010188362001093565b9250817fffffffffffffffffffffffffffffffffffffffffffffffffffffffffffffffff048311821515161562001054576200105362001138565b5b828202905092915050565b60006200106c8262001073565b9050919050565b600073ffffffffffffffffffffffffffffffffffffffff82169050919050565b6000819050919050565b60005b83811015620010bd578082015181840152602081019050620010a0565b83811115620010cd576000848401525b50505050565b6000620010e08262001093565b91506000821415620010f757620010f662001138565b5b600182039050919050565b600060028204905060018216806200111b57607f821691505b6020821081141562001132576200113162001167565b5b50919050565b7f4e487b7100000000000000000000000000000000000000000000000000000000600052601160045260246000fd5b7f4e487b7100000000000000000000000000000000000000000000000000000000600052602260045260246000fd5b6000601f19601f8301169050919050565b620011b2816200105f565b8114620011be57600080fd5b50565b616b7780620011d16000396000f3fe608060405234801561001057600080fd5b506004361061023c5760003560e01c80638456cb591161013b578063d179277d116100b8578063f23a6e611161007c578063f23a6e61146106fb578063f242432a1461072b578063f5298aca14610747578063fddc968e14610763578063feee2465146107935761023c565b8063d179277d14610657578063d539139314610673578063d547741f14610691578063e63ab1e9146106ad578063e985e9c5146106cb5761023c565b8063a22cb465116100ff578063a22cb4651461057b578063bc197c8114610597578063bf40fac1146105c7578063ca15c873146105f7578063cebe801f146106275761023c565b80638456cb59146104d75780639010d07c146104e157806391d14854146105115780639d4ea09514610541578063a217fddf1461055d5761023c565b80632f2ff15d116101c95780636b20c4541161018d5780636b20c45414610445578063731133e91461046157806373e3bfbd1461047d578063780410431461049b5780637abf0125146104b95761023c565b80632f2ff15d146103b557806336568abe146103d15780633f4ba83a146103ed5780634e1273f4146103f75780635c975abb146104275761023c565b8063160202731161021057806316020273146103015780631f7fdffa14610331578063248a9ca31461034d5780632bf4ec851461037d5780632eb2c2d6146103995761023c565b8062fdd58e1461024157806301ffc9a714610271578063077b0e4d146102a15780630e89341c146102d1575b600080fd5b61025b60048036038101906102569190614c12565b6107af565b60405161026891906163fa565b60405180910390f35b61028b60048036038101906102869190614e8f565b610879565b6040516102989190615fc7565b60405180910390f35b6102bb60048036038101906102b69190614f71565b61088b565b6040516102c891906163fa565b60405180910390f35b6102eb60048036038101906102e69190614f71565b610920565b6040516102f89190616018565b60405180910390f35b61031b60048036038101906103169190614ee1565b6109b4565b60405161032891906163fa565b60405180910390f35b61034b60048036038101906103469190614b2b565b610a27565b005b61036760048036038101906103629190614dee565b610aa9565b6040516103749190615fe2565b60405180910390f35b61039760048036038101906103929190614fc3565b610ac9565b005b6103b360048036038101906103ae919061495e565b610c25565b005b6103cf60048036038101906103ca9190614e17565b61101e565b005b6103eb60048036038101906103e69190614e17565b611052565b005b6103f5611086565b005b610411600480360381019061040c9190614d18565b611100565b60405161041e9190615f6e565b60405180910390f35b61042f6112b1565b60405161043c9190615fc7565b60405180910390f35b61045f600480360381019061045a9190614aac565b6112c8565b005b61047b60048036038101906104769190614c9d565b611365565b005b6104856113e7565b6040516104929190615fe2565b60405180910390f35b6104a361140b565b6040516104b091906163fa565b60405180910390f35b6104c1611411565b6040516104ce91906163fa565b60405180910390f35b6104df611417565b005b6104fb60048036038101906104f69190614e53565b611491565b6040516105089190615dea565b60405180910390f35b61052b60048036038101906105269190614e17565b6114c0565b6040516105389190615fc7565b60405180910390f35b61055b60048036038101906105569190615017565b61152b565b005b6105656115d4565b6040516105729190615fe2565b60405180910390f35b61059560048036038101906105909190614bd6565b6115db565b005b6105b160048036038101906105ac919061495e565b61175c565b6040516105be9190615ffd565b60405180910390f35b6105e160048036038101906105dc9190614ee1565b611771565b6040516105ee9190615dea565b60405180910390f35b610611600480360381019061060c9190614dee565b611804565b60405161061e91906163fa565b60405180910390f35b610641600480360381019061063c9190614f71565b611828565b60405161064e91906163fa565b60405180910390f35b610671600480360381019061066c9190614fc3565b61184c565b005b61067b6118f6565b6040516106889190615fe2565b60405180910390f35b6106ab60048036038101906106a69190614e17565b61191a565b005b6106b561194e565b6040516106c29190615fe2565b60405180910390f35b6106e560048036038101906106e09190614922565b611972565b6040516106f29190615fc7565b60405180910390f35b61071560048036038101906107109190614a1d565b611a06565b6040516107229190615ffd565b60405180910390f35b61074560048036038101906107409190614a1d565b611a1b565b005b610761600480360381019061075c9190614c4e565b611d36565b005b61077d60048036038101906107789190614ee1565b611dd3565b60405161078a9190615fc7565b60405180910390f35b6107ad60048036038101906107a89190614f71565b611e0a565b005b60008073ffffffffffffffffffffffffffffffffffffffff168373ffffffffffffffffffffffffffffffffffffffff161415610820576040517f08c379a00000000000000000000000000000000000000000000000000000000081526004016108179061611a565b60405180910390fd5b6009600083815260200190815260200160002060008473ffffffffffffffffffffffffffffffffffffffff1673ffffffffffffffffffffffffffffffffffffffff16815260200190815260200160002054905092915050565b60006108848261220f565b9050919050565b6000600d8054905082106108d4576040517f08c379a00000000000000000000000000000000000000000000000000000000081526004016108cb906160da565b60405180910390fd5b600d828154811061090e577f4e487b7100000000000000000000000000000000000000000000000000000000600052603260045260246000fd5b90600052602060002001549050919050565b6060600b805461092f906168c4565b80601f016020809104026020016040519081016040528092919081815260200182805461095b906168c4565b80156109a85780601f1061097d576101008083540402835291602001916109a8565b820191906000526020600020905b81548152906001019060200180831161098b57829003601f168201915b50505050509050919050565b60006109bf82611dd3565b6109fe576040517f08c379a00000000000000000000000000000000000000000000000000000000081526004016109f5906162fa565b60405180910390fd5b600082604051610a0e9190615d99565b9081526020016040518091039020600101549050919050565b610a587f9f2df0fed2c77648de5860a4cc508cd0818c85b8b8a1ab4ceeef8d981c8956a6610a53612289565b6114c0565b610a97576040517f08c379a0000000000000000000000000000000000000000000000000000000008152600401610a8e9061629a565b60405180910390fd5b610aa384848484612291565b50505050565b600060016000838152602001908152602001600020600101549050919050565b610ad281611dd3565b15610b12576040517f08c379a0000000000000000000000000000000000000000000000000000000008152600401610b09906161da565b60405180910390fd5b81600082604051610b239190615d99565b9081526020016040518091039020600101819055506001600082604051610b4a9190615d99565b908152602001604051809103902060000160006101000a81548160ff021916908315150217905550610b7a612289565b600082604051610b8a9190615d99565b908152602001604051809103902060020160006101000a81548173ffffffffffffffffffffffffffffffffffffffff021916908373ffffffffffffffffffffffffffffffffffffffff160217905550610be281611dd3565b610c21576040517f08c379a0000000000000000000000000000000000000000000000000000000008152600401610c18906162fa565b60405180910390fd5b5050565b8151835114610c69576040517f08c379a0000000000000000000000000000000000000000000000000000000008152600401610c609061637a565b60405180910390fd5b600073ffffffffffffffffffffffffffffffffffffffff168473ffffffffffffffffffffffffffffffffffffffff161415610cd9576040517f08c379a0000000000000000000000000000000000000000000000000000000008152600401610cd09061623a565b60405180910390fd5b610ce1612289565b73ffffffffffffffffffffffffffffffffffffffff168573ffffffffffffffffffffffffffffffffffffffff161480610d275750610d2685610d21612289565b611972565b5b610d66576040517f08c379a0000000000000000000000000000000000000000000000000000000008152600401610d5d9061625a565b60405180910390fd5b6000610d70612289565b9050610d808187878787876124fc565b60005b8451811015610f89576000858281518110610dc7577f4e487b7100000000000000000000000000000000000000000000000000000000600052603260045260246000fd5b602002602001015190506000858381518110610e0c577f4e487b7100000000000000000000000000000000000000000000000000000000600052603260045260246000fd5b6020026020010151905060006009600084815260200190815260200160002060008b73ffffffffffffffffffffffffffffffffffffffff1673ffffffffffffffffffffffffffffffffffffffff16815260200190815260200160002054905081811015610eae576040517f08c379a0000000000000000000000000000000000000000000000000000000008152600401610ea5906162ba565b60405180910390fd5b8181610eba9190616746565b6009600085815260200190815260200160002060008c73ffffffffffffffffffffffffffffffffffffffff1673ffffffffffffffffffffffffffffffffffffffff16815260200190815260200160002081905550816009600085815260200190815260200160002060008b73ffffffffffffffffffffffffffffffffffffffff1673ffffffffffffffffffffffffffffffffffffffff1681526020019081526020016000206000828254610f6e9190616696565b9250508190555050505080610f82906168f6565b9050610d83565b508473ffffffffffffffffffffffffffffffffffffffff168673ffffffffffffffffffffffffffffffffffffffff168273ffffffffffffffffffffffffffffffffffffffff167f4a39dc06d4c0dbc64b70af90fd698a233a518aa5d07e595d983b8c0526c8f7fb8787604051611000929190615f90565b60405180910390a4611016818787878787612512565b505050505050565b6110288282611eec565b61104d8160026000858152602001908152602001600020611ebc90919063ffffffff16565b505050565b61105c82826126e2565b611081816002600085815260200190815260200160002061276590919063ffffffff16565b505050565b6110b77f65d7a28e3265b37a6474929f336521b332c1681b933f6cb9f3376673440d862a6110b2612289565b6114c0565b6110f6576040517f08c379a00000000000000000000000000000000000000000000000000000000081526004016110ed906162da565b60405180910390fd5b6110fe612795565b565b60608151835114611146576040517f08c379a000000000000000000000000000000000000000000000000000000000815260040161113d9061635a565b60405180910390fd5b6000835167ffffffffffffffff811115611189577f4e487b7100000000000000000000000000000000000000000000000000000000600052604160045260246000fd5b6040519080825280602002602001820160405280156111b75781602001602082028036833780820191505090505b50905060005b84518110156112a657611250858281518110611202577f4e487b7100000000000000000000000000000000000000000000000000000000600052603260045260246000fd5b6020026020010151858381518110611243577f4e487b7100000000000000000000000000000000000000000000000000000000600052603260045260246000fd5b60200260200101516107af565b828281518110611289577f4e487b7100000000000000000000000000000000000000000000000000000000600052603260045260246000fd5b6020026020010181815250508061129f906168f6565b90506111bd565b508091505092915050565b6000600c60009054906101000a900460ff16905090565b6112d0612289565b73ffffffffffffffffffffffffffffffffffffffff168373ffffffffffffffffffffffffffffffffffffffff161480611316575061131583611310612289565b611972565b5b611355576040517f08c379a000000000000000000000000000000000000000000000000000000000815260040161134c9061617a565b60405180910390fd5b611360838383612837565b505050565b6113967f9f2df0fed2c77648de5860a4cc508cd0818c85b8b8a1ab4ceeef8d981c8956a6611391612289565b6114c0565b6113d5576040517f08c379a00000000000000000000000000000000000000000000000000000000081526004016113cc9061629a565b60405180910390fd5b6113e184848484612b3f565b50505050565b7f9f2df0fed2c77648de5860a4cc508cd0818c85b8b8a1ab4ceeef8d981c8956a681565b600e5481565b600f5481565b6114487f65d7a28e3265b37a6474929f336521b332c1681b933f6cb9f3376673440d862a611443612289565b6114c0565b611487576040517f08c379a000000000000000000000000000000000000000000000000000000000815260040161147e9061631a565b60405180910390fd5b61148f612cd6565b565b60006114b88260026000868152602001908152602001600020612d7990919063ffffffff16565b905092915050565b60006001600084815260200190815260200160002060000160008373ffffffffffffffffffffffffffffffffffffffff1673ffffffffffffffffffffffffffffffffffffffff16815260200190815260200160002060009054906101000a900460ff16905092915050565b61153482612d93565b600460009054906101000a900473ffffffffffffffffffffffffffffffffffffffff1673ffffffffffffffffffffffffffffffffffffffff166339a8c66183306040518363ffffffff1660e01b8152600401611591929190616415565b600060405180830381600087803b1580156115ab57600080fd5b505af11580156115bf573d6000803e3d6000fd5b505050506115d0826103ca83612e60565b5050565b6000801b81565b8173ffffffffffffffffffffffffffffffffffffffff166115fa612289565b73ffffffffffffffffffffffffffffffffffffffff161415611651576040517f08c379a00000000000000000000000000000000000000000000000000000000081526004016116489061633a565b60405180910390fd5b80600a600061165e612289565b73ffffffffffffffffffffffffffffffffffffffff1673ffffffffffffffffffffffffffffffffffffffff16815260200190815260200160002060008473ffffffffffffffffffffffffffffffffffffffff1673ffffffffffffffffffffffffffffffffffffffff16815260200190815260200160002060006101000a81548160ff0219169083151502179055508173ffffffffffffffffffffffffffffffffffffffff1661170b612289565b73ffffffffffffffffffffffffffffffffffffffff167f17307eab39ab6107e8899845ad3d59bd9653f200f220920489ca2b5937696c31836040516117509190615fc7565b60405180910390a35050565b600063bc197c8160e01b905095945050505050565b600061177c82611dd3565b6117bb576040517f08c379a00000000000000000000000000000000000000000000000000000000081526004016117b2906162fa565b60405180910390fd5b6000826040516117cb9190615d99565b908152602001604051809103902060020160009054906101000a900473ffffffffffffffffffffffffffffffffffffffff169050919050565b600061182160026000848152602001908152602001600020613341565b9050919050565b600d818154811061183857600080fd5b906000526020600020016000915090505481565b60006118588383613356565b9050600360009054906101000a900473ffffffffffffffffffffffffffffffffffffffff1673ffffffffffffffffffffffffffffffffffffffff166339a8c661826118a285611771565b6040518363ffffffff1660e01b81526004016118bf929190616415565b600060405180830381600087803b1580156118d957600080fd5b505af11580156118ed573d6000803e3d6000fd5b50505050505050565b7f9f2df0fed2c77648de5860a4cc508cd0818c85b8b8a1ab4ceeef8d981c8956a681565b611924828261344a565b611949816002600085815260200190815260200160002061276590919063ffffffff16565b505050565b7f65d7a28e3265b37a6474929f336521b332c1681b933f6cb9f3376673440d862a81565b6000600a60008473ffffffffffffffffffffffffffffffffffffffff1673ffffffffffffffffffffffffffffffffffffffff16815260200190815260200160002060008373ffffffffffffffffffffffffffffffffffffffff1673ffffffffffffffffffffffffffffffffffffffff16815260200190815260200160002060009054906101000a900460ff16905092915050565b600063f23a6e6160e01b905095945050505050565b600073ffffffffffffffffffffffffffffffffffffffff168473ffffffffffffffffffffffffffffffffffffffff161415611a8b576040517f08c379a0000000000000000000000000000000000000000000000000000000008152600401611a829061623a565b60405180910390fd5b611a93612289565b73ffffffffffffffffffffffffffffffffffffffff168573ffffffffffffffffffffffffffffffffffffffff161480611ad95750611ad885611ad3612289565b611972565b5b611b18576040517f08c379a0000000000000000000000000000000000000000000000000000000008152600401611b0f9061617a565b60405180910390fd5b6000611b22612289565b9050611b42818787611b3388613473565b611b3c88613473565b876124fc565b60006009600086815260200190815260200160002060008873ffffffffffffffffffffffffffffffffffffffff1673ffffffffffffffffffffffffffffffffffffffff16815260200190815260200160002054905083811015611bda576040517f08c379a0000000000000000000000000000000000000000000000000000000008152600401611bd1906162ba565b60405180910390fd5b8381611be69190616746565b6009600087815260200190815260200160002060008973ffffffffffffffffffffffffffffffffffffffff1673ffffffffffffffffffffffffffffffffffffffff16815260200190815260200160002081905550836009600087815260200190815260200160002060008873ffffffffffffffffffffffffffffffffffffffff1673ffffffffffffffffffffffffffffffffffffffff1681526020019081526020016000206000828254611c9a9190616696565b925050819055508573ffffffffffffffffffffffffffffffffffffffff168773ffffffffffffffffffffffffffffffffffffffff168373ffffffffffffffffffffffffffffffffffffffff167fc3d58168c5ae7397731d063d5bbf3d657854427343f4c083240f7aacaa2d0f628888604051611d179291906164cf565b60405180910390a4611d2d828888888888613539565b50505050505050565b611d3e612289565b73ffffffffffffffffffffffffffffffffffffffff168373ffffffffffffffffffffffffffffffffffffffff161480611d845750611d8383611d7e612289565b611972565b5b611dc3576040517f08c379a0000000000000000000000000000000000000000000000000000000008152600401611dba9061617a565b60405180910390fd5b611dce838383613709565b505050565b60008082604051611de49190615d99565b908152602001604051809103902060000160009054906101000a900460ff169050919050565b611e1381612d93565b600460009054906101000a900473ffffffffffffffffffffffffffffffffffffffff1673ffffffffffffffffffffffffffffffffffffffff166339a8c66182306040518363ffffffff1660e01b8152600401611e70929190616415565b600060405180830381600087803b158015611e8a57600080fd5b505af1158015611e9e573d6000803e3d6000fd5b50505050611eab81613931565b50565b611eb88282613dd8565b5050565b6000611ee4836000018373ffffffffffffffffffffffffffffffffffffffff1660001b613eb8565b905092915050565b611ef582610aa9565b611f0681611f01612289565b613f28565b611f108383613dd8565b505050565b606060006002836002611f2891906166ec565b611f329190616696565b67ffffffffffffffff811115611f71577f4e487b7100000000000000000000000000000000000000000000000000000000600052604160045260246000fd5b6040519080825280601f01601f191660200182016040528015611fa35781602001600182028036833780820191505090505b5090507f300000000000000000000000000000000000000000000000000000000000000081600081518110612001577f4e487b7100000000000000000000000000000000000000000000000000000000600052603260045260246000fd5b60200101907effffffffffffffffffffffffffffffffffffffffffffffffffffffffffffff1916908160001a9053507f78000000000000000000000000000000000000000000000000000000000000008160018151811061208b577f4e487b7100000000000000000000000000000000000000000000000000000000600052603260045260246000fd5b60200101907effffffffffffffffffffffffffffffffffffffffffffffffffffffffffffff1916908160001a905350600060018460026120cb91906166ec565b6120d59190616696565b90505b60018111156121c1577f3031323334353637383961626364656600000000000000000000000000000000600f86166010811061213d577f4e487b7100000000000000000000000000000000000000000000000000000000600052603260045260246000fd5b1a60f81b82828151811061217a577f4e487b7100000000000000000000000000000000000000000000000000000000600052603260045260246000fd5b60200101907effffffffffffffffffffffffffffffffffffffffffffffffffffffffffffff1916908160001a905350600485901c9450806121ba9061689a565b90506120d8565b5060008414612205576040517f08c379a00000000000000000000000000000000000000000000000000000000081526004016121fc9061607a565b60405180910390fd5b8091505092915050565b60007f4e2312e0000000000000000000000000000000000000000000000000000000007bffffffffffffffffffffffffffffffffffffffffffffffffffffffff1916827bffffffffffffffffffffffffffffffffffffffffffffffffffffffff19161480612282575061228182613fc5565b5b9050919050565b600033905090565b600073ffffffffffffffffffffffffffffffffffffffff168473ffffffffffffffffffffffffffffffffffffffff161415612301576040517f08c379a00000000000000000000000000000000000000000000000000000000081526004016122f89061639a565b60405180910390fd5b8151835114612345576040517f08c379a000000000000000000000000000000000000000000000000000000000815260040161233c9061637a565b60405180910390fd5b600061234f612289565b9050612360816000878787876124fc565b60005b8451811015612466578381815181106123a5577f4e487b7100000000000000000000000000000000000000000000000000000000600052603260045260246000fd5b6020026020010151600960008784815181106123ea577f4e487b7100000000000000000000000000000000000000000000000000000000600052603260045260246000fd5b6020026020010151815260200190815260200160002060008873ffffffffffffffffffffffffffffffffffffffff1673ffffffffffffffffffffffffffffffffffffffff168152602001908152602001600020600082825461244c9190616696565b92505081905550808061245e906168f6565b915050612363565b508473ffffffffffffffffffffffffffffffffffffffff16600073ffffffffffffffffffffffffffffffffffffffff168273ffffffffffffffffffffffffffffffffffffffff167f4a39dc06d4c0dbc64b70af90fd698a233a518aa5d07e595d983b8c0526c8f7fb87876040516124de929190615f90565b60405180910390a46124f581600087878787612512565b5050505050565b61250a868686868686613fd7565b505050505050565b6125318473ffffffffffffffffffffffffffffffffffffffff16614035565b156126da578373ffffffffffffffffffffffffffffffffffffffff1663bc197c8187878686866040518663ffffffff1660e01b8152600401612577959493929190615e05565b602060405180830381600087803b15801561259157600080fd5b505af19250505080156125c257506040513d601f19601f820116820180604052508101906125bf9190614eb8565b60015b612651576125ce6169ea565b806125d95750612616565b806040517f08c379a000000000000000000000000000000000000000000000000000000000815260040161260d9190616018565b60405180910390fd5b6040517f08c379a00000000000000000000000000000000000000000000000000000000081526004016126489061603a565b60405180910390fd5b63bc197c8160e01b7bffffffffffffffffffffffffffffffffffffffffffffffffffffffff1916817bffffffffffffffffffffffffffffffffffffffffffffffffffffffff1916146126d8576040517f08c379a00000000000000000000000000000000000000000000000000000000081526004016126cf9061609a565b60405180910390fd5b505b505050505050565b6126ea612289565b73ffffffffffffffffffffffffffffffffffffffff168173ffffffffffffffffffffffffffffffffffffffff1614612757576040517f08c379a000000000000000000000000000000000000000000000000000000000815260040161274e906163da565b60405180910390fd5b6127618282614048565b5050565b600061278d836000018373ffffffffffffffffffffffffffffffffffffffff1660001b61412a565b905092915050565b61279d6112b1565b6127dc576040517f08c379a00000000000000000000000000000000000000000000000000000000081526004016127d3906160ba565b60405180910390fd5b6000600c60006101000a81548160ff0219169083151502179055507f5db9ee0a495bf2e6ff9c91a7834c1ba4fdd244a5e8aa4e537bd38aeae4b073aa612820612289565b60405161282d9190615dea565b60405180910390a1565b600073ffffffffffffffffffffffffffffffffffffffff168373ffffffffffffffffffffffffffffffffffffffff1614156128a7576040517f08c379a000000000000000000000000000000000000000000000000000000000815260040161289e9061627a565b60405180910390fd5b80518251146128eb576040517f08c379a00000000000000000000000000000000000000000000000000000000081526004016128e29061637a565b60405180910390fd5b60006128f5612289565b9050612915818560008686604051806020016040528060008152506124fc565b60005b8351811015612ab957600084828151811061295c577f4e487b7100000000000000000000000000000000000000000000000000000000600052603260045260246000fd5b6020026020010151905060008483815181106129a1577f4e487b7100000000000000000000000000000000000000000000000000000000600052603260045260246000fd5b6020026020010151905060006009600084815260200190815260200160002060008973ffffffffffffffffffffffffffffffffffffffff1673ffffffffffffffffffffffffffffffffffffffff16815260200190815260200160002054905081811015612a43576040517f08c379a0000000000000000000000000000000000000000000000000000000008152600401612a3a9061613a565b60405180910390fd5b8181612a4f9190616746565b6009600085815260200190815260200160002060008a73ffffffffffffffffffffffffffffffffffffffff1673ffffffffffffffffffffffffffffffffffffffff168152602001908152602001600020819055505050508080612ab1906168f6565b915050612918565b50600073ffffffffffffffffffffffffffffffffffffffff168473ffffffffffffffffffffffffffffffffffffffff168273ffffffffffffffffffffffffffffffffffffffff167f4a39dc06d4c0dbc64b70af90fd698a233a518aa5d07e595d983b8c0526c8f7fb8686604051612b31929190615f90565b60405180910390a450505050565b600073ffffffffffffffffffffffffffffffffffffffff168473ffffffffffffffffffffffffffffffffffffffff161415612baf576040517f08c379a0000000000000000000000000000000000000000000000000000000008152600401612ba69061639a565b60405180910390fd5b6000612bb9612289565b9050612bda81600087612bcb88613473565b612bd488613473565b876124fc565b826009600086815260200190815260200160002060008773ffffffffffffffffffffffffffffffffffffffff1673ffffffffffffffffffffffffffffffffffffffff1681526020019081526020016000206000828254612c3a9190616696565b925050819055508473ffffffffffffffffffffffffffffffffffffffff16600073ffffffffffffffffffffffffffffffffffffffff168273ffffffffffffffffffffffffffffffffffffffff167fc3d58168c5ae7397731d063d5bbf3d657854427343f4c083240f7aacaa2d0f628787604051612cb89291906164cf565b60405180910390a4612ccf81600087878787613539565b5050505050565b612cde6112b1565b15612d1e576040517f08c379a0000000000000000000000000000000000000000000000000000000008152600401612d15906161fa565b60405180910390fd5b6001600c60006101000a81548160ff0219169083151502179055507f62e78cea01bee320cd4e420270b5ea74000d11b0c9f74754ebdbfc544b05a258612d62612289565b604051612d6f9190615dea565b60405180910390a1565b6000612d8883600001836142a8565b60001c905092915050565b612da76000801b612da2612289565b6114c0565b612de6576040517f08c379a0000000000000000000000000000000000000000000000000000000008152600401612ddd906160fa565b60405180910390fd5b612e0330600f548360405180602001604052806000815250611365565b600f6000815480929190612e16906168f6565b919050555080600e6000828254612e2d9190616696565b92505081905550600d81908060018154018082558091505060019003906000526020600020016000909190919091505550565b6103e88210612e6e57600080fd5b600460009054906101000a900473ffffffffffffffffffffffffffffffffffffffff1673ffffffffffffffffffffffffffffffffffffffff1663095ea7b3600660009054906101000a900473ffffffffffffffffffffffffffffffffffffffff16856040518363ffffffff1660e01b8152600401612eed929190615f45565b602060405180830381600087803b158015612f0757600080fd5b505af1158015612f1b573d6000803e3d6000fd5b505050506040513d601f19601f82011682018060405250810190612f3f9190614dc5565b612f7e576040517f08c379a0000000000000000000000000000000000000000000000000000000008152600401612f75906161ba565b60405180910390fd5b600080600760009054906101000a900473ffffffffffffffffffffffffffffffffffffffff1673ffffffffffffffffffffffffffffffffffffffff16630902f1ac6040518163ffffffff1660e01b815260040160606040518083038186803b158015612fe957600080fd5b505afa158015612ffd573d6000803e3d6000fd5b505050506040513d601f19601f820116820180604052508101906130219190614f22565b50915091506000600660009054906101000a900473ffffffffffffffffffffffffffffffffffffffff1673ffffffffffffffffffffffffffffffffffffffff1663054d50d48785856040518463ffffffff1660e01b815260040161308793929190616498565b60206040518083038186803b15801561309f57600080fd5b505afa1580156130b3573d6000803e3d6000fd5b505050506040513d601f19601f820116820180604052508101906130d79190614f9a565b90506000600267ffffffffffffffff81111561311c577f4e487b7100000000000000000000000000000000000000000000000000000000600052604160045260246000fd5b60405190808252806020026020018201604052801561314a5781602001602082028036833780820191505090505b509050600460009054906101000a900473ffffffffffffffffffffffffffffffffffffffff16816000815181106131aa577f4e487b7100000000000000000000000000000000000000000000000000000000600052603260045260246000fd5b602002602001019073ffffffffffffffffffffffffffffffffffffffff16908173ffffffffffffffffffffffffffffffffffffffff1681525050600360009054906101000a900473ffffffffffffffffffffffffffffffffffffffff1681600181518110613241577f4e487b7100000000000000000000000000000000000000000000000000000000600052603260045260246000fd5b602002602001019073ffffffffffffffffffffffffffffffffffffffff16908173ffffffffffffffffffffffffffffffffffffffff1681525050600660009054906101000a900473ffffffffffffffffffffffffffffffffffffffff1673ffffffffffffffffffffffffffffffffffffffff166338ed1739886001846000426040518663ffffffff1660e01b81526004016132e095949392919061643e565b600060405180830381600087803b1580156132fa57600080fd5b505af115801561330e573d6000803e3d6000fd5b505050506040513d6000823e3d601f19601f820116820180604052508101906133379190614d84565b5050505050505050565b600061334f82600001614342565b9050919050565b600061336182611dd3565b6133a0576040517f08c379a0000000000000000000000000000000000000000000000000000000008152600401613397906162fa565b60405180910390fd5b826133aa836109b4565b106133ea576040517f08c379a00000000000000000000000000000000000000000000000000000000081526004016133e19061621a565b60405180910390fd5b600080836040516133fb9190615d99565b908152602001604051809103902060010154846134189190616746565b90508360008460405161342b9190615d99565b9081526020016040518091039020600101819055508091505092915050565b61345382610aa9565b6134648161345f612289565b613f28565b61346e8383614048565b505050565b60606000600167ffffffffffffffff8111156134b8577f4e487b7100000000000000000000000000000000000000000000000000000000600052604160045260246000fd5b6040519080825280602002602001820160405280156134e65781602001602082028036833780820191505090505b5090508281600081518110613524577f4e487b7100000000000000000000000000000000000000000000000000000000600052603260045260246000fd5b60200260200101818152505080915050919050565b6135588473ffffffffffffffffffffffffffffffffffffffff16614035565b15613701578373ffffffffffffffffffffffffffffffffffffffff1663f23a6e6187878686866040518663ffffffff1660e01b815260040161359e959493929190615e6d565b602060405180830381600087803b1580156135b857600080fd5b505af19250505080156135e957506040513d601f19601f820116820180604052508101906135e69190614eb8565b60015b613678576135f56169ea565b80613600575061363d565b806040517f08c379a00000000000000000000000000000000000000000000000000000000081526004016136349190616018565b60405180910390fd5b6040517f08c379a000000000000000000000000000000000000000000000000000000000815260040161366f9061603a565b60405180910390fd5b63f23a6e6160e01b7bffffffffffffffffffffffffffffffffffffffffffffffffffffffff1916817bffffffffffffffffffffffffffffffffffffffffffffffffffffffff1916146136ff576040517f08c379a00000000000000000000000000000000000000000000000000000000081526004016136f69061609a565b60405180910390fd5b505b505050505050565b600073ffffffffffffffffffffffffffffffffffffffff168373ffffffffffffffffffffffffffffffffffffffff161415613779576040517f08c379a00000000000000000000000000000000000000000000000000000000081526004016137709061627a565b60405180910390fd5b6000613783612289565b90506137b38185600061379587613473565b61379e87613473565b604051806020016040528060008152506124fc565b60006009600085815260200190815260200160002060008673ffffffffffffffffffffffffffffffffffffffff1673ffffffffffffffffffffffffffffffffffffffff1681526020019081526020016000205490508281101561384b576040517f08c379a00000000000000000000000000000000000000000000000000000000081526004016138429061613a565b60405180910390fd5b82816138579190616746565b6009600086815260200190815260200160002060008773ffffffffffffffffffffffffffffffffffffffff1673ffffffffffffffffffffffffffffffffffffffff16815260200190815260200160002081905550600073ffffffffffffffffffffffffffffffffffffffff168573ffffffffffffffffffffffffffffffffffffffff168373ffffffffffffffffffffffffffffffffffffffff167fc3d58168c5ae7397731d063d5bbf3d657854427343f4c083240f7aacaa2d0f6287876040516139229291906164cf565b60405180910390a45050505050565b600360009054906101000a900473ffffffffffffffffffffffffffffffffffffffff1673ffffffffffffffffffffffffffffffffffffffff1663095ea7b3600660009054906101000a900473ffffffffffffffffffffffffffffffffffffffff16836040518363ffffffff1660e01b81526004016139b0929190615f45565b602060405180830381600087803b1580156139ca57600080fd5b505af11580156139de573d6000803e3d6000fd5b505050506040513d601f19601f82011682018060405250810190613a029190614dc5565b613a41576040517f08c379a0000000000000000000000000000000000000000000000000000000008152600401613a389061619a565b60405180910390fd5b600460009054906101000a900473ffffffffffffffffffffffffffffffffffffffff1673ffffffffffffffffffffffffffffffffffffffff1663095ea7b3600660009054906101000a900473ffffffffffffffffffffffffffffffffffffffff16836040518363ffffffff1660e01b8152600401613ac0929190615f45565b602060405180830381600087803b158015613ada57600080fd5b505af1158015613aee573d6000803e3d6000fd5b505050506040513d601f19601f82011682018060405250810190613b129190614dc5565b613b51576040517f08c379a0000000000000000000000000000000000000000000000000000000008152600401613b48906161ba565b60405180910390fd5b600360009054906101000a900473ffffffffffffffffffffffffffffffffffffffff1673ffffffffffffffffffffffffffffffffffffffff166339a8c66182306040518363ffffffff1660e01b8152600401613bae929190616415565b600060405180830381600087803b158015613bc857600080fd5b505af1158015613bdc573d6000803e3d6000fd5b50505050600660009054906101000a900473ffffffffffffffffffffffffffffffffffffffff1673ffffffffffffffffffffffffffffffffffffffff1663e8e33700600360009054906101000a900473ffffffffffffffffffffffffffffffffffffffff16600460009054906101000a900473ffffffffffffffffffffffffffffffffffffffff168485868760006402540be3ff6040518963ffffffff1660e01b8152600401613c93989796959493929190615ec7565b606060405180830381600087803b158015613cad57600080fd5b505af1158015613cc1573d6000803e3d6000fd5b505050506040513d601f19601f82011682018060405250810190613ce59190615053565b50505080600760009054906101000a900473ffffffffffffffffffffffffffffffffffffffff1673ffffffffffffffffffffffffffffffffffffffff166370a0823160006040518263ffffffff1660e01b8152600401613d459190615dea565b60206040518083038186803b158015613d5d57600080fd5b505afa158015613d71573d6000803e3d6000fd5b505050506040513d601f19601f82011682018060405250810190613d959190614f9a565b14613dd5576040517f08c379a0000000000000000000000000000000000000000000000000000000008152600401613dcc906163ba565b60405180910390fd5b50565b613de282826114c0565b613eb457600180600084815260200190815260200160002060000160008373ffffffffffffffffffffffffffffffffffffffff1673ffffffffffffffffffffffffffffffffffffffff16815260200190815260200160002060006101000a81548160ff021916908315150217905550613e59612289565b73ffffffffffffffffffffffffffffffffffffffff168173ffffffffffffffffffffffffffffffffffffffff16837f2f8788117e7eff1d82e926ec794901d17c78024a50270940304540a733656f0d60405160405180910390a45b5050565b6000613ec48383614353565b613f1d578260000182908060018154018082558091505060019003906000526020600020016000909190919091505582600001805490508360010160008481526020019081526020016000208190555060019050613f22565b600090505b92915050565b613f3282826114c0565b613fc157613f578173ffffffffffffffffffffffffffffffffffffffff166014611f15565b613f658360001c6020611f15565b604051602001613f76929190615db0565b6040516020818303038152906040526040517f08c379a0000000000000000000000000000000000000000000000000000000008152600401613fb89190616018565b60405180910390fd5b5050565b6000613fd082614376565b9050919050565b613fe5868686868686614458565b613fed6112b1565b1561402d576040517f08c379a00000000000000000000000000000000000000000000000000000000081526004016140249061615a565b60405180910390fd5b505050505050565b600080823b905060008111915050919050565b61405282826114c0565b156141265760006001600084815260200190815260200160002060000160008373ffffffffffffffffffffffffffffffffffffffff1673ffffffffffffffffffffffffffffffffffffffff16815260200190815260200160002060006101000a81548160ff0219169083151502179055506140cb612289565b73ffffffffffffffffffffffffffffffffffffffff168173ffffffffffffffffffffffffffffffffffffffff16837ff6391f5c32d9c69d2a47ea670b442974b53935d1edc7fd64eb21e047a839171b60405160405180910390a45b5050565b6000808360010160008481526020019081526020016000205490506000811461429c57600060018261415c9190616746565b90506000600186600001805490506141749190616746565b905060008660000182815481106141b4577f4e487b7100000000000000000000000000000000000000000000000000000000600052603260045260246000fd5b90600052602060002001549050808760000184815481106141fe577f4e487b7100000000000000000000000000000000000000000000000000000000600052603260045260246000fd5b9060005260206000200181905550838760010160008381526020019081526020016000208190555086600001805480614260577f4e487b7100000000000000000000000000000000000000000000000000000000600052603160045260246000fd5b600190038181906000526020600020016000905590558660010160008781526020019081526020016000206000905560019450505050506142a2565b60009150505b92915050565b6000818360000180549050116142f3576040517f08c379a00000000000000000000000000000000000000000000000000000000081526004016142ea9061605a565b60405180910390fd5b82600001828154811061432f577f4e487b7100000000000000000000000000000000000000000000000000000000600052603260045260246000fd5b9060005260206000200154905092915050565b600081600001805490509050919050565b600080836001016000848152602001908152602001600020541415905092915050565b60007fd9b67a26000000000000000000000000000000000000000000000000000000007bffffffffffffffffffffffffffffffffffffffffffffffffffffffff1916827bffffffffffffffffffffffffffffffffffffffffffffffffffffffff1916148061444157507f0e89341c000000000000000000000000000000000000000000000000000000007bffffffffffffffffffffffffffffffffffffffffffffffffffffffff1916827bffffffffffffffffffffffffffffffffffffffffffffffffffffffff1916145b80614451575061445082614460565b5b9050919050565b505050505050565b60007f5a05180f000000000000000000000000000000000000000000000000000000007bffffffffffffffffffffffffffffffffffffffffffffffffffffffff1916827bffffffffffffffffffffffffffffffffffffffffffffffffffffffff191614806144d357506144d2826144da565b5b9050919050565b60007f7965db0b000000000000000000000000000000000000000000000000000000007bffffffffffffffffffffffffffffffffffffffffffffffffffffffff1916827bffffffffffffffffffffffffffffffffffffffffffffffffffffffff1916148061454d575061454c82614554565b5b9050919050565b60007f01ffc9a7000000000000000000000000000000000000000000000000000000007bffffffffffffffffffffffffffffffffffffffffffffffffffffffff1916827bffffffffffffffffffffffffffffffffffffffffffffffffffffffff1916149050919050565b60006145d16145cc84616529565b6164f8565b905080838252602082019050828560208602820111156145f057600080fd5b60005b858110156146205781614606888261477e565b8452602084019350602083019250506001810190506145f3565b5050509392505050565b600061463d61463884616555565b6164f8565b9050808382526020820190508285602086028201111561465c57600080fd5b60005b8581101561468c578161467288826148e3565b84526020840193506020830192505060018101905061465f565b5050509392505050565b60006146a96146a484616555565b6164f8565b905080838252602082019050828560208602820111156146c857600080fd5b60005b858110156146f857816146de88826148f8565b8452602084019350602083019250506001810190506146cb565b5050509392505050565b600061471561471084616581565b6164f8565b90508281526020810184848401111561472d57600080fd5b614738848285616858565b509392505050565b600061475361474e846165b1565b6164f8565b90508281526020810184848401111561476b57600080fd5b614776848285616858565b509392505050565b60008135905061478d81616aa0565b92915050565b600082601f8301126147a457600080fd5b81356147b48482602086016145be565b91505092915050565b600082601f8301126147ce57600080fd5b81356147de84826020860161462a565b91505092915050565b600082601f8301126147f857600080fd5b8151614808848260208601614696565b91505092915050565b60008135905061482081616ab7565b92915050565b60008151905061483581616ab7565b92915050565b60008135905061484a81616ace565b92915050565b60008135905061485f81616ae5565b92915050565b60008151905061487481616ae5565b92915050565b600082601f83011261488b57600080fd5b813561489b848260208601614702565b91505092915050565b600082601f8301126148b557600080fd5b81356148c5848260208601614740565b91505092915050565b6000815190506148dd81616afc565b92915050565b6000813590506148f281616b13565b92915050565b60008151905061490781616b13565b92915050565b60008151905061491c81616b2a565b92915050565b6000806040838503121561493557600080fd5b60006149438582860161477e565b92505060206149548582860161477e565b9150509250929050565b600080600080600060a0868803121561497657600080fd5b60006149848882890161477e565b95505060206149958882890161477e565b945050604086013567ffffffffffffffff8111156149b257600080fd5b6149be888289016147bd565b935050606086013567ffffffffffffffff8111156149db57600080fd5b6149e7888289016147bd565b925050608086013567ffffffffffffffff811115614a0457600080fd5b614a108882890161487a565b9150509295509295909350565b600080600080600060a08688031215614a3557600080fd5b6000614a438882890161477e565b9550506020614a548882890161477e565b9450506040614a65888289016148e3565b9350506060614a76888289016148e3565b925050608086013567ffffffffffffffff811115614a9357600080fd5b614a9f8882890161487a565b9150509295509295909350565b600080600060608486031215614ac157600080fd5b6000614acf8682870161477e565b935050602084013567ffffffffffffffff811115614aec57600080fd5b614af8868287016147bd565b925050604084013567ffffffffffffffff811115614b1557600080fd5b614b21868287016147bd565b9150509250925092565b60008060008060808587031215614b4157600080fd5b6000614b4f8782880161477e565b945050602085013567ffffffffffffffff811115614b6c57600080fd5b614b78878288016147bd565b935050604085013567ffffffffffffffff811115614b9557600080fd5b614ba1878288016147bd565b925050606085013567ffffffffffffffff811115614bbe57600080fd5b614bca8782880161487a565b91505092959194509250565b60008060408385031215614be957600080fd5b6000614bf78582860161477e565b9250506020614c0885828601614811565b9150509250929050565b60008060408385031215614c2557600080fd5b6000614c338582860161477e565b9250506020614c44858286016148e3565b9150509250929050565b600080600060608486031215614c6357600080fd5b6000614c718682870161477e565b9350506020614c82868287016148e3565b9250506040614c93868287016148e3565b9150509250925092565b60008060008060808587031215614cb357600080fd5b6000614cc18782880161477e565b9450506020614cd2878288016148e3565b9350506040614ce3878288016148e3565b925050606085013567ffffffffffffffff811115614d0057600080fd5b614d0c8782880161487a565b91505092959194509250565b60008060408385031215614d2b57600080fd5b600083013567ffffffffffffffff811115614d4557600080fd5b614d5185828601614793565b925050602083013567ffffffffffffffff811115614d6e57600080fd5b614d7a858286016147bd565b9150509250929050565b600060208284031215614d9657600080fd5b600082015167ffffffffffffffff811115614db057600080fd5b614dbc848285016147e7565b91505092915050565b600060208284031215614dd757600080fd5b6000614de584828501614826565b91505092915050565b600060208284031215614e0057600080fd5b6000614e0e8482850161483b565b91505092915050565b60008060408385031215614e2a57600080fd5b6000614e388582860161483b565b9250506020614e498582860161477e565b9150509250929050565b60008060408385031215614e6657600080fd5b6000614e748582860161483b565b9250506020614e85858286016148e3565b9150509250929050565b600060208284031215614ea157600080fd5b6000614eaf84828501614850565b91505092915050565b600060208284031215614eca57600080fd5b6000614ed884828501614865565b91505092915050565b600060208284031215614ef357600080fd5b600082013567ffffffffffffffff811115614f0d57600080fd5b614f19848285016148a4565b91505092915050565b600080600060608486031215614f3757600080fd5b6000614f45868287016148ce565b9350506020614f56868287016148ce565b9250506040614f678682870161490d565b9150509250925092565b600060208284031215614f8357600080fd5b6000614f91848285016148e3565b91505092915050565b600060208284031215614fac57600080fd5b6000614fba848285016148f8565b91505092915050565b60008060408385031215614fd657600080fd5b6000614fe4858286016148e3565b925050602083013567ffffffffffffffff81111561500157600080fd5b61500d858286016148a4565b9150509250929050565b6000806040838503121561502a57600080fd5b6000615038858286016148e3565b9250506020615049858286016148e3565b9150509250929050565b60008060006060848603121561506857600080fd5b6000615076868287016148f8565b9350506020615087868287016148f8565b9250506040615098868287016148f8565b9150509250925092565b60006150ae83836150d2565b60208301905092915050565b60006150c68383615d7b565b60208301905092915050565b6150db8161677a565b82525050565b6150ea8161677a565b82525050565b60006150fb82616601565b6151058185616647565b9350615110836165e1565b8060005b8381101561514157815161512888826150a2565b97506151338361662d565b925050600181019050615114565b5085935050505092915050565b60006151598261660c565b6151638185616658565b935061516e836165f1565b8060005b8381101561519f57815161518688826150ba565b97506151918361663a565b925050600181019050615172565b5085935050505092915050565b6151b58161678c565b82525050565b6151c481616798565b82525050565b6151d3816167a2565b82525050565b60006151e482616617565b6151ee8185616669565b93506151fe818560208601616867565b615207816169cc565b840191505092915050565b61521b81616822565b82525050565b61522a81616834565b82525050565b600061523b82616622565b615245818561667a565b9350615255818560208601616867565b61525e816169cc565b840191505092915050565b600061527482616622565b61527e818561668b565b935061528e818560208601616867565b80840191505092915050565b60006152a760348361667a565b91507f455243313135353a207472616e7366657220746f206e6f6e204552433131353560008301527f526563656976657220696d706c656d656e7465720000000000000000000000006020830152604082019050919050565b600061530d60228361667a565b91507f456e756d657261626c655365743a20696e646578206f7574206f6620626f756e60008301527f64730000000000000000000000000000000000000000000000000000000000006020830152604082019050919050565b600061537360208361667a565b91507f537472696e67733a20686578206c656e67746820696e73756666696369656e746000830152602082019050919050565b60006153b360288361667a565b91507f455243313135353a204552433131353552656365697665722072656a6563746560008301527f6420746f6b656e730000000000000000000000000000000000000000000000006020830152604082019050919050565b600061541960148361667a565b91507f5061757361626c653a206e6f74207061757365640000000000000000000000006000830152602082019050919050565b600061545960208361667a565b91507f494420746f206c617267652c20736b696e20646f6573206e6f742065786973746000830152602082019050919050565b600061549960158361667a565b91507f4e6f207065726d697373696f6e20746f206d696e7400000000000000000000006000830152602082019050919050565b60006154d9602b8361667a565b91507f455243313135353a2062616c616e636520717565727920666f7220746865207a60008301527f65726f20616464726573730000000000000000000000000000000000000000006020830152604082019050919050565b600061553f60248361667a565b91507f455243313135353a206275726e20616d6f756e7420657863656564732062616c60008301527f616e6365000000000000000000000000000000000000000000000000000000006020830152604082019050919050565b60006155a5602c8361667a565b91507f455243313135355061757361626c653a20746f6b656e207472616e736665722060008301527f7768696c652070617573656400000000000000000000000000000000000000006020830152604082019050919050565b600061560b60298361667a565b91507f455243313135353a2063616c6c6572206973206e6f74206f776e6572206e6f7260008301527f20617070726f76656400000000000000000000000000000000000000000000006020830152604082019050919050565b600061567160128361667a565b91507f617070726f7665206661696c65642046414800000000000000000000000000006000830152602082019050919050565b60006156b160168361667a565b91507f617070726f7665206661696c65642043535f43415345000000000000000000006000830152602082019050919050565b60006156f1600b8361667a565b91507f55736572206578697374730000000000000000000000000000000000000000006000830152602082019050919050565b600061573160108361667a565b91507f5061757361626c653a20706175736564000000000000000000000000000000006000830152602082019050919050565b600061577160188361667a565b91507f53636f726520746f6f204c6f772f206e6f206368616e676500000000000000006000830152602082019050919050565b60006157b160258361667a565b91507f455243313135353a207472616e7366657220746f20746865207a65726f20616460008301527f64726573730000000000000000000000000000000000000000000000000000006020830152604082019050919050565b600061581760328361667a565b91507f455243313135353a207472616e736665722063616c6c6572206973206e6f742060008301527f6f776e6572206e6f7220617070726f76656400000000000000000000000000006020830152604082019050919050565b600061587d60238361667a565b91507f455243313135353a206275726e2066726f6d20746865207a65726f206164647260008301527f65737300000000000000000000000000000000000000000000000000000000006020830152604082019050919050565b60006158e360388361667a565b91507f455243313135355072657365744d696e7465725061757365723a206d7573742060008301527f68617665206d696e74657220726f6c6520746f206d696e7400000000000000006020830152604082019050919050565b6000615949602a8361667a565b91507f455243313135353a20696e73756666696369656e742062616c616e636520666f60008301527f72207472616e73666572000000000000000000000000000000000000000000006020830152604082019050919050565b60006159af603b8361667a565b91507f455243313135355072657365744d696e7465725061757365723a206d7573742060008301527f686176652070617573657220726f6c6520746f20756e706175736500000000006020830152604082019050919050565b6000615a1560128361667a565b91507f5573657220646f65736e277420657869737400000000000000000000000000006000830152602082019050919050565b6000615a5560398361667a565b91507f455243313135355072657365744d696e7465725061757365723a206d7573742060008301527f686176652070617573657220726f6c6520746f207061757365000000000000006020830152604082019050919050565b6000615abb60178361668b565b91507f416363657373436f6e74726f6c3a206163636f756e74200000000000000000006000830152601782019050919050565b6000615afb60298361667a565b91507f455243313135353a2073657474696e6720617070726f76616c2073746174757360008301527f20666f722073656c6600000000000000000000000000000000000000000000006020830152604082019050919050565b6000615b6160298361667a565b91507f455243313135353a206163636f756e747320616e6420696473206c656e67746860008301527f206d69736d6174636800000000000000000000000000000000000000000000006020830152604082019050919050565b6000615bc760288361667a565b91507f455243313135353a2069647320616e6420616d6f756e7473206c656e6774682060008301527f6d69736d617463680000000000000000000000000000000000000000000000006020830152604082019050919050565b6000615c2d60218361667a565b91507f455243313135353a206d696e7420746f20746865207a65726f2061646472657360008301527f73000000000000000000000000000000000000000000000000000000000000006020830152604082019050919050565b6000615c9360138361667a565b91507f4c5020746f6b656e206e6f74206275726e6564000000000000000000000000006000830152602082019050919050565b6000615cd360118361668b565b91507f206973206d697373696e6720726f6c65200000000000000000000000000000006000830152601182019050919050565b6000615d13602f8361667a565b91507f416363657373436f6e74726f6c3a2063616e206f6e6c792072656e6f756e636560008301527f20726f6c657320666f722073656c6600000000000000000000000000000000006020830152604082019050919050565b615d7581616846565b82525050565b615d8481616808565b82525050565b615d9381616808565b82525050565b6000615da58284615269565b915081905092915050565b6000615dbb82615aae565b9150615dc78285615269565b9150615dd282615cc6565b9150615dde8284615269565b91508190509392505050565b6000602082019050615dff60008301846150e1565b92915050565b600060a082019050615e1a60008301886150e1565b615e2760208301876150e1565b8181036040830152615e39818661514e565b90508181036060830152615e4d818561514e565b90508181036080830152615e6181846151d9565b90509695505050505050565b600060a082019050615e8260008301886150e1565b615e8f60208301876150e1565b615e9c6040830186615d8a565b615ea96060830185615d8a565b8181036080830152615ebb81846151d9565b90509695505050505050565b600061010082019050615edd600083018b6150e1565b615eea602083018a6150e1565b615ef76040830189615d8a565b615f046060830188615d8a565b615f116080830187615d8a565b615f1e60a0830186615d8a565b615f2b60c08301856150e1565b615f3860e0830184615221565b9998505050505050505050565b6000604082019050615f5a60008301856150e1565b615f676020830184615d8a565b9392505050565b60006020820190508181036000830152615f88818461514e565b905092915050565b60006040820190508181036000830152615faa818561514e565b90508181036020830152615fbe818461514e565b90509392505050565b6000602082019050615fdc60008301846151ac565b92915050565b6000602082019050615ff760008301846151bb565b92915050565b600060208201905061601260008301846151ca565b92915050565b600060208201905081810360008301526160328184615230565b905092915050565b600060208201905081810360008301526160538161529a565b9050919050565b6000602082019050818103600083015261607381615300565b9050919050565b6000602082019050818103600083015261609381615366565b9050919050565b600060208201905081810360008301526160b3816153a6565b9050919050565b600060208201905081810360008301526160d38161540c565b9050919050565b600060208201905081810360008301526160f38161544c565b9050919050565b600060208201905081810360008301526161138161548c565b9050919050565b60006020820190508181036000830152616133816154cc565b9050919050565b6000602082019050818103600083015261615381615532565b9050919050565b6000602082019050818103600083015261617381615598565b9050919050565b60006020820190508181036000830152616193816155fe565b9050919050565b600060208201905081810360008301526161b381615664565b9050919050565b600060208201905081810360008301526161d3816156a4565b9050919050565b600060208201905081810360008301526161f3816156e4565b9050919050565b6000602082019050818103600083015261621381615724565b9050919050565b6000602082019050818103600083015261623381615764565b9050919050565b60006020820190508181036000830152616253816157a4565b9050919050565b600060208201905081810360008301526162738161580a565b9050919050565b6000602082019050818103600083015261629381615870565b9050919050565b600060208201905081810360008301526162b3816158d6565b9050919050565b600060208201905081810360008301526162d38161593c565b9050919050565b600060208201905081810360008301526162f3816159a2565b9050919050565b6000602082019050818103600083015261631381615a08565b9050919050565b6000602082019050818103600083015261633381615a48565b9050919050565b6000602082019050818103600083015261635381615aee565b9050919050565b6000602082019050818103600083015261637381615b54565b9050919050565b6000602082019050818103600083015261639381615bba565b9050919050565b600060208201905081810360008301526163b381615c20565b9050919050565b600060208201905081810360008301526163d381615c86565b9050919050565b600060208201905081810360008301526163f381615d06565b9050919050565b600060208201905061640f6000830184615d8a565b92915050565b600060408201905061642a6000830185615d8a565b61643760208301846150e1565b9392505050565b600060a0820190506164536000830188615d8a565b6164606020830187615212565b818103604083015261647281866150f0565b905061648160608301856150e1565b61648e6080830184615d8a565b9695505050505050565b60006060820190506164ad6000830186615d8a565b6164ba6020830185615d6c565b6164c76040830184615d6c565b949350505050565b60006040820190506164e46000830185615d8a565b6164f16020830184615d8a565b9392505050565b6000604051905081810181811067ffffffffffffffff8211171561651f5761651e61699d565b5b8060405250919050565b600067ffffffffffffffff8211156165445761654361699d565b5b602082029050602081019050919050565b600067ffffffffffffffff8211156165705761656f61699d565b5b602082029050602081019050919050565b600067ffffffffffffffff82111561659c5761659b61699d565b5b601f19601f8301169050602081019050919050565b600067ffffffffffffffff8211156165cc576165cb61699d565b5b601f19601f8301169050602081019050919050565b6000819050602082019050919050565b6000819050602082019050919050565b600081519050919050565b600081519050919050565b600081519050919050565b600081519050919050565b6000602082019050919050565b6000602082019050919050565b600082825260208201905092915050565b600082825260208201905092915050565b600082825260208201905092915050565b600082825260208201905092915050565b600081905092915050565b60006166a182616808565b91506166ac83616808565b9250827fffffffffffffffffffffffffffffffffffffffffffffffffffffffffffffffff038211156166e1576166e061693f565b5b828201905092915050565b60006166f782616808565b915061670283616808565b9250817fffffffffffffffffffffffffffffffffffffffffffffffffffffffffffffffff048311821515161561673b5761673a61693f565b5b828202905092915050565b600061675182616808565b915061675c83616808565b92508282101561676f5761676e61693f565b5b828203905092915050565b6000616785826167e8565b9050919050565b60008115159050919050565b6000819050919050565b60007fffffffff0000000000000000000000000000000000000000000000000000000082169050919050565b60006dffffffffffffffffffffffffffff82169050919050565b600073ffffffffffffffffffffffffffffffffffffffff82169050919050565b6000819050919050565b600063ffffffff82169050919050565b600061682d82616808565b9050919050565b600061683f82616808565b9050919050565b6000616851826167ce565b9050919050565b82818337600083830152505050565b60005b8381101561688557808201518184015260208101905061686a565b83811115616894576000848401525b50505050565b60006168a582616808565b915060008214156168b9576168b861693f565b5b600182039050919050565b600060028204905060018216806168dc57607f821691505b602082108114156168f0576168ef61696e565b5b50919050565b600061690182616808565b91507fffffffffffffffffffffffffffffffffffffffffffffffffffffffffffffffff8214156169345761693361693f565b5b600182019050919050565b7f4e487b7100000000000000000000000000000000000000000000000000000000600052601160045260246000fd5b7f4e487b7100000000000000000000000000000000000000000000000000000000600052602260045260246000fd5b7f4e487b7100000000000000000000000000000000000000000000000000000000600052604160045260246000fd5b6000601f19601f8301169050919050565b60008160e01c9050919050565b600060443d10156169fa57616a9d565b60046000803e616a0b6000516169dd565b6308c379a08114616a1c5750616a9d565b60405160043d036004823e80513d602482011167ffffffffffffffff82111715616a4857505050616a9d565b808201805167ffffffffffffffff811115616a67575050505050616a9d565b8060208301013d8501811115616a8257505050505050616a9d565b616a8b826169cc565b60208401016040528296505050505050505b90565b616aa98161677a565b8114616ab457600080fd5b50565b616ac08161678c565b8114616acb57600080fd5b50565b616ad781616798565b8114616ae257600080fd5b50565b616aee816167a2565b8114616af957600080fd5b50565b616b05816167ce565b8114616b1057600080fd5b50565b616b1c81616808565b8114616b2757600080fd5b50565b616b3381616812565b8114616b3e57600080fd5b5056fea2646970667358221220199e2cfdd3bde241cfe66749b92712b30cd1fe520d467eaf6d1f4fc4ed393e5c64736f6c63430008000033",
  "linkReferences": {},
  "deployedLinkReferences": {}
}