{
  "_format": "hh-sol-artifact-1",
  "contractName": "CS_Skin",
  "sourceName": "contracts/CS_Skin.sol",
  "abi": [
    {
      "inputs": [],
      "stateMutability": "nonpayable",
      "type": "constructor"
    },
    {
      "anonymous": false,
      "inputs": [
        {
          "indexed": true,
          "internalType": "address",
          "name": "account",
          "type": "address"
        },
        {
          "indexed": true,
          "internalType": "address",
          "name": "operator",
          "type": "address"
        },
        {
          "indexed": false,
          "internalType": "bool",
          "name": "approved",
          "type": "bool"
        }
      ],
      "name": "ApprovalForAll",
      "type": "event"
    },
    {
      "anonymous": false,
      "inputs": [
        {
          "indexed": false,
          "internalType": "address",
          "name": "account",
          "type": "address"
        }
      ],
      "name": "Paused",
      "type": "event"
    },
    {
      "anonymous": false,
      "inputs": [
        {
          "indexed": true,
          "internalType": "bytes32",
          "name": "role",
          "type": "bytes32"
        },
        {
          "indexed": true,
          "internalType": "bytes32",
          "name": "previousAdminRole",
          "type": "bytes32"
        },
        {
          "indexed": true,
          "internalType": "bytes32",
          "name": "newAdminRole",
          "type": "bytes32"
        }
      ],
      "name": "RoleAdminChanged",
      "type": "event"
    },
    {
      "anonymous": false,
      "inputs": [
        {
          "indexed": true,
          "internalType": "bytes32",
          "name": "role",
          "type": "bytes32"
        },
        {
          "indexed": true,
          "internalType": "address",
          "name": "account",
          "type": "address"
        },
        {
          "indexed": true,
          "internalType": "address",
          "name": "sender",
          "type": "address"
        }
      ],
      "name": "RoleGranted",
      "type": "event"
    },
    {
      "anonymous": false,
      "inputs": [
        {
          "indexed": true,
          "internalType": "bytes32",
          "name": "role",
          "type": "bytes32"
        },
        {
          "indexed": true,
          "internalType": "address",
          "name": "account",
          "type": "address"
        },
        {
          "indexed": true,
          "internalType": "address",
          "name": "sender",
          "type": "address"
        }
      ],
      "name": "RoleRevoked",
      "type": "event"
    },
    {
      "anonymous": false,
      "inputs": [
        {
          "indexed": true,
          "internalType": "address",
          "name": "operator",
          "type": "address"
        },
        {
          "indexed": true,
          "internalType": "address",
          "name": "from",
          "type": "address"
        },
        {
          "indexed": true,
          "internalType": "address",
          "name": "to",
          "type": "address"
        },
        {
          "indexed": false,
          "internalType": "uint256[]",
          "name": "ids",
          "type": "uint256[]"
        },
        {
          "indexed": false,
          "internalType": "uint256[]",
          "name": "values",
          "type": "uint256[]"
        }
      ],
      "name": "TransferBatch",
      "type": "event"
    },
    {
      "anonymous": false,
      "inputs": [
        {
          "indexed": true,
          "internalType": "address",
          "name": "operator",
          "type": "address"
        },
        {
          "indexed": true,
          "internalType": "address",
          "name": "from",
          "type": "address"
        },
        {
          "indexed": true,
          "internalType": "address",
          "name": "to",
          "type": "address"
        },
        {
          "indexed": false,
          "internalType": "uint256",
          "name": "id",
          "type": "uint256"
        },
        {
          "indexed": false,
          "internalType": "uint256",
          "name": "value",
          "type": "uint256"
        }
      ],
      "name": "TransferSingle",
      "type": "event"
    },
    {
      "anonymous": false,
      "inputs": [
        {
          "indexed": false,
          "internalType": "string",
          "name": "value",
          "type": "string"
        },
        {
          "indexed": true,
          "internalType": "uint256",
          "name": "id",
          "type": "uint256"
        }
      ],
      "name": "URI",
      "type": "event"
    },
    {
      "anonymous": false,
      "inputs": [
        {
          "indexed": false,
          "internalType": "address",
          "name": "account",
          "type": "address"
        }
      ],
      "name": "Unpaused",
      "type": "event"
    },
    {
      "inputs": [],
      "name": "DEFAULT_ADMIN_ROLE",
      "outputs": [
        {
          "internalType": "bytes32",
          "name": "",
          "type": "bytes32"
        }
      ],
      "stateMutability": "view",
      "type": "function"
    },
    {
      "inputs": [],
      "name": "LOCAL_MINTER_ROLE",
      "outputs": [
        {
          "internalType": "bytes32",
          "name": "",
          "type": "bytes32"
        }
      ],
      "stateMutability": "view",
      "type": "function"
    },
    {
      "inputs": [],
      "name": "MINTER_ROLE",
      "outputs": [
        {
          "internalType": "bytes32",
          "name": "",
          "type": "bytes32"
        }
      ],
      "stateMutability": "view",
      "type": "function"
    },
    {
      "inputs": [],
      "name": "PAUSER_ROLE",
      "outputs": [
        {
          "internalType": "bytes32",
          "name": "",
          "type": "bytes32"
        }
      ],
      "stateMutability": "view",
      "type": "function"
    },
    {
      "inputs": [
        {
          "internalType": "address",
          "name": "account",
          "type": "address"
        },
        {
          "internalType": "uint256",
          "name": "id",
          "type": "uint256"
        }
      ],
      "name": "balanceOf",
      "outputs": [
        {
          "internalType": "uint256",
          "name": "",
          "type": "uint256"
        }
      ],
      "stateMutability": "view",
      "type": "function"
    },
    {
      "inputs": [
        {
          "internalType": "address[]",
          "name": "accounts",
          "type": "address[]"
        },
        {
          "internalType": "uint256[]",
          "name": "ids",
          "type": "uint256[]"
        }
      ],
      "name": "balanceOfBatch",
      "outputs": [
        {
          "internalType": "uint256[]",
          "name": "",
          "type": "uint256[]"
        }
      ],
      "stateMutability": "view",
      "type": "function"
    },
    {
      "inputs": [
        {
          "internalType": "address",
          "name": "account",
          "type": "address"
        },
        {
          "internalType": "uint256",
          "name": "id",
          "type": "uint256"
        },
        {
          "internalType": "uint256",
          "name": "value",
          "type": "uint256"
        }
      ],
      "name": "burn",
      "outputs": [],
      "stateMutability": "nonpayable",
      "type": "function"
    },
    {
      "inputs": [
        {
          "internalType": "address",
          "name": "account",
          "type": "address"
        },
        {
          "internalType": "uint256[]",
          "name": "ids",
          "type": "uint256[]"
        },
        {
          "internalType": "uint256[]",
          "name": "values",
          "type": "uint256[]"
        }
      ],
      "name": "burnBatch",
      "outputs": [],
      "stateMutability": "nonpayable",
      "type": "function"
    },
    {
      "inputs": [
        {
          "internalType": "string",
          "name": "_id",
          "type": "string"
        }
      ],
      "name": "getAddress",
      "outputs": [
        {
          "internalType": "address",
          "name": "",
          "type": "address"
        }
      ],
      "stateMutability": "view",
      "type": "function"
    },
    {
      "inputs": [
        {
          "internalType": "bytes32",
          "name": "role",
          "type": "bytes32"
        }
      ],
      "name": "getRoleAdmin",
      "outputs": [
        {
          "internalType": "bytes32",
          "name": "",
          "type": "bytes32"
        }
      ],
      "stateMutability": "view",
      "type": "function"
    },
    {
      "inputs": [
        {
          "internalType": "bytes32",
          "name": "role",
          "type": "bytes32"
        },
        {
          "internalType": "uint256",
          "name": "index",
          "type": "uint256"
        }
      ],
      "name": "getRoleMember",
      "outputs": [
        {
          "internalType": "address",
          "name": "",
          "type": "address"
        }
      ],
      "stateMutability": "view",
      "type": "function"
    },
    {
      "inputs": [
        {
          "internalType": "bytes32",
          "name": "role",
          "type": "bytes32"
        }
      ],
      "name": "getRoleMemberCount",
      "outputs": [
        {
          "internalType": "uint256",
          "name": "",
          "type": "uint256"
        }
      ],
      "stateMutability": "view",
      "type": "function"
    },
    {
      "inputs": [
        {
          "internalType": "string",
          "name": "_id",
          "type": "string"
        }
      ],
      "name": "getScore",
      "outputs": [
        {
          "internalType": "uint256",
          "name": "",
          "type": "uint256"
        }
      ],
      "stateMutability": "view",
      "type": "function"
    },
    {
      "inputs": [
        {
          "internalType": "uint256",
          "name": "_id",
          "type": "uint256"
        }
      ],
      "name": "getSkinAvailability",
      "outputs": [
        {
          "internalType": "uint256",
          "name": "",
          "type": "uint256"
        }
      ],
      "stateMutability": "view",
      "type": "function"
    },
    {
      "inputs": [
        {
          "internalType": "bytes32",
          "name": "role",
          "type": "bytes32"
        },
        {
          "internalType": "address",
          "name": "account",
          "type": "address"
        }
      ],
      "name": "grantRole",
      "outputs": [],
      "stateMutability": "nonpayable",
      "type": "function"
    },
    {
      "inputs": [
        {
          "internalType": "bytes32",
          "name": "role",
          "type": "bytes32"
        },
        {
          "internalType": "address",
          "name": "account",
          "type": "address"
        }
      ],
      "name": "hasRole",
      "outputs": [
        {
          "internalType": "bool",
          "name": "",
          "type": "bool"
        }
      ],
      "stateMutability": "view",
      "type": "function"
    },
    {
      "inputs": [
        {
          "internalType": "address",
          "name": "account",
          "type": "address"
        },
        {
          "internalType": "address",
          "name": "operator",
          "type": "address"
        }
      ],
      "name": "isApprovedForAll",
      "outputs": [
        {
          "internalType": "bool",
          "name": "",
          "type": "bool"
        }
      ],
      "stateMutability": "view",
      "type": "function"
    },
    {
      "inputs": [
        {
          "internalType": "address",
          "name": "to",
          "type": "address"
        },
        {
          "internalType": "uint256",
          "name": "id",
          "type": "uint256"
        },
        {
          "internalType": "uint256",
          "name": "amount",
          "type": "uint256"
        },
        {
          "internalType": "bytes",
          "name": "data",
          "type": "bytes"
        }
      ],
      "name": "mint",
      "outputs": [],
      "stateMutability": "nonpayable",
      "type": "function"
    },
    {
      "inputs": [
        {
          "internalType": "address",
          "name": "to",
          "type": "address"
        },
        {
          "internalType": "uint256[]",
          "name": "ids",
          "type": "uint256[]"
        },
        {
          "internalType": "uint256[]",
          "name": "amounts",
          "type": "uint256[]"
        },
        {
          "internalType": "bytes",
          "name": "data",
          "type": "bytes"
        }
      ],
      "name": "mintBatch",
      "outputs": [],
      "stateMutability": "nonpayable",
      "type": "function"
    },
    {
      "inputs": [
        {
          "internalType": "uint256",
          "name": "_amount",
          "type": "uint256"
        }
      ],
      "name": "newSkin",
      "outputs": [],
      "stateMutability": "nonpayable",
      "type": "function"
    },
    {
      "inputs": [
        {
          "internalType": "address",
          "name": "",
          "type": "address"
        },
        {
          "internalType": "address",
          "name": "",
          "type": "address"
        },
        {
          "internalType": "uint256[]",
          "name": "",
          "type": "uint256[]"
        },
        {
          "internalType": "uint256[]",
          "name": "",
          "type": "uint256[]"
        },
        {
          "internalType": "bytes",
          "name": "",
          "type": "bytes"
        }
      ],
      "name": "onERC1155BatchReceived",
      "outputs": [
        {
          "internalType": "bytes4",
          "name": "",
          "type": "bytes4"
        }
      ],
      "stateMutability": "nonpayable",
      "type": "function"
    },
    {
      "inputs": [
        {
          "internalType": "address",
          "name": "",
          "type": "address"
        },
        {
          "internalType": "address",
          "name": "",
          "type": "address"
        },
        {
          "internalType": "uint256",
          "name": "",
          "type": "uint256"
        },
        {
          "internalType": "uint256",
          "name": "",
          "type": "uint256"
        },
        {
          "internalType": "bytes",
          "name": "",
          "type": "bytes"
        }
      ],
      "name": "onERC1155Received",
      "outputs": [
        {
          "internalType": "bytes4",
          "name": "",
          "type": "bytes4"
        }
      ],
      "stateMutability": "nonpayable",
      "type": "function"
    },
    {
      "inputs": [],
      "name": "pause",
      "outputs": [],
      "stateMutability": "nonpayable",
      "type": "function"
    },
    {
      "inputs": [],
      "name": "paused",
      "outputs": [
        {
          "internalType": "bool",
          "name": "",
          "type": "bool"
        }
      ],
      "stateMutability": "view",
      "type": "function"
    },
    {
      "inputs": [
        {
          "internalType": "bytes32",
          "name": "role",
          "type": "bytes32"
        },
        {
          "internalType": "address",
          "name": "account",
          "type": "address"
        }
      ],
      "name": "renounceRole",
      "outputs": [],
      "stateMutability": "nonpayable",
      "type": "function"
    },
    {
      "inputs": [
        {
          "internalType": "bytes32",
          "name": "role",
          "type": "bytes32"
        },
        {
          "internalType": "address",
          "name": "account",
          "type": "address"
        }
      ],
      "name": "revokeRole",
      "outputs": [],
      "stateMutability": "nonpayable",
      "type": "function"
    },
    {
      "inputs": [
        {
          "internalType": "address",
          "name": "from",
          "type": "address"
        },
        {
          "internalType": "address",
          "name": "to",
          "type": "address"
        },
        {
          "internalType": "uint256[]",
          "name": "ids",
          "type": "uint256[]"
        },
        {
          "internalType": "uint256[]",
          "name": "amounts",
          "type": "uint256[]"
        },
        {
          "internalType": "bytes",
          "name": "data",
          "type": "bytes"
        }
      ],
      "name": "safeBatchTransferFrom",
      "outputs": [],
      "stateMutability": "nonpayable",
      "type": "function"
    },
    {
      "inputs": [
        {
          "internalType": "address",
          "name": "from",
          "type": "address"
        },
        {
          "internalType": "address",
          "name": "to",
          "type": "address"
        },
        {
          "internalType": "uint256",
          "name": "id",
          "type": "uint256"
        },
        {
          "internalType": "uint256",
          "name": "amount",
          "type": "uint256"
        },
        {
          "internalType": "bytes",
          "name": "data",
          "type": "bytes"
        }
      ],
      "name": "safeTransferFrom",
      "outputs": [],
      "stateMutability": "nonpayable",
      "type": "function"
    },
    {
      "inputs": [
        {
          "internalType": "address",
          "name": "operator",
          "type": "address"
        },
        {
          "internalType": "bool",
          "name": "approved",
          "type": "bool"
        }
      ],
      "name": "setApprovalForAll",
      "outputs": [],
      "stateMutability": "nonpayable",
      "type": "function"
    },
    {
      "inputs": [
        {
          "internalType": "address",
          "name": "_FAH",
          "type": "address"
        },
        {
          "internalType": "address",
          "name": "_CS_Case",
          "type": "address"
        },
        {
          "internalType": "address",
          "name": "_Sushi",
          "type": "address"
        }
      ],
      "name": "setContracts",
      "outputs": [],
      "stateMutability": "nonpayable",
      "type": "function"
    },
    {
      "inputs": [
        {
          "internalType": "uint256",
          "name": "_score",
          "type": "uint256"
        },
        {
          "internalType": "string",
          "name": "_id",
          "type": "string"
        }
      ],
      "name": "signUp",
      "outputs": [],
      "stateMutability": "nonpayable",
      "type": "function"
    },
    {
      "inputs": [],
      "name": "skinCount",
      "outputs": [
        {
          "internalType": "uint256",
          "name": "",
          "type": "uint256"
        }
      ],
      "stateMutability": "view",
      "type": "function"
    },
    {
      "inputs": [
        {
          "internalType": "uint256",
          "name": "",
          "type": "uint256"
        }
      ],
      "name": "skinQuantities",
      "outputs": [
        {
          "internalType": "uint256",
          "name": "",
          "type": "uint256"
        }
      ],
      "stateMutability": "view",
      "type": "function"
    },
    {
      "inputs": [
        {
          "internalType": "bytes4",
          "name": "interfaceId",
          "type": "bytes4"
        }
      ],
      "name": "supportsInterface",
      "outputs": [
        {
          "internalType": "bool",
          "name": "",
          "type": "bool"
        }
      ],
      "stateMutability": "view",
      "type": "function"
    },
    {
      "inputs": [],
      "name": "uniqueSkinCount",
      "outputs": [
        {
          "internalType": "uint256",
          "name": "",
          "type": "uint256"
        }
      ],
      "stateMutability": "view",
      "type": "function"
    },
    {
      "inputs": [],
      "name": "unpause",
      "outputs": [],
      "stateMutability": "nonpayable",
      "type": "function"
    },
    {
      "inputs": [
        {
          "internalType": "uint256",
          "name": "_score",
          "type": "uint256"
        },
        {
          "internalType": "string",
          "name": "_id",
          "type": "string"
        }
      ],
      "name": "updateScore",
      "outputs": [],
      "stateMutability": "nonpayable",
      "type": "function"
    },
    {
      "inputs": [
        {
          "internalType": "uint256",
          "name": "",
          "type": "uint256"
        }
      ],
      "name": "uri",
      "outputs": [
        {
          "internalType": "string",
          "name": "",
          "type": "string"
        }
      ],
      "stateMutability": "view",
      "type": "function"
    },
    {
      "inputs": [
        {
          "internalType": "string",
          "name": "_id",
          "type": "string"
        }
      ],
      "name": "userExists",
      "outputs": [
        {
          "internalType": "bool",
          "name": "",
          "type": "bool"
        }
      ],
      "stateMutability": "view",
      "type": "function"
    }
  ],
  "bytecode": "0x60806040526000600c556000600d553480156200001b57600080fd5b5060405180602001604052806000815250806200006e7f9f2df0fed2c77648de5860a4cc508cd0818c85b8b8a1ab4ceeef8d981c8956a6620000626200016c60201b60201c565b6200017460201b60201c565b6200007f81620001bc60201b60201c565b506000600a60006101000a81548160ff021916908315150217905550620000bf6000801b620000b36200016c60201b60201c565b6200017460201b60201c565b620001007f9f2df0fed2c77648de5860a4cc508cd0818c85b8b8a1ab4ceeef8d981c8956a6620000f46200016c60201b60201c565b6200017460201b60201c565b620001417f65d7a28e3265b37a6474929f336521b332c1681b933f6cb9f3376673440d862a620001356200016c60201b60201c565b6200017460201b60201c565b50620001666000801b6200015a6200016c60201b60201c565b620001d860201b60201c565b62000d12565b600033905090565b6200018b82826200022060201b620020361760201c565b620001b781600260008581526020019081526020016000206200023660201b620020441790919060201c565b505050565b8060099080519060200190620001d4929190620008a3565b5050565b620001ef82826200026e60201b620020741760201c565b6200021b81600260008581526020019081526020016000206200023660201b620020441790919060201c565b505050565b620002328282620002b760201b60201c565b5050565b600062000266836000018373ffffffffffffffffffffffffffffffffffffffff1660001b620003a860201b60201c565b905092915050565b6200027f826200042260201b60201c565b620002a081620002946200016c60201b60201c565b6200044260201b60201c565b620002b28383620002b760201b60201c565b505050565b620002c982826200050660201b60201c565b620003a457600180600084815260200190815260200160002060000160008373ffffffffffffffffffffffffffffffffffffffff1673ffffffffffffffffffffffffffffffffffffffff16815260200190815260200160002060006101000a81548160ff021916908315150217905550620003496200016c60201b60201c565b73ffffffffffffffffffffffffffffffffffffffff168173ffffffffffffffffffffffffffffffffffffffff16837f2f8788117e7eff1d82e926ec794901d17c78024a50270940304540a733656f0d60405160405180910390a45b5050565b6000620003bc83836200057160201b60201c565b620004175782600001829080600181540180825580915050600190039060005260206000200160009091909190915055826000018054905083600101600084815260200190815260200160002081905550600190506200041c565b600090505b92915050565b600060016000838152602001908152602001600020600101549050919050565b6200045482826200050660201b60201c565b6200050257620004878173ffffffffffffffffffffffffffffffffffffffff1660146200059460201b6200209d1760201c565b620004a28360001c60206200059460201b6200209d1760201c565b604051602001620004b592919062000a91565b6040516020818303038152906040526040517f08c379a0000000000000000000000000000000000000000000000000000000008152600401620004f9919062000ad3565b60405180910390fd5b5050565b60006001600084815260200190815260200160002060000160008373ffffffffffffffffffffffffffffffffffffffff1673ffffffffffffffffffffffffffffffffffffffff16815260200190815260200160002060009054906101000a900460ff16905092915050565b600080836001016000848152602001908152602001600020541415905092915050565b606060006002836002620005a9919062000b9d565b620005b5919062000b40565b67ffffffffffffffff811115620005f5577f4e487b7100000000000000000000000000000000000000000000000000000000600052604160045260246000fd5b6040519080825280601f01601f191660200182016040528015620006285781602001600182028036833780820191505090505b5090507f30000000000000000000000000000000000000000000000000000000000000008160008151811062000687577f4e487b7100000000000000000000000000000000000000000000000000000000600052603260045260246000fd5b60200101907effffffffffffffffffffffffffffffffffffffffffffffffffffffffffffff1916908160001a9053507f78000000000000000000000000000000000000000000000000000000000000008160018151811062000712577f4e487b7100000000000000000000000000000000000000000000000000000000600052603260045260246000fd5b60200101907effffffffffffffffffffffffffffffffffffffffffffffffffffffffffffff1916908160001a9053506000600184600262000754919062000b9d565b62000760919062000b40565b90505b600181111562000852577f3031323334353637383961626364656600000000000000000000000000000000600f861660108110620007ca577f4e487b7100000000000000000000000000000000000000000000000000000000600052603260045260246000fd5b1a60f81b82828151811062000808577f4e487b7100000000000000000000000000000000000000000000000000000000600052603260045260246000fd5b60200101907effffffffffffffffffffffffffffffffffffffffffffffffffffffffffffff1916908160001a905350600485901c9450806200084a9062000c3e565b905062000763565b506000841462000899576040517f08c379a0000000000000000000000000000000000000000000000000000000008152600401620008909062000af7565b60405180910390fd5b8091505092915050565b828054620008b19062000c6d565b90600052602060002090601f016020900481019282620008d5576000855562000921565b82601f10620008f057805160ff191683800117855562000921565b8280016001018555821562000921579182015b828111156200092057825182559160200191906001019062000903565b5b50905062000930919062000934565b5090565b5b808211156200094f57600081600090555060010162000935565b5090565b6000620009608262000b19565b6200096c818562000b24565b93506200097e81856020860162000c08565b620009898162000d01565b840191505092915050565b6000620009a18262000b19565b620009ad818562000b35565b9350620009bf81856020860162000c08565b80840191505092915050565b6000620009da60208362000b24565b91507f537472696e67733a20686578206c656e67746820696e73756666696369656e746000830152602082019050919050565b600062000a1c60178362000b35565b91507f416363657373436f6e74726f6c3a206163636f756e74200000000000000000006000830152601782019050919050565b600062000a5e60118362000b35565b91507f206973206d697373696e6720726f6c65200000000000000000000000000000006000830152601182019050919050565b600062000a9e8262000a0d565b915062000aac828562000994565b915062000ab98262000a4f565b915062000ac7828462000994565b91508190509392505050565b6000602082019050818103600083015262000aef818462000953565b905092915050565b6000602082019050818103600083015262000b1281620009cb565b9050919050565b600081519050919050565b600082825260208201905092915050565b600081905092915050565b600062000b4d8262000bfe565b915062000b5a8362000bfe565b9250827fffffffffffffffffffffffffffffffffffffffffffffffffffffffffffffffff0382111562000b925762000b9162000ca3565b5b828201905092915050565b600062000baa8262000bfe565b915062000bb78362000bfe565b9250817fffffffffffffffffffffffffffffffffffffffffffffffffffffffffffffffff048311821515161562000bf35762000bf262000ca3565b5b828202905092915050565b6000819050919050565b60005b8381101562000c2857808201518184015260208101905062000c0b565b8381111562000c38576000848401525b50505050565b600062000c4b8262000bfe565b9150600082141562000c625762000c6162000ca3565b5b600182039050919050565b6000600282049050600182168062000c8657607f821691505b6020821081141562000c9d5762000c9c62000cd2565b5b50919050565b7f4e487b7100000000000000000000000000000000000000000000000000000000600052601160045260246000fd5b7f4e487b7100000000000000000000000000000000000000000000000000000000600052602260045260246000fd5b6000601f19601f8301169050919050565b61606f8062000d226000396000f3fe608060405234801561001057600080fd5b506004361061023c5760003560e01c80638456cb591161013b578063d179277d116100b8578063e985e9c51161007c578063e985e9c5146106e7578063f23a6e6114610717578063f242432a14610747578063f5298aca14610763578063fddc968e1461077f5761023c565b8063d179277d14610657578063d539139314610673578063d547741f14610691578063e5c7920f146106ad578063e63ab1e9146106c95761023c565b8063b3066d49116100ff578063b3066d491461057b578063bc197c8114610597578063bf40fac1146105c7578063ca15c873146105f7578063cebe801f146106275761023c565b80638456cb59146104d75780639010d07c146104e157806391d1485414610511578063a217fddf14610541578063a22cb4651461055f5761023c565b80632f2ff15d116101c95780636b20c4541161018d5780636b20c45414610445578063731133e91461046157806373e3bfbd1461047d578063780410431461049b5780637abf0125146104b95761023c565b80632f2ff15d146103b557806336568abe146103d15780633f4ba83a146103ed5780634e1273f4146103f75780635c975abb146104275761023c565b8063160202731161021057806316020273146103015780631f7fdffa14610331578063248a9ca31461034d5780632bf4ec851461037d5780632eb2c2d6146103995761023c565b8062fdd58e1461024157806301ffc9a714610271578063077b0e4d146102a15780630e89341c146102d1575b600080fd5b61025b60048036038101906102569190614536565b6107af565b6040516102689190615a4a565b60405180910390f35b61028b60048036038101906102869190614749565b610879565b6040516102989190615637565b60405180910390f35b6102bb60048036038101906102b691906147dc565b61088b565b6040516102c89190615a4a565b60405180910390f35b6102eb60048036038101906102e691906147dc565b610920565b6040516102f89190615688565b60405180910390f35b61031b6004803603810190610316919061479b565b6109b4565b6040516103289190615a4a565b60405180910390f35b61034b6004803603810190610346919061444f565b610a27565b005b610367600480360381019061036291906146a8565b610aa9565b6040516103749190615652565b60405180910390f35b6103976004803603810190610392919061482e565b610ac9565b005b6103b360048036038101906103ae9190614282565b610c25565b005b6103cf60048036038101906103ca91906146d1565b61101e565b005b6103eb60048036038101906103e691906146d1565b611052565b005b6103f5611086565b005b610411600480360381019061040c919061463c565b611100565b60405161041e91906155de565b60405180910390f35b61042f6112b1565b60405161043c9190615637565b60405180910390f35b61045f600480360381019061045a91906143d0565b6112c8565b005b61047b600480360381019061047691906145c1565b611365565b005b6104856113e7565b6040516104929190615652565b60405180910390f35b6104a361140b565b6040516104b09190615a4a565b60405180910390f35b6104c1611411565b6040516104ce9190615a4a565b60405180910390f35b6104df611417565b005b6104fb60048036038101906104f6919061470d565b611491565b60405161050891906154d8565b60405180910390f35b61052b600480360381019061052691906146d1565b6114c0565b6040516105389190615637565b60405180910390f35b61054961152b565b6040516105569190615652565b60405180910390f35b610579600480360381019061057491906144fa565b611532565b005b61059560048036038101906105909190614233565b6116b3565b005b6105b160048036038101906105ac9190614282565b611949565b6040516105be919061566d565b60405180910390f35b6105e160048036038101906105dc919061479b565b61195e565b6040516105ee91906154d8565b60405180910390f35b610611600480360381019061060c91906146a8565b6119f1565b60405161061e9190615a4a565b60405180910390f35b610641600480360381019061063c91906147dc565b611a15565b60405161064e9190615a4a565b60405180910390f35b610671600480360381019061066c919061482e565b611a39565b005b61067b611a55565b6040516106889190615652565b60405180910390f35b6106ab60048036038101906106a691906146d1565b611a79565b005b6106c760048036038101906106c291906147dc565b611aad565b005b6106d1611b7a565b6040516106de9190615652565b60405180910390f35b61070160048036038101906106fc91906141f7565b611b9e565b60405161070e9190615637565b60405180910390f35b610731600480360381019061072c9190614341565b611c32565b60405161073e919061566d565b60405180910390f35b610761600480360381019061075c9190614341565b611c47565b005b61077d60048036038101906107789190614572565b611f62565b005b6107996004803603810190610794919061479b565b611fff565b6040516107a69190615637565b60405180910390f35b60008073ffffffffffffffffffffffffffffffffffffffff168373ffffffffffffffffffffffffffffffffffffffff161415610820576040517f08c379a00000000000000000000000000000000000000000000000000000000081526004016108179061578a565b60405180910390fd5b6007600083815260200190815260200160002060008473ffffffffffffffffffffffffffffffffffffffff1673ffffffffffffffffffffffffffffffffffffffff16815260200190815260200160002054905092915050565b600061088482612397565b9050919050565b6000600b8054905082106108d4576040517f08c379a00000000000000000000000000000000000000000000000000000000081526004016108cb9061574a565b60405180910390fd5b600b828154811061090e577f4e487b7100000000000000000000000000000000000000000000000000000000600052603260045260246000fd5b90600052602060002001549050919050565b60606009805461092f90615dea565b80601f016020809104026020016040519081016040528092919081815260200182805461095b90615dea565b80156109a85780601f1061097d576101008083540402835291602001916109a8565b820191906000526020600020905b81548152906001019060200180831161098b57829003601f168201915b50505050509050919050565b60006109bf82611fff565b6109fe576040517f08c379a00000000000000000000000000000000000000000000000000000000081526004016109f59061594a565b60405180910390fd5b600082604051610a0e9190615487565b9081526020016040518091039020600101549050919050565b610a587f9f2df0fed2c77648de5860a4cc508cd0818c85b8b8a1ab4ceeef8d981c8956a6610a53612411565b6114c0565b610a97576040517f08c379a0000000000000000000000000000000000000000000000000000000008152600401610a8e906158ea565b60405180910390fd5b610aa384848484612419565b50505050565b600060016000838152602001908152602001600020600101549050919050565b610ad281611fff565b15610b12576040517f08c379a0000000000000000000000000000000000000000000000000000000008152600401610b099061580a565b60405180910390fd5b81600082604051610b239190615487565b9081526020016040518091039020600101819055506001600082604051610b4a9190615487565b908152602001604051809103902060000160006101000a81548160ff021916908315150217905550610b7a612411565b600082604051610b8a9190615487565b908152602001604051809103902060020160006101000a81548173ffffffffffffffffffffffffffffffffffffffff021916908373ffffffffffffffffffffffffffffffffffffffff160217905550610be281611fff565b610c21576040517f08c379a0000000000000000000000000000000000000000000000000000000008152600401610c189061594a565b60405180910390fd5b5050565b8151835114610c69576040517f08c379a0000000000000000000000000000000000000000000000000000000008152600401610c60906159ca565b60405180910390fd5b600073ffffffffffffffffffffffffffffffffffffffff168473ffffffffffffffffffffffffffffffffffffffff161415610cd9576040517f08c379a0000000000000000000000000000000000000000000000000000000008152600401610cd09061586a565b60405180910390fd5b610ce1612411565b73ffffffffffffffffffffffffffffffffffffffff168573ffffffffffffffffffffffffffffffffffffffff161480610d275750610d2685610d21612411565b611b9e565b5b610d66576040517f08c379a0000000000000000000000000000000000000000000000000000000008152600401610d5d9061588a565b60405180910390fd5b6000610d70612411565b9050610d80818787878787612684565b60005b8451811015610f89576000858281518110610dc7577f4e487b7100000000000000000000000000000000000000000000000000000000600052603260045260246000fd5b602002602001015190506000858381518110610e0c577f4e487b7100000000000000000000000000000000000000000000000000000000600052603260045260246000fd5b6020026020010151905060006007600084815260200190815260200160002060008b73ffffffffffffffffffffffffffffffffffffffff1673ffffffffffffffffffffffffffffffffffffffff16815260200190815260200160002054905081811015610eae576040517f08c379a0000000000000000000000000000000000000000000000000000000008152600401610ea59061590a565b60405180910390fd5b8181610eba9190615ccc565b6007600085815260200190815260200160002060008c73ffffffffffffffffffffffffffffffffffffffff1673ffffffffffffffffffffffffffffffffffffffff16815260200190815260200160002081905550816007600085815260200190815260200160002060008b73ffffffffffffffffffffffffffffffffffffffff1673ffffffffffffffffffffffffffffffffffffffff1681526020019081526020016000206000828254610f6e9190615c1c565b9250508190555050505080610f8290615e1c565b9050610d83565b508473ffffffffffffffffffffffffffffffffffffffff168673ffffffffffffffffffffffffffffffffffffffff168273ffffffffffffffffffffffffffffffffffffffff167f4a39dc06d4c0dbc64b70af90fd698a233a518aa5d07e595d983b8c0526c8f7fb8787604051611000929190615600565b60405180910390a461101681878787878761269a565b505050505050565b6110288282612074565b61104d816002600085815260200190815260200160002061204490919063ffffffff16565b505050565b61105c828261286a565b61108181600260008581526020019081526020016000206128ed90919063ffffffff16565b505050565b6110b77f65d7a28e3265b37a6474929f336521b332c1681b933f6cb9f3376673440d862a6110b2612411565b6114c0565b6110f6576040517f08c379a00000000000000000000000000000000000000000000000000000000081526004016110ed9061592a565b60405180910390fd5b6110fe61291d565b565b60608151835114611146576040517f08c379a000000000000000000000000000000000000000000000000000000000815260040161113d906159aa565b60405180910390fd5b6000835167ffffffffffffffff811115611189577f4e487b7100000000000000000000000000000000000000000000000000000000600052604160045260246000fd5b6040519080825280602002602001820160405280156111b75781602001602082028036833780820191505090505b50905060005b84518110156112a657611250858281518110611202577f4e487b7100000000000000000000000000000000000000000000000000000000600052603260045260246000fd5b6020026020010151858381518110611243577f4e487b7100000000000000000000000000000000000000000000000000000000600052603260045260246000fd5b60200260200101516107af565b828281518110611289577f4e487b7100000000000000000000000000000000000000000000000000000000600052603260045260246000fd5b6020026020010181815250508061129f90615e1c565b90506111bd565b508091505092915050565b6000600a60009054906101000a900460ff16905090565b6112d0612411565b73ffffffffffffffffffffffffffffffffffffffff168373ffffffffffffffffffffffffffffffffffffffff161480611316575061131583611310612411565b611b9e565b5b611355576040517f08c379a000000000000000000000000000000000000000000000000000000000815260040161134c906157ea565b60405180910390fd5b6113608383836129bf565b505050565b6113967f9f2df0fed2c77648de5860a4cc508cd0818c85b8b8a1ab4ceeef8d981c8956a6611391612411565b6114c0565b6113d5576040517f08c379a00000000000000000000000000000000000000000000000000000000081526004016113cc906158ea565b60405180910390fd5b6113e184848484612cc7565b50505050565b7f9f2df0fed2c77648de5860a4cc508cd0818c85b8b8a1ab4ceeef8d981c8956a681565b600c5481565b600d5481565b6114487f65d7a28e3265b37a6474929f336521b332c1681b933f6cb9f3376673440d862a611443612411565b6114c0565b611487576040517f08c379a000000000000000000000000000000000000000000000000000000000815260040161147e9061596a565b60405180910390fd5b61148f612e5e565b565b60006114b88260026000868152602001908152602001600020612f0190919063ffffffff16565b905092915050565b60006001600084815260200190815260200160002060000160008373ffffffffffffffffffffffffffffffffffffffff1673ffffffffffffffffffffffffffffffffffffffff16815260200190815260200160002060009054906101000a900460ff16905092915050565b6000801b81565b8173ffffffffffffffffffffffffffffffffffffffff16611551612411565b73ffffffffffffffffffffffffffffffffffffffff1614156115a8576040517f08c379a000000000000000000000000000000000000000000000000000000000815260040161159f9061598a565b60405180910390fd5b80600860006115b5612411565b73ffffffffffffffffffffffffffffffffffffffff1673ffffffffffffffffffffffffffffffffffffffff16815260200190815260200160002060008473ffffffffffffffffffffffffffffffffffffffff1673ffffffffffffffffffffffffffffffffffffffff16815260200190815260200160002060006101000a81548160ff0219169083151502179055508173ffffffffffffffffffffffffffffffffffffffff16611662612411565b73ffffffffffffffffffffffffffffffffffffffff167f17307eab39ab6107e8899845ad3d59bd9653f200f220920489ca2b5937696c31836040516116a79190615637565b60405180910390a35050565b6116e47f9f2df0fed2c77648de5860a4cc508cd0818c85b8b8a1ab4ceeef8d981c8956a66116df612411565b6114c0565b611723576040517f08c379a000000000000000000000000000000000000000000000000000000000815260040161171a90615a0a565b60405180910390fd5b82600360006101000a81548173ffffffffffffffffffffffffffffffffffffffff021916908373ffffffffffffffffffffffffffffffffffffffff16021790555081600460006101000a81548173ffffffffffffffffffffffffffffffffffffffff021916908373ffffffffffffffffffffffffffffffffffffffff16021790555080600560006101000a81548173ffffffffffffffffffffffffffffffffffffffff021916908373ffffffffffffffffffffffffffffffffffffffff160217905550600560009054906101000a900473ffffffffffffffffffffffffffffffffffffffff1673ffffffffffffffffffffffffffffffffffffffff1663c9c6539684846040518363ffffffff1660e01b81526004016118439291906154f3565b602060405180830381600087803b15801561185d57600080fd5b505af1158015611871573d6000803e3d6000fd5b505050506040513d601f19601f8201168201806040525081019061189591906141ce565b50600560009054906101000a900473ffffffffffffffffffffffffffffffffffffffff1673ffffffffffffffffffffffffffffffffffffffff1663e6a4390584846040518363ffffffff1660e01b81526004016118f39291906154f3565b60206040518083038186803b15801561190b57600080fd5b505afa15801561191f573d6000803e3d6000fd5b505050506040513d601f19601f8201168201806040525081019061194391906141ce565b50505050565b600063bc197c8160e01b905095945050505050565b600061196982611fff565b6119a8576040517f08c379a000000000000000000000000000000000000000000000000000000000815260040161199f9061594a565b60405180910390fd5b6000826040516119b89190615487565b908152602001604051809103902060020160009054906101000a900473ffffffffffffffffffffffffffffffffffffffff169050919050565b6000611a0e60026000848152602001908152602001600020612f1b565b9050919050565b600b8181548110611a2557600080fd5b906000526020600020016000915090505481565b6000611a458383612f30565b9050611a5081613024565b505050565b7f9f2df0fed2c77648de5860a4cc508cd0818c85b8b8a1ab4ceeef8d981c8956a681565b611a83828261325d565b611aa881600260008581526020019081526020016000206128ed90919063ffffffff16565b505050565b611ac16000801b611abc612411565b6114c0565b611b00576040517f08c379a0000000000000000000000000000000000000000000000000000000008152600401611af79061576a565b60405180910390fd5b611b1d30600d548360405180602001604052806000815250611365565b600d6000815480929190611b3090615e1c565b919050555080600c6000828254611b479190615c1c565b92505081905550600b81908060018154018082558091505060019003906000526020600020016000909190919091505550565b7f65d7a28e3265b37a6474929f336521b332c1681b933f6cb9f3376673440d862a81565b6000600860008473ffffffffffffffffffffffffffffffffffffffff1673ffffffffffffffffffffffffffffffffffffffff16815260200190815260200160002060008373ffffffffffffffffffffffffffffffffffffffff1673ffffffffffffffffffffffffffffffffffffffff16815260200190815260200160002060009054906101000a900460ff16905092915050565b600063f23a6e6160e01b905095945050505050565b600073ffffffffffffffffffffffffffffffffffffffff168473ffffffffffffffffffffffffffffffffffffffff161415611cb7576040517f08c379a0000000000000000000000000000000000000000000000000000000008152600401611cae9061586a565b60405180910390fd5b611cbf612411565b73ffffffffffffffffffffffffffffffffffffffff168573ffffffffffffffffffffffffffffffffffffffff161480611d055750611d0485611cff612411565b611b9e565b5b611d44576040517f08c379a0000000000000000000000000000000000000000000000000000000008152600401611d3b906157ea565b60405180910390fd5b6000611d4e612411565b9050611d6e818787611d5f88613286565b611d6888613286565b87612684565b60006007600086815260200190815260200160002060008873ffffffffffffffffffffffffffffffffffffffff1673ffffffffffffffffffffffffffffffffffffffff16815260200190815260200160002054905083811015611e06576040517f08c379a0000000000000000000000000000000000000000000000000000000008152600401611dfd9061590a565b60405180910390fd5b8381611e129190615ccc565b6007600087815260200190815260200160002060008973ffffffffffffffffffffffffffffffffffffffff1673ffffffffffffffffffffffffffffffffffffffff16815260200190815260200160002081905550836007600087815260200190815260200160002060008873ffffffffffffffffffffffffffffffffffffffff1673ffffffffffffffffffffffffffffffffffffffff1681526020019081526020016000206000828254611ec69190615c1c565b925050819055508573ffffffffffffffffffffffffffffffffffffffff168773ffffffffffffffffffffffffffffffffffffffff168373ffffffffffffffffffffffffffffffffffffffff167fc3d58168c5ae7397731d063d5bbf3d657854427343f4c083240f7aacaa2d0f628888604051611f43929190615a8e565b60405180910390a4611f5982888888888861334c565b50505050505050565b611f6a612411565b73ffffffffffffffffffffffffffffffffffffffff168373ffffffffffffffffffffffffffffffffffffffff161480611fb05750611faf83611faa612411565b611b9e565b5b611fef576040517f08c379a0000000000000000000000000000000000000000000000000000000008152600401611fe6906157ea565b60405180910390fd5b611ffa83838361351c565b505050565b600080826040516120109190615487565b908152602001604051809103902060000160009054906101000a900460ff169050919050565b6120408282613744565b5050565b600061206c836000018373ffffffffffffffffffffffffffffffffffffffff1660001b613824565b905092915050565b61207d82610aa9565b61208e81612089612411565b613894565b6120988383613744565b505050565b6060600060028360026120b09190615c72565b6120ba9190615c1c565b67ffffffffffffffff8111156120f9577f4e487b7100000000000000000000000000000000000000000000000000000000600052604160045260246000fd5b6040519080825280601f01601f19166020018201604052801561212b5781602001600182028036833780820191505090505b5090507f300000000000000000000000000000000000000000000000000000000000000081600081518110612189577f4e487b7100000000000000000000000000000000000000000000000000000000600052603260045260246000fd5b60200101907effffffffffffffffffffffffffffffffffffffffffffffffffffffffffffff1916908160001a9053507f780000000000000000000000000000000000000000000000000000000000000081600181518110612213577f4e487b7100000000000000000000000000000000000000000000000000000000600052603260045260246000fd5b60200101907effffffffffffffffffffffffffffffffffffffffffffffffffffffffffffff1916908160001a905350600060018460026122539190615c72565b61225d9190615c1c565b90505b6001811115612349577f3031323334353637383961626364656600000000000000000000000000000000600f8616601081106122c5577f4e487b7100000000000000000000000000000000000000000000000000000000600052603260045260246000fd5b1a60f81b828281518110612302577f4e487b7100000000000000000000000000000000000000000000000000000000600052603260045260246000fd5b60200101907effffffffffffffffffffffffffffffffffffffffffffffffffffffffffffff1916908160001a905350600485901c94508061234290615dc0565b9050612260565b506000841461238d576040517f08c379a0000000000000000000000000000000000000000000000000000000008152600401612384906156ea565b60405180910390fd5b8091505092915050565b60007f4e2312e0000000000000000000000000000000000000000000000000000000007bffffffffffffffffffffffffffffffffffffffffffffffffffffffff1916827bffffffffffffffffffffffffffffffffffffffffffffffffffffffff1916148061240a575061240982613931565b5b9050919050565b600033905090565b600073ffffffffffffffffffffffffffffffffffffffff168473ffffffffffffffffffffffffffffffffffffffff161415612489576040517f08c379a0000000000000000000000000000000000000000000000000000000008152600401612480906159ea565b60405180910390fd5b81518351146124cd576040517f08c379a00000000000000000000000000000000000000000000000000000000081526004016124c4906159ca565b60405180910390fd5b60006124d7612411565b90506124e881600087878787612684565b60005b84518110156125ee5783818151811061252d577f4e487b7100000000000000000000000000000000000000000000000000000000600052603260045260246000fd5b602002602001015160076000878481518110612572577f4e487b7100000000000000000000000000000000000000000000000000000000600052603260045260246000fd5b6020026020010151815260200190815260200160002060008873ffffffffffffffffffffffffffffffffffffffff1673ffffffffffffffffffffffffffffffffffffffff16815260200190815260200160002060008282546125d49190615c1c565b9250508190555080806125e690615e1c565b9150506124eb565b508473ffffffffffffffffffffffffffffffffffffffff16600073ffffffffffffffffffffffffffffffffffffffff168273ffffffffffffffffffffffffffffffffffffffff167f4a39dc06d4c0dbc64b70af90fd698a233a518aa5d07e595d983b8c0526c8f7fb8787604051612666929190615600565b60405180910390a461267d8160008787878761269a565b5050505050565b612692868686868686613943565b505050505050565b6126b98473ffffffffffffffffffffffffffffffffffffffff166139a1565b15612862578373ffffffffffffffffffffffffffffffffffffffff1663bc197c8187878686866040518663ffffffff1660e01b81526004016126ff95949392919061551c565b602060405180830381600087803b15801561271957600080fd5b505af192505050801561274a57506040513d601f19601f820116820180604052508101906127479190614772565b60015b6127d957612756615f10565b80612761575061279e565b806040517f08c379a00000000000000000000000000000000000000000000000000000000081526004016127959190615688565b60405180910390fd5b6040517f08c379a00000000000000000000000000000000000000000000000000000000081526004016127d0906156aa565b60405180910390fd5b63bc197c8160e01b7bffffffffffffffffffffffffffffffffffffffffffffffffffffffff1916817bffffffffffffffffffffffffffffffffffffffffffffffffffffffff191614612860576040517f08c379a00000000000000000000000000000000000000000000000000000000081526004016128579061570a565b60405180910390fd5b505b505050505050565b612872612411565b73ffffffffffffffffffffffffffffffffffffffff168173ffffffffffffffffffffffffffffffffffffffff16146128df576040517f08c379a00000000000000000000000000000000000000000000000000000000081526004016128d690615a2a565b60405180910390fd5b6128e982826139b4565b5050565b6000612915836000018373ffffffffffffffffffffffffffffffffffffffff1660001b613a96565b905092915050565b6129256112b1565b612964576040517f08c379a000000000000000000000000000000000000000000000000000000000815260040161295b9061572a565b60405180910390fd5b6000600a60006101000a81548160ff0219169083151502179055507f5db9ee0a495bf2e6ff9c91a7834c1ba4fdd244a5e8aa4e537bd38aeae4b073aa6129a8612411565b6040516129b591906154d8565b60405180910390a1565b600073ffffffffffffffffffffffffffffffffffffffff168373ffffffffffffffffffffffffffffffffffffffff161415612a2f576040517f08c379a0000000000000000000000000000000000000000000000000000000008152600401612a26906158ca565b60405180910390fd5b8051825114612a73576040517f08c379a0000000000000000000000000000000000000000000000000000000008152600401612a6a906159ca565b60405180910390fd5b6000612a7d612411565b9050612a9d81856000868660405180602001604052806000815250612684565b60005b8351811015612c41576000848281518110612ae4577f4e487b7100000000000000000000000000000000000000000000000000000000600052603260045260246000fd5b602002602001015190506000848381518110612b29577f4e487b7100000000000000000000000000000000000000000000000000000000600052603260045260246000fd5b6020026020010151905060006007600084815260200190815260200160002060008973ffffffffffffffffffffffffffffffffffffffff1673ffffffffffffffffffffffffffffffffffffffff16815260200190815260200160002054905081811015612bcb576040517f08c379a0000000000000000000000000000000000000000000000000000000008152600401612bc2906157aa565b60405180910390fd5b8181612bd79190615ccc565b6007600085815260200190815260200160002060008a73ffffffffffffffffffffffffffffffffffffffff1673ffffffffffffffffffffffffffffffffffffffff168152602001908152602001600020819055505050508080612c3990615e1c565b915050612aa0565b50600073ffffffffffffffffffffffffffffffffffffffff168473ffffffffffffffffffffffffffffffffffffffff168273ffffffffffffffffffffffffffffffffffffffff167f4a39dc06d4c0dbc64b70af90fd698a233a518aa5d07e595d983b8c0526c8f7fb8686604051612cb9929190615600565b60405180910390a450505050565b600073ffffffffffffffffffffffffffffffffffffffff168473ffffffffffffffffffffffffffffffffffffffff161415612d37576040517f08c379a0000000000000000000000000000000000000000000000000000000008152600401612d2e906159ea565b60405180910390fd5b6000612d41612411565b9050612d6281600087612d5388613286565b612d5c88613286565b87612684565b826007600086815260200190815260200160002060008773ffffffffffffffffffffffffffffffffffffffff1673ffffffffffffffffffffffffffffffffffffffff1681526020019081526020016000206000828254612dc29190615c1c565b925050819055508473ffffffffffffffffffffffffffffffffffffffff16600073ffffffffffffffffffffffffffffffffffffffff168273ffffffffffffffffffffffffffffffffffffffff167fc3d58168c5ae7397731d063d5bbf3d657854427343f4c083240f7aacaa2d0f628787604051612e40929190615a8e565b60405180910390a4612e578160008787878761334c565b5050505050565b612e666112b1565b15612ea6576040517f08c379a0000000000000000000000000000000000000000000000000000000008152600401612e9d9061582a565b60405180910390fd5b6001600a60006101000a81548160ff0219169083151502179055507f62e78cea01bee320cd4e420270b5ea74000d11b0c9f74754ebdbfc544b05a258612eea612411565b604051612ef791906154d8565b60405180910390a1565b6000612f108360000183613c14565b60001c905092915050565b6000612f2982600001613cae565b9050919050565b6000612f3b82611fff565b612f7a576040517f08c379a0000000000000000000000000000000000000000000000000000000008152600401612f719061594a565b60405180910390fd5b82612f84836109b4565b10612fc4576040517f08c379a0000000000000000000000000000000000000000000000000000000008152600401612fbb9061584a565b60405180910390fd5b60008083604051612fd59190615487565b90815260200160405180910390206001015484612ff29190615ccc565b9050836000846040516130059190615487565b9081526020016040518091039020600101819055508091505092915050565b6000600360009054906101000a900473ffffffffffffffffffffffffffffffffffffffff1673ffffffffffffffffffffffffffffffffffffffff166370a08231306040518263ffffffff1660e01b815260040161308191906154d8565b60206040518083038186803b15801561309957600080fd5b505afa1580156130ad573d6000803e3d6000fd5b505050506040513d601f19601f820116820180604052508101906130d19190614805565b9050600360009054906101000a900473ffffffffffffffffffffffffffffffffffffffff1673ffffffffffffffffffffffffffffffffffffffff166339a8c66183306040518363ffffffff1660e01b8152600401613130929190615a65565b600060405180830381600087803b15801561314a57600080fd5b505af115801561315e573d6000803e3d6000fd5b505050508181600360009054906101000a900473ffffffffffffffffffffffffffffffffffffffff1673ffffffffffffffffffffffffffffffffffffffff166370a08231306040518263ffffffff1660e01b81526004016131bf91906154d8565b60206040518083038186803b1580156131d757600080fd5b505afa1580156131eb573d6000803e3d6000fd5b505050506040513d601f19601f8201168201806040525081019061320f9190614805565b6132199190615ccc565b14613259576040517f08c379a0000000000000000000000000000000000000000000000000000000008152600401613250906158aa565b60405180910390fd5b5050565b61326682610aa9565b61327781613272612411565b613894565b61328183836139b4565b505050565b60606000600167ffffffffffffffff8111156132cb577f4e487b7100000000000000000000000000000000000000000000000000000000600052604160045260246000fd5b6040519080825280602002602001820160405280156132f95781602001602082028036833780820191505090505b5090508281600081518110613337577f4e487b7100000000000000000000000000000000000000000000000000000000600052603260045260246000fd5b60200260200101818152505080915050919050565b61336b8473ffffffffffffffffffffffffffffffffffffffff166139a1565b15613514578373ffffffffffffffffffffffffffffffffffffffff1663f23a6e6187878686866040518663ffffffff1660e01b81526004016133b1959493929190615584565b602060405180830381600087803b1580156133cb57600080fd5b505af19250505080156133fc57506040513d601f19601f820116820180604052508101906133f99190614772565b60015b61348b57613408615f10565b806134135750613450565b806040517f08c379a00000000000000000000000000000000000000000000000000000000081526004016134479190615688565b60405180910390fd5b6040517f08c379a0000000000000000000000000000000000000000000000000000000008152600401613482906156aa565b60405180910390fd5b63f23a6e6160e01b7bffffffffffffffffffffffffffffffffffffffffffffffffffffffff1916817bffffffffffffffffffffffffffffffffffffffffffffffffffffffff191614613512576040517f08c379a00000000000000000000000000000000000000000000000000000000081526004016135099061570a565b60405180910390fd5b505b505050505050565b600073ffffffffffffffffffffffffffffffffffffffff168373ffffffffffffffffffffffffffffffffffffffff16141561358c576040517f08c379a0000000000000000000000000000000000000000000000000000000008152600401613583906158ca565b60405180910390fd5b6000613596612411565b90506135c6818560006135a887613286565b6135b187613286565b60405180602001604052806000815250612684565b60006007600085815260200190815260200160002060008673ffffffffffffffffffffffffffffffffffffffff1673ffffffffffffffffffffffffffffffffffffffff1681526020019081526020016000205490508281101561365e576040517f08c379a0000000000000000000000000000000000000000000000000000000008152600401613655906157aa565b60405180910390fd5b828161366a9190615ccc565b6007600086815260200190815260200160002060008773ffffffffffffffffffffffffffffffffffffffff1673ffffffffffffffffffffffffffffffffffffffff16815260200190815260200160002081905550600073ffffffffffffffffffffffffffffffffffffffff168573ffffffffffffffffffffffffffffffffffffffff168373ffffffffffffffffffffffffffffffffffffffff167fc3d58168c5ae7397731d063d5bbf3d657854427343f4c083240f7aacaa2d0f628787604051613735929190615a8e565b60405180910390a45050505050565b61374e82826114c0565b61382057600180600084815260200190815260200160002060000160008373ffffffffffffffffffffffffffffffffffffffff1673ffffffffffffffffffffffffffffffffffffffff16815260200190815260200160002060006101000a81548160ff0219169083151502179055506137c5612411565b73ffffffffffffffffffffffffffffffffffffffff168173ffffffffffffffffffffffffffffffffffffffff16837f2f8788117e7eff1d82e926ec794901d17c78024a50270940304540a733656f0d60405160405180910390a45b5050565b60006138308383613cbf565b61388957826000018290806001815401808255809150506001900390600052602060002001600090919091909150558260000180549050836001016000848152602001908152602001600020819055506001905061388e565b600090505b92915050565b61389e82826114c0565b61392d576138c38173ffffffffffffffffffffffffffffffffffffffff16601461209d565b6138d18360001c602061209d565b6040516020016138e292919061549e565b6040516020818303038152906040526040517f08c379a00000000000000000000000000000000000000000000000000000000081526004016139249190615688565b60405180910390fd5b5050565b600061393c82613ce2565b9050919050565b613951868686868686613dc4565b6139596112b1565b15613999576040517f08c379a0000000000000000000000000000000000000000000000000000000008152600401613990906157ca565b60405180910390fd5b505050505050565b600080823b905060008111915050919050565b6139be82826114c0565b15613a925760006001600084815260200190815260200160002060000160008373ffffffffffffffffffffffffffffffffffffffff1673ffffffffffffffffffffffffffffffffffffffff16815260200190815260200160002060006101000a81548160ff021916908315150217905550613a37612411565b73ffffffffffffffffffffffffffffffffffffffff168173ffffffffffffffffffffffffffffffffffffffff16837ff6391f5c32d9c69d2a47ea670b442974b53935d1edc7fd64eb21e047a839171b60405160405180910390a45b5050565b60008083600101600084815260200190815260200160002054905060008114613c08576000600182613ac89190615ccc565b9050600060018660000180549050613ae09190615ccc565b90506000866000018281548110613b20577f4e487b7100000000000000000000000000000000000000000000000000000000600052603260045260246000fd5b9060005260206000200154905080876000018481548110613b6a577f4e487b7100000000000000000000000000000000000000000000000000000000600052603260045260246000fd5b9060005260206000200181905550838760010160008381526020019081526020016000208190555086600001805480613bcc577f4e487b7100000000000000000000000000000000000000000000000000000000600052603160045260246000fd5b60019003818190600052602060002001600090559055866001016000878152602001908152602001600020600090556001945050505050613c0e565b60009150505b92915050565b600081836000018054905011613c5f576040517f08c379a0000000000000000000000000000000000000000000000000000000008152600401613c56906156ca565b60405180910390fd5b826000018281548110613c9b577f4e487b7100000000000000000000000000000000000000000000000000000000600052603260045260246000fd5b9060005260206000200154905092915050565b600081600001805490509050919050565b600080836001016000848152602001908152602001600020541415905092915050565b60007fd9b67a26000000000000000000000000000000000000000000000000000000007bffffffffffffffffffffffffffffffffffffffffffffffffffffffff1916827bffffffffffffffffffffffffffffffffffffffffffffffffffffffff19161480613dad57507f0e89341c000000000000000000000000000000000000000000000000000000007bffffffffffffffffffffffffffffffffffffffffffffffffffffffff1916827bffffffffffffffffffffffffffffffffffffffffffffffffffffffff1916145b80613dbd5750613dbc82613dcc565b5b9050919050565b505050505050565b60007f5a05180f000000000000000000000000000000000000000000000000000000007bffffffffffffffffffffffffffffffffffffffffffffffffffffffff1916827bffffffffffffffffffffffffffffffffffffffffffffffffffffffff19161480613e3f5750613e3e82613e46565b5b9050919050565b60007f7965db0b000000000000000000000000000000000000000000000000000000007bffffffffffffffffffffffffffffffffffffffffffffffffffffffff1916827bffffffffffffffffffffffffffffffffffffffffffffffffffffffff19161480613eb95750613eb882613ec0565b5b9050919050565b60007f01ffc9a7000000000000000000000000000000000000000000000000000000007bffffffffffffffffffffffffffffffffffffffffffffffffffffffff1916827bffffffffffffffffffffffffffffffffffffffffffffffffffffffff1916149050919050565b6000613f3d613f3884615ae8565b615ab7565b90508083825260208201905082856020860282011115613f5c57600080fd5b60005b85811015613f8c5781613f72888261407e565b845260208401935060208301925050600181019050613f5f565b5050509392505050565b6000613fa9613fa484615b14565b615ab7565b90508083825260208201905082856020860282011115613fc857600080fd5b60005b85811015613ff85781613fde88826141a4565b845260208401935060208301925050600181019050613fcb565b5050509392505050565b600061401561401084615b40565b615ab7565b90508281526020810184848401111561402d57600080fd5b614038848285615d7e565b509392505050565b600061405361404e84615b70565b615ab7565b90508281526020810184848401111561406b57600080fd5b614076848285615d7e565b509392505050565b60008135905061408d81615fc6565b92915050565b6000815190506140a281615fc6565b92915050565b600082601f8301126140b957600080fd5b81356140c9848260208601613f2a565b91505092915050565b600082601f8301126140e357600080fd5b81356140f3848260208601613f96565b91505092915050565b60008135905061410b81615fdd565b92915050565b60008135905061412081615ff4565b92915050565b6000813590506141358161600b565b92915050565b60008151905061414a8161600b565b92915050565b600082601f83011261416157600080fd5b8135614171848260208601614002565b91505092915050565b600082601f83011261418b57600080fd5b813561419b848260208601614040565b91505092915050565b6000813590506141b381616022565b92915050565b6000815190506141c881616022565b92915050565b6000602082840312156141e057600080fd5b60006141ee84828501614093565b91505092915050565b6000806040838503121561420a57600080fd5b60006142188582860161407e565b92505060206142298582860161407e565b9150509250929050565b60008060006060848603121561424857600080fd5b60006142568682870161407e565b93505060206142678682870161407e565b92505060406142788682870161407e565b9150509250925092565b600080600080600060a0868803121561429a57600080fd5b60006142a88882890161407e565b95505060206142b98882890161407e565b945050604086013567ffffffffffffffff8111156142d657600080fd5b6142e2888289016140d2565b935050606086013567ffffffffffffffff8111156142ff57600080fd5b61430b888289016140d2565b925050608086013567ffffffffffffffff81111561432857600080fd5b61433488828901614150565b9150509295509295909350565b600080600080600060a0868803121561435957600080fd5b60006143678882890161407e565b95505060206143788882890161407e565b9450506040614389888289016141a4565b935050606061439a888289016141a4565b925050608086013567ffffffffffffffff8111156143b757600080fd5b6143c388828901614150565b9150509295509295909350565b6000806000606084860312156143e557600080fd5b60006143f38682870161407e565b935050602084013567ffffffffffffffff81111561441057600080fd5b61441c868287016140d2565b925050604084013567ffffffffffffffff81111561443957600080fd5b614445868287016140d2565b9150509250925092565b6000806000806080858703121561446557600080fd5b60006144738782880161407e565b945050602085013567ffffffffffffffff81111561449057600080fd5b61449c878288016140d2565b935050604085013567ffffffffffffffff8111156144b957600080fd5b6144c5878288016140d2565b925050606085013567ffffffffffffffff8111156144e257600080fd5b6144ee87828801614150565b91505092959194509250565b6000806040838503121561450d57600080fd5b600061451b8582860161407e565b925050602061452c858286016140fc565b9150509250929050565b6000806040838503121561454957600080fd5b60006145578582860161407e565b9250506020614568858286016141a4565b9150509250929050565b60008060006060848603121561458757600080fd5b60006145958682870161407e565b93505060206145a6868287016141a4565b92505060406145b7868287016141a4565b9150509250925092565b600080600080608085870312156145d757600080fd5b60006145e58782880161407e565b94505060206145f6878288016141a4565b9350506040614607878288016141a4565b925050606085013567ffffffffffffffff81111561462457600080fd5b61463087828801614150565b91505092959194509250565b6000806040838503121561464f57600080fd5b600083013567ffffffffffffffff81111561466957600080fd5b614675858286016140a8565b925050602083013567ffffffffffffffff81111561469257600080fd5b61469e858286016140d2565b9150509250929050565b6000602082840312156146ba57600080fd5b60006146c884828501614111565b91505092915050565b600080604083850312156146e457600080fd5b60006146f285828601614111565b92505060206147038582860161407e565b9150509250929050565b6000806040838503121561472057600080fd5b600061472e85828601614111565b925050602061473f858286016141a4565b9150509250929050565b60006020828403121561475b57600080fd5b600061476984828501614126565b91505092915050565b60006020828403121561478457600080fd5b60006147928482850161413b565b91505092915050565b6000602082840312156147ad57600080fd5b600082013567ffffffffffffffff8111156147c757600080fd5b6147d38482850161417a565b91505092915050565b6000602082840312156147ee57600080fd5b60006147fc848285016141a4565b91505092915050565b60006020828403121561481757600080fd5b6000614825848285016141b9565b91505092915050565b6000806040838503121561484157600080fd5b600061484f858286016141a4565b925050602083013567ffffffffffffffff81111561486c57600080fd5b6148788582860161417a565b9150509250929050565b600061488e8383615469565b60208301905092915050565b6148a381615d00565b82525050565b60006148b482615bb0565b6148be8185615bde565b93506148c983615ba0565b8060005b838110156148fa5781516148e18882614882565b97506148ec83615bd1565b9250506001810190506148cd565b5085935050505092915050565b61491081615d12565b82525050565b61491f81615d1e565b82525050565b61492e81615d28565b82525050565b600061493f82615bbb565b6149498185615bef565b9350614959818560208601615d8d565b61496281615ef2565b840191505092915050565b600061497882615bc6565b6149828185615c00565b9350614992818560208601615d8d565b61499b81615ef2565b840191505092915050565b60006149b182615bc6565b6149bb8185615c11565b93506149cb818560208601615d8d565b80840191505092915050565b60006149e4603483615c00565b91507f455243313135353a207472616e7366657220746f206e6f6e204552433131353560008301527f526563656976657220696d706c656d656e7465720000000000000000000000006020830152604082019050919050565b6000614a4a602283615c00565b91507f456e756d657261626c655365743a20696e646578206f7574206f6620626f756e60008301527f64730000000000000000000000000000000000000000000000000000000000006020830152604082019050919050565b6000614ab0602083615c00565b91507f537472696e67733a20686578206c656e67746820696e73756666696369656e746000830152602082019050919050565b6000614af0602883615c00565b91507f455243313135353a204552433131353552656365697665722072656a6563746560008301527f6420746f6b656e730000000000000000000000000000000000000000000000006020830152604082019050919050565b6000614b56601483615c00565b91507f5061757361626c653a206e6f74207061757365640000000000000000000000006000830152602082019050919050565b6000614b96602083615c00565b91507f494420746f206c617267652c20736b696e20646f6573206e6f742065786973746000830152602082019050919050565b6000614bd6601583615c00565b91507f4e6f207065726d697373696f6e20746f206d696e7400000000000000000000006000830152602082019050919050565b6000614c16602b83615c00565b91507f455243313135353a2062616c616e636520717565727920666f7220746865207a60008301527f65726f20616464726573730000000000000000000000000000000000000000006020830152604082019050919050565b6000614c7c602483615c00565b91507f455243313135353a206275726e20616d6f756e7420657863656564732062616c60008301527f616e6365000000000000000000000000000000000000000000000000000000006020830152604082019050919050565b6000614ce2602c83615c00565b91507f455243313135355061757361626c653a20746f6b656e207472616e736665722060008301527f7768696c652070617573656400000000000000000000000000000000000000006020830152604082019050919050565b6000614d48602983615c00565b91507f455243313135353a2063616c6c6572206973206e6f74206f776e6572206e6f7260008301527f20617070726f76656400000000000000000000000000000000000000000000006020830152604082019050919050565b6000614dae600b83615c00565b91507f55736572206578697374730000000000000000000000000000000000000000006000830152602082019050919050565b6000614dee601083615c00565b91507f5061757361626c653a20706175736564000000000000000000000000000000006000830152602082019050919050565b6000614e2e601883615c00565b91507f53636f726520746f6f204c6f772f206e6f206368616e676500000000000000006000830152602082019050919050565b6000614e6e602583615c00565b91507f455243313135353a207472616e7366657220746f20746865207a65726f20616460008301527f64726573730000000000000000000000000000000000000000000000000000006020830152604082019050919050565b6000614ed4603283615c00565b91507f455243313135353a207472616e736665722063616c6c6572206973206e6f742060008301527f6f776e6572206e6f7220617070726f76656400000000000000000000000000006020830152604082019050919050565b6000614f3a601983615c00565b91507f436f727265637420616d6f756e74206e6f74206d696e746564000000000000006000830152602082019050919050565b6000614f7a602383615c00565b91507f455243313135353a206275726e2066726f6d20746865207a65726f206164647260008301527f65737300000000000000000000000000000000000000000000000000000000006020830152604082019050919050565b6000614fe0603883615c00565b91507f455243313135355072657365744d696e7465725061757365723a206d7573742060008301527f68617665206d696e74657220726f6c6520746f206d696e7400000000000000006020830152604082019050919050565b6000615046602a83615c00565b91507f455243313135353a20696e73756666696369656e742062616c616e636520666f60008301527f72207472616e73666572000000000000000000000000000000000000000000006020830152604082019050919050565b60006150ac603b83615c00565b91507f455243313135355072657365744d696e7465725061757365723a206d7573742060008301527f686176652070617573657220726f6c6520746f20756e706175736500000000006020830152604082019050919050565b6000615112601283615c00565b91507f5573657220646f65736e277420657869737400000000000000000000000000006000830152602082019050919050565b6000615152603983615c00565b91507f455243313135355072657365744d696e7465725061757365723a206d7573742060008301527f686176652070617573657220726f6c6520746f207061757365000000000000006020830152604082019050919050565b60006151b8601783615c11565b91507f416363657373436f6e74726f6c3a206163636f756e74200000000000000000006000830152601782019050919050565b60006151f8602983615c00565b91507f455243313135353a2073657474696e6720617070726f76616c2073746174757360008301527f20666f722073656c6600000000000000000000000000000000000000000000006020830152604082019050919050565b600061525e602983615c00565b91507f455243313135353a206163636f756e747320616e6420696473206c656e67746860008301527f206d69736d6174636800000000000000000000000000000000000000000000006020830152604082019050919050565b60006152c4602883615c00565b91507f455243313135353a2069647320616e6420616d6f756e7473206c656e6774682060008301527f6d69736d617463680000000000000000000000000000000000000000000000006020830152604082019050919050565b600061532a602183615c00565b91507f455243313135353a206d696e7420746f20746865207a65726f2061646472657360008301527f73000000000000000000000000000000000000000000000000000000000000006020830152604082019050919050565b6000615390601283615c00565b91507f446f6573206e6f74206861766520726f6c6500000000000000000000000000006000830152602082019050919050565b60006153d0601183615c11565b91507f206973206d697373696e6720726f6c65200000000000000000000000000000006000830152601182019050919050565b6000615410602f83615c00565b91507f416363657373436f6e74726f6c3a2063616e206f6e6c792072656e6f756e636560008301527f20726f6c657320666f722073656c6600000000000000000000000000000000006020830152604082019050919050565b61547281615d74565b82525050565b61548181615d74565b82525050565b600061549382846149a6565b915081905092915050565b60006154a9826151ab565b91506154b582856149a6565b91506154c0826153c3565b91506154cc82846149a6565b91508190509392505050565b60006020820190506154ed600083018461489a565b92915050565b6000604082019050615508600083018561489a565b615515602083018461489a565b9392505050565b600060a082019050615531600083018861489a565b61553e602083018761489a565b818103604083015261555081866148a9565b9050818103606083015261556481856148a9565b905081810360808301526155788184614934565b90509695505050505050565b600060a082019050615599600083018861489a565b6155a6602083018761489a565b6155b36040830186615478565b6155c06060830185615478565b81810360808301526155d28184614934565b90509695505050505050565b600060208201905081810360008301526155f881846148a9565b905092915050565b6000604082019050818103600083015261561a81856148a9565b9050818103602083015261562e81846148a9565b90509392505050565b600060208201905061564c6000830184614907565b92915050565b60006020820190506156676000830184614916565b92915050565b60006020820190506156826000830184614925565b92915050565b600060208201905081810360008301526156a2818461496d565b905092915050565b600060208201905081810360008301526156c3816149d7565b9050919050565b600060208201905081810360008301526156e381614a3d565b9050919050565b6000602082019050818103600083015261570381614aa3565b9050919050565b6000602082019050818103600083015261572381614ae3565b9050919050565b6000602082019050818103600083015261574381614b49565b9050919050565b6000602082019050818103600083015261576381614b89565b9050919050565b6000602082019050818103600083015261578381614bc9565b9050919050565b600060208201905081810360008301526157a381614c09565b9050919050565b600060208201905081810360008301526157c381614c6f565b9050919050565b600060208201905081810360008301526157e381614cd5565b9050919050565b6000602082019050818103600083015261580381614d3b565b9050919050565b6000602082019050818103600083015261582381614da1565b9050919050565b6000602082019050818103600083015261584381614de1565b9050919050565b6000602082019050818103600083015261586381614e21565b9050919050565b6000602082019050818103600083015261588381614e61565b9050919050565b600060208201905081810360008301526158a381614ec7565b9050919050565b600060208201905081810360008301526158c381614f2d565b9050919050565b600060208201905081810360008301526158e381614f6d565b9050919050565b6000602082019050818103600083015261590381614fd3565b9050919050565b6000602082019050818103600083015261592381615039565b9050919050565b600060208201905081810360008301526159438161509f565b9050919050565b6000602082019050818103600083015261596381615105565b9050919050565b6000602082019050818103600083015261598381615145565b9050919050565b600060208201905081810360008301526159a3816151eb565b9050919050565b600060208201905081810360008301526159c381615251565b9050919050565b600060208201905081810360008301526159e3816152b7565b9050919050565b60006020820190508181036000830152615a038161531d565b9050919050565b60006020820190508181036000830152615a2381615383565b9050919050565b60006020820190508181036000830152615a4381615403565b9050919050565b6000602082019050615a5f6000830184615478565b92915050565b6000604082019050615a7a6000830185615478565b615a87602083018461489a565b9392505050565b6000604082019050615aa36000830185615478565b615ab06020830184615478565b9392505050565b6000604051905081810181811067ffffffffffffffff82111715615ade57615add615ec3565b5b8060405250919050565b600067ffffffffffffffff821115615b0357615b02615ec3565b5b602082029050602081019050919050565b600067ffffffffffffffff821115615b2f57615b2e615ec3565b5b602082029050602081019050919050565b600067ffffffffffffffff821115615b5b57615b5a615ec3565b5b601f19601f8301169050602081019050919050565b600067ffffffffffffffff821115615b8b57615b8a615ec3565b5b601f19601f8301169050602081019050919050565b6000819050602082019050919050565b600081519050919050565b600081519050919050565b600081519050919050565b6000602082019050919050565b600082825260208201905092915050565b600082825260208201905092915050565b600082825260208201905092915050565b600081905092915050565b6000615c2782615d74565b9150615c3283615d74565b9250827fffffffffffffffffffffffffffffffffffffffffffffffffffffffffffffffff03821115615c6757615c66615e65565b5b828201905092915050565b6000615c7d82615d74565b9150615c8883615d74565b9250817fffffffffffffffffffffffffffffffffffffffffffffffffffffffffffffffff0483118215151615615cc157615cc0615e65565b5b828202905092915050565b6000615cd782615d74565b9150615ce283615d74565b925082821015615cf557615cf4615e65565b5b828203905092915050565b6000615d0b82615d54565b9050919050565b60008115159050919050565b6000819050919050565b60007fffffffff0000000000000000000000000000000000000000000000000000000082169050919050565b600073ffffffffffffffffffffffffffffffffffffffff82169050919050565b6000819050919050565b82818337600083830152505050565b60005b83811015615dab578082015181840152602081019050615d90565b83811115615dba576000848401525b50505050565b6000615dcb82615d74565b91506000821415615ddf57615dde615e65565b5b600182039050919050565b60006002820490506001821680615e0257607f821691505b60208210811415615e1657615e15615e94565b5b50919050565b6000615e2782615d74565b91507fffffffffffffffffffffffffffffffffffffffffffffffffffffffffffffffff821415615e5a57615e59615e65565b5b600182019050919050565b7f4e487b7100000000000000000000000000000000000000000000000000000000600052601160045260246000fd5b7f4e487b7100000000000000000000000000000000000000000000000000000000600052602260045260246000fd5b7f4e487b7100000000000000000000000000000000000000000000000000000000600052604160045260246000fd5b6000601f19601f8301169050919050565b60008160e01c9050919050565b600060443d1015615f2057615fc3565b60046000803e615f31600051615f03565b6308c379a08114615f425750615fc3565b60405160043d036004823e80513d602482011167ffffffffffffffff82111715615f6e57505050615fc3565b808201805167ffffffffffffffff811115615f8d575050505050615fc3565b8060208301013d8501811115615fa857505050505050615fc3565b615fb182615ef2565b60208401016040528296505050505050505b90565b615fcf81615d00565b8114615fda57600080fd5b50565b615fe681615d12565b8114615ff157600080fd5b50565b615ffd81615d1e565b811461600857600080fd5b50565b61601481615d28565b811461601f57600080fd5b50565b61602b81615d74565b811461603657600080fd5b5056fea2646970667358221220711f284f8fab8bfdc3ecc1002fd3c0f95a3189e6e0ffaf9a272947d3e7acb5e864736f6c63430008000033",
  "linkReferences": {},
  "deployedLinkReferences": {}
}