{
  "_format": "hh-sol-artifact-1",
  "contractName": "CS_Skin",
  "sourceName": "contracts/CS_Skin.sol",
  "abi": [
    {
      "inputs": [],
      "stateMutability": "nonpayable",
      "type": "constructor"
    },
    {
      "anonymous": false,
      "inputs": [
        {
          "indexed": true,
          "internalType": "bytes32",
          "name": "role",
          "type": "bytes32"
        },
        {
          "indexed": true,
          "internalType": "bytes32",
          "name": "previousAdminRole",
          "type": "bytes32"
        },
        {
          "indexed": true,
          "internalType": "bytes32",
          "name": "newAdminRole",
          "type": "bytes32"
        }
      ],
      "name": "RoleAdminChanged",
      "type": "event"
    },
    {
      "anonymous": false,
      "inputs": [
        {
          "indexed": true,
          "internalType": "bytes32",
          "name": "role",
          "type": "bytes32"
        },
        {
          "indexed": true,
          "internalType": "address",
          "name": "account",
          "type": "address"
        },
        {
          "indexed": true,
          "internalType": "address",
          "name": "sender",
          "type": "address"
        }
      ],
      "name": "RoleGranted",
      "type": "event"
    },
    {
      "anonymous": false,
      "inputs": [
        {
          "indexed": true,
          "internalType": "bytes32",
          "name": "role",
          "type": "bytes32"
        },
        {
          "indexed": true,
          "internalType": "address",
          "name": "account",
          "type": "address"
        },
        {
          "indexed": true,
          "internalType": "address",
          "name": "sender",
          "type": "address"
        }
      ],
      "name": "RoleRevoked",
      "type": "event"
    },
    {
      "inputs": [],
      "name": "DEFAULT_ADMIN_ROLE",
      "outputs": [
        {
          "internalType": "bytes32",
          "name": "",
          "type": "bytes32"
        }
      ],
      "stateMutability": "view",
      "type": "function"
    },
    {
      "inputs": [],
      "name": "MINTER_ROLE",
      "outputs": [
        {
          "internalType": "bytes32",
          "name": "",
          "type": "bytes32"
        }
      ],
      "stateMutability": "view",
      "type": "function"
    },
    {
      "inputs": [
        {
          "internalType": "string",
          "name": "_id",
          "type": "string"
        }
      ],
      "name": "getAddress",
      "outputs": [
        {
          "internalType": "address",
          "name": "",
          "type": "address"
        }
      ],
      "stateMutability": "view",
      "type": "function"
    },
    {
      "inputs": [
        {
          "internalType": "bytes32",
          "name": "role",
          "type": "bytes32"
        }
      ],
      "name": "getRoleAdmin",
      "outputs": [
        {
          "internalType": "bytes32",
          "name": "",
          "type": "bytes32"
        }
      ],
      "stateMutability": "view",
      "type": "function"
    },
    {
      "inputs": [
        {
          "internalType": "bytes32",
          "name": "role",
          "type": "bytes32"
        },
        {
          "internalType": "uint256",
          "name": "index",
          "type": "uint256"
        }
      ],
      "name": "getRoleMember",
      "outputs": [
        {
          "internalType": "address",
          "name": "",
          "type": "address"
        }
      ],
      "stateMutability": "view",
      "type": "function"
    },
    {
      "inputs": [
        {
          "internalType": "bytes32",
          "name": "role",
          "type": "bytes32"
        }
      ],
      "name": "getRoleMemberCount",
      "outputs": [
        {
          "internalType": "uint256",
          "name": "",
          "type": "uint256"
        }
      ],
      "stateMutability": "view",
      "type": "function"
    },
    {
      "inputs": [
        {
          "internalType": "string",
          "name": "_id",
          "type": "string"
        }
      ],
      "name": "getScore",
      "outputs": [
        {
          "internalType": "uint256",
          "name": "",
          "type": "uint256"
        }
      ],
      "stateMutability": "view",
      "type": "function"
    },
    {
      "inputs": [
        {
          "internalType": "bytes32",
          "name": "role",
          "type": "bytes32"
        },
        {
          "internalType": "address",
          "name": "account",
          "type": "address"
        }
      ],
      "name": "grantRole",
      "outputs": [],
      "stateMutability": "nonpayable",
      "type": "function"
    },
    {
      "inputs": [
        {
          "internalType": "bytes32",
          "name": "role",
          "type": "bytes32"
        },
        {
          "internalType": "address",
          "name": "account",
          "type": "address"
        }
      ],
      "name": "hasRole",
      "outputs": [
        {
          "internalType": "bool",
          "name": "",
          "type": "bool"
        }
      ],
      "stateMutability": "view",
      "type": "function"
    },
    {
      "inputs": [
        {
          "internalType": "bytes32",
          "name": "role",
          "type": "bytes32"
        },
        {
          "internalType": "address",
          "name": "account",
          "type": "address"
        }
      ],
      "name": "renounceRole",
      "outputs": [],
      "stateMutability": "nonpayable",
      "type": "function"
    },
    {
      "inputs": [
        {
          "internalType": "bytes32",
          "name": "role",
          "type": "bytes32"
        },
        {
          "internalType": "address",
          "name": "account",
          "type": "address"
        }
      ],
      "name": "revokeRole",
      "outputs": [],
      "stateMutability": "nonpayable",
      "type": "function"
    },
    {
      "inputs": [
        {
          "internalType": "address",
          "name": "_FAH",
          "type": "address"
        },
        {
          "internalType": "address",
          "name": "_CS_Case",
          "type": "address"
        }
      ],
      "name": "setContracts",
      "outputs": [],
      "stateMutability": "nonpayable",
      "type": "function"
    },
    {
      "inputs": [
        {
          "internalType": "uint256",
          "name": "_score",
          "type": "uint256"
        },
        {
          "internalType": "string",
          "name": "_id",
          "type": "string"
        }
      ],
      "name": "signUp",
      "outputs": [],
      "stateMutability": "nonpayable",
      "type": "function"
    },
    {
      "inputs": [
        {
          "internalType": "bytes4",
          "name": "interfaceId",
          "type": "bytes4"
        }
      ],
      "name": "supportsInterface",
      "outputs": [
        {
          "internalType": "bool",
          "name": "",
          "type": "bool"
        }
      ],
      "stateMutability": "view",
      "type": "function"
    },
    {
      "inputs": [
        {
          "internalType": "uint256",
          "name": "_score",
          "type": "uint256"
        },
        {
          "internalType": "string",
          "name": "_id",
          "type": "string"
        }
      ],
      "name": "updateScore",
      "outputs": [],
      "stateMutability": "nonpayable",
      "type": "function"
    },
    {
      "inputs": [
        {
          "internalType": "string",
          "name": "_id",
          "type": "string"
        }
      ],
      "name": "userExists",
      "outputs": [
        {
          "internalType": "bool",
          "name": "",
          "type": "bool"
        }
      ],
      "stateMutability": "view",
      "type": "function"
    }
  ],
  "bytecode": "0x60806040523480156200001157600080fd5b50620000537f9f2df0fed2c77648de5860a4cc508cd0818c85b8b8a1ab4ceeef8d981c8956a6620000476200005960201b60201c565b6200006160201b60201c565b620002f0565b600033905090565b620000788282620000a960201b6200093c1760201c565b620000a48160026000858152602001908152602001600020620000bf60201b6200094a1790919060201c565b505050565b620000bb8282620000f760201b60201c565b5050565b6000620000ef836000018373ffffffffffffffffffffffffffffffffffffffff1660001b620001e860201b60201c565b905092915050565b6200010982826200026260201b60201c565b620001e457600180600084815260200190815260200160002060000160008373ffffffffffffffffffffffffffffffffffffffff1673ffffffffffffffffffffffffffffffffffffffff16815260200190815260200160002060006101000a81548160ff021916908315150217905550620001896200005960201b60201c565b73ffffffffffffffffffffffffffffffffffffffff168173ffffffffffffffffffffffffffffffffffffffff16837f2f8788117e7eff1d82e926ec794901d17c78024a50270940304540a733656f0d60405160405180910390a45b5050565b6000620001fc8383620002cd60201b60201c565b620002575782600001829080600181540180825580915050600190039060005260206000200160009091909190915055826000018054905083600101600084815260200190815260200160002081905550600190506200025c565b600090505b92915050565b60006001600084815260200190815260200160002060000160008373ffffffffffffffffffffffffffffffffffffffff1673ffffffffffffffffffffffffffffffffffffffff16815260200190815260200160002060009054906101000a900460ff16905092915050565b600080836001016000848152602001908152602001600020541415905092915050565b61224380620003006000396000f3fe608060405234801561001057600080fd5b50600436106101005760003560e01c8063a217fddf11610097578063d539139311610066578063d5391393146102e3578063d547741f14610301578063d8952a491461031d578063fddc968e1461033957610100565b8063a217fddf14610249578063bf40fac114610267578063ca15c87314610297578063d179277d146102c757610100565b80632f2ff15d116100d35780632f2ff15d146101b157806336568abe146101cd5780639010d07c146101e957806391d148541461021957610100565b806301ffc9a7146101055780631602027314610135578063248a9ca3146101655780632bf4ec8514610195575b600080fd5b61011f600480360381019061011a919061188b565b610369565b60405161012c9190611d50565b60405180910390f35b61014f600480360381019061014a91906118b4565b6103e3565b60405161015c9190611ea8565b60405180910390f35b61017f600480360381019061017a91906117ea565b610456565b60405161018c9190611d6b565b60405180910390f35b6101af60048036038101906101aa919061191e565b610476565b005b6101cb60048036038101906101c69190611813565b6105d2565b005b6101e760048036038101906101e29190611813565b610606565b005b61020360048036038101906101fe919061184f565b61063a565b6040516102109190611d35565b60405180910390f35b610233600480360381019061022e9190611813565b610669565b6040516102409190611d50565b60405180910390f35b6102516106d4565b60405161025e9190611d6b565b60405180910390f35b610281600480360381019061027c91906118b4565b6106db565b60405161028e9190611d35565b60405180910390f35b6102b160048036038101906102ac91906117ea565b61076e565b6040516102be9190611ea8565b60405180910390f35b6102e160048036038101906102dc919061191e565b610792565b005b6102eb6107b7565b6040516102f89190611d6b565b60405180910390f35b61031b60048036038101906103169190611813565b6107db565b005b610337600480360381019061033291906117ae565b61080f565b005b610353600480360381019061034e91906118b4565b610905565b6040516103609190611d50565b60405180910390f35b60007f5a05180f000000000000000000000000000000000000000000000000000000007bffffffffffffffffffffffffffffffffffffffffffffffffffffffff1916827bffffffffffffffffffffffffffffffffffffffffffffffffffffffff191614806103dc57506103db8261097a565b5b9050919050565b60006103ee82610905565b61042d576040517f08c379a000000000000000000000000000000000000000000000000000000000815260040161042490611e48565b60405180910390fd5b60008260405161043d9190611ce4565b9081526020016040518091039020600101549050919050565b600060016000838152602001908152602001600020600101549050919050565b61047f81610905565b156104bf576040517f08c379a00000000000000000000000000000000000000000000000000000000081526004016104b690611de8565b60405180910390fd5b816000826040516104d09190611ce4565b90815260200160405180910390206001018190555060016000826040516104f79190611ce4565b908152602001604051809103902060000160006101000a81548160ff0219169083151502179055506105276109f4565b6000826040516105379190611ce4565b908152602001604051809103902060020160006101000a81548173ffffffffffffffffffffffffffffffffffffffff021916908373ffffffffffffffffffffffffffffffffffffffff16021790555061058f81610905565b6105ce576040517f08c379a00000000000000000000000000000000000000000000000000000000081526004016105c590611e48565b60405180910390fd5b5050565b6105dc82826109fc565b610601816002600085815260200190815260200160002061094a90919063ffffffff16565b505050565b6106108282610a25565b6106358160026000858152602001908152602001600020610aa890919063ffffffff16565b505050565b60006106618260026000868152602001908152602001600020610ad890919063ffffffff16565b905092915050565b60006001600084815260200190815260200160002060000160008373ffffffffffffffffffffffffffffffffffffffff1673ffffffffffffffffffffffffffffffffffffffff16815260200190815260200160002060009054906101000a900460ff16905092915050565b6000801b81565b60006106e682610905565b610725576040517f08c379a000000000000000000000000000000000000000000000000000000000815260040161071c90611e48565b60405180910390fd5b6000826040516107359190611ce4565b908152602001604051809103902060020160009054906101000a900473ffffffffffffffffffffffffffffffffffffffff169050919050565b600061078b60026000848152602001908152602001600020610af2565b9050919050565b600061079e8383610b07565b90506107b2816107ad846106db565b610bfb565b505050565b7f9f2df0fed2c77648de5860a4cc508cd0818c85b8b8a1ab4ceeef8d981c8956a681565b6107e58282610e35565b61080a8160026000858152602001908152602001600020610aa890919063ffffffff16565b505050565b6108407f9f2df0fed2c77648de5860a4cc508cd0818c85b8b8a1ab4ceeef8d981c8956a661083b6109f4565b610669565b61087f576040517f08c379a000000000000000000000000000000000000000000000000000000000815260040161087690611e68565b60405180910390fd5b81600360006101000a81548173ffffffffffffffffffffffffffffffffffffffff021916908373ffffffffffffffffffffffffffffffffffffffff16021790555080600460006101000a81548173ffffffffffffffffffffffffffffffffffffffff021916908373ffffffffffffffffffffffffffffffffffffffff1602179055505050565b600080826040516109169190611ce4565b908152602001604051809103902060000160009054906101000a900460ff169050919050565b6109468282610e5e565b5050565b6000610972836000018373ffffffffffffffffffffffffffffffffffffffff1660001b610f3e565b905092915050565b60007f7965db0b000000000000000000000000000000000000000000000000000000007bffffffffffffffffffffffffffffffffffffffffffffffffffffffff1916827bffffffffffffffffffffffffffffffffffffffffffffffffffffffff191614806109ed57506109ec82610fae565b5b9050919050565b600033905090565b610a0582610456565b610a1681610a116109f4565b611018565b610a208383610e5e565b505050565b610a2d6109f4565b73ffffffffffffffffffffffffffffffffffffffff168173ffffffffffffffffffffffffffffffffffffffff1614610a9a576040517f08c379a0000000000000000000000000000000000000000000000000000000008152600401610a9190611e88565b60405180910390fd5b610aa482826110b5565b5050565b6000610ad0836000018373ffffffffffffffffffffffffffffffffffffffff1660001b611197565b905092915050565b6000610ae78360000183611315565b60001c905092915050565b6000610b00826000016113af565b9050919050565b6000610b1282610905565b610b51576040517f08c379a0000000000000000000000000000000000000000000000000000000008152600401610b4890611e48565b60405180910390fd5b82610b5b836103e3565b10610b9b576040517f08c379a0000000000000000000000000000000000000000000000000000000008152600401610b9290611e08565b60405180910390fd5b60008083604051610bac9190611ce4565b90815260200160405180910390206001015484610bc99190612024565b905083600084604051610bdc9190611ce4565b9081526020016040518091039020600101819055508091505092915050565b6000600360009054906101000a900473ffffffffffffffffffffffffffffffffffffffff1673ffffffffffffffffffffffffffffffffffffffff166370a08231836040518263ffffffff1660e01b8152600401610c589190611d35565b60206040518083038186803b158015610c7057600080fd5b505afa158015610c84573d6000803e3d6000fd5b505050506040513d601f19601f82011682018060405250810190610ca891906118f5565b9050600360009054906101000a900473ffffffffffffffffffffffffffffffffffffffff1673ffffffffffffffffffffffffffffffffffffffff166339a8c66184846040518363ffffffff1660e01b8152600401610d07929190611ec3565b600060405180830381600087803b158015610d2157600080fd5b505af1158015610d35573d6000803e3d6000fd5b505050508281600360009054906101000a900473ffffffffffffffffffffffffffffffffffffffff1673ffffffffffffffffffffffffffffffffffffffff166370a08231856040518263ffffffff1660e01b8152600401610d969190611d35565b60206040518083038186803b158015610dae57600080fd5b505afa158015610dc2573d6000803e3d6000fd5b505050506040513d601f19601f82011682018060405250810190610de691906118f5565b610df09190612024565b14610e30576040517f08c379a0000000000000000000000000000000000000000000000000000000008152600401610e2790611e28565b60405180910390fd5b505050565b610e3e82610456565b610e4f81610e4a6109f4565b611018565b610e5983836110b5565b505050565b610e688282610669565b610f3a57600180600084815260200190815260200160002060000160008373ffffffffffffffffffffffffffffffffffffffff1673ffffffffffffffffffffffffffffffffffffffff16815260200190815260200160002060006101000a81548160ff021916908315150217905550610edf6109f4565b73ffffffffffffffffffffffffffffffffffffffff168173ffffffffffffffffffffffffffffffffffffffff16837f2f8788117e7eff1d82e926ec794901d17c78024a50270940304540a733656f0d60405160405180910390a45b5050565b6000610f4a83836113c0565b610fa3578260000182908060018154018082558091505060019003906000526020600020016000909190919091505582600001805490508360010160008481526020019081526020016000208190555060019050610fa8565b600090505b92915050565b60007f01ffc9a7000000000000000000000000000000000000000000000000000000007bffffffffffffffffffffffffffffffffffffffffffffffffffffffff1916827bffffffffffffffffffffffffffffffffffffffffffffffffffffffff1916149050919050565b6110228282610669565b6110b1576110478173ffffffffffffffffffffffffffffffffffffffff1660146113e3565b6110558360001c60206113e3565b604051602001611066929190611cfb565b6040516020818303038152906040526040517f08c379a00000000000000000000000000000000000000000000000000000000081526004016110a89190611d86565b60405180910390fd5b5050565b6110bf8282610669565b156111935760006001600084815260200190815260200160002060000160008373ffffffffffffffffffffffffffffffffffffffff1673ffffffffffffffffffffffffffffffffffffffff16815260200190815260200160002060006101000a81548160ff0219169083151502179055506111386109f4565b73ffffffffffffffffffffffffffffffffffffffff168173ffffffffffffffffffffffffffffffffffffffff16837ff6391f5c32d9c69d2a47ea670b442974b53935d1edc7fd64eb21e047a839171b60405160405180910390a45b5050565b600080836001016000848152602001908152602001600020549050600081146113095760006001826111c99190612024565b90506000600186600001805490506111e19190612024565b90506000866000018281548110611221577f4e487b7100000000000000000000000000000000000000000000000000000000600052603260045260246000fd5b906000526020600020015490508087600001848154811061126b577f4e487b7100000000000000000000000000000000000000000000000000000000600052603260045260246000fd5b90600052602060002001819055508387600101600083815260200190815260200160002081905550866000018054806112cd577f4e487b7100000000000000000000000000000000000000000000000000000000600052603160045260246000fd5b6001900381819060005260206000200160009055905586600101600087815260200190815260200160002060009055600194505050505061130f565b60009150505b92915050565b600081836000018054905011611360576040517f08c379a000000000000000000000000000000000000000000000000000000000815260040161135790611da8565b60405180910390fd5b82600001828154811061139c577f4e487b7100000000000000000000000000000000000000000000000000000000600052603260045260246000fd5b9060005260206000200154905092915050565b600081600001805490509050919050565b600080836001016000848152602001908152602001600020541415905092915050565b6060600060028360026113f69190611fca565b6114009190611f74565b67ffffffffffffffff81111561143f577f4e487b7100000000000000000000000000000000000000000000000000000000600052604160045260246000fd5b6040519080825280601f01601f1916602001820160405280156114715781602001600182028036833780820191505090505b5090507f3000000000000000000000000000000000000000000000000000000000000000816000815181106114cf577f4e487b7100000000000000000000000000000000000000000000000000000000600052603260045260246000fd5b60200101907effffffffffffffffffffffffffffffffffffffffffffffffffffffffffffff1916908160001a9053507f780000000000000000000000000000000000000000000000000000000000000081600181518110611559577f4e487b7100000000000000000000000000000000000000000000000000000000600052603260045260246000fd5b60200101907effffffffffffffffffffffffffffffffffffffffffffffffffffffffffffff1916908160001a905350600060018460026115999190611fca565b6115a39190611f74565b90505b600181111561168f577f3031323334353637383961626364656600000000000000000000000000000000600f86166010811061160b577f4e487b7100000000000000000000000000000000000000000000000000000000600052603260045260246000fd5b1a60f81b828281518110611648577f4e487b7100000000000000000000000000000000000000000000000000000000600052603260045260246000fd5b60200101907effffffffffffffffffffffffffffffffffffffffffffffffffffffffffffff1916908160001a905350600485901c94508061168890612118565b90506115a6565b50600084146116d3576040517f08c379a00000000000000000000000000000000000000000000000000000000081526004016116ca90611dc8565b60405180910390fd5b8091505092915050565b60006116f06116eb84611f1d565b611eec565b90508281526020810184848401111561170857600080fd5b6117138482856120d6565b509392505050565b60008135905061172a816121b1565b92915050565b60008135905061173f816121c8565b92915050565b600081359050611754816121df565b92915050565b600082601f83011261176b57600080fd5b813561177b8482602086016116dd565b91505092915050565b600081359050611793816121f6565b92915050565b6000815190506117a8816121f6565b92915050565b600080604083850312156117c157600080fd5b60006117cf8582860161171b565b92505060206117e08582860161171b565b9150509250929050565b6000602082840312156117fc57600080fd5b600061180a84828501611730565b91505092915050565b6000806040838503121561182657600080fd5b600061183485828601611730565b92505060206118458582860161171b565b9150509250929050565b6000806040838503121561186257600080fd5b600061187085828601611730565b925050602061188185828601611784565b9150509250929050565b60006020828403121561189d57600080fd5b60006118ab84828501611745565b91505092915050565b6000602082840312156118c657600080fd5b600082013567ffffffffffffffff8111156118e057600080fd5b6118ec8482850161175a565b91505092915050565b60006020828403121561190757600080fd5b600061191584828501611799565b91505092915050565b6000806040838503121561193157600080fd5b600061193f85828601611784565b925050602083013567ffffffffffffffff81111561195c57600080fd5b6119688582860161175a565b9150509250929050565b61197b81612058565b82525050565b61198a8161206a565b82525050565b61199981612076565b82525050565b60006119aa82611f4d565b6119b48185611f58565b93506119c48185602086016120e5565b6119cd816121a0565b840191505092915050565b60006119e382611f4d565b6119ed8185611f69565b93506119fd8185602086016120e5565b80840191505092915050565b6000611a16602283611f58565b91507f456e756d657261626c655365743a20696e646578206f7574206f6620626f756e60008301527f64730000000000000000000000000000000000000000000000000000000000006020830152604082019050919050565b6000611a7c602083611f58565b91507f537472696e67733a20686578206c656e67746820696e73756666696369656e746000830152602082019050919050565b6000611abc600b83611f58565b91507f55736572206578697374730000000000000000000000000000000000000000006000830152602082019050919050565b6000611afc601883611f58565b91507f53636f726520746f6f204c6f772f206e6f206368616e676500000000000000006000830152602082019050919050565b6000611b3c601983611f58565b91507f436f727265637420616d6f756e74206e6f74206d696e746564000000000000006000830152602082019050919050565b6000611b7c601283611f58565b91507f5573657220646f65736e277420657869737400000000000000000000000000006000830152602082019050919050565b6000611bbc601783611f69565b91507f416363657373436f6e74726f6c3a206163636f756e74200000000000000000006000830152601782019050919050565b6000611bfc601283611f58565b91507f446f6573206e6f74206861766520726f6c6500000000000000000000000000006000830152602082019050919050565b6000611c3c601183611f69565b91507f206973206d697373696e6720726f6c65200000000000000000000000000000006000830152601182019050919050565b6000611c7c602f83611f58565b91507f416363657373436f6e74726f6c3a2063616e206f6e6c792072656e6f756e636560008301527f20726f6c657320666f722073656c6600000000000000000000000000000000006020830152604082019050919050565b611cde816120cc565b82525050565b6000611cf082846119d8565b915081905092915050565b6000611d0682611baf565b9150611d1282856119d8565b9150611d1d82611c2f565b9150611d2982846119d8565b91508190509392505050565b6000602082019050611d4a6000830184611972565b92915050565b6000602082019050611d656000830184611981565b92915050565b6000602082019050611d806000830184611990565b92915050565b60006020820190508181036000830152611da0818461199f565b905092915050565b60006020820190508181036000830152611dc181611a09565b9050919050565b60006020820190508181036000830152611de181611a6f565b9050919050565b60006020820190508181036000830152611e0181611aaf565b9050919050565b60006020820190508181036000830152611e2181611aef565b9050919050565b60006020820190508181036000830152611e4181611b2f565b9050919050565b60006020820190508181036000830152611e6181611b6f565b9050919050565b60006020820190508181036000830152611e8181611bef565b9050919050565b60006020820190508181036000830152611ea181611c6f565b9050919050565b6000602082019050611ebd6000830184611cd5565b92915050565b6000604082019050611ed86000830185611cd5565b611ee56020830184611972565b9392505050565b6000604051905081810181811067ffffffffffffffff82111715611f1357611f12612171565b5b8060405250919050565b600067ffffffffffffffff821115611f3857611f37612171565b5b601f19601f8301169050602081019050919050565b600081519050919050565b600082825260208201905092915050565b600081905092915050565b6000611f7f826120cc565b9150611f8a836120cc565b9250827fffffffffffffffffffffffffffffffffffffffffffffffffffffffffffffffff03821115611fbf57611fbe612142565b5b828201905092915050565b6000611fd5826120cc565b9150611fe0836120cc565b9250817fffffffffffffffffffffffffffffffffffffffffffffffffffffffffffffffff048311821515161561201957612018612142565b5b828202905092915050565b600061202f826120cc565b915061203a836120cc565b92508282101561204d5761204c612142565b5b828203905092915050565b6000612063826120ac565b9050919050565b60008115159050919050565b6000819050919050565b60007fffffffff0000000000000000000000000000000000000000000000000000000082169050919050565b600073ffffffffffffffffffffffffffffffffffffffff82169050919050565b6000819050919050565b82818337600083830152505050565b60005b838110156121035780820151818401526020810190506120e8565b83811115612112576000848401525b50505050565b6000612123826120cc565b9150600082141561213757612136612142565b5b600182039050919050565b7f4e487b7100000000000000000000000000000000000000000000000000000000600052601160045260246000fd5b7f4e487b7100000000000000000000000000000000000000000000000000000000600052604160045260246000fd5b6000601f19601f8301169050919050565b6121ba81612058565b81146121c557600080fd5b50565b6121d181612076565b81146121dc57600080fd5b50565b6121e881612080565b81146121f357600080fd5b50565b6121ff816120cc565b811461220a57600080fd5b5056fea2646970667358221220e4e08cc2f91c3369aff66c0bfe030dec26d35e4d14aa75b45060d1376c52992a64736f6c63430008000033",
  "linkReferences": {},
  "deployedLinkReferences": {}
}